:100000000C9440010C9471010C9471010C947101D9
:100010000C9471010C9471010C9471010C94710198
:100020000C9471010C9471010C9471010C94710188
:100030000C9471010C9471010C9471010C94710178
:100040000C9471010C94B30A0C9471010C9471011D
:100050000C9471010C9471010C9471010C947F0942
:100060000C9471010C94F3090C94C9090C9471015E
:100070000C9471010C9471010C9471010C94710138
:100080000C94850A0C9471010C9471010C9471010B
:100090000C9471010C9471010C9471010C94710118
:1000A0000C9471010C9471010C94570A0C94710119
:1000B0000C9471010C9471010C9471010C94290A37
:1000C0000C9471010C9471010C9471010C947101E8
:1000D0000C9471010C9471010C9471010C947101D8
:1000E0000C9471010C94A3020C94A9020C94AA0420
:1000F0000C9495020C9476040C9445050C945C02C7
:100100000C940D050C9487020C947A020C947D02D9
:100110000C94FF040C94AD020C9491020C945702C1
:100120000C946E020C9492050C9472020C94B90417
:100130000C9476020C948D020C9483020C949F0212
:100140000C949B020C94050B50524F544F204F4B74
:1001500020310050524F544F204F4B2032000000AE
:100160002100240027002A002D0030003300010167
:100170000000040107010A010000220025002800F8
:100180002B002E003100340002010000050108019F
:100190000B0100000A0B02090C0D0E0807030401F5
:1001A000000000000000000000000000000000004F
:1001B000000000000000000000000000000012111C
:1001C000100000000000000000000000000000001F
:1001D00000000000000000000000200023002600B6
:1001E00029002C002F00320000010000030106014D
:1001F00009010505050507050808080802020202AD
:100200000A0A0808040404040101010101010101B2
:100210000303030303030303040707070C0C0C0C7D
:100220000C0C0C0C02020202060606060606060666
:100230000B0B0B0B0B0B0B0B0102102020080810F3
:100240002040102040800201020108040201010246
:10025000040810204080804020100804020180041F
:10026000020180402010080402010804020101027A
:100270000408102040800102040810204080050B73
:1002800011241FBECFEFD1E2DEBFCDBF00E00CBF17
:1002900012E0A0E0B2E0E4E8FCE200E00BBF02C044
:1002A00007900D92AC3CB107D9F724E0ACECB2E07A
:1002B00001C01D92AA32B207E1F711E0C0E4D1E01B
:1002C00000E006C021970109802FFE010E940B1457
:1002D000CF33D10780E00807A9F70E947E0B0C946A
:1002E00040160C940000CF92DF92EF92FF92CF93D2
:1002F000DF93B0911A04A0E08111AB2F80911B0411
:1003000090E0880F991FAC0148525E4FC0902004C6
:10031000D0902104E0902204F090230430E020E00B
:10032000FA01C591D491E881B90190E080E0EB2316
:10033000EA130AC02F5F3F4F6C157D058E059F05A0
:1003400078F36FEF7FEFCB01DF91CF91FF90EF90CC
:10035000DF90CF900895CF92DF92EF92FF92DC0171
:10036000A03282E0B807D4F5A53BB10514F0A4EBA8
:10037000B0E04091110428E830E0241B310947FD2A
:100380003395220F331F220F331F6901330FEE08FD
:10039000FF084091120428E532E0241B310947FD93
:1003A0003395220F331F220F331F032E000C440BF3
:1003B000550B2C193D094E095F09B7FF02C0B0E08B
:1003C000A0E00E94E21224EB30E040E050E00E9406
:1003D000B812C20ED31EE41EF51ED601E091100421
:1003E000E03380F52091110488E890E0821B9109A8
:1003F00027FD9395880F991F880F991FA817B90794
:1004000084F02091120488E592E0821B910927FD77
:100410009395880F991F880F991FA817B9070CF497
:10042000CD010297880F991F4FB7F8942E2F30E017
:10043000F901EE0FFF1FE20FF31FE158FC4F92830B
:1004400081834FBFFF90EF90DF90CF900895282FCA
:1004500030E0F901EE56FE4F9491F901E85CFD4F52
:1004600044912E503E4FF9012491222309F435C0C6
:10047000992311F191509231F8F4E92FF0E0882797
:10048000EB5BFD4F8F4F0C940B1476027A025702F0
:100490006E0272025C027D02830287028D0291026B
:1004A00095029B029F025C02A302A902AD02809109
:1004B00080008F7780938000E22FF0E0EE0FFF1F27
:1004C000E858FE4FA591B4918FB7F894EC91611163
:1004D00048C040954E234C938FBF08958091800073
:1004E0008F7DE8CF80918000877FE4CF84B58F77C0
:1004F00084BDE2CF84B58F7DFBCF8091B0008F7734
:100500008093B000D9CF8091B0008F7DF9CF8091DA
:1005100090008F7780939000CFCF809190008F7D57
:10052000F9CF80919000877FF5CF8091A0008F77E1
:100530008093A000C1CF8091A0008F7DF9CF8091E2
:10054000A000877FF5CF809120018F7780932001D5
:10055000B3CF809120018F7DF9CF80912001877FDB
:10056000F5CF4E2BB8CFCF93DF9390E0FC01E85C42
:10057000FD4F24918E509E4FFC0184918823C9F039
:1005800090E0880F991FFC01E25AFE4FA591B491AB
:10059000FC01E858FE4FC591D49161110DC09FB781
:1005A000F8948C91209582238C938881282328832A
:1005B0009FBFDF91CF910895623051F49FB7F894B7
:1005C0003C91822F809583238C93E8812E2BEFCF53
:1005D0008FB7F894EC912E2B2C938FBFEACF8633F4
:1005E00008F0865320917B00982F9870277F922BDC
:1005F00090937B008770806480937C0080917A0068
:10060000806480937A0080917A0086FDFCCF80918F
:1006100078009091790008953FB7F8948091DE02B8
:100620009091DF02A091E002B091E10226B5A89B73
:1006300005C02F3F19F00196A11DB11D3FBFBA2F74
:10064000A92F982F8827BC01CD01620F711D811D34
:10065000911D42E0660F771F881F991F4A95D1F7B9
:1006600008958F929F92AF92BF92CF92DF92EF92B6
:10067000FF926B017C010E940C034B015C01C114D1
:10068000D104E104F104B9F00E940C03681979095E
:100690008A099B09683E73408105910580F321E03A
:1006A000C21AD108E108F10888EE880E83E0981E8E
:1006B000A11CB11CE4CFFF90EF90DF90CF90BF90D2
:1006C000AF909F908F9008952FB7F8946091DA02C1
:1006D0007091DB028091DC029091DD022FBF0895C2
:1006E000CF92DF92EF92FF920F931F93CF93DF93FE
:1006F000CDB7DEB7C054D1400FB6F894DEBF0FBE01
:10070000CDBF0E94640300911C0410911D04209130
:100710001E0430911F046B017C01C01AD10AE20A49
:10072000F30A97018601003D17402105310590F439
:1007300080912404C05CDE4F0FB6F894DEBF0FBE7C
:10074000CDBFDF91CF911F910F91FF90EF90DF9080
:10075000CF90089560931C0470931D0480931E0431
:1007600090931F041092170410921604109215040F
:10077000109214041092130462E0809118040E94F5
:10078000B30261E070E080E090E00E94310361E03C
:10079000809118040E94B30260E0809118040E94C6
:1007A0002702809119048551823020F58BE291E176
:1007B0000197F1F762E0809118040E94B3028091E2
:1007C000250490E08230910538F0880F991F880F3A
:1007D000991F05970197F1F7F89480E00E94730143
:1007E0006F3F7F4F8F4F9F4F61F410922404789496
:1007F00080E0A0CF64E170E080E090E00E943103EF
:10080000D9CF81E00E9473016F3F7F4F8F4F9F4F81
:1008100061F38E010F5F1F4F6E012FEBC21A2EEF97
:10082000D20A780180E00E947301F701608371832E
:100830008283938381E00E947301F701648375834F
:1008400086839783F8E0EF0EF11CEC14FD0451F75A
:10085000789430E020E0F801C080D180E280F3801D
:100860004481558166817781FFEFCF16DF06EF0661
:10087000FF0631F04F3F8FEF58076807780719F4EC
:1008800010922404B5CFF90183E0F595E7958A9598
:10089000E1F7ED5EFB4F8081880FC416D506E606B2
:1008A000F70610F180832F5F3F4F085F1F4F2832FC
:1008B000310589F6409117042091130480911404A6
:1008C000280F3327331F80911504280F311D809185
:1008D0001604820F932F911D99274817190681F648
:1008E00081E08093240426CF8160DCCFAF92BF9259
:1008F000CF92DF92EF92FF920F931F93CF93DF93EC
:100900006C017B018B01040F151FEB015E01AE181A
:10091000BF08C017D10759F06991D601ED91FC913C
:100920000190F081E02DC6011995892B79F7C50159
:10093000DF91CF911F910F91FF90EF90DF90CF90BB
:10094000BF90AF90089544E050E0BC0182EE92E089
:100950000C947604FC01538D448D252F30E0842FB8
:1009600090E0821B930B541710F0CF9608950197D7
:100970000895FC01918D828D981761F0A28DAE0FC4
:10098000BF2FB11D5D968C91928D9F5F9F73928F4B
:1009900090E008958FEF9FEF08950F931F930E94AB
:1009A00064036093EA027093EB028093EC029093ED
:1009B000ED0282EE92E00E94B90497FF1DC00E94F2
:1009C00064030091EA021091EB022091EC02309155
:1009D000ED02601B710B820B930B0091E6021091EC
:1009E000E7022091E8023091E9026017710782075F
:1009F0009307F8F28FEF9FEF1F910F910895FC017D
:100A0000918D828D981731F0828DE80FF11D858DC3
:100A100090E008958FEF9FEF0895FC01918D228D56
:100A2000892F90E0805C9F4F821B91098F739927DB
:100A3000089582EE92E00E940D0521E0892B09F4D1
:100A400020E0822F0895FC01A48DA80FB92FB11DBD
:100A5000A35ABF4F2C91848D90E001968F739927F4
:100A6000848FA689B7892C93A089B1898C918370D2
:100A700080648C93938D848D981306C00288F389CB
:100A8000E02D80818F7D80830895EF92FF920F93F8
:100A90001F93CF93DF93EC0181E0888F9B8D8C8D2A
:100AA00098131AC0E889F989808185FF15C09FB71E
:100AB000F894EE89FF896083E889F98980818370E1
:100AC000806480839FBF81E090E0DF91CF911F9190
:100AD0000F91FF90EF900895F62E0B8D10E00F5FB1
:100AE0001F4F0F731127E02E8C8D8E110CC00FB687
:100AF00007FCFACFE889F989808185FFF5CFCE011F
:100B00000E942305F1CFEB8DEC0FFD2FF11DE35A71
:100B1000FF4FF0829FB7F8940B8FEA89FB898081A1
:100B20008062CFCFCF93DF93EC01888D8823B9F01B
:100B3000AA89BB89E889F9898C9185FD03C08081E8
:100B400086FD0DC00FB607FCF7CF8C9185FFF2CF65
:100B5000808185FFEDCFCE010E942305E9CFDF9193
:100B6000CF91089580E090E0892B29F00E9419052B
:100B700081110E94000080E090E0892B49F080E024
:100B800090E0892B29F00E94000081110E94000052
:100B900080E090E0892B49F080E090E0892B29F0FB
:100BA0000E94000081110E94000080E090E0892BEB
:100BB00049F080E090E0892B29F00E94000081112B
:100BC0000C9400000895AF92BF92CF92DF92EF9203
:100BD000FF920F931F93CF93DF936B017A01EC0188
:100BE000C453DD4F28813CE0389F8001399F100DB0
:100BF0001124A0900F04B12C27FF1FC0FB0111820C
:100C0000108288818F5F888388819801280F311D29
:100C100087FD3A95F6012A153B051CF488818C3036
:100C2000C4F180819181049680349C4908F473C09A
:100C3000F60180819181049670C088819801280F07
:100C4000311D87FD3A952A153B05DCF68881A80100
:100C5000480F511D87FD5A95FA01EE0FFF1FE40F53
:100C6000F51FE158FC4F808186FFCBCF8881F801CA
:100C7000E80FF11D87FDFA95CF01EE0FFF1FE80F7A
:100C8000F91FE158FC4F808160E08F730E942702BA
:100C9000B8CF808191812881A801420F511D27FD85
:100CA0005A959A01FA01EE0FFF1FE20FF31FE15868
:100CB000FC4F21813281820F931FF7019183808342
:100CC00088819801280F311D87FD3A95F901EE0FB3
:100CD000FF1FE20FF31FE158FC4F808186FF22C007
:100CE0008881080F111D87FD1A95F801EE0FFF1F6F
:100CF000E00FF11FE158FC4F808161E08F73DF91BD
:100D0000CF911F910F91FF90EF90DF90CF90BF9008
:100D1000AF900C94270280E49CE9F70191838083D3
:100D20008FEF8883DF91CF911F910F91FF90EF900C
:100D3000DF90CF90BF90AF900895FC0180819181AA
:100D4000009711F00C94AF140895FC0180819181FB
:100D5000009711F00C94511160E070E0CB01089500
:100D6000EF92FF920F931F93CF93DF93CDB7DEB730
:100D7000C854D1090FB6F894DEBF0FBECDBF7B01BA
:100D80008A019AEA26969FAF269727968FAF2797D4
:100D900028964FAF289729961FAF299744E050E037
:100DA000BE016B5B7F4F82EE92E00E9476040115DC
:100DB000110531F0A801B70182EE92E00E9476049D
:100DC00029968CAD9DADAEADBFAD299789839A8331
:100DD000AB83BC83C801019780349105A8F5A801B5
:100DE000B701CE0105960E9419160C5F1F4FAE0188
:100DF0004F5F5F4FFA0160E07CE88191682728E04F
:100E000030E0862F90E09595879560FF20C0682F91
:100E1000672721503109A9F7CF01841B950B801753
:100E200091075CF382EE92E00E944505C85BDF4FBC
:100E30000FB6F894DEBF0FBECDBFDF91CF911F91EB
:100E40000F91FF90EF90089504E010E0D0CF682F4D
:100E5000E0CFAF92BF92CF92DF92EF92FF920F93CB
:100E60001F93CF93DF93DC01CD90DC901197C114D9
:100E7000D10439F01496CD91DC918C017601209744
:100E800061F4DF91CF911F910F91FF90EF90DF9070
:100E9000CF90BF90AF90089575015701BFEFAB1A87
:100EA000BB0AF7018081082E000C990B0E948D115E
:100EB000892B91F72197CC0DDD1D8881082E000C20
:100EC000990B0E948D11892B29F0CE15DF0510F0AA
:100ED0002197F3CFAE014F5F5F4F4E195F09D801E5
:100EE00015965C934E931497CE14DF0420F4B7014B
:100EF000C6010E941916D801ED91FC911197149624
:100F00008D919C91E80FF91F1082BBCFFB014481AA
:100F10005581FC01248135812417350778F08081C3
:100F20009181009759F0FB01608171816115710514
:100F300029F00E94321621E0892B09F020E0822F4F
:100F40000895FC0124813581232B39F421E0FB0134
:100F50008081882349F020E007C0808191810E9430
:100F6000221621E0892BB9F7822F0895CF93DF93C2
:100F7000EC010E94290769E272E0CE010E94A107FC
:100F800081117CC06CE272E0CE010E94A107811148
:100F900078C06FE272E0CE010E94A107811174C097
:100FA00062E372E0CE010E94A107811170C065E387
:100FB00072E0CE010E94A10781116CC068E372E06B
:100FC000CE010E94A107811168C06BE372E0CE01DF
:100FD0000E94A107811164C06EE372E0CE010E94FD
:100FE000A107811160C061E472E0CE010E94A107F7
:100FF00081115CC064E472E0CE010E94A1078111FE
:1010000058C067E472E0CE010E94A107811154C06C
:101010006AE472E0CE010E94A107811150C06DE424
:1010200072E0CE010E94A10781114CC060E572E020
:10103000CE010E94A107811148C063E572E0CE0194
:101040000E94A107811144C067E572E0CE010E94B1
:10105000A107811140C06BE572E0CE010E94A1079B
:1010600081113CC06FE572E0CE010E94A1078111A1
:1010700038C08FEF9FEFDF91CF91089586E390E026
:10108000FACF87E390E0F7CF88E390E0F4CF89E3ED
:1010900090E0F1CF8AE390E0EECF8BE390E0EBCFEE
:1010A00082E090E0E8CF83E090E0E5CF84E090E05C
:1010B000E2CF85E090E0DFCF86E090E0DCCF87E014
:1010C00090E0D9CF88E090E0D6CF89E090E0D3CF10
:1010D0008AE090E0D0CF8BE090E0CDCF8CE090E044
:1010E000CACF8DE090E0C7CF0F931F93CF93DF93CC
:1010F000EC0188819981009759F02A813B8126175C
:10110000370730F081E0DF91CF911F910F91089563
:101110008B016F5F7F4F0E943815009759F09983BC
:1011200088831B830A832C813D81232B59F7FC0183
:101130001082E8CF80E0E7CFEF92FF920F931F93EA
:10114000CF93DF93EC017B018A01BA010E947408FE
:1011500028813981811114C02115310519F0C90187
:101160000E94AF14198218821D821C821B821A826F
:10117000CE01DF91CF911F910F91FF90EF900895D5
:101180001D830C83B701C9010E942B16F1CFCF93A9
:10119000DF93EC016115710571F0FB0101900020F6
:1011A000E9F73197AF01461B570B0E949C08CE010F
:1011B000DF91CF91089588819981009711F00E9465
:1011C000AF14198218821D821C821B821A82EFCFF3
:1011D000FC01118210821382128215821482FB019B
:1011E00001900020E9F73197AF01461B570B0C9493
:1011F0009C08EF92FF920F931F93CF93DF931F9260
:101200001F92CDB7DEB78C0168E272E00E94E80859
:101210000E94CD0497FD21C08A309105F1F08983A9
:101220001A82F801E480F580FFEFEF1AFF0AB70198
:10123000C8010E947408882359F3F8012081318184
:1012400084819581BE016F5F7F4F820F931F0E9443
:101250002B16F801F582E482DBCFC8010F900F90C6
:10126000DF91CF911F910F91FF90EF900895AF9272
:10127000BF92CF92DF92EF92FF920F931F93CF9383
:10128000DF935C016B017A01DB0114960D911C91D7
:101290000417150720F48F2D7801042F182F68E20A
:1012A00072E0C5010E94E808F601C481D581EC1600
:1012B000FD06C8F40C171D0708F4E801D601ED91EE
:1012C000FC911197EC0FFD1F108110826D917C91A4
:1012D0006E0D7F1DC5010E94C708F60180819181B6
:1012E000C80FD91F1883C501DF91CF911F910F91AE
:1012F000FF90EF90DF90CF90BF90AF9008951F9236
:101300000F920FB60F9211242F933F938F939F93B9
:10131000AF93BF938091DA029091DB02A091DC023F
:10132000B091DD023091D90223E0230F2D3758F51B
:101330000196A11DB11D2093D9028093DA029093EA
:10134000DB02A093DC02B093DD028091DE0290917B
:10135000DF02A091E002B091E1020196A11DB11D52
:101360008093DE029093DF02A093E002B093E1024B
:10137000BF91AF919F918F913F912F910F900FBE91
:101380000F901F90189526E8230F0296A11DB11DFE
:10139000D2CF1F920F920FB60F9211240BB60F925D
:1013A0002F933F934F935F936F937F938F939F936D
:1013B000AF93BF93EF93FF9382EE92E00E942305D9
:1013C000FF91EF91BF91AF919F918F917F916F911D
:1013D0005F914F913F912F910F900BBE0F900FBED9
:1013E0000F901F9018951F920F920FB60F92112415
:1013F0000BB60F922F938F939F93EF93FF93E091F0
:10140000F202F091F3028081E091F802F091F9028A
:1014100082FD1DC090818091FB028F5F8F732091B0
:10142000FC02821741F0E091FB02F0E0EE51FD4F2B
:10143000958F8093FB02FF91EF919F918F912F9158
:101440000F900BBE0F900FBE0F901F9018958081CC
:10145000F2CF1F920F920FB60F9211240BB60F927C
:101460002F933F934F935F936F937F938F939F93AC
:10147000AF93BF93EF93FF9348E251E064E271E0D2
:1014800090E080E00E94E305FF91EF91BF91AF9162
:101490009F918F917F916F915F914F913F912F918C
:1014A0000F900BBE0F900FBE0F901F9018951F92BC
:1014B0000F920FB60F9211240BB60F922F933F93FA
:1014C0004F935F936F937F938F939F93AF93BF934C
:1014D000EF93FF9348EA50E064EA70E083E090E025
:1014E0000E94E305FF91EF91BF91AF919F918F9182
:1014F0007F916F915F914F913F912F910F900BBE14
:101500000F900FBE0F901F9018951F920F920FB65D
:101510000F9211240BB60F922F933F934F935F932B
:101520006F937F938F939F93AF93BF93EF93FF93AB
:1015300048E950E064E970E082E090E00E94E30551
:10154000FF91EF91BF91AF919F918F917F916F919B
:101550005F914F913F912F910F900BBE0F900FBE57
:101560000F901F9018951F920F920FB60F92112493
:101570000BB60F922F933F934F935F936F937F938D
:101580008F939F93AF93BF93EF93FF9348E850E0FF
:1015900064E870E081E090E00E94E305FF91EF9144
:1015A000BF91AF919F918F917F916F915F914F917B
:1015B0003F912F910F900BBE0F900FBE0F901F9079
:1015C00018950F931F93CF93DF938C01D0E0C0E069
:1015D000F801EC0FFD1F6491662341F082EE92E06A
:1015E0000E944505892B11F02196F2CF42E050E090
:1015F00066E272E082EE92E00E9476048C0F9D1FFC
:10160000DF91CF911F910F9108951092E5021092F2
:10161000E40288EE93E0A0E0B0E08093E6029093CD
:10162000E702A093E802B093E90288E192E0909388
:10163000E3028093E20285EC90E09093EF028093C6
:10164000EE0284EC90E09093F1028093F00280EC43
:1016500090E09093F3028093F20281EC90E09093FB
:10166000F5028093F40282EC90E09093F70280936D
:10167000F60286EC90E09093F9028093F8021092C3
:10168000FB021092FC021092FD021092FE0282E018
:10169000809318048BE080931904EAE3F2E0E4916C
:1016A000E0931A04E4EFF1E0E491E0931B0480E896
:1016B0009EE3A0E0B0E08093200490932104A093E7
:1016C0002204B093230480910F04803398F491E0B6
:1016D000980F90930F048093100490E0FC01EE0F9C
:1016E000FF1FE80FF91FE158FC4F88EB9BE0928346
:1016F000818308958FEF809310040895CF93DF9333
:10170000CDB7DEB7E5970FB6F894DEBF0FBECDBFFD
:10171000789484B5826084BD84B5816084BD85B5CC
:10172000826085BD85B5816085BD80916E008160D8
:1017300080936E001092810080918100826080937E
:101740008100809181008160809381008091800080
:101750008160809380008091B10084608093B100AB
:101760008091B00081608093B00080919100826090
:10177000809391008091910081608093910080918D
:1017800090008160809390008091A100826080939E
:10179000A1008091A10081608093A1008091A000B0
:1017A00081608093A000809121018260809321015B
:1017B00080912101816080932101809120018160CD
:1017C0008093200180917A00846080937A008091D8
:1017D0007A00826080937A0080917A0081608093A1
:1017E0007A0080917A00806880937A001092C1001C
:1017F000E091F202F091F30282E08083E091F20244
:10180000F091F3021082E091EE02F091EF0210826B
:10181000E091F002F091F10280E180831092FA02EF
:10182000E091F602F091F70286E08083E091F40205
:10183000F091F502808180618083E091F402F09163
:10184000F502808188608083E091F402F091F502D6
:10185000808180688083E091F402F091F5028081BC
:101860008F7D808362E0809118040E94B3020E9401
:101870006403605D77408109910960931C04709353
:101880001D0480931E0490931F0487E38093250416
:1018900080911004803308F052C061E089E00E941A
:1018A000B30280911004282F30E0F901EE0FFF1FE2
:1018B000E20FF31FE158FC4F9081907C9960908378
:1018C00010921104109212042CE0622F0E94FF1358
:1018D000829FB001112430E020E0AB01420F531F82
:1018E000FA01EE0FFF1FE40FF51FE158FC4F908146
:1018F00096FD17C02F5F3F4F2C30310571F78130B7
:1019000009F0A4C01092800082E0809381001092C0
:10191000850010928400B19A80916F00826080935C
:101920006F00E09110048E2F90E0FC01EE0FFF1F7E
:10193000E80FF91FE158FC4F80818064808360E0EC
:1019400088E30E94B3028E010F5F1F4F82EE92E088
:101950000E940D05181619060CF018C1CE018796C5
:101960000E94F908CE0187960E94290763E672E07B
:10197000C8010E94E808B801CE0187960E94860738
:10198000F82EC8010E949D06FF2009F466C1ABA491
:10199000BCA43FE0832E912C2FE0A216B10420F0CE
:1019A00045014FE0A42EB12C68E272E0C8010E940C
:1019B000E808CBA4DCA4AC14BD04B8F48C149D04DA
:1019C00008F46401EFA1F8A5EC0DFD1DF080108274
:1019D0006FA178A56A0D7B1DC8010E94C7088FA161
:1019E00098A5C80ED91ED601FC92C8010E94A50672
:1019F0001B014B01C8010E949D06121413040CF038
:101A0000C1C08091D7029091D802009711F00E9436
:101A1000AF143092D6022092D502C101880F991FCF
:101A20000E9413146C019093D8028093D702B12CBA
:101A3000A12C82EE92E00E940D05892B99F56AE0B7
:101A400070E080E090E00E943103F3CF823061F4D7
:101A50001092900080939100109295001092940043
:101A600088BB809371005DCF833069F41092A00031
:101A700082E08093A1001092A5001092A40089BB7F
:101A8000809372004ECF81114CCF1092200182E0E2
:101A90008093210110922501109224018ABB80932A
:101AA00073003FCFCE0181960E94F9081A821982F5
:101AB0001C821B821E821D8269A17AA1611571059B
:101AC00029F04DA15EA1C8010E949C08C8010E9496
:101AD000B6073C01C8010E949D06BFEF6B167B064E
:101AE00091F1F501EE0FFF1FEC0DFD1D718260827B
:101AF00060E0862D0E94B302CE0181960E949D0671
:101B0000FFEFAF1ABF0AA814B9040CF492CF80916A
:101B100002028230E0F02982F601DE01129690E0A6
:101B200080E02081329601962D93881599051CF44A
:101B30008F319105B1F7A1014F5F5F4FB80182E08E
:101B40000E94B0061FC0E1E0AE1AB108D5CF62E036
:101B500082EE92E00E944505622D82EE92E00E94A4
:101B60004505B12CA12CD6016C91B2E0CB0ED11C55
:101B700082EE92E00E944505EFEFAE1ABE0AA8146D
:101B8000B9048CF3CE0187960E949D068091D40201
:101B9000882309F411C284EB90E00E94AB01C0904D
:101BA0000002D09001028AE5C816D104A1F10E947A
:101BB00064038090D0029090D102A090D202B090A5
:101BC000D302681979098A099B09809007029090CD
:101BD0000802A0900902B0900A02681579058A05EA
:101BE0009B05C8F09AE5C916D1040CF0E8C181E064
:101BF00090E08C0D9D1D90930102809300020E9445
:101C0000AB010E9464036093D0027093D102809371
:101C1000D2029093D30280910B02882309F4E2C28E
:101C2000C090D702D090D802C114D10409F4CAC11F
:101C3000B12CA12C8091D5029091D602A816B9069C
:101C40000CF0C0C1D6018C91B2E0CB0ED11C0E9429
:101C5000EF02EFEFAE1ABE0AEDCF62E772E0C80105
:101C60000E94E808B801CE0187960E948607F82EE8
:101C7000C8010E949D06FF2009F461C04CE050E0BD
:101C8000BE01695D7F4FCE0181960E9437091A829D
:101C900019821C821B821E821D8269A17AA1611594
:101CA000710529F04DA15EA1C8010E949C08C801E0
:101CB0000E94B6076C01C8010E949D06FFEFCF1677
:101CC000DF06C1F1D0920D02C0920C02C601992725
:101CD000FC01E85CFD4F24918E509E4FFC018491E5
:101CE000C09218049BE09093190420931A048093E7
:101CF0001B0480E89EE3A0E0B0E080932004909372
:101D00002104A0932204B093230462E08C2D0E944E
:101D1000B3020E946403605D77408109910960937A
:101D20001C0470931D0480931E0490931F0487E38A
:101D300080932504CE0181960E949D0623CF6EE7F5
:101D400072E0CE0187960E94A107882321F081E0EE
:101D500080930B0217CF6CE872E0CE0187960E9449
:101D6000A107882319F010920B020CCF6EE972E0E4
:101D7000CE0187960E94A107882321F081E08093FD
:101D8000D40200CF69E972E0CE0187960E94A107D4
:101D9000882319F01092D402F5CE65EA72E0C801EA
:101DA0000E94E808B801CE0187960E948607F82EA7
:101DB000C8010E949D06FF2001F14AE050E0BE01EB
:101DC000695D7F4FC8010E943709C8010E94A506BE
:101DD0004B01C8010E949D06181419040CF0D2CEC4
:101DE000092C000CAA08BB088092070290920802F6
:101DF000A0920902B0920A02C5CE6FEA72E0C80151
:101E00000E94E808B801CE0187960E948607F82E46
:101E1000C8010E949D06FF2001F14AE050E0BE018A
:101E2000695D7F4FC8010E943709C8010E94A5065D
:101E30004B01C8010E949D06181419040CF0A2CE93
:101E4000092C000CAA08BB0880920302909204029D
:101E5000A0920502B092060295CE69EB72E0CE0127
:101E600087960E94A107882309F474C0A090D50228
:101E7000B090D602C090D702D090D80280910202D2
:101E80008230C0F1A98241E050E0C114D104B9F020
:101E9000FE01329690E080E0AF01401B510B8A15A5
:101EA0009B056CF48B31910541F0D6012C91B2E089
:101EB000CB0ED11C21930196EFCF4CE150E0F801FD
:101EC000E40FF51F88E38083E2E0F0E0EC0FFD1FF4
:101ED000E40FF51F80910C028083E3E0F0E0EC0F4B
:101EE000FD1FE40FF51F89E080834D5F5F4FB80150
:101EF00084E026CE64E082EE92E00E9445056A2DE1
:101F000082EE92E00E944505C114D10491F0912C1B
:101F1000812C8A149B046CF4F6016081F2E0CF0EF0
:101F2000D11C82EE92E00E9445052FEF821A920AA0
:101F3000F0CF68E382EE92E00E94450560910C02CA
:101F400082EE92E00E94450569E082EE92E00E94F6
:101F5000450518CE64EC72E0C8010E94E808B8019B
:101F6000CE0187960E948607F82EC8010E949D0622
:101F7000FF2009F407CE46E050E0BE01695D7F4FC7
:101F8000C8010E943709C8010E94A5064B01C8017B
:101F90000E949D0632E08316910444F082E0809313
:101FA000020283E591E00E94E10AECCD81E080939A
:101FB000020288E491E0F7CF8AE590E0EECD8FEF62
:101FC0009FEF17CE0E947003882349F08091190477
:101FD0008B3028F08D3040F085518230B0F160E0D8
:101FE00070E080EC9FE71CC06091140470E090E00A
:101FF00080E00E9498112DEC3CEC4CEC5DE30E94DB
:10200000F7114B015C016091130470E090E080E0F7
:102010000E9498119B01AC01C501B4010E941C13E0
:1020200069AB7AAB8BAB9CAB0E947003882341F009
:10203000809119048C3009F4E2C0C8F48B3081F12E
:1020400060E070E080EC9FE753C0609113047091F2
:10205000140476276727762790E080E00E94961187
:102060002DEC3CEC4CEC5DE30E94F711D9CF85518F
:10207000823030F7F09015046F2D70E0762F6627D0
:1020800066277F7780911604682B90E080E00E949D
:1020900096112DEC3CEC4CEC5DE30E94F711CBC0AB
:1020A0006091150470E090E080E00E9496114B0171
:1020B0005C01F0901604F7FE0AC0AC019B0160E0E1
:1020C00070E080E89FEB0E941B134B015C016F2DB9
:1020D0006F7070E090E080E00E9498112DEC3CEC75
:1020E0004CEC5DE30E94F711A50194010E941C13C2
:1020F0006DA77EA78FA798AB88E30E94EF021C0113
:1021000060910702709108028091090290910A0281
:10211000812C912C5401611571058105910561F0A7
:102120000E9496119B01AC0160E070E08AE794E4A4
:102130000E9488134B015C018FA298A6A9A6BAA69B
:10214000CDA4DEA4EFA4F8A8F1E0FDABA7019601B1
:10215000C701B6010E94FA13811101C01DAA49A846
:102160005AA86BA87CA8A3019201C301B2010E94E6
:10217000FA13882319F02DA922602DABC1010A970B
:102180008C3E934008F45BC080E090E0A0ECBFE799
:1021900089A39AA3ABA3BCA39DA994609DAB809196
:1021A0000202823008F45DC0BDA9B98384E08A834D
:1021B000CB82DC82ED82FE824F82588669867A86E7
:1021C00089A19AA1ABA1BCA18B879C87AD87BE8753
:1021D0008F86988AA98ABA8A42E150E0B80181E0E4
:1021E0000E94B00660910302709104028091050282
:1021F000909106020E9431030E94B205A7CBF09095
:1022000015046F2D70E090E080E00E9496114B0164
:102210005C01609116046F7070E090E080E00E94B5
:1022200098112DEC3CEC4CEC5DE30E94F711A501FC
:1022300094010E941C13F7FE5BCF905859CFA1E088
:102240002A16A2E03A064CF080E090E0A0E8BFE356
:1022500089A39AA3ABA3BCA3A2CF80E090E0DC014A
:10226000F7CF61E082EE92E00E9445056DA982EE13
:1022700092E00E94450564E082EE92E00E944505EE
:10228000CE018D960E94A304CE01C1960E94A304A4
:10229000CE0181960E94A304CE0187960E94A304DA
:1022A000A1CF1F93FC0199278827BC01E8941191C5
:1022B0001032E9F3193010F01E30C8F31B3251F020
:1022C0001D3249F4689406C00E947811610F711D97
:1022D000811D911D119110531A30B0F33EF4909569
:1022E0008095709561957F4F8F4F9F4F1F910895F7
:1022F000592F482F372F262F660F771F881F991FBA
:10230000660F771F881F991F620F731F841F951F09
:10231000660F771F881F991F089591110C946412FE
:10232000803219F089508550C8F70895E89409C0A3
:1023300097FB3EF490958095709561957F4F8F4FF8
:102340009F4F9923A9F0F92F96E9BB279395F6950E
:10235000879577956795B795F111F8CFFAF4BB0F8C
:1023600011F460FF1BC06F5F7F4F8F4F9F4F16C0F0
:10237000882311F096E911C0772321F09EE8872F7A
:10238000762F05C0662371F096E8862F70E060E036
:102390002AF09A95660F771F881FDAF7880F9695AF
:1023A000879597F90895990F0008550FAA0BE0E853
:1023B000FEEF16161706E807F907C0F01216130607
:1023C000E407F50798F0621B730B840B950B39F447
:1023D0000A2661F0232B242B252B21F408950A26AD
:1023E00009F4A140A6958FEF811D811D08950E94DB
:1023F0000A120C947E120E94701238F00E9477121A
:1024000020F0952311F00C9467120C946D12112496
:102410000C94B2120E948F1270F3959FC1F3950F26
:1024200050E0551F629FF001729FBB27F00DB11D58
:10243000639FAA27F00DB11DAA1F649F6627B00DE8
:10244000A11D661F829F2227B00DA11D621F739FD1
:10245000B00DA11D621F839FA00D611D221F749FDF
:102460003327A00D611D231F849F600D211D822F26
:10247000762F6A2F11249F5750409AF0F1F088234D
:102480004AF0EE0FFF1FBB1F661F771F881F91507A
:102490005040A9F79E3F510580F00C9467120C94B0
:1024A000B2125F3FE4F3983ED4F386957795679533
:1024B000B795F795E7959F5FC1F7FE2B880F911DA4
:1024C0009695879597F9089599278827089597F9FC
:1024D0009F6780E870E060E008959FEF80EC0895CA
:1024E00000240A94161617061806090608950024F3
:1024F0000A9412161306140605060895092E03946D
:10250000000C11F4882352F0BB0F40F4BF2B11F4E0
:1025100060FF04C06F5F7F4F8F4F9F4F089557FD3F
:102520009058440F551F59F05F3F71F04795880F41
:1025300097FB991F61F09F3F79F0879508951216D8
:1025400013061406551FF2CF4695F1DF08C0161684
:1025500017061806991FF1CF869571056105089435
:102560000895E894BB2766277727CB0197F908954C
:10257000052E97FB1EF400940E94CF1257FD07D042
:102580000E94EA1207FC03D04EF40C94CF1250952F
:102590004095309521953F4F4F4F5F4F089590954F
:1025A0008095709561957F4F8F4F9F4F08950E9442
:1025B0000C13A59F900DB49F900DA49F800D911DAD
:1025C00011240895B7FF0C94D7120E94D712821BD2
:1025D000930B0895A1E21A2EAA1BBB1BFD010DC08F
:1025E000AA1FBB1FEE1FFF1FA217B307E407F507C3
:1025F00020F0A21BB30BE40BF50B661F771F881F9F
:10260000991F1A9469F760957095809590959B0134
:10261000AC01BD01CF010895A29FB001B39FC001DD
:10262000A39F700D811D1124911DB29F700D811DFE
:102630001124911D08955058BB27AA270E943313D7
:102640000C947E120E94701238F00E94771220F0D3
:1026500039F49F3F19F426F40C946D120EF4E095B2
:10266000E7FB0C946712E92F0E948F1258F3BA17F8
:10267000620773078407950720F079F4A6F50C9498
:10268000B1120EF4E0950B2EBA2FA02D0B01B9015B
:1026900090010C01CA01A0011124FF27591B99F0D8
:1026A000593F50F4503E68F11A16F040A22F232FE4
:1026B000342F4427585FF3CF469537952795A79534
:1026C000F0405395C9F77EF41F16BA0B620B730BDB
:1026D000840BBAF09150A1F0FF0FBB1F661F771F4C
:1026E000881FC2F70EC0BA0F621F731F841F48F401
:1026F000879577956795B795F7959E3F08F0B0CF8A
:102700009395880F08F09927EE0F97958795089570
:102710000E949C130C947E120E94771258F00E9423
:10272000701240F029F45F3F29F00C9467125111A8
:102730000C94B2120C946D120E948F1268F39923BC
:10274000B1F3552391F3951B550BBB27AA276217AD
:102750007307840738F09F5F5F4F220F331F441FBA
:10276000AA1FA9F335D00E2E3AF0E0E832D09150EE
:102770005040E695001CCAF72BD0FE2F29D0660FDB
:10278000771F881FBB1F261737074807AB07B0E81E
:1027900009F0BB0B802DBF01FF2793585F4F3AF024
:1027A0009E3F510578F00C9467120C94B2125F3F73
:1027B000E4F3983ED4F3869577956795B795F795AA
:1027C0009F5FC9F7880F911D9695879597F9089592
:1027D000E1E0660F771F881FBB1F6217730784072E
:1027E000BA0720F0621B730B840BBA0BEE1F88F73D
:1027F000E09508950E94D311880B990B0895991BB9
:1028000079E004C0991F961708F0961B881F7A95E7
:10281000C9F780950895EE0FFF1F881F8BBF0790A3
:10282000F691E02D19940F931F93CF93DF9382308D
:10283000910510F482E090E0E0912804F0912904E1
:1028400030E020E0B0E0A0E0309799F421153105A8
:1028500009F44AC0281B390B24303105D8F58A8188
:102860009B816115710589F1FB0193838283FE01D0
:1028700011C0408151810281138148175907E0F04E
:102880004817590799F4109761F012960C93129714
:1028900013961C933296CF01DF91CF911F910F9128
:1028A00008950093280410932904F4CF21153105CD
:1028B00051F04217530738F0A901DB019A01BD011D
:1028C000DF01F801C1CFEF01F9CF90932904809384
:1028D0002804CDCFFE01E20FF31F81939193225084
:1028E000310939832883D7CF2091260430912704DA
:1028F000232B41F4209110023091110230932704D0
:102900002093260420910E0230910F0221153105EB
:1029100041F42DB73EB74091120250911302241B8F
:10292000350BE0912604F0912704E217F307A0F499
:102930002E1B3F0B2817390778F0AC014E5F5F4F15
:102940002417350748F04E0F5F1F5093270440931C
:102950002604819391939FCFF0E0E0E09CCFCF934A
:10296000DF930097E9F0FC01329713821282A09165
:102970002804B0912904ED0130E020E01097A1F483
:1029800020813181820F931F2091260430912704EA
:102990002817390709F061C0F0932704E093260453
:1029A000DF91CF910895EA01CE17DF07E8F54A815C
:1029B0005B819E0141155105B1F7E901FB83EA8373
:1029C00049915991C40FD51FEC17FD0761F480811F
:1029D00091810296840F951FE901998388838281F2
:1029E00093819B838A83F0E0E0E012968D919C9125
:1029F00013970097B9F52D913C911197CD0102964F
:102A0000820F931F2091260430912704281739073D
:102A100039F6309751F51092290410922804B0939A
:102A20002704A0932604BCCFD383C2834081518165
:102A3000840F951FC817D90761F44E5F5F4F8881D7
:102A40009981480F591F518340838A819B819383C9
:102A500082832115310509F0B0CFF0932904E0936A
:102A600028049ECFFD01DC01C0CF13821282D7CF94
:102A70004F925F926F927F928F929F92AF92BF928E
:102A8000CF92DF92EF92FF920F931F93CF93DF933A
:102A90008C01009799F4CB01DF91CF911F910F9199
:102AA000FF90EF90DF90CF90BF90AF909F908F906E
:102AB0007F906F905F904F900C941314FC01E60F81
:102AC000F71F9C0122503109E217F30708F4AEC04A
:102AD000D901CD91DC911197C617D70720F1C530E8
:102AE000D10578F0CE0104978617970750F0C61BE2
:102AF000D70B2297C193D1936D937C93CF010E9402
:102B0000AF14C801DF91CF911F910F91FF90EF900B
:102B1000DF90CF90BF90AF909F908F907F906F90FD
:102B20005F904F9008955B01AC1ABD0A4C018C0E6A
:102B30009D1EA0912804B0912904512C412CF12C08
:102B4000E12C109731F58091260490912704881587
:102B5000990509F05CC04616570608F058C08091E8
:102B60000E0290910F02009741F48DB79EB74091ED
:102B7000120250911302841B950BE817F90708F015
:102B800055C0F0932704E0932604F9017183608314
:102B9000B8CF8D919C91119712966C9012971396C5
:102BA0007C901397A815B90559F56C0142E0C40E45
:102BB000D11CCA14DB0420F1AC014A195B09DA010B
:102BC0001296159780F06282738251834083D901F7
:102BD0006D937C93E114F10471F0D7011396FC938B
:102BE000EE9312978ECF22968C0F9D1FF901918341
:102BF0008083F301EFCFF0932904E093280481CF81
:102C00004816590608F42C017D01D3019ACFCB0157
:102C10000E9413147C01009749F0AE01B8010E9494
:102C20001916C8010E94AF1487016BCF10E000E0B5
:102C300068CFFB01DC0102C001900D924150504071
:102C4000D8F70895FB01DC018D91019080190110E6
:102C5000D9F3990B0895FB01DC0101900D9200203E
:102C6000E1F70895FB01DC014150504030F08D91B7
:102C70000190801919F40020B9F7881B990B089569
:042C8000F894FFCFF6
:102C84005A0001D0070000320000000102000000D9
:102C94002A0480000000000045057604AA04920579
:102CA4000D05B904FF040D0A004130004131004113
:102CB4003200413300413400413500443200443392
:102CC400004434004435004436004437004438009E
:102CD400443900443130004431310044313200443D
:102CE4003133005345542050494E5320434F554EE1
:102CF4005400534554204448542050494E005354E2
:102D04004152542052454144494E470053544F5078
:102D14002052454144494E470053544F5020524F8E
:102D240054415445005345542053504545440053A1
:102D340045542044454C415900474554205354417F
:0C2D44005455530050524F544F200000D3
:00000001FF
