:100000000C9435010C9466010C9466010C94660105
:100010000C9466010C9466010C9466010C946601C4
:100020000C9466010C9466010C9466010C946601B4
:100030000C9466010C9466010C9466010C946601A4
:100040000C9466010C94240A0C9466010C946601CD
:100050000C9466010C9466010C9466010C94F008F3
:100060000C9466010C9464090C943A090C94660192
:100070000C9466010C9466010C9466010C94660164
:100080000C94F6090C9466010C9466010C946601BC
:100090000C9466010C9466010C9466010C94660144
:1000A0000C9466010C9466010C94C8090C946601CA
:1000B0000C9466010C9466010C9466010C949A09E8
:1000C0000C9466010C9466010C9466010C94660114
:1000D0000C9466010C9466010C9466010C94660104
:1000E0000C9466010C947C020C9494020C94900283
:1000F0000C946F020C9498020C9467020C946302A7
:100100000C9402050C94520A0C944C020C948A0232
:100110000C946B040C949F040C9482020C94720255
:100120000C94A2020C9487050C94AE040C94F40475
:100130000C949E020C943A050C9451020C94860285
:100140000C946B020C94780200002100240027001C
:100150002A002D00300033000101000004010701D6
:100160000A0100002200250028002B002E0031008B
:10017000340002010000050108010B0100000A0B18
:1001800002090C0D0E080703040100000000000026
:10019000000000000000000000000000000000005F
:1001A000000000000000000012111000000000001C
:1001B000000000000000000000000000000000003F
:1001C0000000000020002300260029002C002F0042
:1001D00032000001000003010601090105050505C3
:1001E000070508080808020202020A0A08080404AF
:1001F00004040101010101010101030303030303DD
:100200000303040707070C0C0C0C0C0C0C0C02026B
:10021000020206060606060606060B0B0B0B0B0B68
:100220000B0B0102102020080810204010204080F5
:1002300002010201080402010102040810204080AA
:100240008040201008040201800402018040201038
:100250000804020108040201010204081020408081
:100260000102040810204080520A11241FBECFEF63
:10027000D1E2DEBFCDBF00E00CBF12E0A0E0B2E0F3
:10028000ECEFF9E200E00BBF02C007900D92A03C3A
:10029000B107D9F724E0A0ECB2E001C01D92AE3165
:1002A000B207E1F711E0C5E3D1E000E006C0219715
:1002B0000109802FFE010E94C712C433D10780E0DC
:1002C0000807A9F70E94CB0A0C94FC140C940000B8
:1002D000CF92DF92EF92FF92CF93DF93B0910E0413
:1002E000A0E08111AB2F80910F0490E0880F991F3F
:1002F000AC014E535E4FC0901404D0901504E090B2
:100300001604F090170430E020E0FA01C591D49172
:10031000E881B90190E080E0EB23EA130AC02F5F87
:100320003F4F6C157D058E059F0578F36FEF7FEFCE
:10033000CB01DF91CF91FF90EF90DF90CF900895A8
:10034000CF92DF92EF92FF92DC01A03282E0B807F9
:10035000D4F5A53BB10514F0A4EBB0E04091050441
:1003600028E830E0241B310947FD3395220F331F65
:10037000220F331F6901330FEE08FF084091060476
:1003800028E532E0241B310947FD3395220F331F46
:10039000220F331F032E000C440B550B2C193D0963
:1003A0004E095F09B7FF02C0B0E0A0E00E949E11B5
:1003B00024EB30E040E050E00E947411C20ED31EE6
:1003C000E41EF51ED601E0910404E03380F520918F
:1003D000050488E890E0821B910927FD9395880F1A
:1003E000991F880F991FA817B90784F02091060458
:1003F00088E592E0821B910927FD9395880F991F4C
:10040000880F991FA817B9070CF4CD010297880F20
:10041000991F4FB7F8942E2F30E0F901EE0FFF1F10
:10042000E20FF31FED58FC4F928381834FBFFF9083
:10043000EF90DF90CF900895282F30E0F901E45835
:10044000FE4F9491F901EE5DFD4F449124523E4FD1
:10045000F9012491222309F435C0992311F1915017
:100460009231F8F4E92FF0E08827E65CFD4F8F4FDA
:100470000C94C7126B026F024C02630267025102B6
:10048000720278027C02820286028A029002940240
:10049000510298029E02A202809180008F77809381
:1004A0008000E22FF0E0EE0FFF1FEE59FE4FA59106
:1004B000B4918FB7F894EC91611148C040954E23E8
:1004C0004C938FBF0895809180008F7DE8CF8091FD
:1004D0008000877FE4CF84B58F7784BDE2CF84B579
:1004E0008F7DFBCF8091B0008F778093B000D9CF04
:1004F0008091B0008F7DF9CF809190008F778093AD
:100500009000CFCF809190008F7DF9CF80919000A7
:10051000877FF5CF8091A0008F778093A000C1CF17
:100520008091A0008F7DF9CF8091A000877FF5CFCB
:10053000809120018F7780932001B3CF809120019B
:100540008F7DF9CF80912001877FF5CF4E2BB8CFDB
:10055000CF93DF9390E0FC01EE5DFD4F2491845238
:100560009E4FFC0184918823C9F090E0880F991F69
:10057000FC01E85BFE4FA591B491FC01EE59FE4FE2
:10058000C591D49161110DC09FB7F8948C912095BD
:1005900082238C938881282328839FBFDF91CF916A
:1005A0000895623051F49FB7F8943C91822F809562
:1005B00083238C93E8812E2BEFCF8FB7F894EC91A7
:1005C0002E2B2C938FBFEACF863308F086532091D1
:1005D0007B00982F9870277F922B90937B008770D9
:1005E000806480937C0080917A00806480937A009C
:1005F00080917A0086FDFCCF8091780090917900FF
:1006000008953FB7F8948091D2029091D302A091BF
:10061000D402B091D50226B5A89B05C02F3F19F092
:100620000196A11DB11D3FBFBA2FA92F982F882772
:10063000BC01CD01620F711D811D911D42E0660F4D
:10064000771F881F991F4A95D1F708958F929F921F
:10065000AF92BF92CF92DF92EF92FF926B017C013B
:100660000E9401034B015C01C114D104E104F104B7
:10067000B9F00E940103681979098A099B09683E4B
:1006800073408105910580F321E0C21AD108E10889
:10069000F10888EE880E83E0981EA11CB11CE4CFFF
:1006A000FF90EF90DF90CF90BF90AF909F908F9092
:1006B00008952FB7F8946091CE027091CF02809187
:1006C000D0029091D1022FBF0895CF92DF92EF9286
:1006D000FF920F931F93CF93DF93CDB7DEB7C05434
:1006E000D1400FB6F894DEBF0FBECDBF0E945903B4
:1006F0000091100410911104209112043091130400
:100700006B017C01C01AD10AE20AF30A9701860143
:10071000003D17402105310590F480911804C05C1C
:10072000DE4F0FB6F894DEBF0FBECDBFDF91CF9185
:100730001F910F91FF90EF90DF90CF9008956093FD
:100740001004709311048093120490931304109278
:100750000B0410920A0410920904109208041092DB
:10076000070462E080910C040E94A80261E070E03E
:1007700080E090E00E94260361E080910C040E94DA
:10078000A80260E080910C040E941C0280910D047C
:100790008551823020F58BE291E10197F1F762E01B
:1007A00080910C040E94A8028091190490E082308C
:1007B000910538F0880F991F880F991F05970197A9
:1007C000F1F7F89480E00E9468016F3F7F4F8F4FF0
:1007D0009F4F61F410921804789480E0A0CF64E1F8
:1007E00070E080E090E00E942603D9CF81E00E9473
:1007F00068016F3F7F4F8F4F9F4F61F38E010F5FF7
:100800001F4F6E012FEBC21A2EEFD20A780180E043
:100810000E946801F701608371838283938381E082
:100820000E946801F7016483758386839783F8E0EB
:10083000EF0EF11CEC14FD0451F7789430E020E049
:10084000F801C080D180E280F380448155816681C7
:100850007781FFEFCF16DF06EF06FF0631F04F3F3F
:100860008FEF58076807780719F410921804B5CF6E
:10087000F90183E0F595E7958A95E1F7E95FFB4F8C
:100880008081880FC416D506E606F70610F180832E
:100890002F5F3F4F085F1F4F2832310589F6409187
:1008A0000B042091070480910804280F3327331F7D
:1008B00080910904280F311D80910A04820F932F23
:1008C000911D99274817190681F681E08093180435
:1008D00026CF8160DCCFAF92BF92CF92DF92EF92B2
:1008E000FF920F931F93CF93DF936C017B018B01DA
:1008F000040F151FEB015E01AE18BF08C017D1072A
:1009000059F06991D601ED91FC910190F081E02DB3
:10091000C6011995892B79F7C501DF91CF911F91F8
:100920000F91FF90EF90DF90CF90BF90AF90089520
:1009300044E050E0BC0186ED92E00C946B04FC01B5
:10094000538D448D252F30E0842F90E0821B930B34
:10095000541710F0CF96089501970895FC01918DDA
:10096000828D981761F0A28DAE0FBF2FB11D5D96DD
:100970008C91928D9F5F9F73928F90E008958FEF7F
:100980009FEF08950F931F930E9459036093DE0217
:100990007093DF028093E0029093E10286ED92E093
:1009A0000E94AE0497FF1DC00E9459030091DE0211
:1009B0001091DF022091E0023091E102601B710B87
:1009C000820B930B0091DA021091DB022091DC0282
:1009D0003091DD026017710782079307F8F28FEFFD
:1009E0009FEF1F910F910895FC01918D828D9817B3
:1009F00031F0828DE80FF11D858D90E008958FEF25
:100A00009FEF0895FC01918D228D892F90E0805CED
:100A10009F4F821B91098F739927089586ED92E06D
:100A20000E94020521E0892B09F420E0822F08951D
:100A3000FC01A48DA80FB92FB11DA35ABF4F2C9153
:100A4000848D90E001968F739927848FA689B7894A
:100A50002C93A089B1898C91837080648C93938D41
:100A6000848D981306C00288F389E02D80818F7DE4
:100A700080830895EF92FF920F931F93CF93DF939C
:100A8000EC0181E0888F9B8D8C8D98131AC0E889CA
:100A9000F989808185FF15C09FB7F894EE89FF8999
:100AA0006083E889F98980818370806480839FBF37
:100AB00081E090E0DF91CF911F910F91FF90EF9037
:100AC0000895F62E0B8D10E00F5F1F4F0F73112747
:100AD000E02E8C8D8E110CC00FB607FCFACFE88982
:100AE000F989808185FFF5CFCE010E941805F1CFED
:100AF000EB8DEC0FFD2FF11DE35AFF4FF0829FB7F6
:100B0000F8940B8FEA89FB8980818062CFCFCF93E5
:100B1000DF93EC01888D8823B9F0AA89BB89E88925
:100B2000F9898C9185FD03C0808186FD0DC00FB6CB
:100B300007FCF7CF8C9185FFF2CF808185FFEDCF49
:100B4000CE010E941805E9CFDF91CF91089580E092
:100B500090E0892B29F00E940E0581110E9400006F
:100B600080E090E0892B49F080E090E0892B29F02B
:100B70000E94000081110E94000080E090E0892B1B
:100B800049F080E090E0892B29F00E94000081115B
:100B90000E94000080E090E0892B49F080E090E026
:100BA000892B29F00E94000081110C940000089507
:100BB000AF92BF92CF92DF92EF92FF920F931F936B
:100BC000CF93DF936B017A01EC01C054DD4F288194
:100BD0003CE0389F8001399F100D1124A090030440
:100BE000B12C27FF1FC0FB011182108288818F5F0B
:100BF000888388819801280F311D87FD3A95F60179
:100C00002A153B051CF488818C30C4F180819181C8
:100C1000049680349C4908F473C0F6018081918168
:100C2000049670C088819801280F311D87FD3A9580
:100C30002A153B05DCF68881A801480F511D87FD68
:100C40005A95FA01EE0FFF1FE40FF51FED58FC4F08
:100C5000808186FFCBCF8881F801E80FF11D87FDE9
:100C6000FA95CF01EE0FFF1FE80FF91FED58FC4F6B
:100C7000808160E08F730E941C02B8CF80819181D7
:100C80002881A801420F511D27FD5A959A01FA01AA
:100C9000EE0FFF1FE20FF31FED58FC4F2181328151
:100CA000820F931FF7019183808388819801280F19
:100CB000311D87FD3A95F901EE0FFF1FE20FF31F7B
:100CC000ED58FC4F808186FF22C08881080F111DDE
:100CD00087FD1A95F801EE0FFF1FE00FF11FED5889
:100CE000FC4F808161E08F73DF91CF911F910F9155
:100CF000FF90EF90DF90CF90BF90AF900C941C02CC
:100D000080E49CE9F701918380838FEF8883DF91F2
:100D1000CF911F910F91FF90EF90DF90CF90BF90F8
:100D2000AF900895FC0180819181009711F00C949F
:100D30006B130895AF92BF92CF92DF92EF92FF9222
:100D40000F931F93CF93DF93DC01CD90DC9011972D
:100D5000C114D10439F01496CD91DC918C01760147
:100D6000209761F4DF91CF911F910F91FF90EF9049
:100D7000DF90CF90BF90AF90089575015701BFEFFE
:100D8000AB1ABB0AF7018081082E000C990B0E9458
:100D90004910892B91F72197CC0DDD1D8881082EF4
:100DA000000C990B0E944910892B29F0CE15DF0504
:100DB00010F02197F3CFAE014F5F5F4F4E195F09DF
:100DC000D80115965C934E931497CE14DF0420F44B
:100DD000B701C6010E94D514D801ED91FC9111977D
:100DE00014968D919C91E80FF91F1082BBCFFB01E7
:100DF00044815581FC01248135812417350778F021
:100E000080819181009759F0FB01608171816115AA
:100E1000710529F00E94EE1421E0892B09F020E0F1
:100E2000822F0895FC0124813581232B39F421E0A0
:100E3000FB018081882349F020E007C080819181F7
:100E40000E94DE1421E0892BB9F7822F0895CF93F9
:100E5000DF93EC010E949A0665E272E0CE010E94E7
:100E6000120781117CC068E272E0CE010E94120775
:100E7000811178C06BE272E0CE010E9412078111ED
:100E800074C06EE272E0CE010E941207811170C040
:100E900061E372E0CE010E94120781116CC064E32D
:100EA00072E0CE010E941207811168C067E372E010
:100EB000CE010E941207811164C06AE372E0CE0184
:100EC0000E941207811160C06DE372E0CE010E94A2
:100ED000120781115CC060E472E0CE010E9412072B
:100EE000811158C063E472E0CE010E9412078111A3
:100EF00054C066E472E0CE010E941207811150C016
:100F000069E472E0CE010E94120781114CC06CE4CA
:100F100072E0CE010E941207811148C06FE472E0B6
:100F2000CE010E941207811144C063E572E0CE0138
:100F30000E941207811140C067E572E0CE010E9455
:100F4000120781113CC06BE572E0CE010E941207CE
:100F5000811138C08FEF9FEFDF91CF91089586E325
:100F600090E0FACF87E390E0F7CF88E390E0F4CF0A
:100F700089E390E0F1CF8AE390E0EECF8BE390E05D
:100F8000EBCF82E090E0E8CF83E090E0E5CF84E033
:100F900090E0E2CF85E090E0DFCF86E090E0DCCF2C
:100FA00087E090E0D9CF88E090E0D6CF89E090E06C
:100FB000D3CF8AE090E0D0CF8BE090E0CDCF8CE033
:100FC00090E0CACF8DE090E0C7CF0F931F93CF93EF
:100FD000DF93EC0188819981009759F02A813B8148
:100FE0002617370730F081E0DF91CF911F910F91E5
:100FF00008958B016F5F7F4F0E94F413009759F0A3
:10100000998388831B830A832C813D81232B59F785
:10101000FC011082E8CF80E0E7CFEF92FF920F93C0
:101020001F93CF93DF93EC017B018A01BA010E94E9
:10103000E50728813981811114C02115310519F086
:10104000C9010E946B13198218821D821C821B82A7
:101050001A82CE01DF91CF911F910F91FF90EF90F7
:1010600008951D830C83B701C9010E94E714F1CFD5
:10107000CF93DF93EC016115710571F0FB010190D5
:101080000020E9F73197AF01461B570B0E940D086E
:10109000CE01DF91CF91089588819981009711F059
:1010A0000E946B13198218821D821C821B821A8275
:1010B000EFCFFC01118210821382128215821482FA
:1010C000FB0101900020E9F73197AF01461B570B58
:1010D0000C940D08EF92FF920F931F93CF93DF9321
:1010E0001F921F92CDB7DEB78C0162E572E00E94BD
:1010F00059080E94C20497FD21C08A309105F1F081
:1011000089831A82F801E480F580FFEFEF1AFF0A65
:10111000B701C8010E94E507882359F3F80120812F
:10112000318184819581BE016F5F7F4F820F931F54
:101130000E94E714F801F582E482DBCFC8010F902A
:101140000F90DF91CF911F910F91FF90EF90089535
:10115000AF92BF92CF92DF92EF92FF920F931F93C5
:10116000CF93DF935C016B017A01DB0114960D9143
:101170001C910417150720F48F2D7801042F182FC8
:1011800062E572E0C5010E945908F601C481D5816B
:10119000EC16FD06C8F40C171D0708F4E801D6018B
:1011A000ED91FC911197EC0FFD1F108110826D9154
:1011B0007C916E0D7F1DC5010E943808F60180816B
:1011C0009181C80FD91F1883C501DF91CF911F915D
:1011D0000F91FF90EF90DF90CF90BF90AF90089568
:1011E0001F920F920FB60F9211242F933F938F935C
:1011F0009F93AF93BF938091CE029091CF02A09125
:10120000D002B091D1023091CD0223E0230F2D37CF
:1012100058F50196A11DB11D2093CD028093CE02F9
:101220009093CF02A093D002B093D1028091D202CA
:101230009091D302A091D402B091D5020196A11D44
:10124000B11D8093D2029093D302A093D402B093A5
:10125000D502BF91AF919F918F913F912F910F90A8
:101260000FBE0F901F90189526E8230F0296A11D20
:10127000B11DD2CF1F920F920FB60F9211240BB651
:101280000F922F933F934F935F936F937F938F931F
:101290009F93AF93BF93EF93FF9386ED92E00E94ED
:1012A0001805FF91EF91BF91AF919F918F917F9121
:1012B0006F915F914F913F912F910F900BBE0F90C7
:1012C0000FBE0F901F9018951F920F920FB60F929E
:1012D00011240BB60F922F938F939F93EF93FF934D
:1012E000E091E602F091E7028081E091EC02F0915A
:1012F000ED0282FD1DC090818091EF028F5F8F73A0
:101300002091F002821741F0E091EF02F0E0EA5202
:10131000FD4F958F8093EF02FF91EF919F918F91F9
:101320002F910F900BBE0F900FBE0F901F9018952E
:101330008081F2CF1F920F920FB60F9211240BB63D
:101340000F922F933F934F935F936F937F938F935E
:101350009F93AF93BF93EF93FF9348E251E064E212
:1013600071E090E080E00E94D805FF91EF91BF917D
:10137000AF919F918F917F916F915F914F913F912D
:101380002F910F900BBE0F900FBE0F901F901895CE
:101390001F920F920FB60F9211240BB60F922F933C
:1013A0003F934F935F936F937F938F939F93AF93ED
:1013B000BF93EF93FF9348EA50E064EA70E083E064
:1013C00090E00E94D805FF91EF91BF91AF919F915E
:1013D0008F917F916F915F914F913F912F910F90DE
:1013E0000BBE0F900FBE0F901F9018951F920F927B
:1013F0000FB60F9211240BB60F922F933F934F937A
:101400005F936F937F938F939F93AF93BF93EF936C
:10141000FF9348E950E064E970E082E090E00E94C8
:10142000D805FF91EF91BF91AF919F918F917F91DF
:101430006F915F914F913F912F910F900BBE0F9045
:101440000FBE0F901F9018951F920F920FB60F921C
:1014500011240BB60F922F933F934F935F936F938B
:101460007F938F939F93AF93BF93EF93FF9348E83E
:1014700050E064E870E081E090E00E94D805FF91C0
:10148000EF91BF91AF919F918F917F916F915F91FC
:101490004F913F912F910F900BBE0F900FBE0F9069
:1014A0001F9018951092D9021092D80288EE93E0FE
:1014B000A0E0B0E08093DA029093DB02A093DC021C
:1014C000B093DD0287E192E09093D7028093D60239
:1014D00085EC90E09093E3028093E20284EC90E04C
:1014E0009093E5028093E40280EC90E09093E70211
:1014F0008093E60281EC90E09093E9028093E80209
:1015000082EC90E09093EB028093EA0286EC90E00C
:101510009093ED028093EC021092EF021092F00291
:101520001092F1021092F20282E080930C048BE0A0
:1015300080930D04E4E2F2E0E491E0930E04EEED1A
:10154000F1E0E491E0930F0480E89EE3A0E0B0E0D6
:101550008093140490931504A0931604B093170479
:1015600080910304803398F491E0980F90930304E2
:101570008093040490E0FC01EE0FFF1FE80FF91FB9
:10158000ED58FC4F88EB9BE09283818308958FEFA9
:10159000809304040895CF93DF93CDB7DEB76697A9
:1015A0000FB6F894DEBF0FBECDBF789484B58260CD
:1015B00084BD84B5816084BD85B5826085BD85B5F7
:1015C000816085BD80916E00816080936E00109275
:1015D00081008091810082608093810080918100F0
:1015E0008160809381008091800081608093800081
:1015F0008091B10084608093B1008091B0008160DF
:101600008093B000809191008260809391008091DE
:10161000910081608093910080919000816080931F
:1016200090008091A10082608093A1008091A10030
:1016300081608093A1008091A00081608093A000D0
:10164000809121018260809321018091210181603C
:1016500080932101809120018160809320018091FD
:101660007A00846080937A0080917A00826080930F
:101670007A0080917A00816080937A0080917A006C
:10168000806880937A001092C100E091E602F091A8
:10169000E70282E08083E091E602F091E7021082A7
:1016A000E091E202F091E3021082E091E402F09115
:1016B000E50280E180831092EE02E091EA02F0916F
:1016C000EB0286E08083E091E802F091E9028081FC
:1016D00080618083E091E802F091E9028081886076
:1016E0008083E091E802F091E90280818068808344
:1016F000E091E802F091E90280818F7D808362E0D1
:1017000080910C040E94A8020E945903605D7740FA
:10171000810991096093100470931104809312045D
:101720009093130487E38093190480910404803319
:1017300008F052C061E089E00E94A8028091040490
:10174000282F30E0F901EE0FFF1FE20FF31FED58D5
:10175000FC4F9081907C99609083109205041092C8
:1017600006042CE0622F0E94BB12829FB00111245C
:1017700030E020E0AB01420F531FFA01EE0FFF1FD4
:10178000E40FF51FED58FC4F908196FD17C02F5FB9
:101790003F4F2C30310571F7813009F0B0C0109205
:1017A000800082E080938100109285001092840076
:1017B000B19A80916F00826080936F00E091040481
:1017C0008E2F90E0FC01EE0FFF1FE80FF91FED5880
:1017D000FC4F80818064808360E088E30E94A802DF
:1017E0009924939486ED92E00E940205181619063A
:1017F0000CF008C1CE010D960E946A08CE010D962C
:101800000E949A066FE572E0CE0101960E94590887
:10181000BE016F5F7F4FCE010D960E94F706182F15
:10182000CE0101960E949206112309F454C1E98861
:10183000FA883FE0C32ED12C2FE0E216F10420F00D
:1018400067014FE0E42EF12C62E572E0CE010196D3
:101850000E94590809891A89E016F106C0F4C016D9
:10186000D10608F48601ED85FE85E00FF11FD080DA
:1018700010826D857E856E0D7F1DCE0101960E94C2
:1018800038088D859E85080F191FD801DC92898143
:101890009A81412C512C3201009719F00E940D10B1
:1018A0002B016201CE0101960E94920614141504C8
:1018B0000CF0A4C08091CB029091CC02009711F063
:1018C0000E946B13D092CA02C092C902C201880F53
:1018D000991F0E94CF128C019093CC028093CB026F
:1018E000F12CE12C86ED92E00E940205892B99F5FE
:1018F0006AE070E080E090E00E942603F3CF82303F
:1019000061F41092900080939100109295001092D3
:10191000940088BB8093710051CF833069F410929A
:10192000A00082E08093A1001092A5001092A40074
:1019300089BB8093720042CF811140CF1092200169
:1019400082E08093210110922501109224018ABB2C
:101950008093730033CFCE0107960E946A081A82E3
:1019600019821C821B821E821D826F8178856115FF
:10197000710531F04B855C85CE0101960E940D0802
:10198000CE0101960E9427075C01CE0101960E94BC
:101990009206BFEFAB16BB0609F499C0F701EE0F34
:1019A000FF1FE00FF11FB182A08260E08A2D0E942C
:1019B000A802CE0107960E949206FFEFEF1AFF0AD7
:1019C000EC14FD040CF48ECF62E086ED92E00E94F0
:1019D0003A05642D86ED92E00E943A05F12CE12C47
:1019E000D8016C910E5F1F4F86ED92E00E943A0580
:1019F000BFEFEB1AFB0AEC14FD0494F3CE010D9635
:101A00000E9492068091C802882309F4C0C184EB29
:101A100090E00E94A00100910002109101020A359D
:101A20001105A1F10E945903C090C402D090C502D3
:101A3000E090C602F090C7026C197D098E099F09DB
:101A4000C0900602D0900702E0900802F0900902D0
:101A50006C157D058E059F05C8F081E090E00A3584
:101A6000110514F08FEF9FEF800F911F90930102EB
:101A7000809300020E94A0010E9459036093C40257
:101A80007093C5028093C6029093C70280910A02A8
:101A9000882309F481C20091CB021091CC02011578
:101AA000110509F477C1F12CE12C8091C9029091C4
:101AB000CA02E816F9060CF06DC1F80180810E5FCC
:101AC0001F4F0E94E402FFEFEF1AFF0AEECFE1E0A2
:101AD000EE1AF1086ECF6EE672E0CE0101960E941A
:101AE0005908BE016F5F7F4FCE010D960E94F70629
:101AF000182FCE0101960E949206112309F463C0AB
:101B00004CE050E0BE01635F7F4FCE0107960E941C
:101B1000A8081A8219821C821B821E821D826F8174
:101B200078856115710531F04B855C85CE01019694
:101B30000E940D08CE0101960E9427078C01CE015C
:101B400001960E9492060F3F1007C1F110930C02FC
:101B500000930B02C8019927FC01EE5DFD4F249113
:101B600084529E4FFC01849100930C049BE090935F
:101B70000D0420930E0480930F0480E89EE3A0E000
:101B8000B0E08093140490931504A0931604B093CE
:101B9000170462E0802F0E94A8020E945903605D32
:101BA0007740810991096093100470931104809328
:101BB00012049093130487E380931904CE010796CF
:101BC0000E9492061BCF6AE772E0CE010D960E943A
:101BD0001207882319F090920A0210CF68E872E089
:101BE000CE010D960E941207882319F010920A0266
:101BF00005CF6AE972E0CE010D960E941207882394
:101C000019F09092C802FACE65E972E0CE010D9605
:101C10000E941207882319F01092C802EFCE61EAE1
:101C200072E0CE0101960E945908BE016F5F7F4F9E
:101C3000CE010D960E94F706182FCE0101960E9444
:101C40009206112341F14AE050E0BE01635F7F4FED
:101C5000CE0101960E94A80889819A81C12CD12CBD
:101C60007601009719F00E940D106B01CE010196CC
:101C70000E9492061C141D040CF0C0CE0D2C000C0A
:101C8000EE08FF08C0920602D0920702E092080216
:101C9000F0920902B3CE6BEA72E0CE0101960E9487
:101CA0005908BE016F5F7F4FCE010D960E94F70667
:101CB000182FCE0101960E949206112341F14AE0AD
:101CC00050E0BE01635F7F4FCE0101960E94A808DD
:101CD00089819A81C12CD12C7601009719F00E943C
:101CE0000D106B01CE0101960E9492061C141D047A
:101CF0000CF084CE0D2C000CEE08FF08C0920202FE
:101D0000D0920302E0920402F092050277CE65EBD6
:101D100072E0CE010D960E941207882309F46ECE60
:101D200064E086ED92E00E943A05C090C902D0902E
:101D3000CA026C2D86ED92E00E943A050091CB021A
:101D40001091CC020115110589F0F12CE12CEC1455
:101D5000FD0464F4D8016C910E5F1F4F86ED92E094
:101D60000E943A05BFEFEB1AFB0AF1CF68E386ED5C
:101D700092E00E943A0560910B0286ED92E00E948B
:101D80003A0569E086ED92E00E943A0537CE8AE591
:101D900090E03FCE0E946503882349F080910D04B6
:101DA0008B3028F08D3040F085518230B0F160E00A
:101DB00070E080EC9FE71CC06091080470E090E048
:101DC00080E00E9454102DEC3CEC4CEC5DE30E9452
:101DD000B3106B017C016091070470E090E080E03B
:101DE0000E9454109B01AC01C701B6010E94D8119A
:101DF0006B8B7C8B8D8B9E8B0E946503882341F0BF
:101E000080910D048C3009F4D4C0C8F48B3081F17A
:101E100060E070E080EC9FE753C060910704709130
:101E2000080476276727762790E080E00E9452100A
:101E30002DEC3CEC4CEC5DE30E94B310D9CF855106
:101E4000823030F710910904612F70E0762F6627F9
:101E500066277F7780910A04682B90E080E00E94DB
:101E600052102DEC3CEC4CEC5DE30E94B310BDC075
:101E70006091090470E090E080E00E9452106B01D4
:101E80007C0110910A0417FF0AC0AC019B0160E0BD
:101E900070E080E89FEB0E94D7116B017C011F70FE
:101EA000612F70E090E080E00E9454102DEC3CEC3B
:101EB0004CEC5DE30E94B310A70196010E94D8117B
:101EC0006D877E878F87988B88E30E94E4028C0160
:101ED00060910602709107028091080290910902B8
:101EE000611571058105910509F483C00E945210A6
:101EF0009B01AC0160E070E08AE794E40E94441228
:101F00006F83788789879A876D857E858F85988985
:101F1000FF24F3949B01AC010E94B612811101C011
:101F2000F12C6B897C898D899E899B01AC010E9473
:101F3000B612882311F06894F1F8C8010A978C3E14
:101F4000934008F45AC080E090E0A0ECBFE789839A
:101F50009A83AB83BC836894F2F861E086ED92E0EB
:101F60000E943A056F2D86ED92E00E943A0564E0EA
:101F700086ED92E00E943A05CE010D960E949804EB
:101F8000CE0143960E949804CE0101960E949804C7
:101F9000CE0107960E94980460910202709103029C
:101FA00080910402909105020E9426030E94A705D9
:101FB00019CC10910904612F70E090E080E00E943C
:101FC00052106B017C0160910A046F7070E090E028
:101FD00080E00E9454102DEC3CEC4CEC5DE30E9440
:101FE000B310A70196010E94D81117FF69CF90582E
:101FF00067CF60E070E0CB0183CF013012404CF03E
:1020000080E090E0A0E8BFE389839A83AB83BC8340
:10201000A4CF80E090E0DC01F7CF1F93FC0199276B
:102020008827BC01E89411911032E9F3193010F0BF
:102030001E30C8F31B3251F01D3249F4689406C0BB
:102040000E943410610F711D811D911D119110535B
:102050001A30B0F33EF490958095709561957F4F5E
:102060008F4F9F4F1F910895592F482F372F262F9D
:10207000660F771F881F991F660F771F881F991F8C
:10208000620F731F841F951F660F771F881F991F8C
:10209000089591110C942011803219F089508550C7
:1020A000C8F70895E89409C097FB3EF49095809591
:1020B000709561957F4F8F4F9F4F9923A9F0F92F0E
:1020C00096E9BB279395F695879577956795B7958C
:1020D000F111F8CFFAF4BB0F11F460FF1BC06F5F72
:1020E0007F4F8F4F9F4F16C0882311F096E911C084
:1020F000772321F09EE8872F762F05C0662371F0A5
:1021000096E8862F70E060E02AF09A95660F771FB8
:10211000881FDAF7880F9695879597F90895990F94
:102120000008550FAA0BE0E8FEEF16161706E807A1
:10213000F907C0F012161306E407F50798F0621BC2
:10214000730B840B950B39F40A2661F0232B242B97
:10215000252B21F408950A2609F4A140A6958FEFB6
:10216000811D811D08950E94C6100C943A110E9491
:102170002C1138F00E94331120F0952311F00C94AB
:1021800023110C94291111240C946E110E944B11EF
:1021900070F3959FC1F3950F50E0551F629FF001BA
:1021A000729FBB27F00DB11D639FAA27F00DB11DD3
:1021B000AA1F649F6627B00DA11D661F829F22275C
:1021C000B00DA11D621F739FB00DA11D621F839FE3
:1021D000A00D611D221F749F3327A00D611D231FB9
:1021E000849F600D211D822F762F6A2F11249F5707
:1021F00050409AF0F1F088234AF0EE0FFF1FBB1F0A
:10220000661F771F881F91505040A9F79E3F5105C8
:1022100080F00C9423110C946E115F3FE4F3983E10
:10222000D4F3869577956795B795F795E7959F5F72
:10223000C1F7FE2B880F911D9695879597F9089504
:1022400099278827089597F99F6780E870E060E0F4
:1022500008959FEF80EC089500240A94161617063F
:1022600018060906089500240A9412161306140687
:1022700005060895092E0394000C11F4882352F0EA
:10228000BB0F40F4BF2B11F460FF04C06F5F7F4FA2
:102290008F4F9F4F089557FD9058440F551F59F089
:1022A0005F3F71F04795880F97FB991F61F09F3F43
:1022B00079F087950895121613061406551FF2CF6C
:1022C0004695F1DF08C0161617061806991FF1CFBC
:1022D00086957105610508940895E894BB276627E3
:1022E0007727CB0197F90895052E97FB1EF40094EC
:1022F0000E948B1157FD07D00E94A61107FC03D046
:102300004EF40C948B1150954095309521953F4F8C
:102310004F4F5F4F089590958095709561957F4FD1
:102320008F4F9F4F08950E94C811A59F900DB49F95
:10233000900DA49F800D911D11240895B7FF0C945A
:1023400093110E949311821B930B0895A1E21A2E00
:10235000AA1BBB1BFD010DC0AA1FBB1FEE1FFF1F49
:10236000A217B307E407F50720F0A21BB30BE40B99
:10237000F50B661F771F881F991F1A9469F76095E0
:102380007095809590959B01AC01BD01CF0108959A
:10239000A29FB001B39FC001A39F700D811D1124A6
:1023A000911DB29F700D811D1124911D08955058EB
:1023B000BB27AA270E94EF110C943A110E942C11FE
:1023C00038F00E94331120F039F49F3F19F426F4BD
:1023D0000C9429110EF4E095E7FB0C942311E92FDE
:1023E0000E944B1158F3BA176207730784079507C9
:1023F00020F079F4A6F50C946D110EF4E0950B2EF7
:10240000BA2FA02D0B01B90190010C01CA01A00146
:102410001124FF27591B99F0593F50F4503E68F1A1
:102420001A16F040A22F232F342F4427585FF3CFE2
:10243000469537952795A795F0405395C9F77EF4B3
:102440001F16BA0B620B730B840BBAF09150A1F0FC
:10245000FF0FBB1F661F771F881FC2F70EC0BA0F82
:10246000621F731F841F48F4879577956795B7950A
:10247000F7959E3F08F0B0CF9395880F08F0992705
:10248000EE0F9795879508950E9458120C943A1173
:102490000E94331158F00E942C1140F029F45F3F44
:1024A00029F00C94231151110C946E110C942911E4
:1024B0000E944B1168F39923B1F3552391F3951BB7
:1024C000550BBB27AA2762177307840738F09F5F55
:1024D0005F4F220F331F441FAA1FA9F335D00E2EC2
:1024E0003AF0E0E832D091505040E695001CCAF72F
:1024F0002BD0FE2F29D0660F771F881FBB1F2617F2
:1025000037074807AB07B0E809F0BB0B802DBF01C8
:10251000FF2793585F4F3AF09E3F510578F00C9497
:1025200023110C946E115F3FE4F3983ED4F386952B
:1025300077956795B795F7959F5FC9F7880F911DB8
:102540009695879597F90895E1E0660F771F881FA4
:10255000BB1F621773078407BA0720F0621B730B57
:10256000840BBA0BEE1F88F7E09508950E948F1038
:10257000880B990B0895991B79E004C0991F961751
:1025800008F0961B881F7A95C9F780950895EE0F7D
:10259000FF1F881F8BBF0790F691E02D19940F93B2
:1025A0001F93CF93DF938230910510F482E090E087
:1025B000E0911C04F0911D0430E020E0B0E0A0E0C8
:1025C000309799F42115310509F44AC0281B390BBD
:1025D00024303105D8F58A819B816115710589F117
:1025E000FB0193838283FE0111C0408151810281EE
:1025F000138148175907E0F04817590799F41097C5
:1026000061F012960C93129713961C933296CF0199
:10261000DF91CF911F910F91089500931C041093A7
:102620001D04F4CF2115310551F04217530738F03E
:10263000A901DB019A01BD01DF01F801C1CFEF0162
:10264000F9CF90931D0480931C04CDCFFE01E20FBF
:10265000F31F819391932250310939832883D7CF77
:1026600020911A0430911B04232B41F420910F0276
:102670003091100230931B0420931A0420910D0214
:1026800030910E022115310541F42DB73EB740912E
:10269000110250911202241B350BE0911A04F091A3
:1026A0001B04E217F307A0F42E1B3F0B2817390772
:1026B00078F0AC014E5F5F4F2417350748F04E0F9E
:1026C0005F1F50931B0440931A04819391939FCFF3
:1026D000F0E0E0E09CCFCF93DF930097E9F0FC01BE
:1026E000329713821282A0911C04B0911D04ED0157
:1026F00030E020E01097A1F420813181820F931FF8
:1027000020911A0430911B042817390709F061C081
:10271000F0931B04E0931A04DF91CF910895EA012E
:10272000CE17DF07E8F54A815B819E01411551050F
:10273000B1F7E901FB83EA8349915991C40FD51F91
:10274000EC17FD0761F4808191810296840F951F3B
:10275000E90199838883828193819B838A83F0E056
:10276000E0E012968D919C9113970097B9F52D9109
:102770003C911197CD010296820F931F20911A046C
:1027800030911B042817390739F6309751F510920C
:102790001D0410921C04B0931B04A0931A04BCCF18
:1027A000D383C28340815181840F951FC817D907F5
:1027B00061F44E5F5F4F88819981480F591F5183A3
:1027C00040838A819B81938382832115310509F09F
:1027D000B0CFF0931D04E0931C049ECFFD01DC01FB
:1027E000C0CF13821282D7CF4F925F926F927F92A7
:1027F0008F929F92AF92BF92CF92DF92EF92FF9211
:102800000F931F93CF93DF938C01009799F4CB0123
:10281000DF91CF911F910F91FF90EF90DF90CF90BC
:10282000BF90AF909F908F907F906F905F904F90F0
:102830000C94CF12FC01E60FF71F9C0122503109C6
:10284000E217F30708F4AEC0D901CD91DC911197DE
:10285000C617D70720F1C530D10578F0CE0104970F
:102860008617970750F0C61BD70B2297C193D193B9
:102870006D937C93CF010E946B13C801DF91CF91C0
:102880001F910F91FF90EF90DF90CF90BF90AF908E
:102890009F908F907F906F905F904F9008955B0115
:1028A000AC1ABD0A4C018C0E9D1EA0911C04B09167
:1028B0001D04512C412CF12CE12C109731F5809105
:1028C0001A0490911B048815990509F05CC04616FE
:1028D000570608F058C080910D0290910E020097A3
:1028E00041F48DB79EB74091110250911202841BA2
:1028F000950BE817F90708F055C0F0931B04E09317
:102900001A04F90171836083B8CF8D919C9111975E
:1029100012966C90129713967C901397A815B90590
:1029200059F56C0142E0C40ED11CCA14DB0420F13D
:10293000AC014A195B09DA011296159780F06282A0
:10294000738251834083D9016D937C93E114F10428
:1029500071F0D7011396FC93EE9312978ECF2296C7
:102960008C0F9D1FF90191838083F301EFCFF093CA
:102970001D04E0931C0481CF4816590608F42C016D
:102980007D01D3019ACFCB010E94CF127C01009729
:1029900049F0AE01B8010E94D514C8010E946B1322
:1029A00087016BCF10E000E068CFFB01DC0102C0C3
:1029B00001900D9241505040D8F70895FB01DC0181
:1029C0008D91019080190110D9F3990B0895FB01A5
:1029D000DC0101900D920020E1F70895FB01DC017C
:1029E0004150504030F08D910190801919F4002031
:0C29F000B9F7881B990B0895F894FFCFED
:1029FC005A00D00700003200000001020000001E47
:102A0C00048000000000003A056B049F0487050257
:102A1C0005AE04F404413000413100413200413331
:102A2C00004134004135004432004433004434004A
:102A3C0044350044360044370044380044390044DF
:102A4C0031300044313100443132004431330053D1
:102A5C0045542050494E5320434F554E5400534536
:102A6C0054204448542050494E0053544152542051
:102A7C0052454144494E470053544F502052454112
:102A8C0044494E470053544F5020524F54415445E3
:102A9C00005345542053504545440053455420445D
:102AAC00454C41590047455420535441545553000B
:00000001FF
