:100000000C946D000C9495000C9495000C94950044
:100010000C9495000C9495000C9495000C9495000C
:100020000C9495000C9495000C9495000C941B086E
:100030000C9495000C9495000C9495000C949500EC
:100040000C9479070C9495000C94E9070C94C30761
:100050000C9495000C9495000C9495000C949500CC
:100060000C9495000C94950050524F544F204F4BD8
:1000700020310050524F544F204F4B20320000008F
:100080000000240027002A000000000025002800AE
:100090002B0000000008000201000003040700001C
:1000A00000000000000000000000230026002900DE
:1000B000040404040404040402020202020203030E
:1000C0000303030301020408102040800102040816
:1000D0001020010204081020FB0811241FBECFEFDE
:1000E000D8E0DEBFCDBF11E0A0E0B1E0E2EFF7E283
:1000F00002C005900D92AC3CB107D9F722E0ACEC00
:10010000B1E001C01D92AB3BB207E1F710E0CDE6D4
:10011000D0E004C02197FE010E94E811CC36D1073F
:10012000C9F70E9474090C94F7130C940000CF9245
:10013000DF92EF92FF92CF93DF93B091AB02A0E0FA
:100140008111AB2F8091AC0290E0880F991FAC0118
:100150004A555F4FC090B102D090B202E090B30216
:10016000F090B40230E020E0FA01C591D491E8812A
:10017000B90190E080E0EB23EA130AC02F5F3F4F04
:100180006C157D058E059F0578F36FEF7FEFCB0132
:10019000DF91CF91FF90EF90DF90CF900895CF92B5
:1001A000DF92EF92FF92DC01A03282E0B807D4F533
:1001B000A53BB10514F0A4EBB0E04091A20228E801
:1001C00030E0241B310947FD3395220F331F220FE6
:1001D000331F6901330FEE08FF084091A30228E5A1
:1001E00032E0241B310947FD3395220F331F220FC4
:1001F000331F032E000C440B550B2C193D094E09DF
:100200005F09B7FF02C0B0E0A0E00E94881024EBB5
:1002100030E040E050E00E945E10C20ED31EE41EAB
:10022000F51ED601E091A102EC3080F52091A202EA
:1002300088E890E0821B910927FD9395880F991F0C
:10024000880F991FA817B90784F02091A30288E5A9
:1002500092E0821B910927FD9395880F991F880FC3
:10026000991FA817B9070CF4CD010297880F991FA1
:100270004FB7F8942E2F30E0F901EE0FFF1FE20F79
:10028000F31FE458FD4F928381834FBFFF90EF909F
:10029000DF90CF90089590E0FC01EE56FF4F24913F
:1002A000FC01EC53FF4F3491FC01E055FF4FE4910A
:1002B000EE23C9F0222339F0233001F1A8F42130D4
:1002C00019F1223029F1F0E0EE0FFF1FE857FF4F40
:1002D000A591B4918FB7F894EC91611126C0309537
:1002E0003E233C938FBF08952730A9F02830C9F0F2
:1002F000243049F7809180008F7D03C08091800079
:100300008F7780938000DFCF84B58F7784BDDBCF7C
:1003100084B58F7DFBCF8091B0008F778093B00044
:10032000D2CF8091B0008F7DF9CF3E2BDACFCF9323
:10033000DF9390E0FC01EC53FF4F249180559F4FD9
:10034000FC0184918823C9F090E0880F991FFC017B
:10035000E258FF4FA591B491FC01E857FF4FC591BA
:10036000D49161110DC09FB7F8948C912095822390
:100370008C938881282328839FBFDF91CF91089594
:10038000623051F49FB7F8943C91822F809583237B
:100390008C93E8812E2BEFCF8FB7F894EC912E2B16
:1003A0002C938FBFEACF8E3008F08E508770806418
:1003B00080937C0080917A00806480937A008091A1
:1003C0007A0086FDFCCF80917800909179000895A5
:1003D0003FB7F8948091DB019091DC01A091DD01A1
:1003E000B091DE0126B5A89B05C02F3F19F00196FC
:1003F000A11DB11D3FBFBA2FA92F982F8827BC017F
:10040000CD01620F711D811D911D42E0660F771FA6
:10041000881F991F4A95D1F708958F929F92AF92A6
:10042000BF92CF92DF92EF92FF926B017C010E940C
:10043000E8014B015C01C114D104E104F104B9F0FD
:100440000E94E801681979098A099B09683E73408E
:100450008105910580F321E0C21AD108E108F10875
:1004600088EE880E83E0981EA11CB11CE4CFFF909B
:10047000EF90DF90CF90BF90AF909F908F900895B6
:100480002FB7F8946091D7017091D8018091D9016C
:100490009091DA012FBF0895CF92DF92EF92FF92F1
:1004A0000F931F93CF93DF93CDB7DEB7C054D140E6
:1004B0000FB6F894DEBF0FBECDBF0E944002009180
:1004C000AD021091AE022091AF023091B0026B01EB
:1004D0007C01C01AD10AE20AF30A97018601003DA5
:1004E00017402105310590F48091B502C05CDE4FC4
:1004F0000FB6F894DEBF0FBECDBFDF91CF911F9135
:100500000F91FF90EF90DF90CF9008956093AD0230
:100510007093AE028093AF029093B0021092A80243
:100520001092A7021092A6021092A5021092A402A5
:1005300062E08091A9020E94970161E070E080E092
:1005400090E00E940D0261E08091A9020E94970153
:1005500060E08091A9020E944B018091AA0285511E
:10056000823020F58BE291E10197F1F762E0809112
:10057000A9020E9497018091B60290E08230910515
:1005800038F0880F991F880F991F05970197F1F789
:10059000F89480E00E9497006F3F7F4F8F4F9F4FEE
:1005A00061F41092B502789480E0A0CF64E170E02D
:1005B00080E090E00E940D02D9CF81E00E94970078
:1005C0006F3F7F4F8F4F9F4F61F38E010F5F1F4F24
:1005D0006E012FEBC21A2EEFD20A780180E00E9442
:1005E0009700F701608371838283938381E00E9487
:1005F0009700F7016483758386839783F8E0EF0E95
:10060000F11CEC14FD0451F7789430E020E0F8017F
:10061000C080D180E280F3804481558166817781FA
:10062000FFEFCF16DF06EF06FF0631F04F3F8FEFEB
:1006300058076807780719F41092B502B5CFF90189
:1006400083E0F595E7958A95E1F7EC55FD4F8081BC
:10065000880FC416D506E606F70610F180832F5FD3
:100660003F4F085F1F4F2832310589F64091A8029D
:100670002091A4028091A502280F3327331F809177
:10068000A602280F311D8091A702820F932F911D82
:1006900099274817190681F681E08093B50226CF85
:1006A0008160DCCFAF92BF92CF92DF92EF92FF9248
:1006B0000F931F93CF93DF936C017B018B01040F8A
:1006C000151FEB015E01AE18BF08C017D10759F026
:1006D0006991D601ED91FC910190F081E02DC60168
:1006E0000995892B79F7C501DF91CF911F910F9162
:1006F000FF90EF90DF90CF90BF90AF90089544E0CF
:1007000050E0BC018FED91E00C945203FC01538D3D
:10071000448D252F30E0842F90E0821B930B5417DB
:1007200010F0CF96089501970895FC01918D828D68
:10073000981761F0A28DAE0FBF2FB11D5D968C9101
:10074000928D9F5F9F73928F90E008958FEF9FEF40
:1007500008950F931F930E9440026093E7017093E6
:10076000E8018093E9019093EA018FED91E00E9406
:10077000950397FF1DC00E9440020091E701109170
:10078000E8012091E9013091EA01601B710B820BB5
:10079000930B0091E3011091E4012091E501309168
:1007A000E6016017710782079307F8F28FEF9FEF5A
:1007B0001F910F910895FC01918D828D981731F052
:1007C000828DE80FF11D858D90E008958FEF9FEFEA
:1007D0000895FC01918D228D892F90E0805C9F4FC0
:1007E000821B91098F73992708958FED91E00E94E4
:1007F000E90321E0892B09F420E0822F089580E0AD
:1008000090E0892B29F00E94F50381110C940000DF
:100810000895FC01A48DA80FB92FB11DA35ABF4F95
:100820002C91848D90E001968F739927848FA689EF
:10083000B7892C93A089B1898C91837080648C9343
:10084000938D848D981306C00288F389E02D8081F2
:100850008F7D80830895EF92FF920F931F93CF9324
:10086000DF93EC0181E0888F9B8D8C8D98131AC0EB
:10087000E889F989808185FF15C09FB7F894EE89D2
:10088000FF896083E889F98980818370806480832F
:100890009FBF81E090E0DF91CF911F910F91FF907A
:1008A000EF900895F62E0B8D10E00F5F1F4F0F7322
:1008B0001127E02E8C8D8E110CC00FB607FCFACFDD
:1008C000E889F989808185FFF5CFCE010E9409046E
:1008D000F1CFEB8DEC0FFD2FF11DE35AFF4FF082AE
:1008E0009FB7F8940B8FEA89FB8980818062CFCF14
:1008F000CF93DF93EC01888D8823B9F0AA89BB8957
:10090000E889F9898C9185FD03C0808186FD0DC041
:100910000FB607FCF7CF8C9185FFF2CF808185FF62
:10092000EDCFCE010E940904E9CFDF91CF91089568
:10093000FC0180819181009711F00C948A12089536
:10094000FC0180819181009711F00C94F70E60E01A
:1009500070E0CB010895EF92FF920F931F93CF9316
:10096000DF93CDB7DEB7C854D1090FB6F894DEBF18
:100970000FBECDBF7B018A019AEA26969FAF2697CC
:1009800027968FAF279728964FAF289729961FAFA6
:10099000299744E050E0BE016B5B7F4F8FED91E003
:1009A0000E9452030115110531F0A801B7018FED26
:1009B00091E00E94520329968CAD9DADAEADBFADC6
:1009C000299789839A83AB83BC83C80101978034BC
:1009D0009105A8F5A801B701CE0105960E94D01394
:1009E0000C5F1F4FAE014F5F5F4FFA0160E07CE884
:1009F0008191682728E030E0862F90E095958795D3
:100A000060FF20C0682F672721503109A9F7CF0167
:100A1000841B950B801791075CF38FED91E00E948A
:100A20002B04C85BDF4F0FB6F894DEBF0FBECDBFFF
:100A3000DF91CF911F910F91FF90EF90089504E007
:100A400010E0D0CF682FE0CFAF92BF92CF92DF926D
:100A5000EF92FF920F931F93CF93DF93DC01CD9022
:100A6000DC901197C114D10439F01496CD91DC912A
:100A70008C017601209761F4DF91CF911F910F9146
:100A8000FF90EF90DF90CF90BF90AF9008957501E9
:100A90005701BFEFAB1ABB0AF7018081082E000C8B
:100AA000990B0E94330F892B91F72197CC0DDD1DF7
:100AB0008881082E000C990B0E94330F892B29F096
:100AC000CE15DF0510F02197F3CFAE014F5F5F4FDA
:100AD0004E195F09D80115965C934E931497CE1466
:100AE000DF0420F4B701C6010E94D013D801ED91B4
:100AF000FC91119714968D919C91E80FF91F10822B
:100B0000BBCFFB0144815581FC0124813581241731
:100B1000350778F080819181009759F0FB01608161
:100B200071816115710529F00E94E91321E0892B7B
:100B300009F020E0822F0895FC0124813581232BC8
:100B400039F421E0FB018081882349F020E007C0CF
:100B5000808191810E94D91321E0892BB9F7822FDE
:100B60000895CF93DF93EC010E94240569E271E0C0
:100B7000CE010E949C0581117CC06CE271E0CE0127
:100B80000E949C05811178C06FE271E0CE010E9445
:100B90009C05811174C062E371E0CE010E949C0546
:100BA000811170C065E371E0CE010E949C05811146
:100BB0006CC068E371E0CE010E949C05811168C0A1
:100BC0006BE371E0CE010E949C05811164C06EE36D
:100BD00071E0CE010E949C05811160C061E471E06A
:100BE000CE010E949C0581115CC064E471E0CE01DD
:100BF0000E949C05811158C067E471E0CE010E94FB
:100C00009C05811154C06AE471E0CE010E949C05EC
:100C1000811150C06DE471E0CE010E949C058111EC
:100C20004CC060E571E0CE010E949C05811148C076
:100C300063E571E0CE010E949C05811144C067E527
:100C400071E0CE010E949C05811140C06BE571E00E
:100C5000CE010E949C0581113CC06FE571E0CE0180
:100C60000E949C05811138C08FEF9FEFDF91CF91DB
:100C700008958EE090E0FACF8FE090E0F7CF80E12A
:100C800090E0F4CF81E190E0F1CF82E190E0EECF0F
:100C900083E190E0EBCF82E090E0E8CF83E090E06A
:100CA000E5CF84E090E0E2CF85E090E0DFCF86E022
:100CB00090E0DCCF87E090E0D9CF88E090E0D6CF1D
:100CC00089E090E0D3CF8AE090E0D0CF8BE090E055
:100CD000CDCF8CE090E0CACF8DE090E0C7CF0F93EE
:100CE0001F93CF93DF93EC0188819981009759F08E
:100CF0002A813B812617370730F081E0DF91CF91C1
:100D00001F910F9108958B016F5F7F4F0E94131306
:100D1000009759F0998388831B830A832C813D8136
:100D2000232B59F7FC011082E8CF80E0E7CFEF9248
:100D3000FF920F931F93CF93DF93EC017B018A0106
:100D4000BA010E946F0628813981811114C02115D2
:100D5000310519F0C9010E948A12198218821D8278
:100D60001C821B821A82CE01DF91CF911F910F91BD
:100D7000FF90EF9008951D830C83B701C9010E9475
:100D8000E213F1CFCF93DF93EC016115710571F0A0
:100D9000FB0101900020E9F73197AF01461B570B8B
:100DA0000E949706CE01DF91CF91089588819981A5
:100DB000009711F00E948A12198218821D821C82EB
:100DC0001B821A82EFCFFC011182108213821282E1
:100DD00015821482FB0101900020E9F73197AF01E1
:100DE000461B570B0C949706EF92FF920F931F939D
:100DF000CF93DF9300D0CDB7DEB78C0168E271E00E
:100E00000E94E3060E94A90397FD21C08A30910544
:100E1000F1F089831A82F801E480F580FFEFEF1A80
:100E2000FF0AB701C8010E946F06882359F3F80131
:100E30002081318184819581BE016F5F7F4F820F58
:100E4000931F0E94E213F801F582E482DBCFC80110
:100E50000F900F90DF91CF911F910F91FF90EF9026
:100E60000895AF92BF92CF92DF92EF92FF920F93CD
:100E70001F93CF93DF935C016B017A01DB01149622
:100E80000D911C910417150720F48F2D7801042F64
:100E9000182F68E271E0C5010E94E306F601C481E3
:100EA000D581EC16FD06C8F40C171D0708F4E801FF
:100EB000D601ED91FC911197EC0FFD1F108110826E
:100EC0006D917C916E0D7F1DC5010E94C206F601D9
:100ED00080819181C80FD91F1883C501DF91CF91FF
:100EE0001F910F91FF90EF90DF90CF90BF90AF9048
:100EF00008951F920F920FB60F9211242F933F93D4
:100F00008F939F93AF93BF938091D7019091D80116
:100F1000A091D901B091DA013091D60123E0230FDD
:100F20002D3758F50196A11DB11D2093D601809350
:100F3000D7019093D801A093D901B093DA018091A1
:100F4000DB019091DC01A091DD01B091DE01019601
:100F5000A11DB11D8093DB019093DC01A093DD0105
:100F6000B093DE01BF91AF919F918F913F912F91EF
:100F70000F900FBE0F901F90189526E8230F029632
:100F8000A11DB11DD2CF1F920F920FB60F92112447
:100F90002F933F934F935F936F937F938F939F9381
:100FA000AF93BF93EF93FF938FED91E00E940904FD
:100FB000FF91EF91BF91AF919F918F917F916F9131
:100FC0005F914F913F912F910F900FBE0F901F9007
:100FD00018951F920F920FB60F9211242F938F9393
:100FE0009F93EF93FF93E091EF01F091F0018081E7
:100FF000E091F501F091F60182FD1BC09081809196
:10100000F8018F5F8F732091F901821741F0E09111
:10101000F801F0E0E152FE4F958F8093F801FF91C7
:10102000EF919F918F912F910F900FBE0F901F9076
:1010300018958081F4CF1F920F920FB60F92112452
:101040002F933F934F935F936F937F938F939F93D0
:10105000AF93BF93CF93DF93EF93FF938091CC0136
:10106000C091A002D0E087FF24C0109285001092AA
:1010700084008091CC018F5F8093CC018091CC0162
:10108000082E000C990B8C179D0724F48091CC013D
:101090008C30C4F180918400909185000496803456
:1010A0009C4908F47AC08091840090918500049650
:1010B00076C08091CC01082E000C990B8C179D07EF
:1010C000C4F6E091CC018E2FEE0F990BFC01EE0FD0
:1010D000FF1FE80FF91FE458FD4F808186FFC9CF3D
:1010E000E091CC018E2FEE0F990BFC01EE0FFF1F4C
:1010F000E80FF91FE458FD4F808160E08F730E9474
:101100004B01B7CF2091840030918500E091CC0154
:101110008E2FEE0F990BFC01EE0FFF1FE80FF91F4A
:10112000E458FD4F81819281820F931F9093890033
:1011300080938800E091CC018E2FEE0F990BFC017B
:10114000EE0FFF1FE80FF91FE458FD4F808186FF67
:1011500011C0E091CC018E2FEE0F990BFC01EE0F28
:10116000FF1FE80FF91FE458FD4F808161E08F7386
:101170000E944B01FF91EF91DF91CF91BF91AF9111
:101180009F918F917F916F915F914F913F912F919F
:101190000F900FBE0F901F90189580E49CE99093DC
:1011A0008900809388008FEF8093CC01E3CF0F9369
:1011B0001F93CF93DF938C01D0E0C0E0F801EC0FD8
:1011C000FD1F6491662341F08FED91E00E942B0496
:1011D000892B11F02196F2CF42E050E066E271E0F7
:1011E0008FED91E00E9452038C0F9D1FDF91CF91F4
:1011F0001F910F9108951092E2011092E10188EE83
:1012000093E0A0E0B0E08093E3019093E401A09329
:10121000E501B093E60188E191E09093E0018093CD
:10122000DF0185EC90E09093EC018093EB0184EC7E
:1012300090E09093EE018093ED0180EC90E090932C
:10124000F0018093EF0181EC90E09093F2018093A4
:10125000F10182EC90E09093F4018093F30186EC2D
:1012600090E09093F6018093F5011092F8011092AE
:10127000F9011092FA011092FB0182E08093A90219
:101280008BE08093AA02E6ECF0E0E491E093AB02FD
:10129000E2EBF0E0E491E093AC0280E89EE3A0E0B2
:1012A000B0E08093B1029093B202A093B302B093E6
:1012B000B4028091A0028C3098F491E0980F909342
:1012C000A0028093A10290E0FC01EE0FFF1FE80F47
:1012D000F91FE458FD4F88EB9BE0928381830895CA
:1012E0008FEF8093A1020895CF93DF93CDB7DEB740
:1012F000E5970FB6F894DEBF0FBECDBF789484B5E6
:10130000826084BD84B5816084BD85B5826085BD01
:1013100085B5816085BD80916E00816080936E008F
:101320001092810080918100826080938100809181
:101330008100816080938100809180008160809332
:1013400080008091B10084608093B1008091B000F2
:1013500081608093B00080917A00846080937A00ED
:1013600080917A00826080937A0080917A00816017
:1013700080937A0080917A00806880937A0010923E
:10138000C100E091EF01F091F00182E08083E091F3
:10139000EF01F091F0011082E091EB01F091EC018E
:1013A0001082E091ED01F091EE0180E180831092D6
:1013B000F701E091F301F091F40186E08083E09180
:1013C000F101F091F201808180618083E091F1016F
:1013D000F091F201808188608083E091F101F091C9
:1013E000F201808180688083E091F101F091F20147
:1013F00080818F7D808362E08091A9020E949701A5
:101400000E944002605D7740810991096093AD02BE
:101410007093AE028093AF029093B00287E3809303
:10142000B6028091A1028C3008F051C061E089E0E1
:101430000E9497018091A102282F30E0F901EE0F60
:10144000FF1FE20FF31FE458FD4F9081907C9960DD
:1014500090831092A2021092A3022CE0622F0E94AD
:10146000DC11829FB001112430E020E0AB01420F7B
:10147000531FFA01EE0FFF1FE40FF51FE458FD4F55
:10148000908196FD16C02F5F3F4F2C30310571F7CC
:1014900081110FC01092800082E080938100109231
:1014A000850010928400B19A80916F0082608093D1
:1014B0006F00E091A1028E2F90E0FC01EE0FFF1F64
:1014C000E80FF91FE458FD4F80818064808360E05D
:1014D00080E10E9497018E010F5F1F4F8FED91E019
:1014E0000E94E903181619060CF0ECC0CE0187968D
:1014F0000E94F406CE0187960E94240563E671E0FF
:10150000C8010E94E306B801CE0187960E948105BA
:10151000F82EC8010E949804FF2009F43AC1ABA438
:10152000BCA43FE0832E912C2FE0A216B10420F042
:1015300045014FE0A42EB12C68E271E0C8010E9481
:10154000E306CBA4DCA4AC14BD04B8F48C149D0455
:1015500008F46401EFA1F8A5EC0DFD1DF0801082E8
:101560006FA178A56A0D7B1DC8010E94C2068FA1DC
:1015700098A5C80ED91ED601FC92C8010E94A004ED
:101580001B014B01C8010E949804121413040CF0B3
:1015900095C08091D4019091D501009711F00E94DF
:1015A0008A123092D3012092D201C101880F991F73
:1015B0000E94EE116C019093D5018093D401B12C5F
:1015C000A12C8FED91E00E94E903892B39F46AE0A8
:1015D00070E080E090E00E940D02F3CFCE01819692
:1015E0000E94F4061A8219821C821B821E821D82AE
:1015F00069A17AA16115710529F04DA15EA1C8010B
:101600000E949706C8010E94B1053C01C8010E94D2
:101610009804BFEF6B167B0691F1F501EE0FFF1FEB
:10162000EC0DFD1D7182608260E0862D0E949701A5
:10163000CE0181960E949804FFEFAF1ABF0AA8144A
:10164000B9040CF4BECF809102018230E0F029820F
:10165000F601DE01129690E080E02081329601963C
:101660002D93881599051CF48F319105B1F7A101CF
:101670004F5F5F4FB80182E00E94AB041FC0E1E002
:10168000AE1AB108D5CF62E08FED91E00E942B0435
:10169000622D8FED91E00E942B04B12CA12CD6017C
:1016A0006C91B2E0CB0ED11C8FED91E00E942B0427
:1016B000EFEFAE1ABE0AA814B9048CF3CE018796D8
:1016C0000E9498048091D101882309F411C284EB0F
:1016D00090E00E94CF00C0900001D09001018AE507
:1016E000C816D104A1F10E9440028090CD019090D3
:1016F000CE01A090CF01B090D001681979098A0974
:101700009B098090070190900801A0900901B0907A
:101710000A01681579058A059B05C8F09AE5C9167E
:10172000D1040CF0E8C181E090E08C0D9D1D9093F8
:101730000101809300010E94CF000E94400260934B
:10174000CD017093CE018093CF019093D001809111
:101750000B01882309F4E2C2C090D401D090D501D6
:10176000C114D10409F4CAC1B12CA12C8091D201B9
:101770009091D301A816B9060CF0C0C1D6018C9186
:10178000B2E0CB0ED11C0E94D301EFEFAE1ABE0A1D
:10179000EDCF62E771E0C8010E94E306B801CE0117
:1017A00087960E948105F82EC8010E949804FF20A8
:1017B00009F461C04CE050E0BE01695D7F4FCE018D
:1017C00081960E9431071A8219821C821B821E8216
:1017D0001D8269A17AA16115710529F04DA15EA153
:1017E000C8010E949706C8010E94B1056C01C8019A
:1017F0000E949804FFEFCF16DF06C1F1D0920D01D1
:10180000C0920C01C6019927FC01EC53FF4F2491B3
:1018100080559F4FFC018491C092A9029BE0909358
:10182000AA022093AB028093AC0280E89EE3A0E082
:10183000B0E08093B1029093B202A093B302B09350
:10184000B40262E08C2D0E9497010E944002605D0C
:101850007740810991096093AD027093AE02809345
:10186000AF029093B00287E38093B602CE018196D7
:101870000E94980423CF6EE771E0CE0187960E9404
:101880009C05882321F081E080930B0117CF6CE841
:1018900071E0CE0187960E949C05882319F0109272
:1018A0000B010CCF6EE971E0CE0187960E949C057A
:1018B000882321F081E08093D10100CF69E971E0B4
:1018C000CE0187960E949C05882319F01092D101C1
:1018D000F5CE65EA71E0C8010E94E306B801CE01C9
:1018E00087960E948105F82EC8010E949804FF2067
:1018F00001F14AE050E0BE01695D7F4FC8010E94DE
:101900003107C8010E94A0044B01C8010E9498043D
:10191000181419040CF0D2CE092C000CAA08BB082C
:101920008092070190920801A0920901B0920A01E9
:10193000C5CE6FEA71E0C8010E94E306B801CE018E
:1019400087960E948105F82EC8010E949804FF2006
:1019500001F14AE050E0BE01695D7F4FC8010E947D
:101960003107C8010E94A0044B01C8010E949804DD
:10197000181419040CF0A2CE092C000CAA08BB08FC
:101980008092030190920401A0920501B092060199
:1019900095CE69EB71E0CE0187960E949C05882365
:1019A00009F474C0A090D201B090D301C090D401CA
:1019B000D090D501809102018230C0F1A98241E02E
:1019C00050E0C114D104B9F0FE01329690E080E0FD
:1019D000AF01401B510B8A159B056CF48B319105AF
:1019E00041F0D6012C91B2E0CB0ED11C219301968F
:1019F000EFCF4CE150E0F801E40FF51F80E1808368
:101A0000E2E0F0E0EC0FFD1FE40FF51F80910C0108
:101A10008083E3E0F0E0EC0FFD1FE40FF51F89E0A9
:101A200080834D5F5F4FB80184E026CE64E08FED88
:101A300091E00E942B046A2D8FED91E00E942B040F
:101A4000C114D10491F0912C812C8A149B046CF464
:101A5000F6016081F2E0CF0ED11C8FED91E00E9483
:101A60002B042FEF821A920AF0CF60E18FED91E004
:101A70000E942B0460910C018FED91E00E942B04D9
:101A800069E08FED91E00E942B0418CE64EC71E0C8
:101A9000C8010E94E306B801CE0187960E94810525
:101AA000F82EC8010E949804FF2009F407CE46E0F2
:101AB00050E0BE01695D7F4FC8010E943107C80137
:101AC0000E94A0044B01C8010E94980432E08316D2
:101AD000910444F082E08093020183E790E00E9449
:101AE000D708ECCD81E08093020188E690E0F7CF43
:101AF0008AE590E0EECD8FEF9FEF17CE0E944C026B
:101B0000882349F08091AA028B3028F08D3040F074
:101B100085518230B0F160E070E080EC9FE71CC03E
:101B20006091A50270E090E080E00E943E0F2DECF5
:101B30003CEC4CEC5DE30E949D0F4B015C0160911D
:101B4000A40270E090E080E00E943E0F9B01AC0197
:101B5000C501B4010E94F91069AB7AAB8BAB9CABA9
:101B60000E944C02882341F08091AA028C3009F433
:101B7000ECC0C8F48B3081F160E070E080EC9FE74E
:101B800053C06091A4027091A5027627672776273B
:101B900090E080E00E943C0F2DEC3CEC4CEC5DE3CF
:101BA0000E949D0FD9CF8551823030F7F090A60268
:101BB0006F2D70E0762F662766277F778091A702CA
:101BC000682B90E080E00E943C0F2DEC3CEC4CEC4C
:101BD0005DE30E949D0FD5C06091A60270E090E089
:101BE00080E00E943C0F4B015C01F090A702F7FEE1
:101BF0000AC0AC019B0160E070E080E89FEB0E94AE
:101C0000F8104B015C016F2D6F7070E090E080E088
:101C10000E943E0F2DEC3CEC4CEC5DE30E949D0FCE
:101C2000A50194010E94F9106DA77EA78FA798AB1C
:101C300080E10E94D3011C016091070170910801AD
:101C40008091090190910A01812C912C5401611518
:101C500071058105910561F00E943C0F9B01AC016B
:101C600060E070E08AE794E40E9465114B015C013A
:101C70008FA298A6A9A6BAA6CDA4DEA4EFA4F8A820
:101C8000F1E0FDABA7019601C701B6010E94D71193
:101C9000811101C01DAA49A85AA86BA87CA8A3015C
:101CA0009201C301B2010E94D711882319F02DA916
:101CB00022602DABC1010A978C3E934008F465C0A9
:101CC00080E090E0A0ECBFE789A39AA3ABA3BCA3FC
:101CD0009DA994609DAB80910201823008F467C099
:101CE000BDA9B98384E08A83CB82DC82ED82FE8247
:101CF0004F82588669867A8689A19AA1ABA1BCA138
:101D00008B879C87AD87BE878F86988AA98ABA8A77
:101D100042E150E0B80181E00E94AB046091030110
:101D20007091040180910501909106010E940D02BD
:101D300080E090E0892B09F4D1CB0E94F503882341
:101D400009F4CCCB0E940000C9CBF090A6026F2D05
:101D500070E090E080E00E943C0F4B015C016091DC
:101D6000A7026F7070E090E080E00E943E0F2DECC3
:101D70003CEC4CEC5DE30E949D0FA50194010E9498
:101D8000F910F7FE51CF90584FCFA1E02A16A2E0EC
:101D90003A064CF080E090E0A0E8BFE389A39AA364
:101DA000ABA3BCA398CF80E090E0DC01F7CF61E06B
:101DB0008FED91E00E942B046DA98FED91E00E94C0
:101DC0002B0464E08FED91E00E942B04CE018D96F0
:101DD0000E947F03CE01C1960E947F03CE018196AF
:101DE0000E947F03CE0187960E947F0397CF1F93A7
:101DF000FC0199278827BC01E89411911032E9F37E
:101E0000193010F01E30C8F31B3251F01D3249F466
:101E1000689406C00E941E0F610F711D811D911DE7
:101E2000119110531A30B0F33EF49095809570954F
:101E300061957F4F8F4F9F4F1F910895592F482FC6
:101E4000372F262F660F771F881F991F660F771F62
:101E5000881F991F620F731F841F951F660F771FBE
:101E6000881F991F089591110C940A10803219F05F
:101E700089508550C8F70895E89409C097FB3EF44F
:101E800090958095709561957F4F8F4F9F4F9923C7
:101E9000A9F0F92F96E9BB279395F6958795779545
:101EA0006795B795F111F8CFFAF4BB0F11F460FF05
:101EB0001BC06F5F7F4F8F4F9F4F16C0882311F05D
:101EC00096E911C0772321F09EE8872F762F05C071
:101ED000662371F096E8862F70E060E02AF09A950C
:101EE000660F771F881FDAF7880F9695879597F901
:101EF0000895990F0008550FAA0BE0E8FEEF16169B
:101F00001706E807F907C0F012161306E407F507ED
:101F100098F0621B730B840B950B39F40A2661F061
:101F2000232B242B252B21F408950A2609F4A14004
:101F3000A6958FEF811D811D08950E94B00F0C940E
:101F400024100E94161038F00E941D1020F09523D6
:101F500011F00C940D100C94131011240C945810C3
:101F60000E94351070F3959FC1F3950F50E0551FF7
:101F7000629FF001729FBB27F00DB11D639FAA27DE
:101F8000F00DB11DAA1F649F6627B00DA11D661F2D
:101F9000829F2227B00DA11D621F739FB00DA11D4E
:101FA000621F839FA00D611D221F749F3327A00D08
:101FB000611D231F849F600D211D822F762F6A2FA4
:101FC00011249F5750409AF0F1F088234AF0EE0F09
:101FD000FF1FBB1F661F771F881F91505040A9F736
:101FE0009E3F510580F00C940D100C9458105F3FEB
:101FF000E4F3983ED4F3869577956795B795F79572
:10200000E7959F5FC1F7FE2B880F911D96958795E9
:1020100097F9089599278827089597F99F6780E889
:1020200070E060E008959FEF80EC089500240A942A
:102030001616170618060906089500240A941216A3
:102040001306140605060895092E0394000C11F4D6
:10205000882352F0BB0F40F4BF2B11F460FF04C083
:102060006F5F7F4F8F4F9F4F089557FD9058440FDC
:10207000551F59F05F3F71F04795880F97FB991FE7
:1020800061F09F3F79F087950895121613061406A4
:10209000551FF2CF4695F1DF08C016161706180631
:1020A000991FF1CF86957105610508940895E8940C
:1020B000BB2766277727CB0197F90895052E97FB55
:1020C0001EF400940E94751057FD07D00E94C7109F
:1020D00007FC03D04EF40C94751050954095309544
:1020E00021953F4F4F4F5F4F089590958095709584
:1020F00061957F4F8F4F9F4F08950E94E910A59FD4
:10210000900DB49F900DA49F800D911D11240895F2
:10211000B7FF0C947D100E947D10821B930B0895D5
:102120002F923F924F925F926F927F928F929F92E7
:10213000AF92BF92CF92DF92EF92FF920F931F93D5
:10214000CF93DF93CDB7DEB7CA1BDB0B0FB6F89486
:10215000DEBF0FBECDBF09942A88398848885F84C6
:102160006E847D848C849B84AA84B984C884DF8037
:10217000EE80FD800C811B81AA81B981CE0FD11D1B
:102180000FB6F894DEBF0FBECDBFED010895A1E2FA
:102190001A2EAA1BBB1BFD010DC0AA1FBB1FEE1FE1
:1021A000FF1FA217B307E407F50720F0A21BB30B2C
:1021B000E40BF50B661F771F881F991F1A9469F7A8
:1021C00060957095809590959B01AC01BD01CF0104
:1021D0000895A29FB001B39FC001A39F700D811D00
:1021E0001124911DB29F700D811D1124911D089520
:1021F0005058BB27AA270E9410110C9424100E944B
:10220000161038F00E941D1020F039F49F3F19F489
:1022100026F40C9413100EF4E095E7FB0C940D10CB
:10222000E92F0E94351058F3BA1762077307840725
:10223000950720F079F4A6F50C9457100EF4E0956C
:102240000B2EBA2FA02D0B01B90190010C01CA0170
:10225000A0011124FF27591B99F0593F50F4503E1B
:1022600068F11A16F040A22F232F342F4427585F0D
:10227000F3CF469537952795A795F0405395C9F725
:102280007EF41F16BA0B620B730B840BBAF09150DD
:10229000A1F0FF0FBB1F661F771F881FC2F70EC07C
:1022A000BA0F621F731F841F48F48795779567954F
:1022B000B795F7959E3F08F0B0CF9395880F08F03B
:1022C0009927EE0F9795879508950E9479110C94A0
:1022D00024100E941D1058F00E94161040F029F49E
:1022E0005F3F29F00C940D1051110C9458100C9470
:1022F00013100E94351068F39923B1F3552391F31D
:10230000951B550BBB27AA2762177307840738F064
:102310009F5F5F4F220F331F441FAA1FA9F335D0C1
:102320000E2E3AF0E0E832D091505040E695001C75
:10233000CAF72BD0FE2F29D0660F771F881FBB1F2F
:10234000261737074807AB07B0E809F0BB0B802D0D
:10235000BF01FF2793585F4F3AF09E3F510578F039
:102360000C940D100C9458105F3FE4F3983ED4F396
:10237000869577956795B795F7959F5FC9F7880F0D
:10238000911D9695879597F90895E1E0660F771F5F
:10239000881FBB1F621773078407BA0720F0621BF0
:1023A000730B840BBA0BEE1F88F7E09508950E941B
:1023B000790F880B990B0895991B79E004C0991F38
:1023C000961708F0961B881F7A95C9F7809508958F
:1023D000EE0FFF1F0590F491E02D09940F931F93CA
:1023E000CF93DF938230910510F482E090E0E0918A
:1023F000B902F091BA0230E020E0B0E0A0E03097FE
:1024000099F42115310509F44AC0281B390B2430F1
:102410003105D8F58A819B816115710589F1FB0130
:1024200093838283FE0111C0408151810281138117
:1024300048175907E0F04817590799F4109761F0C9
:1024400012960C93129713961C933296CF01DF913C
:10245000CF911F910F9108950093B9021093BA0282
:10246000F4CF2115310551F04217530738F0A90177
:10247000DB019A01BD01DF01F801C1CFEF01F9CF06
:102480009093BA028093B902CDCFFE01E20FF31F01
:10249000819391932250310939832883D7CF20919A
:1024A000B7023091B802232B41F4209110013091F2
:1024B00011013093B8022093B70220910E013091A0
:1024C0000F012115310541F42DB73EB7409112019E
:1024D00050911301241B350BE091B702F091B80223
:1024E000E217F307A0F42E1B3F0B2817390778F0EB
:1024F000AC014E5F5F4F2417350748F04E0F5F1F4A
:102500005093B8024093B702819391939FCFF0E02C
:10251000E0E09CCFCF93DF930097E9F0FC01329786
:1025200013821282A091B902B091BA02ED0130E09B
:1025300020E01097A1F420813181820F931F209118
:10254000B7023091B8022817390709F061C0F0933B
:10255000B802E093B702DF91CF910895EA01CE1758
:10256000DF07E8F54A815B819E0141155105B1F70E
:10257000E901FB83EA8349915991C40FD51FEC17F8
:10258000FD0761F4808191810296840F951FE90116
:1025900099838883828193819B838A83F0E0E0E042
:1025A00012968D919C9113970097B9F52D913C91BE
:1025B0001197CD010296820F931F2091B70230919F
:1025C000B8022817390739F6309751F51092BA0238
:1025D0001092B902B093B802A093B702BCCFD383D4
:1025E000C28340815181840F951FC817D90761F4B8
:1025F0004E5F5F4F88819981480F591F51834083F7
:102600008A819B81938382832115310509F0B0CFA4
:10261000F093BA02E093B9029ECFFD01DC01C0CF76
:1026200013821282D7CFB0E0A0E0E9E1F3E10C948D
:1026300092108C01009751F4CB010E94EE118C0195
:10264000C801CDB7DEB7E0E10C94AE10FC01E60F97
:10265000F71F9C0122503109E217F30708F49DC0CF
:10266000D901CD91DC911197C617D70798F0C530E5
:10267000D10530F3CE0104978617970708F3C61BE0
:10268000D70B2297C193D1936D937C93CF010E9476
:102690008A12D6CF5B01AC1ABD0A4C018C0E9D1E6E
:1026A000A091B902B091BA02512C412CF12CE12C2D
:1026B000109731F58091B7029091B802881599056D
:1026C00009F05CC04616570608F058C080910E010C
:1026D00090910F01009741F48DB79EB74091120180
:1026E00050911301841B950BE817F90708F055C0AA
:1026F000F093B802E093B702F90171836083A0CF31
:102700008D919C91119712966C90129713967C90D4
:102710001397A815B90559F56C0142E0C40ED11CF8
:10272000CA14DB0420F1AC014A195B09DA011296E4
:10273000159780F06282738251834083D9016D9333
:102740007C93E114F10471F0D7011396FC93EE939E
:10275000129776CF22968C0F9D1FF901918380836B
:10276000F301EFCFF093BA02E093B90269CF4816B4
:10277000590608F42C017D01D3019ACFCB010E94A8
:10278000EE117C01009749F0AE01B8010E94D01310
:10279000C8010E948A12870153CF10E000E050CF99
:1027A000FB01DC0102C001900D9241505040D8F76E
:1027B0000895FB01DC018D91019080190110D9F37E
:1027C000990B0895FB01DC0101900D920020E1F7C7
:1027D0000895FB01DC014150504030F08D91019093
:1027E000801919F40020B9F7881B990B0895F89403
:0227F000FFCF19
:1027F2005A0001D007000032000000010200000070
:10280200BB028000000000002B0452038603780400
:10281200E9039503DB030D0A004130004131004119
:102822003200413300413400413500443200443328
:102832000044340044350044360044370044380034
:1028420044390044313000443131004431320044D3
:102852003133005345542050494E5320434F554E77
:102862005400534554204448542050494E00535478
:102872004152542052454144494E470053544F500F
:102882002052454144494E470053544F5020524F25
:102892005441544500534554205350454544005338
:1028A20045542044454C4159004745542053544116
:0C28B2005455530050524F544F2000006A
:00000001FF
