:100000000C9483000C94AB000C94AB000C94AB00EC
:100010000C94AB000C94AB000C94AB000C94AB00B4
:100020000C94AB000C94AB000C94AB000C94AB00A4
:100030000C94AB000C94AB000C94AB000C94AB0094
:100040000C9460220C94AB000C94D0220C94AA2245
:100050000C94AB000C94AB000C94AB000C94AB0074
:100060000C9402230C94AB00494E41323139206E7E
:100070006F7420666F756E6400564C35334C305883
:10008000206E6F7420666F756E6400424D45323885
:1000900030206E6F7420666F756E640050524F543E
:1000A0004F204F4B20310050524F544F204F4B2088
:1000B000320000000000250028002B00000000088E
:1000C000000201000003040700000000000000001F
:1000D00000000000240027002A000102040810206C
:1000E00040800102040810200102040810200404CA
:1000F00004040404040402020202020203030303D0
:1001000003032124F53211241FBECFEFD8E0DEBF58
:10011000CDBF26E0ACEBB2E001C01D92A333B20725
:10012000E1F712E0A0E0B1E0E8E8F4E702C00590F2
:100130000D92AC3BB107D9F710E0C2E8D0E004C0A3
:100140002197FE010E941D38C138D107C9F70E94CE
:100150008C240C94373A0C940000CF93DF9300D09A
:1001600000D0CDB7DEB719821A821B821C8289812A
:100170009A81AB81BC818A3F9105A105B10568F4E4
:10018000000089819A81AB81BC810196A11DB11DBE
:1001900089839A83AB83BC83EACF80E00F900F9072
:1001A0000F900F90DF91CF910895089508954F9289
:1001B0005F926F927F928F929F92AF92BF92CF92F7
:1001C000DF92EF92FF920F931F93CF93F9010FEFFE
:1001D0001FEF980100831183228333834A015B015F
:1001E000B3E0B694A79497948794BA95D1F76A012F
:1001F0007B0127E0C222DD24EE24FF249501840147
:10020000C0E0063011052105310508F041C0C111DB
:100210003FC0DC01A00FB11F6C91412C512C320169
:1002200080169106A206B30649F470E00C2C02C0B9
:10023000759567950A94E2F726013701462F50E03D
:1002400060FF17C0B901A801A3E0440F551F661F46
:10025000771FAA95D1F7440E551E661E771E408261
:10026000518262827382C1E00F5F1F4F2F4F3F4F59
:10027000C8CFBA01759567954FEF441A540A640ABE
:10028000740A48E04416510461047104B9F6ECCFD5
:10029000CF911F910F91FF90EF90DF90CF90BF9083
:1002A000AF909F908F907F906F905F904F90089548
:1002B00090E0FC01E454FF4F2491FC01E652FF4F13
:1002C0003491FC01E251FF4FE491EE23C9F0222367
:1002D00039F0233001F1A8F4213019F1223029F14D
:1002E000F0E0EE0FFF1FEE54FF4FA591B4918FB7D2
:1002F000F894EC91611126C030953E233C938FBF5A
:1003000008952730A9F02830C9F0243049F78091AA
:1003100080008F7D03C0809180008F778093800064
:10032000DFCF84B58F7784BDDBCF84B58F7DFBCFE6
:100330008091B0008F778093B000D2CF8091B000D1
:100340008F7DF9CF3E2BDACFCF93DF9390E0FC0186
:10035000E652FF4F249182519F4FFC0184918823E4
:10036000D1F090E0880F991FFC01E053FF4FA59159
:10037000B491FC01EE54FF4FC591D49161110EC0B0
:100380009FB7F8948C91E22FE0958E238C9328816F
:10039000E223E8839FBFDF91CF9108958FB7F89450
:1003A000EC91E22BEC938FBFF6CF8230910538F0C1
:1003B000880F991F880F991F05970197F1F70895E6
:1003C0003FB7F8948091050390910603A09107032D
:1003D000B091080326B5A89B05C02F3F19F00196E0
:1003E000A11DB11D3FBFBA2FA92F982F8827BC018F
:1003F000CD01620F711D811D911D42E0660F771FB7
:10040000881F991F4A95D1F708958F929F92AF92B6
:10041000BF92CF92DF92EF92FF926B017C010E941C
:10042000E0014B015C01C114D104E104F104B9F015
:100430000E94E001681979098A099B09683E7340A6
:100440008105910580F321E0C21AD108E108F10885
:1004500088EE880E83E0981EA11CB11CE4CFFF90AB
:10046000EF90DF90CF90BF90AF909F908F900895C6
:10047000AF92BF92CF92DF92EF92FF920F931F93B2
:10048000CF93DF936C017B018B01040F151FEB01F0
:100490005E01AE18BF08C017D10759F06991D601A7
:1004A000ED91FC910190F081E02DC6010995892B19
:1004B00079F7C501DF91CF911F910F91FF90EF90D8
:1004C000DF90CF90BF90AF900895FC01538D448D85
:1004D000252F30E0842F90E0821B930B541710F0EF
:1004E000CF96089501970895FC01918D828D9817FC
:1004F00061F0A28DAE0FBF2FB11D5D968C91928DD4
:100500009F5F9F73928F90E008958FEF9FEF089504
:100510002FB7F8948091090390910A03A0910B03DF
:10052000B0910C032FBF80938C0390938D03A09305
:100530008E03B0938F0384E893E00E94740297FFC8
:1005400026C02FB7F8948091090390910A03A091D7
:100550000B03B0910C032FBF40918C0350918D037E
:1005600060918E0370918F03841B950BA60BB70BC4
:10057000409188035091890360918A0370918B03A5
:1005800084179507A607B707B0F28FEF9FEF08957E
:10059000FC01918D828D981731F0828DE80FF11D4D
:1005A000858D90E008958FEF9FEF0895FC01918D68
:1005B000228D892F90E0805C9F4F821B91098F7361
:1005C0009927089584E893E00E94D60221E0892BC0
:1005D00009F420E0822F089580E090E0892B29F033
:1005E0000E94E20281110C9400000895FC01A48D88
:1005F000A80FB92FB11DA35ABF4F2C91848D90E045
:1006000001968F739927848FA689B7892C93A08927
:10061000B1898C91837080648C93938D848D9813B1
:1006200006C00288F389E02D80818F7D8083089544
:10063000EF92FF920F931F93CF93DF93EC0181E032
:10064000888F9B8D8C8D98131AC0E889F9898081D9
:1006500085FF15C09FB7F894EE89FF896083E8890C
:10066000F98980818370806480839FBF81E090E0FE
:10067000DF91CF911F910F91FF90EF900895F62E8B
:100680000B8D10E00F5F1F4F0F731127E02E8C8D25
:100690008E110CC00FB607FCFACFE889F98980816A
:1006A00085FFF5CFCE010E94F602F1CFEB8DEC0F66
:1006B000FD2FF11DE35AFF4FF0829FB7F8940B8F87
:1006C000EA89FB8980818062CFCFCF93DF93EC01F1
:1006D000888D8823B9F0AA89BB89E889F9898C912A
:1006E00085FD03C0808186FD0DC00FB607FCF7CFE6
:1006F0008C9185FFF2CF808185FFEDCFCE010E94E6
:10070000F602E9CFDF91CF910895FC0183858F3FF9
:1007100019F061E00C9458010895FC0180819181E9
:10072000892B39F0A281B3819C9111968C919CBD4B
:100730008DBD83858F3F19F060E00C9458010895BA
:10074000BF92CF92DF92EF92FF920F931F93CF93BE
:10075000DF93EC0188819981892B81F06EBD0DB406
:1007600007FEFDCF0EB5802FDF91CF911F910F9126
:10077000FF90EF90DF90CF90BF9008958885998586
:1007800011E0892B09F010E8BB24B394862F812354
:1007900009F0B12CF62E2C813D814E815F8160E203
:1007A00071EA87E090E00E948836E22E00E0C22ED7
:1007B000D12CEE2019F0C6010E94D5018A85982F10
:1007C000977F09F044C08D858F3F89F09F2D91233D
:1007D00081E009F480E08B1551F0EF85F8898F896D
:1007E000992379F19081892B8083BB24B394E98983
:1007F000FA898081998D892B8083EE2019F0C601BA
:100800000E94D5018E858F3F39F0EB89FC8980816C
:10081000988D892309F0012BE989FA899081898DC6
:1008200080958923808388859985892B09F067C005
:10083000110F1111BECF8E858F3F09F094CF0F2D70
:1008400092CF9081809589238083B12CD0CF8C303A
:1008500099F58D858F3F49F0EF85F8898F899F2D18
:10086000912331F19081892B8083E989FA899081E4
:10087000898D809589238083EE2019F0C6010E941E
:10088000D501E989FA898081998D892B8083EE20B1
:1008900019F0C6010E94D5018E858F3F21F2EB89A8
:1008A000FC898081988D892309F4BDCF012BBBCFB2
:1008B000908180958923D8CFE989FA898081998DA3
:1008C000892B8083EE2019F0C6010E94D5018D8509
:1008D0008F3F49F0EF85F8898F899F2D912359F03B
:1008E0009081892B8083E989FA899081898D80950F
:1008F00089238083D1CF908180958923F3CF16956A
:1009000098CF8F929F92AF92BF92CF92DF92EF9249
:10091000FF920F931F93CF93DF937C014B016A01EA
:10092000B22EA32E0E948D03E401C80CD91CCC1555
:10093000DD0569F4CB2DDA2D0C0F1D1FC017D10773
:1009400059F06FEFC7010E94A0038993F7CF699117
:10095000C7010E94A003EBCFC7010E94850381E07D
:10096000DF91CF911F910F91FF90EF90DF90CF908B
:10097000BF90AF909F908F9008958F929F92AF926B
:10098000BF92CF92DF92EF92FF920F931F93CF937C
:10099000DF937C01B62EA72E6A0149010E948D03C8
:1009A000E401080D191DC017D10761F4CB2DDA2D14
:1009B000CC0EDD1ECC15DD0551F06991C7010E94FA
:1009C000A003F8CF6991C7010E94A003ECCFC70133
:1009D0000E94850381E0DF91CF911F910F91FF90DD
:1009E000EF90DF90CF90BF90AF909F908F90089541
:1009F0002091DD02260F3327331F21323105ECF41D
:100A000020917E03FC0190E080E0243069F082E0D8
:100A10000895A091DD022191AC0143545D4FA40FD4
:100A2000B52FB11D2C930196861798F38091DD02A6
:100A3000680F6093DD0280E0089581E008951092D0
:100A40007E0381E080935D031092580361E082E1B0
:100A50000E94580161E083E10E945801E9EBF0E057
:100A600080818E7F808380818D7F808388E48093E6
:100A7000B80085E48093BC0008951092130310928F
:100A8000120310921503109237030E941F0585ED83
:100A900090E0909311038093100386ED90E0909383
:100AA0000F0380930E030895CF93DF9391E090930B
:100AB000BC028823B9F0C091B800D091BA008091EF
:100AC000BC008A7B8093BC0060E082E10E945801F8
:100AD00060E083E10E9458010E941F05D093BA0094
:100AE000C093B800DF91CF9108958F929F92AF92FB
:100AF000BF92CF92DF92EF92FF920F931F93CF930B
:100B0000DF93D82FC62F142F613208F09CC00E94AB
:100B1000E0016B017C0180917E0381116FC081E057
:100B200080937E0310935D039FEF90935C0310927C
:100B30005B039C0F90935A03809359038091590350
:100B4000DD0FD82BD093590380915803813009F0E1
:100B50007CC0109258030E94E0016B017C018091DF
:100B600059038093BB008091800390918103A091F1
:100B70008203B0918303892B8A2B8B2BA1F00E94D7
:100B8000E001009180031091810320918203309154
:100B900083036C197D098E099F090617170728071B
:100BA000390708F44CC08091BC0083FDD8CF85EC98
:100BB0008093BC000E94E0016B017C0180917E0368
:100BC000813009F444C080915B038C1710F4C0910C
:100BD0005B03E8E3F3E0AEE5B3E080E08C1359C0DB
:100BE0008C2FDF91CF911F910F91FF90EF90DF90AD
:100BF000CF90BF90AF909F908F9008958091800389
:100C000090918103A0918203B0918303892B8A2B59
:100C10008B2B09F480CF0E94E0018090800390909C
:100C20008103A0908203B09083036C197D098E0923
:100C30009F0986169706A806B90608F06CCF809122
:100C40007F030E945405C0E0CBCF85EEB1CF8091E9
:100C5000800390918103A0918203B0918303892B3B
:100C60008A2B8B2B09F4AACF0E94E001009180030C
:100C70001091810320918203309183036C197D09C7
:100C80008E099F09061717072807390708F096CF1E
:100C9000D6CF91919D938F5FA1CF8F929F92AF926C
:100CA000BF92CF92DF92EF92FF920F931F93CF9359
:100CB000DF93D0913703D13208F0D7C0182FC091FD
:100CC00036030E94E0016B017C0180917E0381115B
:100CD0006BC082E080937E0310935D038FEF80935F
:100CE0005C0310925B03D0935A03A6E1B3E0E8E300
:100CF000F3E080E0D81391C010925903809159031A
:100D0000CC0FC82BC093590380915803813009F050
:100D100088C0109258030E94E0016B017C01809111
:100D200059038093BB008091800390918103A0912F
:100D30008203B0918303892B8A2B8B2BA1F00E9415
:100D4000E001009180031091810320918203309192
:100D500083036C197D098E099F0906171707280759
:100D6000390708F442C08091BC0083FDD8CF85ECE0
:100D70008093BC000E94E0016B017C0180917E03A6
:100D8000823009F450C080915C038F3F09F46FC03A
:100D900080915C03803209F46CC080915C038033E5
:100DA00009F469C084E026C080918003909181039A
:100DB000A0918203B0918303892B8A2B8B2B09F49A
:100DC00084CF0E94E0018090800390908103A090E6
:100DD0008203B09083036C197D098E099F098616E2
:100DE0009706A806B90608F070CF80917F030E948D
:100DF000540585E0109215031092370310921403E6
:100E0000DF91CF911F910F91FF90EF90DF90CF90E6
:100E1000BF90AF909F908F9008959D9191938F5F19
:100E200069CF85EEA5CF8091800390918103A09139
:100E30008203B0918303892B8A2B8B2B09F49ECFDD
:100E40000E94E001009180031091810320918203B0
:100E5000309183036C197D098E099F0906171707C6
:100E60002807390708F08ACFC0CF81E0C3CF80E0E0
:100E7000C1CF82E0BFCF83E0BDCF8F929F92AF9270
:100E8000BF92CF92DF92EF92FF920F931F93CF9377
:100E9000DF936A014801E70191E090931403809386
:100EA00036031092150310923703E881F9810190FF
:100EB000F081E02DC70109958C0C9D1CC814D90444
:100EC00059F0E881F9810190F081E02DD6016D9112
:100ED0006D01CE010995F2CF81E00E944D0690E0B0
:100EE00080E0DF91CF911F910F91FF90EF90DF9005
:100EF000CF90BF90AF909F908F900895EF92FF9208
:100F00000F931F93CF93DF9300D0CDB7DEB7FC01D3
:100F1000EF5BFE4F70813496E080F1804A83598305
:100F200002E010E020E030E0AE014F5F5F4F872F1E
:100F30000E943D07892B51F08CEE0F900F90DF91AE
:100F4000CF911F910F91FF90EF90089580E0F5CF22
:100F5000EF92FF920F931F93CF93DF931F92CDB722
:100F6000DEB7FC01EF5BFE4F70813496E080F180CC
:100F7000498301E010E020E030E0AE014F5F5F4FB9
:100F8000872F0E943D07892B49F08CEE0F90DF914F
:100F9000CF911F910F91FF90EF90089580E0F6CFD1
:100FA000EF92FF920F931F93AB01FC01EB5BFE4F9F
:100FB000E080F1808F5B9E4F06E010E020E030E0A3
:100FC00060EBFC0180810E943D07892B31F08CEEA3
:100FD0001F910F91FF90EF90089580E0F9CF8F92CD
:100FE0009F92BF92CF92DF92EF92FF920F931F9347
:100FF000CF93DF93DA01AE0DBF1DEC01EC81FD81D3
:10100000EA17FB0710F490E026C0B22E6A014B01EC
:1010100089819A81288131E030931403209336032B
:101020001092150310923703E114F10409F5898138
:101030009A81DC01ED91FC910280F381E02DA60103
:10104000B4010995C816D906F1F68B2D0E944D06FC
:1010500091E08111D8CF892FDF91CF911F910F910E
:10106000FF90EF90DF90CF90BF909F908F9008956A
:1010700001151105E1F2DC01ED91FC910280F38193
:10108000E02DA701B80109958E159F0509F0BBCF8A
:10109000CECFEF92FF920F931F93CF93DF9300D0A9
:1010A000CDB7DEB789836A83F12CE12C10E000E034
:1010B00021E042E050E0BE016F5F7F4F809130043D
:1010C000909131040E94EF070F900F90DF91CF9124
:1010D0001F910F91FF90EF900895EF92FF920F9361
:1010E0001F93CF93DF9300D0CDB7DEB7DC015196CD
:1010F0004D935D936D937C9354971C968C911C97A4
:10110000882389F11E964C931E97452F562F672FE3
:101110007727882361F11D964C931D97BD01635F6E
:101120007F4F18969C91189719964C91199799830F
:101130004A83ED91FC9111973097E9F01B96EC9062
:10114000F12C8E010F5F1F4F21E042E050E0CF01F4
:101150000E94EF070F900F90DF91CF911F910F9199
:10116000FF90EF9008951D964C931D97CECF1E963D
:101170004C931E97D3CF1296ED91FC911397309715
:1011800049F116962D913C9117971B960C9110E002
:101190002330310571F44E7F49839A830F5F1F4FCF
:1011A0009E012F5F3F4F42E050E0CF010E94BD04FF
:1011B000D1CF2115310519F49F779983F1CF2230D2
:1011C000310511F49068F9CF2130310549F79F7747
:1011D0009064F3CF1496ED91FC9115973097B1F090
:1011E0008085882309F4B6CFE680F780E114F10406
:1011F00069F002E010E09B011B964C91BE016F5F0D
:101200007F4F81859285F7010995A4CF80E0A2CF19
:10121000EF92FF920F931F93CF93DF9300D0CDB740
:10122000DEB76A83E091F405F091F5053097B9F0E7
:101230008983F12CE12C10E000E021E042E050E055
:10124000BE016F5F7F4FCF010E94EF070F900F909D
:10125000DF91CF911F910F91FF90EF9008958F77BD
:10126000898310E000E030E020E042E050E0BE0181
:101270006F5F7F4F8091F6059091F7050E94BD0446
:10128000E5CFCF93DF93EC018B818823A1F0888198
:1012900091E09093140380933603109215031092FB
:1012A000370381E00E944D0691E0811190E0892F83
:1012B000DF91CF9108950E943D0581E08B83CE019F
:1012C0000E944109982F8111E2CFF1CF0895E0915A
:1012D000130380911203E81730F4F0E0E25AFC4F58
:1012E000808190E008958FEF9FEF08959091130310
:1012F000809112032FEF3FEF981748F4E92FF0E0A9
:10130000E25AFC4F208130E09F5F90931303C901A4
:1013100008958091120390911303891B990B0895EE
:10132000CF92DF92EF92FF920F931F93CF93DF93B1
:101330007C01CB018A0120911403222389F0EB0167
:101340006B01C40ED51ECC15DD0569F06991D7017E
:10135000ED91FC910190F081E02DC7010995F3CF4B
:10136000642F0E94F804C801DF91CF911F910F9163
:10137000FF90EF90DF90CF900895CF93DF931F926F
:10138000CDB7DEB76983209114032223F9F02091B1
:101390003703203258F021E030E0FC013383228310
:1013A00090E080E00F90DF91CF9108958091150338
:1013B000E82FF0E0EA5EFC4F998190838F5F809385
:1013C00015038093370381E090E0ECCF61E0CE011C
:1013D00001960E94F804F7CF90E080E008958F9284
:1013E0009F92AF92BF92DF92EF92FF920F931F9363
:1013F000CF93DF93D82EEA01480181E08093140354
:10140000D09236031092150310923703D701ED9155
:10141000FC910190F081E02DC701099581E00E94C7
:101420004D0641E0602F8D2D0E947505109213032B
:10143000809312038C0E9D1EC815D90551F0D7015B
:10144000ED91FC910284F385E02DC7010995899304
:10145000F3CF90E080E0DF91CF911F910F91FF904B
:10146000EF90DF90BF90AF909F908F9008952F9254
:101470003F924F925F926F927F928F929F92AF9224
:10148000BF92CF92DF92EF92FF920F931F93CF9371
:10149000DF93CDB7DEB72F970FB6F894DEBF0FBE40
:1014A000CDBF9C878B876D875F874E87390117017A
:1014B00028012F82388649865A8610E000E0EE2403
:1014C000E394F12C0A151B0509F461C09E01295F04
:1014D0003F4FB201A1018E859F850E94D7004F81A9
:1014E000588569857A854F3F2FEF5207620772074B
:1014F00009F49CC0DB01CA018C549F4FAF4FBF4F12
:10150000E6E0B695A79597958795EA95D1F7880F68
:10151000991F880F991F82509E4F21E0FC01808106
:101520009181A281B381892B8A2B8B2B09F420E036
:10153000FD85F2137BC01A012B0133E056944794CA
:10154000379427943A95D1F7DB01CA018770992720
:10155000AA27BB2726E0221631044104510468F46F
:10156000F301E20DF31D970102C0220F331F8A958C
:10157000E2F7C9019081892B80831A012B013FEF8B
:10158000231A330A430A530A0F5F1F4F9BCFB12C14
:10159000F4012082318242825382B1102DC0B30106
:1015A0008B859C850E94D007B82E811125C0EB85C4
:1015B000FC85EB5BFE4FE080F180EB85FC85EF5B0B
:1015C000FE4F06E010E020E030E0AE014F5F5F4FDD
:1015D00060EB80810E94EF09892B11F09CEEB92EFF
:1015E000F301DE011196C301069631912D9132135C
:1015F00020C0E817F907C9F78B2D2F960FB6F8947E
:10160000DEBF0FBECDBFDF91CF911F910F91FF9035
:10161000EF90DF90CF90BF90AF909F908F907F9092
:101620006F905F904F903F902F9008952EECB22EC8
:10163000AFCF8EECB82EE0CFCF92DF92EF92FF9239
:101640000F931F93CF93DF9300D000D0CDB7DEB7B9
:101650006A01FC01EB5BFE4FE080F1808F5B9E4FE7
:1016600004E010E020E030E0AE014F5F5F4FFC018E
:1016700080810E94EF0949815A81542745275427C8
:1016800070E060E0762F652F542F44272B81422B8A
:10169000762F652F542F44272C81422BF60140834F
:1016A000518362837383892B71F480E00F900F90D4
:1016B0000F900F90DF91CF911F910F91FF90EF90BE
:1016C000DF90CF9008958CEEF1CFCF92DF92EF9222
:1016D000FF920F931F93CF93DF9300D0CDB7DEB768
:1016E0006A01FC01EB5BFE4FE080F1808F5B9E4F57
:1016F00002E010E020E030E0AE014F5F5F4FFC0100
:1017000080810E94EF0929813A81322723273227DD
:10171000F60131832083892B61F480E00F900F90D4
:10172000DF91CF911F910F91FF90EF90DF90CF90BD
:1017300008958CEEF3CFEF92FF920F931F93CF9308
:10174000DF9300D0CDB7DEB78C017A01633071052D
:1017500009F449C090F46130710509F162307105F6
:10176000E1F1F80181A992A9A3A9B4A9F7018083A5
:101770009183A283B38380E049C06630710588F706
:10178000AE014F5F5F4F64E60E94650B81113EC062
:10179000298180E0922F990FB0E0A0E0E7CFAE0161
:1017A0004F5F5F4F64E40E94650B81112FC09981E8
:1017B00020E0392F330FA90170E060E0232BD1F036
:1017C000F7014083518362837383F80145AB56ABC5
:1017D00067AB70AF91E096A319C0FC0181AD92ADEB
:1017E000A3ADB4ADC3CFFC01FD9680819181A281F0
:1017F000B381BCCFF80145A956A967A970ADF7011F
:101800004083518362837383F80116A20F900F9077
:10181000DF91CF911F910F91FF90EF9008958F92DC
:101820009F92AF92BF92CF92DF92EF92FF920F936F
:101830001F93CF93DF9300D0CDB7DEB7962ED42E73
:10184000822EFC01EF5BFE4FC0805C012BEBA21AE5
:101850002EEFB20AF501E080F18001E010E020E017
:1018600030E0AE014E5F5F4F8C2D0E94EF09892B57
:10187000A9F42A812D2128292A83F501E080F1800D
:10188000298301E010E020E030E0AE014F5F5F4FC0
:10189000692D8C2D0E943D07892B81F08CEE0F90D5
:1018A0000F90DF91CF911F910F91FF90EF90DF90FC
:1018B000CF90BF90AF909F908F90089580E0EFCF32
:1018C000EF92FF920F931F93FC01EB5BFE4FE080C2
:1018D000F1808F5B9E4F01E010E020E030E0FC01E2
:1018E00080810E94EF09892B31F08CEE1F910F91BE
:1018F000FF90EF90089580E0F9CFEF92FF920F9361
:101900001F93CF93DF931F92CDB7DEB77C0100E02A
:1019100041E06BE0C7010E94A807182F40E06BE090
:10192000C7010E94A807182BAE014F5F5F4F63E10C
:10193000C7010E94600C812B0F5F9981977061F045
:10194000033061F0882321F30F90DF91CF911F9135
:101950000F91FF90EF9008950330B1F784EFF4CF2B
:101960000F931F93CF93DF931F92CDB7DEB78A01FA
:10197000AE014F5F5F4F613081F060E50E94600C07
:10198000811105C099819F5F990FF80190830F9095
:10199000DF91CF911F910F91089560E7EFCFCF9224
:1019A000DF92EF92FF921F93CF93DF931F92CDB7F9
:1019B000DEB77C0140E063E80E94A807182F811180
:1019C00017C0D12CC12CAE014F5F5F4F63E8C70138
:1019D0000E94600C182F898181110AC0111108C062
:1019E0008FEFC81AD80A88ECC816D10461F719EF2E
:1019F00041E063E8C7010E94A807812B0F90DF91A7
:101A0000CF911F91FF90EF90DF90CF900895CF92EC
:101A1000DF92EF92FF920F931F93CF93DF931F926A
:101A2000CDB7DEB77C0110E000E06C018EECC80E93
:101A3000D11CF6018081AE014F5F5F4F8430A9F465
:101A400063E1C7010E94600C9981292F277098716A
:101A500011F58823D9F00F90DF91CF911F910F914D
:101A6000FF90EF90DF90CF90089564E1C7010E944E
:101A7000600C8111F0CF998190FDEDCF0F5F1F4F6A
:101A8000083C110531F00E94AD00D3CF2430B1F7EE
:101A9000E2CF89EFE0CF8AEFDECFCF93DF93EC0187
:101AA000462F416060E00E94A807811111C0CE015D
:101AB0000E94070D81110CC0CE010E947D0C811186
:101AC00007C040E060E0CE01DF91CF910C94A80701
:101AD000DF91CF9108950F931F93CF93DF931F92C0
:101AE000CDB7DEB78B011982AE014F5F5F4F61E06A
:101AF0000E94600C811116C0998194FB332730F944
:101B0000F801308393FB332730F9328392FB33277C
:101B100030F9318396FB222720F92383991F9927D7
:101B2000991F94830F90DF91CF911F910F9108958A
:101B30002F923F924F925F926F927F928F929F92DD
:101B4000AF92BF92CF92DF92EF92FF921F93CF930B
:101B5000DF93CDB7DEB72B970FB6F894DEBF0FBE7D
:101B6000CDBF6C011A011B861F821E82623009F0F4
:101B70006EC0AE01465F5F4F60E00E94B00C182F50
:101B8000811108C0AE01455F5F4F66E4C6010E9447
:101B9000600C182FAA85B0E020E03FE24AE350E055
:101BA0000E94AC342B013C0124EF420E21E0521E76
:101BB000611C711CCB84D12CF12CE12C8FEFC81A45
:101BC000D80AE80AF80A98EE892E93E0992EA12CFB
:101BD000B12CC301B201A50194010E948836CA014B
:101BE000B901A70196010E9464366B017C01C30113
:101BF000B20120ED37E040E050E00E948836C70196
:101C0000B601620F731F841F951FA50194010E94E6
:101C10008836F1012083318342835383812F2B96B1
:101C20000FB6F894DEBF0FBECDBFDF91CF911F91ED
:101C3000FF90EF90DF90CF90BF90AF909F908F90EC
:101C40007F906F905F904F903F902F9008956330FA
:101C500009F043C0AE01465F5F4F60E00E94B00CE8
:101C6000182F20E030E0A9018111D3CFAE01465FEB
:101C70005F4F60E0C6010E94B00C182F811108C0B0
:101C8000AE014A5F5F4F61E5C6010E94650B182FE8
:101C9000EE81FF81AA85B0E020E03FE24AE350E018
:101CA0000E94AC342B013C0124EF420E21E0521E75
:101CB000611C711C6F01DD24F12CE12C04C0CC0CE3
:101CC000DD1CEE1CFF1CFA95D2F78FEFC81AD80A5C
:101CD000E80AF80AEE24FF2476CFBE016F5F7F4F3B
:101CE0000E946B0D8C81882351F1AE01465F5F4FDE
:101CF00060E0C6010E94B00C182FF12CE12C81117C
:101D00001BC0AE014A5F5F4F61E5C6010E94650BD3
:101D1000182F2E813F81C9019927B0E0A0E004C0AF
:101D2000880F991FAA1FBB1F3A95D2F70196A11DD4
:101D3000B11D7C01112329F0D12CC12C25C0F12C1F
:101D4000E12CAE01465F5F4F61E0C6010E94B00C1E
:101D5000182F8111F1CFAE01485F5F4F61E7C601D7
:101D60000E94650B182F28853985C9019927B0E095
:101D7000A0E004C0880F991FAA1FBB1F3A95D2F795
:101D80000196A11DB11D6C01AA85B0E020E03FE2E3
:101D90004AE350E00E94AC342B013C01E4EF4E0ECC
:101DA000E1E05E1E611C711C88EE882E83E0982E97
:101DB000A12CB12CC301B201A50194010E94883667
:101DC000D601AE19BF090E94AC340FCF4F925F927B
:101DD0006F927F92BF92CF92DF92EF92FF920F931A
:101DE0001F93CF93DF9300D000D0CDB7DEB78A0129
:101DF000AE014F5F5F4F0E94980DB82E81112AC02F
:101E000069817A818B819C8128EE422E23E0522EBB
:101E1000612C712CA30192010E94883669017A011C
:101E20009B01AC01AFEFBFEF0E94AC346C507E4F12
:101E30008F4F9F4FA30192010E9488367601DD24C7
:101E4000CC24C20ED31EE41EF51EF801C082D1823E
:101E5000E282F3828B2D0F900F900F900F90DF9105
:101E6000CF911F910F91FF90EF90DF90CF90BF9097
:101E70007F906F905F904F9008955F926F927F92E6
:101E80008F929F92AF92BF92CF92DF92EF92FF928A
:101E90000F931F93CF93DF93CDB7DEB761970FB644
:101EA000F894DEBF0FBECDBF7C018B01FC018089A1
:101EB000FB018083AE014A5F5F4F68EFC7010E945C
:101EC000650B582E81113AC1AE014F5F5F4F64E040
:101ED000C7010E941C0B582E811130C12E813F81F9
:101EE0002115310569F050E040E069817A818B81EC
:101EF0009C810E948836F80126833783408751876A
:101F0000F80186819781A085B185F701868B978B33
:101F1000A08FB18FF8011286AE014F5F5F4F60E274
:101F2000C7010E94650B582E811108C189819A81D1
:101F3000009709F01AC1F701858D968DA78DB0A184
:101F4000F80185879687A787B08BF701128EAE01BF
:101F50004F5F5F4F68E2C7010E94650B582E8111E9
:101F6000EDC089819A819F708115F8E09F0708F084
:101F700090514AEF489F9001499F300D1124C901AB
:101F8000330FAA0BBB0BF801818B928BA38BB48B05
:101F90005801F1E2AF0EB11C470125E2820E911CFF
:101FA000380185E1680E711CD12CC12CA501B60148
:101FB000C7010E949B0B582E8111C0C0F401819172
:101FC0004F01F30181933F01FFEFCF1ADF0A24E0B5
:101FD000A20EB11C86E0C816D10441F7AE014F5FD6
:101FE0005F4F61E0C7010E94600C582E8111A6C0AE
:101FF0008981F701E35EFE4F808387FFCAC081E0DD
:10200000F80181AFF80181ADF701E75BFF4F8083F5
:1020100080ED97E0A0E0B0E08A879B87AC87BD8722
:102020001E821F821886198686E39BE0A0E0B0E03E
:10203000F80182839383A483B583BE016F5F7F4FD2
:10204000C7010E946B0D582E811178C089818111C2
:1020500007C08A81811104C08B81882309F43EC0A6
:10206000AE01465F5F4F62E0C7010E94980D81118B
:10207000C1C089818823A9F08A859B85AC85BD85EF
:10208000825B9D4FAF4FBF4FF80142815381648106
:102090007581840F951FA61FB71F82839383A48326
:1020A000B5838B81882309F477C08A859B85AC85AD
:1020B000BD858E549D4FAF4FBF4F880F991FAA1FEC
:1020C000BB1FF8014281538164817581840F951F84
:1020D000A61FB71F82839383A483B5838C8181114C
:1020E00068C08D81882301F1AE01425F5F4F64E0DB
:1020F000C7010E94980D8E849F84A888B988F6E253
:102100008F0EF2E09F1EA11CB11CF8014281538189
:1021100064817581480D591D6A1D7B1D428353835F
:1021200064837583811166C0F80182819381A481E3
:10213000B581F701828B938BA48BB58B852D61962E
:102140000FB6F894DEBF0FBECDBFDF91CF911F91C8
:102150000F91FF90EF90DF90CF90BF90AF909F9046
:102160008F907F906F905F90089533E0880F991F54
:102170003A95E1F7B0E0A0E0F80185879687A78758
:10218000B08BF701858F968FA78FB0A381E0828FE8
:10219000DECEF80111AE36CF8A81882309F49ECFB6
:1021A0008A859B85AC85BD858C569D4FAF4FBF4FB3
:1021B00088CFAE014A5F5F4F63E0C7010E94980D70
:1021C0008E809F80A884B984F4E98F0EF2E09F1E70
:1021D000A11CB11CF8014281538164817581480DB5
:1021E000591D6A1D7B1D4283538364837583882335
:1021F00009F477CF582EA2CF5F926F927F928F9281
:102200009F92AF92BF92CF92DF92EF92FF920F9385
:102210001F93CF93DF936C0139015801F12CE12C0E
:1022200010E000E020E00E94EF07582E882309F418
:1022300042C00A151B0508F03FC0D60114968D91C7
:102240009C91E501C01BD10B8C179D0708F4EC0194
:1022500041E0C5018C1B9D0B0817190708F440E0ED
:102260006C2FC13208F060E2F60180810E94750592
:1022700010921303809312038C171D06E1F443019F
:10228000800E911E7401C701881999098C179D074A
:1022900078F4D60111968D919C91DC01ED91FC9121
:1022A0000284F385E02D0995F70181937F01EBCF3F
:1022B0000C0F1D1FBECF512C852DDF91CF911F918B
:1022C0000F91FF90EF90DF90CF90BF90AF909F90D5
:1022D0008F907F906F905F9008958F929F92AF92B2
:1022E000BF92CF92DF92EF92FF920F931F93CF9303
:1022F000DF931F92CDB7DEB76B017C0120E030E0A9
:1023000040E85FE30E94853387FD8BC020E030EC1E
:102310004AE555E4C701B6010E945F3618163CF441
:10232000C12C30ECD32E3AE5E32E35E4F32E609148
:1023300032047091330480913404909135040E94EA
:102340008A334B015C0120E030E040E855E4C701EE
:10235000B6010E94EB339B01AC01C501B4010E94A0
:102360006A3520E030E040E05FE30E94FE3420E088
:1023700030E040E85FE30E94FD346B017C0120E027
:1023800030E040E450E40E94853387FD51C020E0F6
:1023900030E04FE753E4C701B6010E945F361816DC
:1023A00034F4C12CD12C9FE7E92E93E4F92E198245
:1023B00001E010E09E012F5F3F4F41E050E0B90186
:1023C00080913004909131040E94FC101981612F9A
:1023D0006F76606180E00E944908C701B6010E94E3
:1023E000DC358EEF0E944908612F80E00E94490889
:1023F00065E070E080E090E00E940502612F606A75
:1024000080E00E9449080F90DF91CF911F910F91BA
:10241000FF90EF90DF90CF90BF90AF909F908F9004
:102420000895C12CD12C20E8E22E2FE3F22E7FCF8D
:10243000C12CD12C80E4E82EFE2CB9CF0F931F9332
:10244000CF93DF931F92CDB7DEB7E091F405F09103
:10245000F505898301E010E09E012F5F3F4F41E0C9
:1024600050E0B901309751F0CF010E94FC108981F2
:102470000F90DF91CF911F910F9108958091F605F4
:102480009091F7050E948104F2CF0F931F93CF9391
:10249000DF9300D0CDB7DEB7E091F405F091F505FC
:1024A000898302E010E09E012F5F3F4F41E050E042
:1024B000B901309779F0CF010E94FC1089819A818F
:1024C0009827892798270F900F90DF91CF911F9120
:1024D0000F9108958091F6059091F7050E9481046F
:1024E000EDCF0E94451298278927982708950F93CA
:1024F0001F93CF93DF9300D01F92CDB7DEB7E0914B
:10250000F405F091F505898303E010E09E012F5F4B
:102510003F4F41E050E0B9013097B9F0CF010E9440
:10252000FC1029816A8170E090E080E0982F872F6D
:10253000762F6627822B2B81622B0F900F900F90A6
:10254000DF91CF911F910F9108958091F6059091A1
:10255000F7050E948104E5CF4F925F926F927F92C0
:102560008F929F92AF92BF92CF92DF92EF92FF92A3
:1025700080912D06877009F49EC08AEF0E94771221
:102580002B013C0184E075946794579447948A9595
:10259000D1F7C0900B06D0900C06C301B20128E021
:1025A00030E040E050E00E94AA36F12CE12CD70147
:1025B000C601880F991FAA1FBB1F281B390B4A0B86
:1025C0005B0BA0910D06B0910E060E94C9364B011F
:1025D0005C01C301B20120E130E040E050E00E9424
:1025E000AA36CA01B9016C197D098E099F099B01A0
:1025F000AC010E9464369B01AC017CE05595479587
:10260000379527957A95D1F7A0910F06B0911006CE
:102610000E94C9362B013C01C501B40120E038E01D
:1026200040E050E00E94AA3669017A01C301B2017C
:1026300020E030E440E050E00E94AA362C0D3D1D21
:102640004E1D5F1D8091070690910806A091090616
:10265000B0910A06280F391F4A1F5B1F20930306FB
:10266000309304064093050650930606A5E0B0E0BB
:102670000E94AC3460587F4F8F4F9F4F20E031E075
:1026800040E050E00E94AA36CA01B9010E948C3392
:1026900020E030E048EC52E40E946A35FF90EF9071
:1026A000DF90CF90BF90AF909F908F907F906F9072
:1026B0005F904F90089560E070E080EC9FE7EECF70
:1026C000AF92BF92CF92DF92EF92FF920F931F9340
:1026D000CF93DF9300D0CDB7DEB77C016B019C01B7
:1026E000235F3F4FDC0118969C91189719968C91A7
:1026F000199799838A83ED91FC911197309719F17D
:102700001B964C9150E002E010E0BE016F5F7F4FDE
:10271000CF010E94FC10882309F44AC0D7011C96FF
:102720009C911C97911169C01E962C911E9730E0C8
:10273000322F2227F601318320831D969C91292B6D
:102740003183208335C01296ED91FC911397309719
:1027500049F116966D917C9117971B964C9150E01C
:102760006330710579F4A82FA160A9839A834F5F24
:102770005F4F02E010E0BE016F5F7F4FCF010E940C
:102780008104C9CF6115710519F490689983F1CF5F
:102790006230710511F49F77F9CF6130710549F707
:1027A000906CF4CFF701A481B581109771F480E0AB
:1027B0000F900F90DF91CF911F910F91FF90EF90AD
:1027C000DF90CF90BF90AF90089518968C91189796
:1027D000882369F31496AD90BC901597A114B104A9
:1027E00031F302E010E04385BE016F5F7F4F199621
:1027F0008D919C91F50109958ECF1D962C911D9779
:1028000030E0322F2227F601318320831E969C91DF
:1028100096CF9F92AF92BF92CF92DF92EF92FF92AC
:102820000F931F93CF93DF931F92CDB7DEB77C0139
:102830005B016A01922E198241E06FEF0E94A807A6
:10284000182F40E060E0C7010E94A807182B40E065
:102850006FEFC7010E94A807182B992031F0A5013E
:102860006BECC7010E94600C182B002341F0AE01F5
:102870004F5F5F4F6EEEC7010E94600C182B41E066
:102880006FEFC7010E94A807182B41E060E0C70165
:102890000E94A807182B40E06FEFC7010E94A8070D
:1028A00099819F7EF6019083812B0F90DF91CF91CC
:1028B0001F910F91FF90EF90DF90CF90BF90AF905E
:1028C0009F9008952F923F924F925F926F927F92C6
:1028D0008F929F92AF92BF92CF92DF92EF92FF9230
:1028E0000F931F93CF93DF93CDB7DEB769970FB6E2
:1028F000F894DEBF0FBECDBF00ED17E020E030E062
:102900000B871C872D873E871F86188A198A1A8A8B
:1029100040322EE4520761057105E0F45CEFB52EFC
:102920008B2D69960FB6F894DEBF0FBECDBFDF9139
:10293000CF911F910F91FF90EF90DF90CF90BF90BC
:10294000AF909F908F907F906F905F904F903F904F
:102950002F9008954E8B5F8B688F798F8C01BE010D
:102960006A5F7F4F0E946B0DB82E8111D9CFCE8840
:10297000DF88E88CF98C88EEC81A88E0D80AE1086C
:10298000F1088E81811106C08F81811103C0888575
:102990008823C1F1AE01455F5F4F62E0C8010E942C
:1029A000980D81110AC18E81882391F08B859C85B9
:1029B000AD85BE85825B9D4FAF4FBF4F8C159D058A
:1029C000AE05BF0508F0AACFC81AD90AEA0AFB0A61
:1029D0008885882309F471C08B859C85AD85BE856B
:1029E0008E549D4FAF4FBF4F880F991FAA1FBB1F1B
:1029F0008C159D05AE05BF0508F090CFC81AD90A01
:102A0000EA0AFB0A89858823D9F0AE01415F5F4F4E
:102A100063E0C8010E94980D4F85588969897A89B9
:102A20004C565D4F6F4F7F4F4C155D056E057F0512
:102A300008F074CF8111C1C0C41AD50AE60AF70A9A
:102A40008A85882309F46CCFBE016F5F7F4FC80170
:102A50000E946B0D8C818823E9F1AE014B5E5F4FC4
:102A600060E0C8010E94B00CB82E81111CC0AE01FC
:102A70004D5E5F4F61E5C8010E94650BB82E8B89E2
:102A80009C891C013324512C412C04C0220C331C82
:102A9000441C551C9A95D2F79FEF291A390A490A06
:102AA000590ABB20C9F08E899F89A88DB98DF8017C
:102AB000828B938BA48BB58B33CF8F81882309F4C2
:102AC000A1CF8B859C85AD85BE858C569D4FAF4F24
:102AD000BF4F8ECF312C212CAE014B5E5F4F61E09A
:102AE000C8010E94B00CB82E8111DDCFA6E2CA1A2F
:102AF000A2E0DA0AE108F108AD89B0E020E03FE2A7
:102B00004AE350E00E94AC344B015C01B4EF8B0E01
:102B1000B1E09B1EA11CB11CA8EEB3E0A701960179
:102B20000E94AC342B013C01C501B40120ED37E01B
:102B300040E050E00E948836420E531E641E751E0F
:102B4000C501B40128EE33E040E050E00E94883631
:102B5000C301B2010E948836220E331E21143104B3
:102B6000E1F04101B12CA12CE1E08E1A9108A108FD
:102B7000B10890E080E0B501A4014427452B462B25
:102B8000472B31F0B694A794979487940196F3CF8E
:102B9000982F88271C01280C391CA10161E7C80166
:102BA0000E947E07B82E81117ECFF801E153FF4FBE
:102BB000C082D182E282F38276CFB82EB1CE7F92EC
:102BC0008F929F92AF92BF92CF92DF92EF92FF923D
:102BD0000F931F93CF93DF931F92CDB7DEB77C0186
:102BE0005B016A01722E4C0183EE881A8EEF980AFF
:102BF000F4011081198241E061E0C7010E94A80739
:102C000081114AC060E4C7010E944D0D811144C08A
:102C1000F1E07F121AC000E021E0AE014F5F5F4F8C
:102C2000B501C7010E940914882389F00F90DF9134
:102C3000CF911F910F91FF90EF90DF90CF90BF90B9
:102C4000AF909F908F907F900895F501108242E0A1
:102C500061E0C7010E94A807811124C060E0C7019C
:102C60000E944D0D81111EC0F1E07F1218C001E0DD
:102C700020E0A601BE016F5F7F4FC7010E940914CB
:102C80008111D4CF412F61E0C7010E94A8078111B3
:102C9000CDCFF4011083CACFF5011082C7CFF60162
:102CA0001082F0CFF601F9CF2F923F924F925F92B0
:102CB0006F927F928F929F92AF92BF92CF92DF924C
:102CC000EF92FF920F931F93CF93DF93CDB7DEB7B1
:102CD000EC970FB6F894DEBF0FBECDBF6C015B0161
:102CE000DC0150961C9241E060E80E94A80741E098
:102CF0006FEFC6010E94A80740E060E0C6010E9495
:102D0000A807F601E95DFE4F408161E9C6010E9416
:102D1000A80741E060E0C6010E94A80740E06FEF0D
:102D2000C6010E94A80740E060E8C6010E94A8070B
:102D300041E060E0C6010E94A807811116C091E041
:102D40009983412C512C3201BFEF4B1A5B0A6B0A5D
:102D50007B0A998190FF2AC08111B6C2E8EC4E1619
:102D6000510461047104D1F489EFEC960FB6F89424
:102D7000DEBF0FBECDBFDF91CF911F910F91FF90AE
:102D8000EF90DF90CF90BF90AF909F908F907F900B
:102D90006F905F904F903F902F900895AE014F5FDE
:102DA0005F4F60E0C6010E94600CCECFF8EC4F167A
:102DB000510461047104C1F28111D7CFC6010E9490
:102DC000070D8111D2CF83E0F601E15EFE4F8083D3
:102DD000B696E080F1800CE010E020E030E0AE013B
:102DE000465E5F4F64E1349780810E94EF09892B32
:102DF00011F08CEEBACFD50156961C925697F5017C
:102E000010821182128213826CA170E0762F6627E5
:102E10002DA1620F711D14961D921D921D921C9280
:102E20001797E9A1F0E0FE2FEE27FF0F2F01712C7D
:102E3000612C1C964D925D926D927C921F978BA196
:102E400090E0982F8827990F8C0130E020E0509671
:102E50000D931D932D933C9353970C8D10E0102FE1
:102E600000272D8D7801E20EF11CFCAEEBAE5596DD
:102E7000FC92EE9254979A8CD601A75CBE4F2D918E
:102E80003C9111975B978C90283E03E03007E9F165
:102E9000629FC001639F900D729F900D11248C5012
:102EA0009E4F68EE73E00E947436D6015D96ED90F9
:102EB000FD900D911C9190975A962C91222329F107
:102EC0002BAD3CAD2E9DA0012F9D500D3E9D500D74
:102ED0001124452F5527E417F50741F460EE7AE8F1
:102EE000882009F4E3C068EB72E212C09F01DB01A5
:102EF0000E94EE3483017F01E41AF50A01091109E9
:102F0000A80197010E948836B901882009F4CEC033
:102F1000CB019695879596958795D50119969C93A3
:102F20008E9318976295660F660F607C57966C9328
:102F30001FA61EA6892D90E07C0173E0F594E7940E
:102F40007A95E1F7FAAEE9AE09AD0F70902E09F46B
:102F5000B2C089AD8D7011E018AB853029F084EFD7
:102F6000800F843008F018AA41E06FEFC6010E947C
:102F7000A807811107C0AE01425D5F4F66EBC60135
:102F80000E94650B9EA520E0392F330F790110E0D8
:102F900000E0E9AAFAAA0BAB1CAB811105C040E026
:102FA0006FEFC6010E94A807F601EE5CFE4FE9A88C
:102FB000FAA80BA91CA9E082F18202831383811174
:102FC00078C1D60195968C909597882009F47FC09A
:102FD000F501E484F584068517855A968C9120E0E6
:102FE00030E0A901882399F0A489B589F601258DDF
:102FF000368D478D50A10E94AC349B01AC01205806
:103000003F4F4F4F5F4F232F342F452F55272E0D06
:103010003F1D401F511FA8EEB3E00E94AC34705812
:103020008F4F9F4FBC0188279927F601E65DFE4F21
:10303000672B682B692B09F041C08EEA97E8AFE84F
:10304000B2E080839183A283B3831EEAE12E17E866
:10305000F12E0FE812E0EDAAFEAA0FAB18AFD501D2
:103060001B961C921E921A97AE01465D5F4F70E050
:1030700060E0C6010E949B0B4AA55BA56CA57DA5DF
:10308000411551056105710559F0FF24F3940DA90F
:103090001EA92FA938AD401751076207730708F022
:1030A000F12C8823A9F0212C312C07C1F50171875F
:1030B0006087178A3DCF01E008AB56CF108211829E
:1030C000128213821DAA1EAA1FAA18AEC8CFF12C05
:1030D000D60197963C90332009F4C5C0AE014A5DF5
:1030E0005F4F62E070E0C6010E949B0B4EA15FA1A2
:1030F00068A579A5411551056105710559F0EE24C2
:10310000E39409A91AA92BA93CA940175107620702
:10311000730708F0E12C212C90E0811132C0D60118
:1031200098962C90222009F4A4C00BAD1CAD01157B
:10313000110509F49AC0962D852D742D66279801E6
:1031400050E040E00E94883629013A01AE014F5F0D
:103150005F4F63E070E0C6010E949B0B49815A817A
:103160006B817C81411551056105710531F091E05C
:10317000441655066606770608F090E0882309F4A1
:1031800079C0D5011B961C921E921A9780E081107F
:1031900002C0FF24F394F60136A1F3A6F4E09F16D3
:1031A00009F4B0C021E0311120E0D6019C962C93A7
:1031B000311002C0EE24E394F601E5A6211001C00F
:1031C00091E0D6019E969C93F501808F9601265B37
:1031D0003F4F99E1F901DE01119601900D929A9508
:1031E000E1F7D5011896ED91FC91199757969C91AE
:1031F00057971A966D917C911B971C96ED90FD90B8
:103200000D911C911F9750964D905D906D907C9004
:10321000539754964D915C91559714968D909D902F
:10322000AD90BC9017978D829E82AF82B886FA8748
:10323000E9877C876B87ED86FE860F87188B498A26
:103240005A8A6B8A7C8A5E8B4D8B988F898F89E135
:10325000FE013196D90101900D928A95E1F7C601E0
:103260000E947D0C82CDE12C5ACF412C512C320191
:103270006DCF90E018A98FEF113009F488CF890D38
:103280008330F0F026E0921639F139E0931621F1FF
:1032900089AD8D708830B1F041E0E41699F054E0CA
:1032A000951639F1913001F1F41601F19F2DEF2CB3
:1032B00068CF212C312C812CF12C90E0E12C61CFB6
:1032C00085E065CF83E063CFB8EC4B165104610411
:1032D000710409F04ACD48CD84E081105CCFF6013D
:1032E00036A121E023A75ECF82E0F7CFE92E81E06F
:1032F000F4CF82E081104FCF81E0D6019B968C9372
:10330000E12C82E021E051CFAF92BF92DF92EF92A9
:10331000FF920F931F93CF93DF93CDB7DEB76997DB
:103320000FB6F894DEBF0FBECDBF8C015B017C01F0
:1033300083EEE81A8EEFF80AF701D08040EC61E0E6
:10334000C8010E94A807811126C0BE016F5F7F4F90
:10335000C8010E94541681111EC041E06FEFC801E0
:103360000E94A807811117C0A50166EBC8010E9441
:10337000650B811110C040E06FEFC8010E94A807E3
:10338000811109C04D2D61E0C8010E94A80781117B
:1033900002C0F701D08269960FB6F894DEBF0FBE67
:1033A000CDBFDF91CF911F910F91FF90EF90DF90F4
:1033B000BF90AF9008952F923F924F925F926F927D
:1033C0007F928F929F92AF92BF92CF92DF92EF92B5
:1033D000FF920F931F93CF93DF93CDB7DEB7AC97D8
:1033E0000FB6F894DEBF0FBECDBF1C017FA36EA346
:1033F00059A748A71F82188619861A861B861C861D
:103400001D861E86198A1A8AFC01E85DFE4F2081FE
:103410003181398F288FAC014F5E5E4F5B8F4A8FB1
:10342000DA011C922C01BEEE4B1ABEEF5B0AF201D0
:1034300010823C01FDEE6F1AFEEF7F0AD3011C9251
:10344000FC01EC5EFE4F10823196108231961082A4
:1034500041E06FEF0E94A8078B8B81111DC140E0F6
:103460006FE4C1010E94A8078B8B811115C14CE24A
:103470006EE4C1010E94A8078B8B81110DC140E051
:103480006FEFC1010E94A8078B8B811105C144EB2E
:1034900066EBC1010E94A8078B8B8111FDC040E043
:1034A00060E8C1010E94A8078B8B8111F5C020E064
:1034B000AE014E5E5F4FBE016F5E7F4FC1010E9445
:1034C000DF158B8B8111E8C01F82188619861A863A
:1034D000F101E95EFE4FFD8FEC8F9E01295F3F4FAA
:1034E0004901A3E0AA2EB12CC12CD12CE12CF12C46
:1034F00087012A8D3B8DAF0160E0C1010E94370A30
:103500008B8B8111C9C04F81588569857A854C8B19
:103510005D8B6E8B7F8BBE01615F7F4FC1010E940F
:1035200084198B8B8111B8C08F859889688D798DAE
:103530006817790708F0D3C0AA8DBB8D1C92F201E1
:103540001082D3011C9232961082319610823196ED
:1035500010828C899D89AE89BF898C549F4FAF4F53
:10356000BF4FE6E0B695A79597958795EA95D1F771
:10357000880F991F880F991F82509E4FFC018081F0
:103580009181A281B381892B8A2B8B2B91F42C8979
:103590003D894E895F892C3231054105510548F43A
:1035A0002F5F3F4F4F4F5F4F2C8B3D8B4E8B5F8B71
:1035B000D0CFAE01495F5F4F4A0173E0A72EB12C17
:1035C000C12CD12CEC88FD880E891F892A8D3B8D5A
:1035D0004C8D5D8D61E0C1010E94370A811159C196
:1035E0006F81788589859A856C8B7D8B8E8B9F8B7F
:1035F000BE01615F7F4FC1010E948419811149C1E1
:103600008F859889A88DB98D11E063E0462E512CE5
:10361000612C712CA817B90720F010E0412C512C17
:103620003201C12CD12C7601C39460C0D501C401F4
:103630000196A11DB11D8C8B9D8BAE8BBF8B86E03F
:10364000EAA5FBA5ACA5B02F01900D928A95E1F7F4
:103650004E8C5F8C68A079A04AA35BA36CA37DA36A
:103660006FC04E8C5F8C68A079A0AEA1BFA14D92B7
:103670005D926D927C921397E8A5F9A51083F101F4
:10368000EC5FFE4F81E0808332978C918083A8A508
:10369000B9A58C91319680838B89AC960FB6F8943E
:1036A000DEBF0FBECDBFDF91CF911F910F91FF9075
:1036B000EF90DF90CF90BF90AF909F908F907F90D2
:1036C0006F905F904F903F902F900895BEECBB8B12
:1036D000E3CFEEECEB8BE0CFFEECFB8BDDCF10E02D
:1036E000412C512C3201C12CD12C76018F85988927
:1036F000288D398D8217930708F0B7CF46E0EA8D01
:10370000FB8D9E012F5F3F4FD90101900D924A958D
:10371000E1F7E88DF98D8E1B9F0BAC0170E060E046
:103720004AA35BA36CA37DA353E0452E512C612CCF
:10373000712CB1016F5E7E4F7BA76AA72CA7032F68
:103740009E01255F3F4F4C895D896E897F898C8DF5
:103750009D8D0E94D7008B849C84AD84BE847FEFB6
:1037600087169706A706B70609F4B0CFD301C201A2
:103770000196A11DB11D8E8F9F8FA8A3B9A3D5015E
:10378000C4018C549F4FAF4FBF4F36E0B695A795FD
:10379000979587953A95D1F7880F991F880F991FAC
:1037A00082509E4F11E0FC0180819181A281B38102
:1037B000892B8A2B8B2B09F410E0812F90E0B0E04D
:1037C000A0E08C159D05AE05BF0509F082CFD5019F
:1037D000C40123E0B695A795979587952A95D1F7CB
:1037E000B501A401477055276627772786309105D4
:1037F000A105B10508F070CFEA8DFB8DE80FF91F28
:1038000021E030E001C0220F4A95EAF78081822B47
:1038100080836A8D7B8DC1010E94D007811139C0E0
:10382000BE01615F7F4FC1010E948419811131C0C7
:103830008F859889288D398DAC01421B530B8217D7
:10384000930711F450E040E070E060E0A88DB98D7E
:10385000A817B90708F0EACE8AA19BA1ACA1BDA127
:1038600084179507A607B70708F0FBCEBE016F5F68
:103870007F4FC1010E94D00796E0FE013196D10131
:10388000AF5EBE4F01900D929A95E1F7882309F43F
:10389000ECCE8B8B01CF0F931F93CF93DF938C01D3
:1038A000D0E0C0E0F801EC0FFD1F6491662341F009
:1038B00084E893E00E941803892B11F02196F2CF3F
:1038C00042E050E062E372E084E893E00E94380254
:1038D0008C0F9D1FDF91CF911F910F910895CF9372
:1038E000DF93EC0188819981009711F00E94BF3825
:1038F000198218821D821C821B821A82DF91CF914D
:103900000895FC0180819181009711F00C94BF38DB
:1039100008951F93CF93DF93182FC091F605D09190
:10392000F705209749F58091F4059091F5050097EA
:1039300011F00E94BF3886E090E00E942338EC012D
:10394000188381E294E09A8389831B8280E290E06D
:103950009D838C83D093F505C093F4050E943D05AB
:1039600081E08B83CE010E944109811149C080E032
:10397000DF91CF911F9108958B858F3F39F061E0E2
:103980000E94A40161E08B850E9458018881998181
:10399000892B09F440C11FB7F89480910D03811160
:1039A00027C0E8EFF0E08491E4EEF0E09491E82F96
:1039B000F0E0EE0FFF1FE053FF4FA591B491EC91A3
:1039C000E92321F461E08AE00E94580161E08AE085
:1039D0000E94A4018CB580618CBD8CB580648CBDC7
:1039E00061E08DE00E94A40161E08BE00E94A401EF
:1039F00080910D038F5F80930D031FBF81E08B8F3C
:103A000080ED0E941E1290E0B0E0A0E08093FF05E0
:103A100090930006A0930106B093020680369105AC
:103A2000A105B10509F0A3CF66EB80EE0E9408095D
:103A30006AE070E080E090E00E94050283EF0E945F
:103A40001E1280FDF5CF88E80E94711290930C063B
:103A500080930B068AE80E94711290930E06809361
:103A60000D068CE80E9471129093100680930F0649
:103A70008EE80E947112909312068093110680E9DD
:103A80000E947112909314068093130682E90E949B
:103A90007112909316068093150684E90E947112A4
:103AA000909318068093170686E90E9471129093EE
:103AB0001A068093190688E90E94711290931C06D9
:103AC00080931B068AE90E94711290931E068093D0
:103AD0001D068CE90E9471129093200680931F06A8
:103AE0008EE90E947112909322068093210681EA4A
:103AF0000E941E128093230681EE0E947112909301
:103B000025068093240683EE0E941E1280932606CB
:103B100084EE0E941E12C82F85EE0E941E1290E1B4
:103B2000C902900111248F70282B3093280620930E
:103B3000270686EE0E941E12C82F85EE0E941E12D6
:103B400090E1C902E001112490E024E09595879569
:103B50002A95E1F78C2B9D2B90932A0680932906BA
:103B600087EE0E941E1280932B068DEE80932D0609
:103B700080912E068F71806A80932E0680912C068C
:103B8000807C8F7780932C0660E084EF0E94080988
:103B900060912E0662956695677082EF0E94080913
:103BA00080912C06682F677090E2699FB001112404
:103BB000282F269526952695277094E0299F900119
:103BC0001124622B87FB882780F9682B85EF0E94E0
:103BD000080980912D06682F677090E2699FB001F7
:103BE0001124282F269526952695277094E0299F45
:103BF00090011124622B8295869586958370682B9F
:103C000084EF0E94080964E670E080E090E00E9482
:103C1000050281E0ADCE61E08C850E94A4018A8519
:103C20008B7F60E009F061E08C850E9458018D85F2
:103C30008F3F39F061E00E94A40161E08D850E9410
:103C400058018E858F3F09F4D9CE60E00E94A4010F
:103C5000D5CEEF92FF920F931F93CF93DF93CDB703
:103C6000DEB7C854D1090FB6F894DEBF0FBECDBF82
:103C70007B018A019AEA26969FAF269727968FAFF7
:103C8000279728964FAF289729961FAF299744E08A
:103C900050E0BE016B5B7F4F84E893E00E943802E6
:103CA000A801B70184E893E00E94380229968CAD00
:103CB0009DADAEADBFAD299789839A83AB83BC839D
:103CC000C801019780349105A8F5A801B701CE017C
:103CD00005960E94053A0C5F1F4FAE014F5F5F4F84
:103CE000FA0160E07CE88191682728E030E0862FC7
:103CF00090E09595879560FF20C0682F6727215039
:103D00003109A9F7CF01841B950B801791075CF34C
:103D100084E893E00E941803C85BDF4F0FB6F89465
:103D2000DEBF0FBECDBFDF91CF911F910F91FF90EE
:103D3000EF90089504E010E0D0CF682FE0CFFF921D
:103D40000F931F93CF93DF93CDB7DEB7A2970FB634
:103D5000F894DEBF0FBECDBFF82E19824A8384E0EF
:103D6000489F80011124A801CE0103960E94053AC4
:103D7000A8014E5F5F4FBE016F5F7F4F8F2D0E9486
:103D8000291EA2960FB6F894DEBF0FBECDBFDF91FD
:103D9000CF911F910F91FF9008959F92AF92BF9284
:103DA000CF92DF92EF92FF920F931F93CF93DF9307
:103DB000CDB7DEB7A0970FB6F894DEBF0FBECDBF6C
:103DC0006C012FEDC20ED11CF601A080F7E0F12CA2
:103DD000AF1609F4EEC0B62E8C0141E060E80E94F7
:103DE000A807F82E41E06FEFC8010E94A807F82A43
:103DF00040E060E0C8010E94A807F82A46E06FEFA3
:103E0000C8010E94A807F82AAE01425E5F4F63E82E
:103E1000C8010E94600CF82A4E8D446063E8C80116
:103E20000E94A807F82A47E06FEFC8010E94A80780
:103E3000F82A41E061E8C8010E94A807F82A0E9418
:103E4000AD00F82A41E060E8C8010E94A807F82AFE
:103E500021E0B212C1C0A0FC02C24BE664E9C80175
:103E60000E94A807E82EC8010E94CF0C8E29F82ACC
:103E7000AE01465E5F4F60E9C8010E941C0BF82A44
:103E80008A8D9B8DAC8DBD8D992EE89497F897FB0C
:103E9000EE24E0F844E264E9C8010E94A807F82A89
:103EA000C8010E94CF0CF82AAE01465E5F4F60E960
:103EB000C8010E941C0BF82A8A8D9B8D2C8D3D8D8C
:103EC0003C8B2D8B9E8B8F8B45E264E9C8010E9451
:103ED000A807F82AC8010E94CF0CF82AAE01465E56
:103EE0005F4F60E9C8010E941C0BF82A8C8D9D8DE4
:103EF000988F898F40E061E8C8010E94A807F82ADE
:103F000046E06FEFC8010E94A807F82AAE01425EA2
:103F10005F4F63E8C8010E94600CF82A4E8D4B7F0A
:103F200063E8C8010E94A807F82A41E06FEFC801C2
:103F30000E94A807F82A41E060E0C8010E94A80793
:103F4000F82A40E06FEFC8010E94A807F82A40E075
:103F500060E8C8010E94A807F82A59F5F1E0BF16E9
:103F600099F0A1FC23C0F801E052FF4F8F8D8083B0
:103F7000319688A18083BE016F5F7F4FC8018E514B
:103F80009F4F0E94223A12C0A0FC10C0F801EE5FC1
:103F9000FE4F90823196E082DE0154967496035E65
:103FA0001E4F8D9181930E171F07D9F7BA28F6017E
:103FB000B0828F2DA0960FB6F894DEBF0FBECDBF96
:103FC000DF91CF911F910F91FF90EF90DF90CF90F5
:103FD000BF90AF909F900895A1FC41C142E064E979
:103FE000C8010E94A807E82EC8010E94CF0C8E29A4
:103FF000F82AAE01415E5F4F60E9C8010E94600C83
:10400000F82A4BE764E9C8010E94A807F82AC8010A
:104010000E94CF0CF82AAE01405E5F4F60E9C801F4
:104020000E94600CF82A47E764E9C8010E94A807CB
:10403000F82AC8010E94CF0CF82AAE01465E5F4FF5
:1040400060E9C8010E941C0BF82A4A8D5B8D6C8DBB
:104050007D8DDB01CA0129E1B695A79597958795D6
:104060002A95D1F78983DB01CA0132E1B695A7957C
:10407000979587953A95D1F78F778A83DB01CA01A7
:10408000EBE0B695A79597958795EA95D1F78F7749
:104090008B83DB01CA01F4E0B695A79597958795C8
:1040A000FA95D1F78F778C83440F440F440F4877EC
:1040B0004E8F48E764E9C8010E94A807F82AC801A2
:1040C0000E94CF0CF82AAE01465E5F4F60E9C8013E
:1040D0000E941C0BF82A8A8D9B8DAC8DBD8DAC0186
:1040E000BD012DE176956795579547952A95D1F7AE
:1040F0002E8D240F2D83AC01BD0136E17695679599
:10410000579547953A95D1F74F774E83AC01BD014E
:10411000EFE07695679557954795EA95D1F74F77F4
:104120004F83292F2F772887AC01BD01769567959E
:10413000579547954F774987982F9295990F990FE3
:1041400090749E8F49E764E9C8010E94A807F82A85
:10415000C8010E94CF0CF82AAE01465E5F4F60E9AD
:10416000C8010E941C0BF82A8A8D9B8DAC8DBD8DD9
:10417000AC01BD012AE176956795579547952A953B
:10418000D1F72E8D240F2A87AC01BD0133E176953E
:104190006795579547953A95D1F74F774B87AC017F
:1041A000BD01ECE07695679557954795EA95D1F76F
:1041B0004F774C87AC01BD01F5E076956795579533
:1041C0004795FA95D1F74F774D87982F990F990F0B
:1041D0009C779E8F4AE764E9C8010E94A807F82AE5
:1041E000C8010E94CF0CF82AAE01465E5F4F60E91D
:1041F000C8010E941C0BF82A8A8D9B8DAC8DBD8D49
:10420000AC01BD012EE176956795579547952A95A6
:10421000D1F72E8D240F2E87AC01BD0137E17695A5
:104220006795579547953A95D1F74F774F872A2F3E
:104230002F77288BAC01BD01E9E0769567955795FE
:104240004795EA95D1F74F77498BF2E0B695A79558
:1042500097958795FA95D1F78F778A8B1B8AE12CF2
:10426000912C48CEFC0180819181009711F00C9433
:10427000403360E070E0CB010895FB01448155813B
:10428000FC01248135812417350778F080819181E4
:10429000009759F0FB01608171816115710529F06A
:1042A0000E94293A21E0892B09F020E0822F08950D
:1042B000FC0124813581232B39F421E0FB0180812D
:1042C000882349F020E007C0808191810E94193A3B
:1042D00021E0892BB9F7822F08950F931F93CF9375
:1042E000DF93EC0188819981009759F02A813B8105
:1042F0002617370730F081E0DF91CF911F910F91A2
:1043000008958B016F5F7F4F0E944839009759F0E5
:10431000998388831B830A832C813D81232B59F742
:10432000FC011082E8CF80E0E7CFEF92FF920F937D
:104330001F93CF93DF938C017B01EB010990002049
:10434000E9F72197C61BD70BBE010E946D21811191
:1043500009C0C801DF91CF911F910F91FF90EF909D
:104360000C946F1CF801D583C483B70180819181BF
:10437000DF91CF911F910F91FF90EF900C94223A13
:104380009F92AF92BF92CF92DF92EF92FF920F93E4
:104390001F93CF93DF93EC016B015A01790124172E
:1043A000350720F48B2D5901E42EF82E198218823E
:1043B0001B821A821D821C8264E372E0CE010E947D
:1043C0009521D60114960D911C91A016B10658F5B1
:1043D000E016F10608F48701D601ED91FC911197E2
:1043E000E00FF11F90801082ED90FC90EA0CFB1C16
:1043F000E114F10471F0F70101900020E9F7319721
:104400005F01AE18BF08B501CE010E946D21811178
:1044100017C0CE010E946F1CF60180819181080FA8
:10442000191FD8019C92CE01DF91CF911F910F915E
:10443000FF90EF90DF90CF90BF90AF909F90089546
:10444000BD82AC82B701888199810E94223AE4CF73
:1044500085ED8093BC008091800390918103A091B1
:104460008203B09183030796A11DB11D23E0B69589
:10447000A795979587952A95D1F72091BC0024FDA3
:1044800003C010927E0308954091800350918103F0
:104490006091820370918303452B462B472B69F370
:1044A0000097A105B10541F02AE22A95F1F700C075
:1044B0000197A109B109E1CF80917F030C945405C4
:1044C0001F920F920FB60F9211242F933F938F9349
:1044D0009F93AF93BF938091090390910A03A0919A
:1044E0000B03B0910C033091040323E0230F2D370D
:1044F00058F50196A11DB11D209304038093090373
:1045000090930A03A0930B03B0930C0380910503CF
:1045100090910603A0910703B09108030196A11D95
:10452000B11D8093050390930603A0930703B093F6
:104530000803BF91AF919F918F913F912F910F9061
:104540000FBE0F901F90189526E8230F0296A11D0D
:10455000B11DD2CF1F920F920FB60F9211242F933D
:104560003F934F935F936F937F938F939F93AF93FB
:10457000BF93EF93FF9384E893E00E94F602FF91CC
:10458000EF91BF91AF919F918F917F916F915F91CB
:104590004F913F912F910F900FBE0F901F90189544
:1045A0001F920F920FB60F9211242F938F939F9308
:1045B000EF93FF93E0919403F09195038081E09154
:1045C0009A03F0919B0382FD1BC0908180919D0313
:1045D0008F5F8F7320919E03821741F0E0919D03BE
:1045E000F0E0EC57FC4F958F80939D03FF91EF9186
:1045F0009F918F912F910F900FBE0F901F90189544
:104600008081F4CF1F920F920FB60F9211242F9337
:104610003F934F935F936F937F938F939F93AF934A
:10462000BF93EF93FF938091B900887F803609F4A0
:104630004AC0F0F5883209F4A7C018F5803109F4B2
:104640009BC0B8F4882309F4F9C0883009F494C0F9
:10465000FF91EF91BF91AF919F918F917F916F915A
:104660005F914F913F912F910F900FBE0F901F9030
:104670001895883109F488C0803251F780935C0323
:1046800014C0803409F49DC040F48033B9F38833FA
:10469000F9F680935C0385ECB0C0803509F485C0E1
:1046A000883509F496C0883499F60E942822D0CF24
:1046B000883909F48CC038F5883729F050F48836E9
:1046C00011F0803729F683E080937E031092FF0279
:1046D00057C0883809F47BC0803919F0803809F058
:1046E000B7CF8091FF02803208F071C0E091FF02E5
:1046F00081E08E0F8093FF028091BB00F0E0E152D9
:10470000FD4F80833DC0803B39F0E0F4803A09F4EE
:1047100079C0883A09F09CCF84E080937E031092A0
:10472000DE021092DD02E0911003F0911103099571
:104730008091DD0281110FC081E08093DD02109233
:10474000BD0209C0803C09F4A6CF883C09F4A3CF80
:10475000883B09F07DCFE091DE0281E08E0F8093EF
:10476000DE02F0E0E354FD4F80818093BB00909126
:10477000DE028091DD0229C0809159038093BB0045
:1047800085EC8093BC0064CF90915B0380915A03C9
:10479000981758F5E0915B0381E08E0F80935B03DF
:1047A000F0E0E85CFC4F8081E9CFE0915B0381E0C1
:1047B0008E0F80935B038091BB00F0E0E85CFC4FC0
:1047C000808390915B0380915A039817C8F285E823
:1047D000D8CFE0915B0381E08E0F80935B038091E3
:1047E000BB00F0E0E85CFC4F808380915D038111A9
:1047F0005CCF81E08093580384EA8093BC001092E0
:104800007E0326CF85EC8093BC0010927E038091BE
:10481000FF02803230F4E091FF02F0E0E152FD4F00
:1048200010826091FF0270E0E0910E03F0910F039F
:104830008FED92E009951092FF020ACF10925C036F
:1048400034CFE4E8F3E01382128248EE53E060E0F4
:1048500070E0448355836683778382E192E091839D
:10486000808385EC90E09587848784EC90E097873F
:10487000868780EC90E0918B808B81EC90E0938B2D
:10488000828B82EC90E0958B848B86EC90E0978B0A
:10489000868B118E128E138E148EA1E2B4E01396C5
:1048A0001C921E92129714964D935D936D937C9378
:1048B000179784E292E011969C938E93E4EFF5E0D3
:1048C000118210821382128215821482178216823C
:1048D00011861086138A148A158A168A1092460445
:1048E00087E494E090938F0580938E05E6E3F4E0EF
:1048F0001182108280E483831086118612861386CB
:104900001486158616861786EDE2F4E08083B2835E
:10491000A183148213820895CF93DF93CDB7DEB7BE
:10492000C458D1090FB6F894DEBF0FBECDBF78943E
:1049300084B5826084BD84B5816084BD85B58260A4
:1049400085BD85B5816085BD80916E008160809355
:104950006E001092810080918100826080938100BE
:1049600080918100816080938100809180008160CE
:10497000809380008091B10084608093B100809129
:10498000B00081608093B00080917A008460809351
:104990007A0080917A00826080937A0080917A0018
:1049A000816080937A0080917A00806880937A0099
:1049B0001092C100E0919403F091950382E080830E
:1049C000E0919403F09195031082E0919003F091AF
:1049D00091031082E0919203F091930380E1808330
:1049E00010929C03E0919803F091990386E08083F4
:1049F000E0919603F0919703808180618083E0913C
:104A00009603F0919703808188608083E0919603FC
:104A1000F0919703808180688083E0919603F09104
:104A2000970380818F7D80830E943D0586E70E94E9
:104A3000891C882309F4F5C081E080930003E0918C
:104A40008E05F0918F05EF5BFE4F89E28083E09148
:104A50008E05F0918F05EE5BFE4F81E08083E09143
:104A60008E05F0918F05ED5BFE4F80E991E091831B
:104A70008083E0918E05F0918F05EB5BFE4F81E224
:104A800094E0918380830E943D0521E04EEF69E828
:104A900087E494E00E940F0C811106C040E068E8B2
:104AA00087E494E00E94A807AE01455C5F4F60EC8C
:104AB00087E494E00E94600C1092260588EE93E053
:104AC000909381058093800580E991E09093830520
:104AD0008093820585E89BE6A1E0B0E080938405A1
:104AE00090938505A0938605B093870584EA90E7A7
:104AF000A9E0B0E080930F0590931005A0931105F5
:104B0000B09312051092640410926504109266042A
:104B1000109267049E012F5F3F4F2901B90187E47E
:104B200094E00E943D0F082F81110AC019821A8259
:104B30008AE3F201A7E5B4E001900D928A95E1F7CE
:104B400084E690E0909369058093680584E893E09B
:104B500090936B0580936A0584EF91E090936D05C7
:104B600080936C0580E09AE09093700580936F05C8
:104B700081E080937F0541E060E887E494E00E9453
:104B8000A807182F41E06FEF87E494E00E94A80780
:104B9000182B102B40E060E087E494E00E94A80707
:104BA000182BAE01405B5F4F61E987E494E00E94FF
:104BB000600C182B61968FAD619780936E0541E074
:104BC00060E087E494E00E94A807182B40E06FEFB4
:104BD00087E494E00E94A807182B40E060E887E48F
:104BE00094E00E94A807912F982BF6E4CF2EF4E0D2
:104BF000DF2E10E000E0FF24F394911185C1033013
:104C0000110509F4A9C0CCF40130110529F10230D5
:104C1000110509F49EC0F0926C04F601F6A280E042
:104C200031C087E70E94891C811106CF10920003D2
:104C30008BE890E00E944B1C02CF0430110509F470
:104C40008EC020E04FEE0530110529F760E687E4BD
:104C500094E00E940F0C14C040917C0450917D049C
:104C600060917E0470917F04E9E076956795579591
:104C70004795EA95D1F764E487E494E00E947E07C3
:104C8000882359F20F5F1F4FFFEFCF1ADF0A982FCB
:104C90000630110509F0B1CF81116EC010926E047B
:104CA00010926F0422E04EEF60E687E494E00E94E9
:104CB0000F0C811161C01092700420E14FEE60E68C
:104CC00087E494E00E940F0C811156C01092710489
:104CD00080E090E0A2E1B0E08093780490937904C2
:104CE000A0937A04B0937B0480916D0481113AC043
:104CF00080E090E4A0E0B0E080937C0490937D0499
:104D0000A0937E04B0937F0480E090E0A3E2B0E043
:104D10008093800490938104A0938204B0938304D1
:104D200010928404109285041092860410928704D5
:104D30008FEF809364054FEF61E087E494E00E9479
:104D4000A80791E090936605811116C010924B055B
:104D500013C0F0926E0461CFF0926F045ECF20E03A
:104D60004EEF74CF40E250E064E487E494E00E94A8
:104D70007E07882309F4BCCF8093460449E26AE8A1
:104D800080918E0590918F050E94A807809346041C
:104D90006AE070E080E090E00E94050280914604A5
:104DA0008111B4C0E0918E05F0918F05EF5BFE4F4D
:104DB00089E2808362E087E494E00E94CD1E88232C
:104DC00009F4CFC18093460481110BC08091F10595
:104DD000813021F48091F205813019F08BEF8093BE
:104DE000460480914604811118C260908E0570902F
:104DF0008F05A2961FAE1EAEA297A5961FAEA597D1
:104E0000A4961FAEA49764961CAE1DAE1EAE1FAE38
:104E1000649761E0C3010E94CD1EF301EE5FFE4F77
:104E20002080A22CB12CD12CC12C3196308021E0D5
:104E3000231508F4E3C13212DAC131E2A316B1043A
:104E4000C104D10408F0DAC141E06FEFC3010E9450
:104E5000A80781111AC040E06FE4C3010E94A807AF
:104E6000811113C04CE26EE4C3010E94A8078111B6
:104E70000CC040E06FEFC3010E94A807811105C07C
:104E800044EB66EBC3010E94A80793012F5E3E4FDF
:104E9000F90110823196108231961082319610827B
:104EA0003196108231961082E12CF12C870133204B
:104EB00009F41DC2D801C7018C549F4FAF4FBF4F9B
:104EC00066E0B695A795979587956A95D1F7880F6F
:104ED000991F880F991F82509E4FFC0180819181FC
:104EE000A281B381892B8A2B8B2B09F000C2FCE2B3
:104EF000EF16F1040105110509F4F9C14FEFE41AA9
:104F0000F40A0F4F1F4FD6CF892F36CF10920103CF
:104F100089E790E00E944B1C809136049091370401
:104F2000892BA9F486E090E00E942338FC0180914F
:104F30003904808381E294E092838183138280E24A
:104F400090E095838483F0933704E0933604E090F7
:104F50003604F09037040E943D0511E0F7011383F9
:104F6000C7010E944109882309F4A9C380E090E1A8
:104F7000A0E0B0E080933A0490933B04A0933C04FB
:104F8000B0933D048AE090E0A0E0B0E080933E045E
:104F900090933F04A0934004B093410480E090E0DC
:104FA000A0E0B0E48093420490934304A0934404AF
:104FB000B0934504809136049091370460961CAEFE
:104FC0001DAE1EAE1FAE60979CAF8BAF1EAE1DAE6A
:104FD00027961FAF279785E090E025969FAF8EAF6D
:104FE000259728961FAF289702E026960FAF2697A1
:104FF00040E050E160E070E0CE01CB960E946D0889
:1050000080913604909137041A8A1B8A1C8A1D8A63
:105010009A8389831C821B821C871A8619861D87A6
:105020000B874FE959E360E070E0C2010E946D0810
:1050300080933804109302038091300490913104DE
:10504000009711F00E94BF3886E090E00E9423385C
:105050008C0180912E0490912F0420912D04F80151
:10506000208392838183138280E290E095838483FE
:1050700010933104009330040E943D0581E0F80153
:105080008383C8010E9441098823E1F060E880E041
:105090000E9449086AE070E080E090E00E9405020A
:1050A00080E498E7ADE7B1E0809332049093330455
:1050B000A0933404B093350460E070E08AE794E490
:1050C0000E946D1160E070E088E492E40E946D112E
:1050D00081E0809303039E01205B3F4FA7963FAF83
:1050E0002EAFA79784E893E00E94D60218161906FF
:1050F0000CF00AC31CAE1BAE1EAE1DAE21961FAE39
:105100001EAE219764E372E0CE01CB960E949521FA
:105110000E94880297FDDAC28A30910509F4D6C24E
:1051200089831A8221960EAD1FAD21970F5F1F4F05
:10513000B801CE01CB960E946D21882349F32BAD97
:105140003CAD21968EAD9FAD2197BE016F5F7F4F25
:10515000820F931F0E94223A21961FAF0EAF219714
:10516000D7CF8091270581112AC064E372E080EDDA
:1051700095E00E94223A65E372E080E995E00E94A2
:10518000223A6EE672E080EB95E00E94223A40EF10
:1051900055E060EC87E494E00E94600C811112CE2F
:1051A000A20162EC87E494E00E94600C91E090938D
:1051B000F105998192959F709093F20503CE10911D
:1051C000280569E275E080ED95E00E94223A1123FE
:1051D00091F2133238F461E472E0103271F66DE44A
:1051E00072E0CBCF69E572E0173238F6F8CF4DE0C8
:1051F000A416B104C104D10408F426CEAE014D5961
:105200005F4FBE01605B7F4FC3010E94DB19982E88
:10521000992009F480C0909246048091460481113F
:105220000CC0AE01405A5F4FB20180918E05909143
:105230008F050E94DB1980934604809146048111FA
:105240000FC021E0AE01455C5F4FBE01605B7F4F48
:1052500080918E0590918F050E94DF158093460402
:1052600080914604811152CEE0918E05F0918F0518
:10527000108AE0918E05F0918F05FF24F394F5A23A
:1052800000918E0510918F05F80145A956A967A9CF
:1052900070ADE9E07695679557954795EA95D1F712
:1052A00064E4C8010E947E07811102C0F801F6A2E1
:1052B0008093460481112ACEE0918E05F0918F05EE
:1052C00081E080A7E0918E05F0918F05FD9684ED39
:1052D00098E0A0E0B0E080839183A283B3838091C3
:1052E0004604811113CE81E08093010315CE420163
:1052F000A301495E5E4F632DC3010E94370A982EB9
:10530000811186CF81E0F301EC5FFE4F80833297FD
:10531000208231963082F301E85CFE4F808181115A
:105320000C94EF323297A080B18030E020E013017E
:10533000FBEB2F1AFEEF3F0AA3014F5B5E4FA996CE
:105340005FAF4EAFA997C3018D5D9E4FAB969FAFE8
:105350008EAFAB97F301EF5DFE4FAD96FFAFEEAFB3
:10536000AD974C515109AF965FAF4EAFAF970596D1
:10537000E1969FAF8EAFE19703C05CEF952E96014B
:10538000F501E20FF31F0081002309F484C091109E
:1053900042CF69015FEFC51AD50AD501AC0DBD1D1D
:1053A0006C910F3F09F04DC0690182E0C80ED11C1D
:1053B000D501AC0DBD1D8C91613029F198F06230A2
:1053C00089F16330D1F6690144E0C40ED11C238118
:1053D00090E0982F8827820F911DE196EEADFFADEA
:1053E000E1970EC0690194E0C90ED11C238190E0C1
:1053F000982F8827820F911DAD96EEADFFADAD972A
:1054000091838083BCCF690144E0C40ED11C238109
:1054100090E0982F8827820F911DAB96EEADFFADDF
:10542000AB97EECF690144E0C40ED11C238190E01C
:10543000982F8827820F911DAF96EEADFFADAF97E5
:10544000DFCF053008F099CF2E5F3F4FD501A20F77
:10545000B31FF201C02ED12CCF01841995098C15F0
:105460009D051CF48D918193F7CFC20ED31EF101DF
:10547000E080F18010E030E020E0A201A996EEADDE
:10548000FFADA99780810E943D07892B09F477CF52
:105490004CEE942E74CF9110BECE44E06AE0C3016E
:1054A0000E94A807982E8111B6CE20E04FEE64E846
:1054B000C3010E940F0C982E8111ADCE84E0F30140
:1054C000E253FF4F8083C3010E947D0C982E81110F
:1054D000A2CE41E06FEFC3010E94A807982EAE0153
:1054E000405A5F4F64E8C3010E94650B982A40E070
:1054F0006FEFC3010E94A807982A09F08CCEF30130
:10550000E853FF4FA2968EAD9FADA297A4E0880FFF
:10551000991FAA95E1F7B0E0A0E080839183A28370
:10552000B383B201C3010E943D0F982E811173CE47
:10553000AE014C595F4F69E0C3010E94600C982E88
:10554000811169CEA5968FADA5978170A5968FAF75
:10555000A597F301E25EFE4F80838AE3F201D30157
:10556000509601900D928A95E1F7AE014C595F4F2C
:1055700061E0C3010E94600C982E81114CCE830122
:10558000035E1E4FA5968FADA597F80180831BAED5
:10559000AE01455C5F4F61E0C3010E94600C982E34
:1055A0008BAD911038CEF82EE894F4F884FF12C039
:1055B0004F2D61E0C3010E94A807982E81112BCEC8
:1055C000F801F082F3014289538964897589C30126
:1055D0000E9462141BAEAE01455C5F4F61E0C301E7
:1055E0000E94600C982E8BAD911015CEF82EE89489
:1055F000F2F882FF12C04F2D61E0C3010E94A8079C
:10560000982E811108CEF801F082F3014289538966
:1056100064897589C3010E94621483E0F301E15E2D
:10562000FE4F8083AE014E595F4F60E0C3010E9480
:10563000B00C982E8111EFCDA3968FADA397F301F7
:10564000E852FF4F8083AE014E595F4F61E0C301C6
:105650000E94B00C982E8111DECDA3968FADA3973A
:10566000F301ED52FF4F8083AE01455C5F4F63E075
:10567000C3010E94E60E982E8111CDCD8BAD9CAD5D
:10568000ADADBEADF301EC52FF4F80839183A28399
:10569000B383AE01455C5F4F64E0C3010E94E60E38
:1056A000982E8111B8CDF301E153FF4F8BAD9CAD26
:1056B000ADADBEAD80839183A283B383ACCD109298
:1056C000020388E690E00E944B1CB6CCCBACDCAC6D
:1056D000C114D10449F021960EAD1FAD219776017A
:1056E0000115110509F0E3C566E772E0CE01CB961E
:1056F0000E945821882309F414C681E08093F701A1
:10570000CE01CB960E94811C8091F701882309F479
:10571000B3C519821A821B821C821D821E821F82BF
:10572000188619861A861B861C868091000388239A
:1057300009F429C40E94AC1269837A838B839C8309
:1057400080912E06807E09F437C70E94AC128DEF3F
:105750000E944512C0900306D0900406E090050612
:10576000F09006065CE2D51A51E0E50AF108B0E0D7
:10577000A0E02EE0880F991FAA1FBB1F2A95D1F722
:105780004091270650912806052E000C660B770BDA
:1057900034E1440F551F661F771F3A95D1F74C012E
:1057A0005D01841A950AA60AB70AA0912906B0914C
:1057B0002A06A70196010E94C936861A970AA80AE6
:1057C000B90AC501B401705C8F4F9F4F20E030E8EB
:1057D00040E050E00E94AA3629013A01A091260635
:1057E000B0E0A70196010E94AC3420E038E040E030
:1057F00050E00E94AA3649015A0180E8980EA11C87
:10580000B11CA0912B060A2E000CBB0BA701960120
:105810000E94C936C12C44E0D42EE12CF12CA70102
:1058200096010E94AA36CA01B901A50194010E94FD
:105830006436A70196010E94AA36405E5F4FA09190
:105840002406B09125060E94C936705E8F4F9F4F87
:1058500020E030E440E050E00E94AA36C301B201EB
:105860000E9464366B017C0120E030E840E050E0AB
:105870000E94AA36CA01B9010E9464369B01AC019C
:1058800067E055954795379527956A95D1F7A0918B
:105890002306B0E00E94AC3420E130E040E050E06C
:1058A0000E94AA36C21AD30AE40AF50AF7FE03C018
:1058B000C12CD12C7601C701B6016130710581057B
:1058C000E9E19E0724F060E070E080E099E10CE0FF
:1058D00095958795779567950A95D1F70E948A33B4
:1058E00020E030E040E85AE30E94EB336D837E8392
:1058F0008F83988780912D06887309F462C60E9471
:10590000AC1287EF0E947712CF57DF4F68837983FD
:105910008A839B83C158D0408091030690910406EE
:10592000A0910506B09106066C017D01FF0CCC0824
:10593000DC2C76019C01AD016C2D7C2D8C2D9C2DD9
:10594000345F414051096109710981099109A896A3
:105950002FAFA897AA963FAFAA97AC964FAFAC9738
:10596000AE965FAFAE97E0966FAFE097E2967FAFEF
:10597000E297E3968FAFE397E4969FAFE4975901E0
:105980006A017B018C010E94D136E5962FAFE59725
:10599000E6963FAFE697E7964FAFE797E8965FAF9B
:1059A000E897E9966FAFE997EA967FAFEA97EB96AB
:1059B0008FAFEB97EC969FAFEC9730911406209148
:1059C0001306932F990F990B492F592F692F792F70
:1059D000892F0E94D1360CE00E94C93719012A0193
:1059E0003B014C013091160620911506932F990F1B
:1059F000990BE596AFACE597E696BFACE697E796D0
:105A0000CFACE797E896DFACE897E996EFACE9977B
:105A1000EA96FFACEA97EB960FADEB97EC961FADCD
:105A2000EC97492F592F692F792F892F0E94D13652
:105A3000F22E032F142FB52FF62FE72FD82EE92E95
:105A4000A0E00E94113884F421503F4F4F4F5F4F28
:105A50006F4F7F4F8F4F9F4FF22E032F142FB52F75
:105A6000F62FE72FD82EE92E2F2D302F412F5B2F29
:105A70006F2F7E2F8D2D9E2D08E00E94E237510161
:105A80006201730184010E94FF3770588F4F9F4F4E
:105A900020901106309012065101C12CD12CE12C1E
:105AA000F12C00E010E00E94D136F22E032F142FCB
:105AB000B52FF62FE72FD82EE92EA0E00E9411383F
:105AC00084F421503109410951096E4F7F4F8F4FA6
:105AD0009F4FF22E032F142FB52FF62FE72FD82E1E
