:100000000C9450010C9481010C9481010C94810199
:100010000C9481010C9481010C9481010C94810158
:100020000C9481010C9481010C9481010C94810148
:100030000C9481010C9481010C9481010C94810138
:100040000C9481010C9481010C9481010C94810128
:100050000C9481010C9481010C9481010C94F007A3
:100060000C9481010C9464080C943A080C9481015E
:100070000C9481010C9481010C9481010C948101F8
:100080000C9481010C9481010C9481010C948101E8
:100090000C9481010C9481010C9481010C948101D8
:1000A0000C9481010C9481010C9481010C948101C8
:1000B0000C9481010C9481010C9481010C948101B8
:1000C0000C9481010C9481010C9481010C948101A8
:1000D0000C9481010C9481010C9481010C94810198
:1000E0000C9481010C9417020C9437020C94C004F8
:1000F0000C942F020C9417040C941B020C9488048B
:100100000C9433020C9426040C947A040C940E0282
:100110000C9449090C943D020C9421020C940A029F
:100120000C94EB010C94F0010C9429020C94250220
:100130000C9441020C9406020C9402020C941102DD
:100140000C9428050C94EA032068616C6C3D002037
:100150006563686F3D0020747269673D0050494EC9
:1001600053206468743D0050524F544F204F4B2031
:10017000310050524F544F204F4B2032000000218D
:1001800000240027002A002D003000330001010068
:1001900000040107010A0100002200250028002BAD
:1001A000002E003100340002010000050108010B9F
:1001B0000100000A0B02090C0D0E080703040100E0
:1001C000000000000000000000000000000000002F
:1001D00000000000000000000000000000121110EC
:1001E000000000000000000000000000000000000F
:1001F000000000000000000000200023002600296D
:10020000002C002F0032000001000003010601094C
:100210000105050505070508080808020202020A8B
:100220000A08080404040401010101010101010399
:1002300003030303030303040707070C0C0C0C0C54
:100240000C0C0C0202020206060606060606060B47
:100250000B0B0B0B0B0B0B010210202008081020BE
:100260004010204080020102010804020101020442
:100270000810204080804020100804020180040201
:100280000180402010080402010804020101020458
:100290000810204080010204081020408000490915
:1002A00011241FBECFEFD1E2DEBFCDBF00E00CBFF7
:1002B00023E0A4EAB2E001C01D92A136B207E1F743
:1002C00012E0A0E0B2E0E2E1F6E200E00BBF02C023
:1002D00007900D92A43AB107D9F711E0C0E5D1E03B
:1002E00000E006C021970109802FFE010E94BF1087
:1002F000CF34D10780E00807A9F70E9496090C9433
:1003000007130C940000CF92DF92EF92FF92CF93ED
:10031000DF93B0915103A0E08111AB2F8091520384
:1003200090E0880F991FAC0149505E4FC090570371
:10033000D0905803E0905903F0905A0330E020E049
:10034000FA01C591D491E881B90190E080E0EB23F6
:10035000EA130AC02F5F3F4F6C157D058E059F0580
:1003600078F36FEF7FEFCB01DF91CF91FF90EF90AC
:10037000DF90CF900895282F30E0F901EF54FE4F21
:100380009491F901E95AFD4F44912F5E3D4FF901D7
:100390002491222309F435C0992311F1915092310F
:1003A000F8F4E92FF0E08827E752FE4F8F4F0C94C6
:1003B000BF100A020E02EB0102020602F001110256
:1003C00017021B022102250229022F023302F0012B
:1003D00037023D024102809180008F778093800038
:1003E000E22FF0E0EE0FFF1FE956FE4FA591B4910A
:1003F0008FB7F894EC91611148C040954E234C930F
:100400008FBF0895809180008F7DE8CF809180001C
:10041000877FE4CF84B58F7784BDE2CF84B58F7DAD
:10042000FBCF8091B0008F778093B000D9CF8091BF
:10043000B0008F7DF9CF809190008F7780939000EE
:10044000CFCF809190008F7DF9CF80919000877FF2
:10045000F5CF8091A0008F778093A000C1CF8091CD
:10046000A0008F7DF9CF8091A000877FF5CF80918C
:1004700020018F7780932001B3CF809120018F7D61
:10048000F9CF80912001877FF5CF4E2BB8CFCF9346
:10049000DF9390E0FC01E95AFD4F24918F5E9D4F60
:1004A000FC0184918823C9F090E0880F991FFC011A
:1004B000E358FE4FA591B491FC01E956FE4FC5915A
:1004C000D49161110DC09FB7F8948C91209582232F
:1004D0008C938881282328839FBFDF91CF91089533
:1004E000623051F49FB7F8943C91822F809583231A
:1004F0008C93E8812E2BEFCF8FB7F894EC912E2BB5
:100500002C938FBFEACF3FB7F8948091A5029091CA
:10051000A602A091A702B091A80226B5A89B05C08B
:100520002F3F19F00196A11DB11D3FBFBA2FA92F72
:10053000982F8827BC01CD01620F711D811D911D6F
:1005400042E0660F771F881F991F4A95D1F70895DB
:100550008F929F92AF92BF92CF92DF92EF92FF92D3
:100560006B017C010E9483024B015C01C114D10428
:10057000E104F104B9F00E948302681979098A093B
:100580009B09683E73408105910580F321E0C21A02
:10059000D108E108F10888EE880E83E0981EA11CBE
:1005A000B11CE4CFFF90EF90DF90CF90BF90AF9061
:1005B0009F908F900895CF92DF92EF92FF920F93CA
:1005C0001F93CF93DF93CDB7DEB7C054D1400FB6A2
:1005D000F894DEBF0FBECDBF2FB7F8948091A9026B
:1005E0009091AA02A091AB02B091AC022FBF4091B2
:1005F00053035091540360915503709156038C013D
:100600009D01041B150B260B370BB901A801403DBA
:1006100057406105710590F480915B03C05CDE4F2B
:100620000FB6F894DEBF0FBECDBFDF91CF911F9103
:100630000F91FF90EF90DF90CF9008958093530338
:1006400090935403A0935503B093560310924E0316
:1006500010924D0310924C0310924B0310924A03D8
:1006600062E080914F030E94470261E070E080E009
:1006700090E00E94A80261E080914F030E9447022F
:1006800060E080914F030E94BB018091500385512F
:10069000823020F58BE291E10197F1F762E08091E1
:1006A0004F030E94470280915C0390E082309105E5
:1006B00038F0880F991F880F991F05970197F1F758
:1006C000F89480E00E9483016F3F7F4F8F4F9F4FD0
:1006D00061F410925B03789480E0A0CF64E170E055
:1006E00080E090E00E94A802D9CF81E00E948301BF
:1006F0006F3F7F4F8F4F9F4F61F38E010F5F1F4FF3
:100700006E018FEBC81A8EEFD80A780180E00E9444
:100710008301F701608371838283938381E00E9468
:100720008301F7016483758386839783F8E0EF0E76
:10073000F11CEC14FD0451F7789430E020E0F8014E
:10074000C080D180E280F3804481558166817781C9
:10075000FFEFCF16DF06EF06FF0631F04F3F8FEFBA
:1007600058076807780719F410925B03B5CFF901B1
:1007700083E0F595E7958A95E1F7E65BFC4F80818C
:10078000880FC416D506E606F70610F180832F5FA2
:100790003F4F085F1F4F2832310589F640914E03C5
:1007A00020914A0380914B03280F3327331F8091F8
:1007B0004C03280F311D80914D03820F932F911D03
:1007C00099274817190681F681E080935B0326CFAD
:1007D0008160DCCFAF92BF92CF92DF92EF92FF9217
:1007E0000F931F93CF93DF936C017B018B01040F59
:1007F000151FEB015E01AE18BF08C017D10759F0F5
:100800006991D601ED91FC910190F081E02DC60136
:100810001995892B79F7C501DF91CF911F910F9120
:10082000FF90EF90DF90CF90BF90AF900895FC01C4
:10083000538D448D252F30E0842F90E0821B930B45
:10084000541710F0CF96089501970895FC01918DEB
:10085000828D981761F0A28DAE0FBF2FB11D5D96EE
:100860008C91928D9F5F9F73928F90E008958FEF90
:100870009FEF08952FB7F8948091A9029091AA0252
:10088000A091AB02B091AC022FBF8093B5029093C0
:10089000B602A093B702B093B8028DEA92E00E942C
:1008A000260497FF26C02FB7F8948091A902909153
:1008B000AA02A091AB02B091AC022FBF4091B50249
:1008C0005091B6026091B7027091B802841B950BEB
:1008D000A60BB70B4091B1025091B2026091B302E6
:1008E0007091B40284179507A607B707B0F28FEF8F
:1008F0009FEF0895FC01918D828D981731F0828DC4
:10090000E80FF11D858D90E008958FEF9FEF08951A
:10091000FC01918D228D892F90E0805C9F4F821B7E
:1009200091098F73992708958DEA92E00E948804B7
:1009300021E0892B09F420E0822F0895FC01A48D89
:10094000A80FB92FB11DA35ABF4F2C91848D90E0F1
:1009500001968F739927848FA689B7892C93A089D4
:10096000B1898C91837080648C93938D848D98135E
:1009700006C00288F389E02D80818F7D80830895F1
:10098000EF92FF920F931F93CF93DF93EC0181E0DF
:10099000888F9B8D8C8D98131AC0E889F989808186
:1009A00085FF15C09FB7F894EE89FF896083E889B9
:1009B000F98980818370806480839FBF81E090E0AB
:1009C000DF91CF911F910F91FF90EF900895F62E38
:1009D0000B8D10E00F5F1F4F0F731127E02E8C8DD2
:1009E0008E110CC00FB607FCFACFE889F989808117
:1009F00085FFF5CFCE010E949E04F1CFEB8DEC0F69
:100A0000FD2FF11DE35AFF4FF0829FB7F8940B8F33
:100A1000EA89FB8980818062CFCF0F931F93CF93A8
:100A2000DF938C01D0E0C0E0F801EC0FFD1F649172
:100A3000662341F08DEA92E00E94C004892B11F0F8
:100A40002196F2CFCE01DF91CF911F910F910895A2
:100A5000CF93DF93EC01888D8823B9F0AA89BB89F5
:100A6000E889F9898C9185FD03C0808186FD0DC0E0
:100A70000FB607FCF7CF8C9185FFF2CF808185FF01
:100A8000EDCFCE010E949E04E9CFDF91CF91089572
:100A900080E090E0892B29F00E94940481110E944B
:100AA000000080E090E0892B49F080E090E0892B05
:100AB00029F00E94000081110E94000080E090E077
:100AC000892B49F080E090E0892B29F00E940000FA
:100AD00081110E94000080E090E0892B49F080E0C5
:100AE00090E0892B29F00E94000081110C940000F5
:100AF0000895CF93DF9390930102809300029C01AD
:100B00003327F901E95AFD4F94912F5E3D4FF901CA
:100B10002491CAE4D3E08D833BE03E839F83288702
:100B200040E85EE360E070E04D875E876F87788B1A
:100B300062E00E9447022FB7F8948091A902909139
:100B4000AA02A091AB02B091AC022FBF805D97408A
:100B5000A109B10989879A87AB87BC8787E38A8B0C
:100B6000DF91CF9108958F929F92AF92BF920F9392
:100B70001F93CF93DF93CDB7DEB7A1970FB6F8944D
:100B8000DEBF0FBECDBF19A2423008F44AE08E018D
:100B90000F5D1F4F842E912CB12CA12CA501940127
:100BA0000E949D10E62FB901CA01EA3044F5E05DCC
:100BB000D801EE938D01232B242B252B79F790E080
:100BC00080E0109769F0FD0101900020E9F731976E
:100BD000AF014A1B5B0BBD018DEA92E00E94EA0364
:100BE000A1960FB6F894DEBF0FBECDBFDF91CF91B7
:100BF0001F910F91BF90AF909F908F900895E95CE7
:100C0000D7CF42E050E067E272E08DEA92E00C94C8
:100C1000EA03CF92DF92EF92FF92CF93DF936C01C2
:100C2000990FEE08FF08F7FE19C06DE28DEA92E019
:100C30000E94C004EC0166277727CB016C197D095F
:100C40008E099F094AE00E94B3058C0F9D1FDF911A
:100C5000CF91FF90EF90DF90CF9008954AE0C701C9
:100C6000B601DF91CF91FF90EF90DF90CF900C9481
:100C7000B305FC0180819181009711F00C94631100
:100C80000895EF92FF920F931F93CF93DF93CDB709
:100C9000DEB7C854D1090FB6F894DEBF0FBECDBF82
:100CA0007B018A019AEA26969FAF269727968FAFF7
:100CB000279728964FAF289729961FAE299744E08B
:100CC00050E0BE016B5B7F4F8DEA92E00E94EA0329
:100CD000A801B7018DEA92E00E94EA0329968CAD43
:100CE0009DADAEADBFAD299789839A83AB83BC839D
:100CF000A801B701CE0105960E94D5120C5F1F4FC7
:100D0000AE014F5F5F4FFA0160E07CE88191682798
:100D100028E030E0862F90E09595879560FF1DC014
:100D2000682F672721503109A9F7CF01841B950B44
:100D3000801791075CF38DEA92E00E94C004C85BC3
:100D4000DF4F0FB6F894DEBF0FBECDBFDF91CF915E
:100D50001F910F91FF90EF900895682FE3CFCF93ED
:100D6000DF9300D01F921F92CDB7DEB780910002B3
:100D7000898380910C028A8380910A028B838091FF
:100D800008028C83809106028D8344E050E0BE010E
:100D90006F5F7F4F82E20E9441068DE591E00E94E5
:100DA0000D0580910002909101020E94090686E5DE
:100DB00091E00E940D0580910C0290910D020E941D
:100DC00009068FE491E00E940D0580910A0290913E
:100DD0000B020E94090688E491E00E940D058091B3
:100DE0000802909109020E9409060E9401060F90D4
:100DF0000F900F900F900F90DF91CF910895AF92C9
:100E0000BF92CF92DF92EF92FF920F931F93CF93F7
:100E1000DF93DC01CD90DC901197C114D10439F03F
:100E20001496CD91DC918C017601209761F4DF91CD
:100E3000CF911F910F91FF90EF90DF90CF90BF90D7
:100E4000AF90089575015701BFEFAB1ABB0AF701C8
:100E50008081082E000C990B0E948E0E892B91F731
:100E60002197CC0DDD1D8881082E000C990B0E9466
:100E70008E0E892B29F0CE15DF0510F02197F3CFC8
:100E8000AE014F5F5F4F4E195F09D80115965C9315
:100E90004E931497CE14DF0420F4B701C6010E94CC
:100EA000D512D801ED91FC91119714968D919C91DA
:100EB000E80FF91F1082BBCFFB0144815581FC0173
:100EC000248135812417350778F08081918100973E
:100ED00059F0FB01608171816115710529F00E9453
:100EE000F91221E0892B09F020E0822F0895FC01FE
:100EF00024813581232B39F421E0FB018081882373
:100F000049F020E007C0808191810E94E91221E030
:100F1000892BB9F7822F08950F931F93CF93DF93F7
:100F2000EC0188819981009759F02A813B8126172D
:100F3000370730F081E0DF91CF911F910F91089535
:100F40008B016F5F7F4F0E94EC11009759F09983DE
:100F500088831B830A832C813D81232B59F7FC0155
:100F60001082E8CF80E0E7CFEF92FF920F931F93BC
:100F7000CF93DF93EC017B018A01BA010E948C07B9
:100F800028813981811114C02115310519F0C90159
:100F90000E946311198218821D821C821B821A8290
:100FA000CE01DF91CF911F910F91FF90EF900895A7
:100FB0001D830C83B701C9010E94F212F1CFFC011D
:100FC000118210821382128215821482FB01019019
:100FD0000020E9F73197AF01461B570B0C94B4077B
:100FE0001F920F920FB60F9211242F933F938F935E
:100FF0009F93AF93BF938091A9029091AA02A09171
:10100000AB02B091AC023091A40223E0230F2D3744
:1010100058F50196A11DB11D2093A4028093A90249
:101020009093AA02A093AB02B093AC028091A50268
:101030009091A602A091A702B091A8020196A11DCD
:10104000B11D8093A5029093A602A093A702B0932E
:10105000A802BF91AF919F918F913F912F910F90D7
:101060000FBE0F901F90189526E8230F0296A11D22
:10107000B11DD2CF1F920F920FB60F9211240BB653
:101080000F922F933F934F935F936F937F938F9321
:101090009F93AF93BF93EF93FF938DEA92E00E94EB
:1010A0009E04FF91EF91BF91AF919F918F917F919E
:1010B0006F915F914F913F912F910F900BBE0F90C9
:1010C0000FBE0F901F9018951F920F920FB60F92A0
:1010D00011240BB60F922F938F939F93EF93FF934F
:1010E000E091BD02F091BE028081E091C302F091D7
:1010F000C40282FD1DC090818091C6028F5F8F73F4
:101100002091C702821741F0E091C602F0E0E3555A
:10111000FD4F958F8093C602FF91EF919F918F9124
:101120002F910F900BBE0F900FBE0F901F90189530
:101130008081F2CFCF92DF92EF92FF920F931F93B5
:10114000E82FF92F05C0015011092109310961F17A
:10115000908196239417B9F305C001501109210914
:10116000310911F1908196239413F7CFC12CD12C22
:10117000E12CF12C0AC08FEFC81AD80AE80AF80A45
:101180000C151D052E053F0579F0808186238417F7
:1011900091F36C2D7D2D8E2D9F2D1F910F91FF9022
:1011A000EF90DF90CF90089560E070E080E090E0F5
:1011B0001F910F91FF90EF90DF90CF900895FC0169
:1011C00080819181009711F00C94520E60E070E0E4
:1011D000CB010895AF92BF92CF92DF92EF92FF9230
:1011E0000F931F93CF93DF93EC016B015A017901A9
:1011F0002417350720F48B2D5901E42EF82E69E2CF
:1012000072E0CE010E94DF07D60114960D911C9169
:10121000A016B10628F5E016F10608F48701D601FC
:10122000ED91FC911197E00FF11FF08010826D910C
:101230007C916A0D7B1D61157105F1F0FB01019038
:101240000020E9F73197AF01461B570BCE010E94F2
:10125000B407F60180819181080F191FD801FC9213
:10126000CE01DF91CF911F910F91FF90EF90DF9012
:10127000CF90BF90AF90089588819981009711F029
:101280000E946311198218821D821C821B821A829D
:10129000E0CFEDEAF2E01382128288EE93E0A0E064
:1012A000B0E084839583A683B78389E192E091833C
:1012B000808385EC90E09587848784EC90E0978725
:1012C000868780EC90E0918B808B81EC90E0938B13
:1012D000828B82EC90E0958B848B86EC90E0978BF0
:1012E000868B118E128E138E148EAAE4B3E082E0E8
:1012F00015968C9315978BE016968C931697E9E5C7
:10130000F2E0E4911796EC931797E3E1F2E0E491B1
:101310001896EC93189740E85EE360E070E01D9645
:101320004D935D936D937C9350970895CF93DF9386
:10133000CDB7DEB7E2970FB6F894DEBF0FBECDBFD4
:10134000789484B5826084BD84B5816084BD85B5A0
:10135000826085BD85B5816085BD80916E008160AC
:1013600080936E0010928100809181008260809352
:101370008100809181008160809381008091800054
:101380008160809380008091B10084608093B1007F
:101390008091B00081608093B00080919100826064
:1013A0008093910080919100816080939100809161
:1013B00090008160809390008091A1008260809372
:1013C000A1008091A10081608093A1008091A00084
:1013D00081608093A000809121018260809321012F
:1013E00080912101816080932101809120018160A1
:1013F0008093200180917A00846080937A008091AC
:101400007A00826080937A0080917A008160809374
:101410007A0080917A00806880937A001092C100EF
:10142000E091BD02F091BE0282E08083E091BD02B6
:10143000F091BE021082E091B902F091BA021082DE
:10144000E091BB02F091BC0280E180831092C50262
:10145000E091C102F091C20286E08083E091BF0278
:10146000F091C002808180618083E091BF02F091A1
:10147000C002808188608083E091BF02F091C00249
:10148000808180688083E091BF02F091C0028081FA
:101490008F7D808361E080910C020E94470260E0B2
:1014A00080910A020E94470260E0809108020E9437
:1014B000470262E080914F030E9447022FB7F894E1
:1014C0008091A9029091AA02A091AB02B091AC02C6
:1014D0002FBF805D9740A109B1098093530390937A
:1014E0005403A0935503B093560387E380935C03A2
:1014F00057E0252E312C8DEA92E00E9488041816C0
:101500001906E4F569E272E0CE0189960E94DF07D0
:101510000E943A0497FD1FC08A309105E1F089834B
:101520001A82EDA4FEA48FEFE81AF80AB701CE01E3
:1015300089960E948C07882359F329A53AA58DA581
:101540009EA5BE016F5F7F4F820F931F0E94F21214
:10155000FEA6EDA6DDCFCE0189960E94FF066AE2C7
:1015600072E0CE0189960E947707882309F181E015
:1015700080930E02CE0189960E94390680910E0258
:10158000882309F469C30E94DB02882351F080910B
:1015900050038C3009F474C208F015C28B3009F482
:1015A00030C2C12CD12C30ECE32E3FE7F32E53C2D6
:1015B00068E372E0CE0189960E947707882319F0CC
:1015C00010920E02D7CF65E472E0CE0189960E9498
:1015D0007707811108C06AE472E0CE0189960E9403
:1015E0007707882359F081E0898341E050E0BE010C
:1015F0006F5F7F4F8FE70E944106BCCF65E572E0C9
:10160000CE0189960E947707882319F00E94AF06C1
:10161000B1CF6EE572E0CE0189960E9477078823EC
:1016200039F182E090E00E947905A8E0B0E0B09343
:101630000D02A0930C0230920B0220920A0288E362
:1016400090E0909309028093080261E088E00E9494
:10165000470260E087E00E94470260E088E30E9462
:10166000470283E090E09093070280930602CECF7A
:101670006CE672E0CE0101960E94DF07BE016F5F4B
:101680007F4FCE0189960E945C07182FCE010196EC
:101690000E943906112309F427C18DA59EA50C9738
:1016A00008F468CF09A51AA560E270E0C8010B969E
:1016B0000E94DE12009709F45DCF7C01E01AF10A66
:1016C0001E141F040CF056CF97014BE050E0BE01F2
:1016D000675D7F4FCE0183960E94EA082DA53EA547
:1016E000A7014F5F5F4FBE01675D7F4FCE014D96F3
:1016F0000E94EA08188E1F8A1A8E198E1C8E1B8E65
:101700006D8D7E8D6115710531F049A15AA1CE0113
:1017100047960E94B407CE0147960E94FF06EF88C5
:10172000F88CE114F10471F0F70181917F018823B5
:1017300049F0082E000C990B0E94CD12F701319749
:101740008083F2CF68E772E0CE0101960E94DF0746
:10175000BE016F5F7F4FCE0147960E945C078823D2
:1017600029F011E08B8D9C8D029708F410E0CE01DA
:1017700001960E9439061123A1F12B8D3C8D41E089
:1017800050E0BE01695E7F4FCE0101960E94EA08DB
:10179000CE0101960E94DF086B01CE0101960E94E6
:1017A000390686010A5C1F4FCE0147960E94390612
:1017B00017FD0EC06CE772E0CE0183960E9477079A
:1017C000882309F457C0C8010E9479050E94AF061A
:1017D000CE014D960E943906CE0183960E943906AD
:1017E000C9CE6AE772E0CE0101960E94DF07BE0112
:1017F0006F5F7F4FCE0147960E945C07882331F0D0
:1018000011E08B8D9C8D029708F410E0CE010196BB
:101810000E9439061123A9F02B8D3C8D41E050E048
:10182000BE01695E7F4FCE0101960E94EA08CE019B
:1018300001960E94DF088B01CE0101960E943906B5
:10184000B3CF8B8D9C8D892B91F0EF89F88D80E043
:10185000309709F08081082E000C990BC0970A97E9
:1018600030F4CE0147960E94DF088B019DCF0FEF29
:101870001FEF9ACF60E872E0CE0183960E9477074F
:10188000882349F010930D0200930C0261E0802F31
:101890000E9447029BCF65E872E0CE0183960E94CA
:1018A0007707882331F010930B0200930A0260E05F
:1018B000EECF6AE872E0CE0183960E947707882314
:1018C00029F01093090200930802F1CF6FE872E04B
:1018D000CE0183960E947707882309F477CF10936F
:1018E00007020093060272CF62E972E0CE01019610
:1018F0000E94DF07BE016F5F7F4FCE0189960E9475
:101900005C07182FCE0101960E943906112309F1B8
:101910002DA53EA546E050E0BE01675D7F4FCE019C
:1019200001960E94EA08CE0101960E94DF086B0131
:10193000CE0101960E94390682E791E0F2E0CF16CF
:10194000D10414F487E691E00E940D050E9401067F
:1019500011CE69E972E0CE0101960E94DF07BE0157
:101960006F5F7F4FCE0189960E945C07182FCE01D2
:1019700001960E943906112309F4FCCD2DA53EA540
:101980004AE050E0BE01675D7F4FCE0101960E94A4
:10199000EA08CE0101960E94DF084B01CE010196B4
:1019A0000E943906181419040CF0E4CD092C000C1F
:1019B000AA08BB088092020290920302A09204023D
:1019C000B0920502D7CD8551823008F0EACDB090B3
:1019D0004C036B2D70E0762F662766277F7780910A
:1019E0004D03682B90E080E00E94970E2DEC3CECBC
:1019F0004CEC5DE30E94F80E6B017C01B7FE2BC03E
:101A00005FC060914C0370E090E080E00E94970E10
:101A10006B017C0110914D0317FF0AC0AC019B01C3
:101A200060E070E080E89FEB0E94B90F6B017C01E1
:101A30001F70612F70E090E080E00E94990E2DEC05
:101A40003CEC4CEC5DE30E94F80EA70196010E946D
:101A5000BA0F6B017C010E94DB02882351F0809158
:101A600050038B3030F08D3080F18551823008F496
:101A700000C1812C912C20ECA22E2FE7B22E43C066
:101A800010914C03612F70E090E080E00E94970E6F
:101A90006B017C0160914D036F7070E090E080E01D
:101AA0000E94990E2DEC3CEC4CEC5DE30E94F80E8C
:101AB000A70196010E94BA0F6B017C0117FFCBCFE3
:101AC000F7FAF094F7F8F094C6CF60914B0370E00A
:101AD00090E080E00E94990E2DEC3CEC4CEC5DE334
:101AE0000E94F80E4B015C0160914A0370E090E0A7
:101AF00080E00E94990E9B01AC01C501B4010E94D7
:101B0000BA0F4B015C0110910C0260E0812F0E9422
:101B1000BB0183E090E00197F1F761E0812F0E9423
:101B2000BB0183E290E00197F1F760E0812F0E9412
:101B3000BB0180910A0290910B029927FC01E95A9E
:101B4000FD4F6491FC01EF5EFD4FE491F0E0EE0F7C
:101B5000FF1FE950FE4F8591949108EA11E620E0BD
:101B600030E0462F0E949A086115710581059105A4
:101B700009F491C06F5F7F4F8F4F9F4F9F7061152A
:101B800071058105910509F486C00E94970E20E039
:101B900030E048E652E40E9426102B013C0180917F
:101BA0000802863308F0865320917B00982F9870A6
:101BB000277F922B90937B008770806480937C00BA
:101BC00080917A00806480937A0080917A0086FD0B
:101BD000FCCF6091780070917900072E000C880B83
:101BE000990B0E94990E6FA778AB89AB9AABA701AE
:101BF0009601C701B6010E949810882319F0C12CE4
:101C0000D12C7601A5019401C501B4010E94981060
:101C1000882319F0812C912C5401198284E08A8345
:101C2000CB82DC82ED82FE828F829886A986BA867C
:101C30004B865C866D867E868FA598A9A9A9BAA9D0
:101C40008F87988BA98BBA8B42E150E0BE016F5F02
:101C50007F4F81E00E944106609102027091030271
:101C600080910402909105020E94A8020E944805FA
:101C700042CC60914A0370914B0376276727762701
:101C800090E080E00E94970E2DEC3CEC4CEC5DE384
:101C90000E94F80E36CF412C512C80E8682E8FEB35
:101CA000782E7DCF1F93FC0199278827BC01E894EB
:101CB00011911032E9F3193010F01E30C8F31B32C5
:101CC00051F01D3249F4689406C00E94790E610FEC
:101CD000711D811D911D119110531A30B0F33EF406
:101CE00090958095709561957F4F8F4F9F4F1F9175
:101CF0000895592F482F372F262F660F771F881FDB
:101D0000991F660F771F881F991F620F731F841F0B
:101D1000951F660F771F881F991F089591110C94C6
:101D2000650F803219F089508550C8F70895E894FE
:101D300009C097FB3EF490958095709561957F4F13
:101D40008F4F9F4F9923A9F0F92F96E9BB279395C1
:101D5000F695879577956795B795F111F8CFFAF4D1
:101D6000BB0F11F460FF1BC06F5F7F4F8F4F9F4F02
:101D700016C0882311F096E911C0772321F09EE860
:101D8000872F762F05C0662371F096E8862F70E0C6
:101D900060E02AF09A95660F771F881FDAF7880FA0
:101DA0009695879597F90895990F0008550FAA0BF6
:101DB000E0E8FEEF16161706E807F907C0F012165E
:101DC0001306E407F50798F0621B730B840B950B61
:101DD00039F40A2661F0232B242B252B21F40895B6
:101DE0000A2609F4A140A6958FEF811D811D089553
:101DF0000E940B0F0C947F0F0E94710F38F00E940D
:101E0000780F20F0952311F00C94680F0C946E0F4E
:101E100011240C94B30F0E94900F70F3959FC1F39F
:101E2000950F50E0551F629FF001729FBB27F00D88
:101E3000B11D639FAA27F00DB11DAA1F649F6627DD
:101E4000B00DA11D661F829F2227B00DA11D621F2C
:101E5000739FB00DA11D621F839FA00D611D221FE6
:101E6000749F3327A00D611D231F849F600D211DCA
:101E7000822F762F6A2F11249F5750409AF0F1F04D
:101E800088234AF0EE0FFF1FBB1F661F771F881FB6
:101E900091505040A9F79E3F510580F00C94680F77
:101EA0000C94B30F5F3FE4F3983ED4F38695779597
:101EB0006795B795F795E7959F5FC1F7FE2B880F5C
:101EC000911D9695879597F90895992788270895E4
:101ED00097F99F6780E870E060E008959FEF80ECDD
:101EE000089500240A941616170618060906089580
:101EF00000240A9412161306140605060895092EE6
:101F00000394000C11F4882352F0BB0F40F4BF2B54
:101F100011F460FF04C06F5F7F4F8F4F9F4F089594
:101F200057FD9058440F551F59F05F3F71F047958A
:101F3000880F97FB991F61F09F3F79F0879508956F
:101F4000121613061406551FF2CF4695F1DF08C08E
:101F5000161617061806991FF1CF869571056105AB
:101F600008940895E894BB2766277727CB0197F953
:101F700008955058BB27AA270E94D10F0C947F0FB9
:101F80000E94710F38F00E94780F20F039F49F3FC3
:101F900019F426F40C946E0F0EF4E095E7FB0C9404
:101FA000680FE92F0E94900F58F3BA176207730762
:101FB0008407950720F079F4A6F50C94B20F0EF47F
:101FC000E0950B2EBA2FA02D0B01B90190010C0149
:101FD000CA01A0011124FF27591B99F0593F50F461
:101FE000503E68F11A16F040A22F232F342F4427B9
:101FF000585FF3CF469537952795A795F0405395B1
:10200000C9F77EF41F16BA0B620B730B840BBAF080
:102010009150A1F0FF0FBB1F661F771F881FC2F7EB
:102020000EC0BA0F621F731F841F48F487957795FF
:102030006795B795F7959E3F08F0B0CF9395880FB9
:1020400008F09927EE0F9795879508950E943A100A
:102050000C947F0F0E94780F58F00E94710F40F08F
:1020600029F45F3F29F00C94680F51110C94B30FC1
:102070000C946E0F0E94900F68F39923B1F35523CF
:1020800091F3951B550BBB27AA276217730784078B
:1020900038F09F5F5F4F220F331F441FAA1FA9F321
:1020A00035D00E2E3AF0E0E832D091505040E6950F
:1020B000001CCAF72BD0FE2F29D0660F771F881F70
:1020C000BB1F261737074807AB07B0E809F0BB0B63
:1020D000802DBF01FF2793585F4F3AF09E3F510577
:1020E00078F00C94680F0C94B30F5F3FE4F3983EC4
:1020F000D4F3869577956795B795F7959F5FC9F760
:10210000880F911D9695879597F90895E1E0660FE0
:10211000771F881FBB1F621773078407BA0720F059
:10212000621B730B840BBA0BEE1F88F7E0950895C2
:102130000E94D40E880B990B0895A1E21A2EAA1BB7
:10214000BB1BFD010DC0AA1FBB1FEE1FFF1FA21767
:10215000B307E407F50720F0A21BB30BE40BF50B64
:10216000661F771F881F991F1A9469F760957095ED
:10217000809590959B01AC01BD01CF010895EE0FB4
:10218000FF1F881F8BBF0790F691E02D19940F93C6
:102190001F93CF93DF938230910510F482E090E09B
:1021A000E0915F03F091600330E020E0B0E0A0E058
:1021B000309799F42115310509F44AC0281B390BD1
:1021C00024303105D8F58A819B816115710589F12B
:1021D000FB0193838283FE0111C040815181028102
:1021E000138148175907E0F04817590799F41097D9
:1021F00061F012960C93129713961C933296CF01AE
:10220000DF91CF911F910F91089500935F03109379
:102210006003F4CF2115310551F04217530738F010
:10222000A901DB019A01BD01DF01F801C1CFEF0176
:10223000F9CF9093600380935F03CDCFFE01E20F4F
:10224000F31F819391932250310939832883D7CF8B
:1022500020915D0330915E03232B41F42091110204
:102260003091120230935E0320935D0320910F02A0
:10227000309110022115310541F42DB73EB7409140
:10228000130250911402241B350BE0915D03F09171
:102290005E03E217F307A0F42E1B3F0B2817390744
:1022A00078F0AC014E5F5F4F2417350748F04E0FB2
:1022B0005F1F50935E0340935D03819391939FCF83
:1022C000F0E0E0E09CCFCF93DF930097E9F0FC01D2
:1022D000329713821282A0915F03B0916003ED01E7
:1022E00030E020E01097A1F420813181820F931F0C
:1022F00020915D0330915E032817390709F061C012
:10230000F0935E03E0935D03DF91CF910895EA01BE
:10231000CE17DF07E8F54A815B819E014115510523
:10232000B1F7E901FB83EA8349915991C40FD51FA5
:10233000EC17FD0761F4808191810296840F951F4F
:10234000E90199838883828193819B838A83F0E06A
:10235000E0E012968D919C9113970097B9F52D911D
:102360003C911197CD010296820F931F20915D033E
:1023700030915E032817390739F6309751F51092DE
:10238000600310925F03B0935E03A0935D03BCCF24
:10239000D383C28340815181840F951FC817D90709
:1023A00061F44E5F5F4F88819981480F591F5183B7
:1023B00040838A819B81938382832115310509F0B3
:1023C000B0CFF0936003E0935F039ECFFD01DC018B
:1023D000C0CF13821282D7CF4F925F926F927F92BB
:1023E0008F929F92AF92BF92CF92DF92EF92FF9225
:1023F0000F931F93CF93DF938C01009799F4CB0138
:10240000DF91CF911F910F91FF90EF90DF90CF90D0
:10241000BF90AF909F908F907F906F905F904F9004
:102420000C94C710FC01E60FF71F9C0122503109E4
:10243000E217F30708F4AEC0D901CD91DC911197F2
:10244000C617D70720F1C530D10578F0CE01049723
:102450008617970750F0C61BD70B2297C193D193CD
:102460006D937C93CF010E946311C801DF91CF91DE
:102470001F910F91FF90EF90DF90CF90BF90AF90A2
:102480009F908F907F906F905F904F9008955B0129
:10249000AC1ABD0A4C018C0E9D1EA0915F03B09139
:1024A0006003512C412CF12CE12C109731F58091D7
:1024B0005D0390915E038815990509F05CC046168E
:1024C000570608F058C080910F02909110020097B3
:1024D00041F48DB79EB74091130250911402841BB2
:1024E000950BE817F90708F055C0F0935E03E093E9
:1024F0005D03F90171836083B8CF8D919C91119731
:1025000012966C90129713967C901397A815B905A4
:1025100059F56C0142E0C40ED11CCA14DB0420F151
:10252000AC014A195B09DA011296159780F06282B4
:10253000738251834083D9016D937C93E114F1043C
:1025400071F0D7011396FC93EE9312978ECF2296DB
:102550008C0F9D1FF90191838083F301EFCFF093DE
:102560006003E0935F0381CF4816590608F42C01FD
:102570007D01D3019ACFCB010E94C7107C01009747
:1025800049F0AE01B8010E94D512C8010E94631142
:1025900087016BCF10E000E068CF9111089581565C
:1025A0008A5108F4805285580895FB01DC0102C06D
:1025B00001900D9241505040D8F70895FC0181914F
:1025C000861721F08823D9F7992708953197CF01ED
:1025D0000895FB01DC018D91019080190110D9F360
:1025E000990B0895FB01DC0101900D920020E1F7A9
:1025F0000895FB01DC014150504030F08D91019075
:10260000801919F40020B9F7881B990B0895F894E4
:02261000FFCFFA
:102612000200F40100000300380007000800010076
:10262200006103800000000000C004EA03170428D0
:1026320005880426047A040D0A005354415254209A
:1026420052454144494E470053544F502052454150
:1026520044494E470050494E470047455420535481
:1026620041545553004745542050494E5300434C62
:102672004541522044455649434553005345542051
:1026820044455649434520004100440064687400B3
:1026920074726967006563686F0068616C6C0064DE
:1026A200730050524F544F20005345542044454C20
:0426B200415900008A
:00000001FF
