:100000000C9450010C9481010C9481010C94810199
:100010000C9481010C9481010C9481010C94810158
:100020000C9481010C9481010C9481010C94810148
:100030000C9481010C9481010C9481010C94810138
:100040000C9481010C9481010C9481010C94810128
:100050000C9481010C9481010C9481010C94F007A3
:100060000C9481010C9464080C943A080C9481015E
:100070000C9481010C9481010C9481010C948101F8
:100080000C9481010C9481010C9481010C948101E8
:100090000C9481010C9481010C9481010C948101D8
:1000A0000C9481010C9481010C9481010C948101C8
:1000B0000C9481010C9481010C9481010C948101B8
:1000C0000C9481010C9481010C9481010C948101A8
:1000D0000C9481010C9481010C9481010C94810198
:1000E0000C9481010C9488040C9437020C941B022C
:1000F0000C9441020C940A020C9433020C94F0010B
:100100000C942F020C9411020C94EB010C94170424
:100110000C94EA030C9426040C940E020C94250211
:100120000C9429020C9402020C9428050C943D02B4
:100130000C9406020C9417020C94C0040C94210237
:100140000C947A040C9449092068616C6C3D002081
:100150006563686F3D0020747269673D0050494EC9
:1001600053206468743D0050524F544F204F4B2031
:10017000310050524F544F204F4B2032000000218D
:1001800000240027002A002D003000330001010068
:1001900000040107010A0100002200250028002BAD
:1001A000002E003100340002010000050108010B9F
:1001B0000100000A0B02090C0D0E080703040100E0
:1001C000000000000000000000000000000000002F
:1001D00000000000000000000000000000121110EC
:1001E000000000000000000000000000000000000F
:1001F000000000000000000000200023002600296D
:10020000002C002F0032000001000003010601094C
:100210000105050505070508080808020202020A8B
:100220000A08080404040401010101010101010399
:1002300003030303030303040707070C0C0C0C0C54
:100240000C0C0C0202020206060606060606060B47
:100250000B0B0B0B0B0B0B010210202008081020BE
:100260004010204080020102010804020101020442
:100270000810204080804020100804020180040201
:100280000180402010080402010804020101020458
:100290000810204080010204081020408000490915
:1002A00011241FBECFEFD1E2DEBFCDBF00E00CBFF7
:1002B00023E0AEE9B2E001C01D92AB35B207E1F731
:1002C00012E0A0E0B2E0ECEEF5E200E00BBF02C00D
:1002D00007900D92AE39B107D9F711E0C0E5D1E032
:1002E00000E006C021970109802FFE010E94AC109A
:1002F000CF34D10780E00807A9F70E9496090C9433
:10030000F4120C940000CF92DF92EF92FF92CF9301
:10031000DF93B0914B03A0E08111AB2F80914C0390
:1003200090E0880F991FAC0149505E4FC090510377
:10033000D0905203E0905303F090540330E020E05B
:10034000FA01C591D491E881B90190E080E0EB23F6
:10035000EA130AC02F5F3F4F6C157D058E059F0580
:1003600078F36FEF7FEFCB01DF91CF91FF90EF90AC
:10037000DF90CF900895282F30E0F901EF54FE4F21
:100380009491F901E95AFD4F44912F5E3D4FF901D7
:100390002491222309F435C0992311F1915092310F
:1003A000F8F4E92FF0E08827E752FE4F8F4F0C94C6
:1003B000AC100A020E02EB0102020602F001110269
:1003C00017021B022102250229022F023302F0012B
:1003D00037023D024102809180008F778093800038
:1003E000E22FF0E0EE0FFF1FE956FE4FA591B4910A
:1003F0008FB7F894EC91611148C040954E234C930F
:100400008FBF0895809180008F7DE8CF809180001C
:10041000877FE4CF84B58F7784BDE2CF84B58F7DAD
:10042000FBCF8091B0008F778093B000D9CF8091BF
:10043000B0008F7DF9CF809190008F7780939000EE
:10044000CFCF809190008F7DF9CF80919000877FF2
:10045000F5CF8091A0008F778093A000C1CF8091CD
:10046000A0008F7DF9CF8091A000877FF5CF80918C
:1004700020018F7780932001B3CF809120018F7D61
:10048000F9CF80912001877FF5CF4E2BB8CFCF9346
:10049000DF9390E0FC01E95AFD4F24918F5E9D4F60
:1004A000FC0184918823C9F090E0880F991FFC011A
:1004B000E358FE4FA591B491FC01E956FE4FC5915A
:1004C000D49161110DC09FB7F8948C91209582232F
:1004D0008C938881282328839FBFDF91CF91089533
:1004E000623051F49FB7F8943C91822F809583231A
:1004F0008C93E8812E2BEFCF8FB7F894EC912E2BB5
:100500002C938FBFEACF3FB7F89480919F029091D0
:10051000A002A091A102B091A20226B5A89B05C09D
:100520002F3F19F00196A11DB11D3FBFBA2FA92F72
:10053000982F8827BC01CD01620F711D811D911D6F
:1005400042E0660F771F881F991F4A95D1F70895DB
:100550008F929F92AF92BF92CF92DF92EF92FF92D3
:100560006B017C010E9483024B015C01C114D10428
:10057000E104F104B9F00E948302681979098A093B
:100580009B09683E73408105910580F321E0C21A02
:10059000D108E108F10888EE880E83E0981EA11CBE
:1005A000B11CE4CFFF90EF90DF90CF90BF90AF9061
:1005B0009F908F900895CF92DF92EF92FF920F93CA
:1005C0001F93CF93DF93CDB7DEB7C054D1400FB6A2
:1005D000F894DEBF0FBECDBF2FB7F8948091A30271
:1005E0009091A402A091A502B091A6022FBF4091C4
:1005F0004D0350914E0360914F03709150038C0155
:100600009D01041B150B260B370BB901A801403DBA
:1006100057406105710590F480915503C05CDE4F31
:100620000FB6F894DEBF0FBECDBFDF91CF911F9103
:100630000F91FF90EF90DF90CF90089580934D033E
:1006400090934E03A0934F03B0935003109248032E
:1006500010924703109246031092450310924403F0
:1006600062E0809149030E94470261E070E080E00F
:1006700090E00E94A80261E0809149030E94470235
:1006800060E0809149030E94BB0180914A0385513B
:10069000823020F58BE291E10197F1F762E08091E1
:1006A00049030E9447028091560390E082309105F1
:1006B00038F0880F991F880F991F05970197F1F758
:1006C000F89480E00E9483016F3F7F4F8F4F9F4FD0
:1006D00061F410925503789480E0A0CF64E170E05B
:1006E00080E090E00E94A802D9CF81E00E948301BF
:1006F0006F3F7F4F8F4F9F4F61F38E010F5F1F4FF3
:100700006E018FEBC81A8EEFD80A780180E00E9444
:100710008301F701608371838283938381E00E9468
:100720008301F7016483758386839783F8E0EF0E76
:10073000F11CEC14FD0451F7789430E020E0F8014E
:10074000C080D180E280F3804481558166817781C9
:10075000FFEFCF16DF06EF06FF0631F04F3F8FEFBA
:1007600058076807780719F410925503B5CFF901B7
:1007700083E0F595E7958A95E1F7EC5BFC4F808186
:10078000880FC416D506E606F70610F180832F5FA2
:100790003F4F085F1F4F2832310589F640914803CB
:1007A0002091440380914503280F3327331F809104
:1007B0004603280F311D80914703820F932F911D0F
:1007C00099274817190681F681E08093550326CFB3
:1007D0008160DCCFAF92BF92CF92DF92EF92FF9217
:1007E0000F931F93CF93DF936C017B018B01040F59
:1007F000151FEB015E01AE18BF08C017D10759F0F5
:100800006991D601ED91FC910190F081E02DC60136
:100810001995892B79F7C501DF91CF911F910F9120
:10082000FF90EF90DF90CF90BF90AF900895FC01C4
:10083000538D448D252F30E0842F90E0821B930B45
:10084000541710F0CF96089501970895FC01918DEB
:10085000828D981761F0A28DAE0FBF2FB11D5D96EE
:100860008C91928D9F5F9F73928F90E008958FEF90
:100870009FEF08952FB7F8948091A3029091A4025E
:10088000A091A502B091A6022FBF8093AF029093D2
:10089000B002A093B102B093B20287EA92E00E9444
:1008A000260497FF26C02FB7F8948091A302909159
:1008B000A402A091A502B091A6022FBF4091AF0261
:1008C0005091B0026091B1027091B202841B950BFD
:1008D000A60BB70B4091AB025091AC026091AD02F8
:1008E0007091AE0284179507A607B707B0F28FEF95
:1008F0009FEF0895FC01918D828D981731F0828DC4
:10090000E80FF11D858D90E008958FEF9FEF08951A
:10091000FC01918D228D892F90E0805C9F4F821B7E
:1009200091098F739927089587EA92E00E948804BD
:1009300021E0892B09F420E0822F0895FC01A48D89
:10094000A80FB92FB11DA35ABF4F2C91848D90E0F1
:1009500001968F739927848FA689B7892C93A089D4
:10096000B1898C91837080648C93938D848D98135E
:1009700006C00288F389E02D80818F7D80830895F1
:10098000EF92FF920F931F93CF93DF93EC0181E0DF
:10099000888F9B8D8C8D98131AC0E889F989808186
:1009A00085FF15C09FB7F894EE89FF896083E889B9
:1009B000F98980818370806480839FBF81E090E0AB
:1009C000DF91CF911F910F91FF90EF900895F62E38
:1009D0000B8D10E00F5F1F4F0F731127E02E8C8DD2
:1009E0008E110CC00FB607FCFACFE889F989808117
:1009F00085FFF5CFCE010E949E04F1CFEB8DEC0F69
:100A0000FD2FF11DE35AFF4FF0829FB7F8940B8F33
:100A1000EA89FB8980818062CFCF0F931F93CF93A8
:100A2000DF938C01D0E0C0E0F801EC0FFD1F649172
:100A3000662341F087EA92E00E94C004892B11F0FE
:100A40002196F2CFCE01DF91CF911F910F910895A2
:100A5000CF93DF93EC01888D8823B9F0AA89BB89F5
:100A6000E889F9898C9185FD03C0808186FD0DC0E0
:100A70000FB607FCF7CF8C9185FFF2CF808185FF01
:100A8000EDCFCE010E949E04E9CFDF91CF91089572
:100A900080E090E0892B29F00E94940481110E944B
:100AA000000080E090E0892B49F080E090E0892B05
:100AB00029F00E94000081110E94000080E090E077
:100AC000892B49F080E090E0892B29F00E940000FA
:100AD00081110E94000080E090E0892B49F080E0C5
:100AE00090E0892B29F00E94000081110C940000F5
:100AF0000895CF93DF9390930102809300029C01AD
:100B00003327F901E95AFD4F94912F5E3D4FF901CA
:100B10002491C4E4D3E08D833BE03E839F83288708
:100B200040E85EE360E070E04D875E876F87788B1A
:100B300062E00E9447022FB7F8948091A30290913F
:100B4000A402A091A502B091A6022FBF805D97409C
:100B5000A109B10989879A87AB87BC8787E38A8B0C
:100B6000DF91CF9108958F929F92AF92BF920F9392
:100B70001F93CF93DF93CDB7DEB7A1970FB6F8944D
:100B8000DEBF0FBECDBF19A2423008F44AE08E018D
:100B90000F5D1F4F842E912CB12CA12CA501940127
:100BA0000E948A10E62FB901CA01EA3044F5E05DDF
:100BB000D801EE938D01232B242B252B79F790E080
:100BC00080E0109769F0FD0101900020E9F731976E
:100BD000AF014A1B5B0BBD0187EA92E00E94EA036A
:100BE000A1960FB6F894DEBF0FBECDBFDF91CF91B7
:100BF0001F910F91BF90AF909F908F900895E95CE7
:100C0000D7CFCF92DF92EF92FF92CF93DF936B011A
:100C10007C016DE287EA92E00E94C004EC01662745
:100C20007727CB016C197D098E099F094AE00E9444
:100C3000B3058C0F9D1FDF91CF91FF90EF90DF9058
:100C4000CF90089542E050E065E272E087EA92E0DA
:100C50000C94EA03BC01990F880B990B97FD0C9437
:100C600001064AE00C94B305FC0180819181009754
:100C700011F00C9450110895EF92FF920F931F936F
:100C8000CF93DF93CDB7DEB7C854D1090FB6F89430
:100C9000DEBF0FBECDBF7B018A019AEA26969FAFC9
:100CA000269727968FAF279728964FAF2897299694
:100CB0001FAE299744E050E0BE016B5B7F4F87EA8F
:100CC00092E00E94EA03A801B70187EA92E00E943D
:100CD000EA0329968CAD9DADAEADBFAD2997898352
:100CE0009A83AB83BC83A801B701CE0105960E940D
:100CF000C2120C5F1F4FAE014F5F5F4FFA0160E001
:100D00007CE88191682728E030E0862F90E0959577
:100D1000879560FF1DC0682F672721503109A9F70B
:100D2000CF01841B950B801791075CF387EA92E053
:100D30000E94C004C85BDF4F0FB6F894DEBF0FBE41
:100D4000CDBFDF91CF911F910F91FF90EF9008954C
:100D5000682FE3CFCF93DF9300D01F92CDB7DEB7DC
:100D600080910002898380910A028A83809108021F
:100D70008B83809106028C8344E050E0BE016F5F5C
:100D80007F4F82E20E943C068DE591E00E940D05B6
:100D900080910002909101020E942A0686E591E06E
:100DA0000E940D0580910A0290910B020E942A0672
:100DB0008FE491E00E940D05809108029091090254
:100DC0000E942A0688E491E00E940D0560910602C7
:100DD00070910702072E000C880B990B97FF0BC030
:100DE0000E9401060E9422060F900F900F900F9014
:100DF000DF91CF9108954AE00E94B305F3CFAF92FF
:100E0000BF92CF92DF92EF92FF920F931F93CF93F7
:100E1000DF93DC01CD90DC901197C114D10439F03F
:100E20001496CD91DC918C017601209761F4DF91CD
:100E3000CF911F910F91FF90EF90DF90CF90BF90D7
:100E4000AF90089575015701BFEFAB1ABB0AF701C8
:100E50008081082E000C990B0E947B0E892B91F744
:100E60002197CC0DDD1D8881082E000C990B0E9466
:100E70007B0E892B29F0CE15DF0510F02197F3CFDB
:100E8000AE014F5F5F4F4E195F09D80115965C9315
:100E90004E931497CE14DF0420F4B701C6010E94CC
:100EA000C212D801ED91FC91119714968D919C91ED
:100EB000E80FF91F1082BBCFFB0144815581FC0173
:100EC000248135812417350778F08081918100973E
:100ED00059F0FB01608171816115710529F00E9453
:100EE000E61221E0892B09F020E0822F0895FC0111
:100EF00024813581232B39F421E0FB018081882373
:100F000049F020E007C0808191810E94D61221E043
:100F1000892BB9F7822F08950F931F93CF93DF93F7
:100F2000EC0188819981009759F02A813B8126172D
:100F3000370730F081E0DF91CF911F910F91089535
:100F40008B016F5F7F4F0E94D911009759F09983F1
:100F500088831B830A832C813D81232B59F7FC0155
:100F60001082E8CF80E0E7CFEF92FF920F931F93BC
:100F7000CF93DF93EC017B018A01BA010E948C07B9
:100F800028813981811114C02115310519F0C90159
:100F90000E945011198218821D821C821B821A82A3
:100FA000CE01DF91CF911F910F91FF90EF900895A7
:100FB0001D830C83B701C9010E94DF12F1CFFC0130
:100FC000118210821382128215821482FB01019019
:100FD0000020E9F73197AF01461B570B0C94B4077B
:100FE0001F920F920FB60F9211242F933F938F935E
:100FF0009F93AF93BF938091A3029091A402A0917D
:10100000A502B091A60230919E0223E0230F2D3756
:1010100058F50196A11DB11D20939E028093A30255
:101020009093A402A093A502B093A60280919F0280
:101030009091A002A091A102B091A2020196A11DDF
:10104000B11D80939F029093A002A093A102B09340
:10105000A202BF91AF919F918F913F912F910F90DD
:101060000FBE0F901F90189526E8230F0296A11D22
:10107000B11DD2CF1F920F920FB60F9211240BB653
:101080000F922F933F934F935F936F937F938F9321
:101090009F93AF93BF93EF93FF9387EA92E00E94F1
:1010A0009E04FF91EF91BF91AF919F918F917F919E
:1010B0006F915F914F913F912F910F900BBE0F90C9
:1010C0000FBE0F901F9018951F920F920FB60F92A0
:1010D00011240BB60F922F938F939F93EF93FF934F
:1010E000E091B702F091B8028081E091BD02F091E9
:1010F000BE0282FD1DC090818091C0028F5F8F7300
:101100002091C102821741F0E091C002F0E0E95560
:10111000FD4F958F8093C002FF91EF919F918F912A
:101120002F910F900BBE0F900FBE0F901F90189530
:101130008081F2CFCF92DF92EF92FF920F931F93B5
:10114000E82FF92F05C0015011092109310961F17A
:10115000908196239417B9F305C001501109210914
:10116000310911F1908196239413F7CFC12CD12C22
:10117000E12CF12C0AC08FEFC81AD80AE80AF80A45
:101180000C151D052E053F0579F0808186238417F7
:1011900091F36C2D7D2D8E2D9F2D1F910F91FF9022
:1011A000EF90DF90CF90089560E070E080E090E0F5
:1011B0001F910F91FF90EF90DF90CF900895FC0169
:1011C00080819181009711F00C943F0E60E070E0F7
:1011D000CB010895AF92BF92CF92DF92EF92FF9230
:1011E0000F931F93CF93DF93EC016B015A017901A9
:1011F0002417350720F48B2D5901E42EF82E67E2D1
:1012000072E0CE010E94DF07D60114960D911C9169
:10121000A016B10628F5E016F10608F48701D601FC
:10122000ED91FC911197E00FF11FF08010826D910C
:101230007C916A0D7B1D61157105F1F0FB01019038
:101240000020E9F73197AF01461B570BCE010E94F2
:10125000B407F60180819181080F191FD801FC9213
:10126000CE01DF91CF911F910F91FF90EF90DF9012
:10127000CF90BF90AF90089588819981009711F029
:101280000E945011198218821D821C821B821A82B0
:10129000E0CFE7EAF2E01382128288EE93E0A0E06A
:1012A000B0E084839583A683B78387E192E091833E
:1012B000808385EC90E09587848784EC90E0978725
:1012C000868780EC90E0918B808B81EC90E0938B13
:1012D000828B82EC90E0958B848B86EC90E0978BF0
:1012E000868B118E128E138E148EA4E4B3E082E0EE
:1012F00015968C9315978BE016968C931697E9E5C7
:10130000F2E0E4911796EC931797E3E1F2E0E491B1
:101310001896EC93189740E85EE360E070E01D9645
:101320004D935D936D937C9350970895CF93DF9386
:10133000CDB7DEB7AE970FB6F894DEBF0FBECDBF08
:10134000789484B5826084BD84B5816084BD85B5A0
:10135000826085BD85B5816085BD80916E008160AC
:1013600080936E0010928100809181008260809352
:101370008100809181008160809381008091800054
:101380008160809380008091B10084608093B1007F
:101390008091B00081608093B00080919100826064
:1013A0008093910080919100816080939100809161
:1013B00090008160809390008091A1008260809372
:1013C000A1008091A10081608093A1008091A00084
:1013D00081608093A000809121018260809321012F
:1013E00080912101816080932101809120018160A1
:1013F0008093200180917A00846080937A008091AC
:101400007A00826080937A0080917A008160809374
:101410007A0080917A00806880937A001092C100EF
:10142000E091B702F091B80282E08083E091B702C8
:10143000F091B8021082E091B302F091B4021082F0
:10144000E091B502F091B60280E180831092BF0274
:10145000E091BB02F091BC0286E08083E091B9028A
:10146000F091BA02808180618083E091B902F091AD
:10147000BA02808188608083E091B902F091BA025B
:10148000808180688083E091B902F091BA02808106
:101490008F7D808361E080910A020E94470260E0B4
:1014A000809108020E94470260E0809106020E943B
:1014B000470262E0809149030E9447022FB7F894E7
:1014C0008091A3029091A402A091A502B091A602DE
:1014D0002FBF805D9740A109B10980934D03909380
:1014E0004E03A0934F03B093500387E380935603BA
:1014F00057E0252E312C87EA92E00E9488041816C6
:101500001906E4F567E272E0CE0185960E94DF07D6
:101510000E943A0497FD1FC08A309105E1F089834B
:101520001A82E9A4FAA48FEFE81AF80AB701CE01EB
:1015300085960E948C07882359F32DA13EA189A589
:101540009AA5BE016F5F7F4F820F931F0E94DF122B
:10155000FAA6E9A6DDCFCE0185960E94FF0668E2D5
:1015600072E0CE0185960E947707882309F181E019
:1015700080930C02CE0185960E94340680910C0265
:10158000882309F456C30E94DB02882351F080911E
:101590004A038C3009F461C208F002C28B3009F4AE
:1015A0001DC2C12CD12C30ECE32E3FE7F32E40C2FC
:1015B00066E372E0CE0185960E947707882319F0D2
:1015C00010920C02D7CF63E472E0CE0185960E94A0
:1015D0007707811108C068E472E0CE0185960E9409
:1015E0007707882359F081E0898341E050E0BE010C
:1015F0006F5F7F4F8FE70E943C06BCCF63E572E0D0
:10160000CE0185960E947707882319F00E94AA06CA
:10161000B1CF6CE572E0CE0185960E9477078823F2
:1016200009F182E090E00E947905A8E0B0E0B09373
:101630000B02A0930A02309209022092080288E36A
:1016400090E0909307028093060261E088E00E9498
:10165000470260E087E00E94470260E088E30E9462
:101660004702D4CF6AE672E0CE0101960E94DF07FE
:10167000BE016F5F7F4FCE0185960E945C07182FD9
:10168000CE0101960E943406112309F41AC189A5DE
:101690009AA50C9708F46ECF0DA11EA160E270E030
:1016A000C8010B960E94CB12009709F463CF7C010E
:1016B000E01AF10A1E141F040CF05CCF97014BE0F6
:1016C00050E0BE016B5D7F4FCE014F960E94EA084D
:1016D00029A53AA5A7014F5F5F4FBE016B5D7F4F04
:1016E000CE0149960E94EA081C8A1B8A1E8A1D8A1E
:1016F000188E1F8A698D7A8D6115710531F04D8DB7
:101700005E8DCE0143960E94B407CE0143960E949F
:10171000FF06EB88FC88E114F10471F0F701819178
:101720007F01882349F0082E000C990B0E94BA1201
:10173000F70131978083F2CF66E772E0CE01019620
:101740000E94DF07BE016F5F7F4FCE0143960E946C
:101750005C07882329F011E08F89988D029708F49F
:1017600010E0CE0101960E9434061123A1F12F89C9
:10177000388D41E050E0BE016D5E7F4FCE01019695
:101780000E94EA08CE0101960E94DF086B01CE019B
:1017900001960E94340686010A5C1F4FCE014396D3
:1017A0000E94340617FD0EC06AE772E0CE014F9624
:1017B0000E947707882309F457C0C8010E94790561
:1017C0000E94AA06CE0149960E943406CE014F9689
:1017D0000E943406CFCE68E772E0CE0101960E94E7
:1017E000DF07BE016F5F7F4FCE0143960E945C070B
:1017F000882331F011E08F89988D029708F410E06A
:10180000CE0101960E9434061123A9F02F89388D4C
:1018100041E050E0BE016D5E7F4FCE0101960E9417
:10182000EA08CE0101960E94DF088B01CE010196E5
:101830000E943406B3CF8F89988D892B91F0EB8964
:10184000FC8980E0309709F08081082E000C990B0C
:10185000C0970A9730F4CE0143960E94DF088B01AF
:101860009DCF0FEF1FEF9ACF6EE772E0CE014F963C
:101870000E947707882349F010930B0200930A0215
:1018800061E0802F0E9447029BCF63E872E0CE01A7
:101890004F960E947707882331F010930902009336
:1018A000080260E0EECF68E872E0CE014F960E9439
:1018B0007707882309F484CF109307020093060268
:1018C000F0CF6DE872E0CE0101960E94DF07BE0105
:1018D0006F5F7F4FCE0185960E945C07182FCE0167
:1018E00001960E943406112309F129A53AA546E084
:1018F00050E0BE016B5D7F4FCE0101960E94EA0869
:10190000CE0101960E94DF086B01CE0101960E9474
:10191000340682E791E0F2E0CF16D10414F487E6B2
:1019200091E00E940D050E94220624CE64E972E037
:10193000CE0101960E94DF07BE016F5F7F4FCE018F
:1019400085960E945C07182FCE0101960E943406EE
:10195000112309F40FCE29A53AA54AE050E0BE01B3
:101960006B5D7F4FCE0101960E94EA08CE01019681
:101970000E94DF084B01CE0101960E943406181424
:1019800019040CF0F7CD092C000CAA08BB088092B2
:10199000020290920302A0920402B0920502EACDE4
:1019A0008551823008F0FDCDB09046036B2D70E07C
:1019B000762F662766277F7780914703682B90E014
:1019C00080E00E94840E2DEC3CEC4CEC5DE30E9428
:1019D000E50E6B017C01B7FE2BC05FC06091460332
:1019E00070E090E080E00E94840E6B017C01109119
:1019F000470317FF0AC0AC019B0160E070E080E87C
:101A00009FEB0E94A60F6B017C011F70612F70E09D
:101A100090E080E00E94860E2DEC3CEC4CEC5DE307
:101A20000E94E50EA70196010E94A70F6B017C01A1
:101A30000E94DB02882351F080914A038B3030F002
:101A40008D3080F18551823008F400C1812C912CB9
:101A500020ECA22E2FE7B22E43C010914603612F37
:101A600070E090E080E00E94840E6B017C01609148
:101A700047036F7070E090E080E00E94860E2DECCE
:101A80003CEC4CEC5DE30E94E50EA70196010E9440
:101A9000A70F6B017C0117FFCBCFF7FAF094F7F893
:101AA000F094C6CF6091450370E090E080E00E9422
:101AB000860E2DEC3CEC4CEC5DE30E94E50E4B01F8
:101AC0005C016091440370E090E080E00E94860E2B
:101AD0009B01AC01C501B4010E94A70F4B015C0141
:101AE00010910A0260E0812F0E94BB0183E090E028
:101AF0000197F1F761E0812F0E94BB0183E290E042
:101B00000197F1F760E0812F0E94BB0180910802EC
:101B1000909109029927FC01E95AFD4F6491FC015B
:101B2000EF5EFD4FE491F0E0EE0FFF1FE950FE4F36
:101B30008591949108EA11E620E030E0462F0E945A
:101B40009A08611571058105910509F491C06F5FCF
:101B50007F4F8F4F9F4F9F706115710581059105D4
:101B600009F486C00E94840E20E030E048E652E48A
:101B70000E9413102B013C0180910602863308F06D
:101B8000865320917B00982F9870277F922B9093FB
:101B90007B008770806480937C0080917A008064F1
:101BA00080937A0080917A0086FDFCCF6091780066
:101BB00070917900072E000C880B990B0E94860EFD
:101BC0006BA77CA78DA79EA7A7019601C701B601A9
:101BD0000E948510882319F0C12CD12C7601A50113
:101BE0009401C501B4010E948510882319F0812C4D
:101BF000912C5401198284E08A83CB82DC82ED82AD
:101C0000FE828F829886A986BA864B865C866D8610
:101C10007E868BA59CA5ADA5BEA58F87988BA98B2D
:101C2000BA8B42E150E0BE016F5F7F4F81E00E94BE
:101C30003C0660910202709103028091040290912F
:101C400005020E94A8020E94480555CC60914403F9
:101C50007091450376276727762790E080E00E9401
:101C6000840E2DEC3CEC4CEC5DE30E94E50E36CF8F
:101C7000412C512C80E8682E8FEB782E7DCF1F935E
:101C8000FC0199278827BC01E89411911032E9F3EF
:101C9000193010F01E30C8F31B3251F01D3249F4D8
:101CA000689406C00E94660E610F711D811D911D12
:101CB000119110531A30B0F33EF4909580957095C1
:101CC00061957F4F8F4F9F4F1F910895592F482F38
:101CD000372F262F660F771F881F991F660F771FD4
:101CE000881F991F620F731F841F951F660F771F30
:101CF000881F991F089591110C94520F803219F08A
:101D000089508550C8F70895E89409C097FB3EF4C0
:101D100090958095709561957F4F8F4F9F4F992338
:101D2000A9F0F92F96E9BB279395F69587957795B6
:101D30006795B795F111F8CFFAF4BB0F11F460FF76
:101D40001BC06F5F7F4F8F4F9F4F16C0882311F0CE
:101D500096E911C0772321F09EE8872F762F05C0E2
:101D6000662371F096E8862F70E060E02AF09A957D
:101D7000660F771F881FDAF7880F9695879597F972
:101D80000895990F0008550FAA0BE0E8FEEF16160C
:101D90001706E807F907C0F012161306E407F5075F
:101DA00098F0621B730B840B950B39F40A2661F0D3
:101DB000232B242B252B21F408950A2609F4A14076
:101DC000A6958FEF811D811D08950E94F80E0C9439
:101DD0006C0F0E945E0F38F00E94650F20F0952373
:101DE00011F00C94550F0C945B0F11240C94A00F60
:101DF0000E947D0F70F3959FC1F3950F50E0551F22
:101E0000629FF001729FBB27F00DB11D639FAA274F
:101E1000F00DB11DAA1F649F6627B00DA11D661F9E
:101E2000829F2227B00DA11D621F739FB00DA11DBF
:101E3000621F839FA00D611D221F749F3327A00D79
:101E4000611D231F849F600D211D822F762F6A2F15
:101E500011249F5750409AF0F1F088234AF0EE0F7A
:101E6000FF1FBB1F661F771F881F91505040A9F7A7
:101E70009E3F510580F00C94550F0C94A00F5F3FCE
:101E8000E4F3983ED4F3869577956795B795F795E3
:101E9000E7959F5FC1F7FE2B880F911D969587955B
:101EA00097F9089599278827089597F99F6780E8FB
:101EB00070E060E008959FEF80EC089500240A949C
:101EC0001616170618060906089500240A94121615
:101ED0001306140605060895092E0394000C11F448
:101EE000882352F0BB0F40F4BF2B11F460FF04C0F5
:101EF0006F5F7F4F8F4F9F4F089557FD9058440F4E
:101F0000551F59F05F3F71F04795880F97FB991F58
:101F100061F09F3F79F08795089512161306140615
:101F2000551FF2CF4695F1DF08C0161617061806A2
:101F3000991FF1CF86957105610508940895E8947D
:101F4000BB2766277727CB0197F908955058BB2701
:101F5000AA270E94BE0F0C946C0F0E945E0F38F0EF
:101F60000E94650F20F039F49F3F19F426F40C9479
:101F70005B0F0EF4E095E7FB0C94550FE92F0E94E0
:101F80007D0F58F3BA17620773078407950720F08F
:101F900079F4A6F50C949F0F0EF4E0950B2EBA2F52
:101FA000A02D0B01B90190010C01CA01A00111245F
:101FB000FF27591B99F0593F50F4503E68F11A160B
:101FC000F040A22F232F342F4427585FF3CF46959C
:101FD00037952795A795F0405395C9F77EF41F16BE
:101FE000BA0B620B730B840BBAF09150A1F0FF0F88
:101FF000BB1F661F771F881FC2F70EC0BA0F621F74
:10200000731F841F48F4879577956795B795F79563
:102010009E3F08F0B0CF9395880F08F09927EE0FF8
:102020009795879508950E9427100C946C0F0E9435
:10203000650F58F00E945E0F40F029F45F3F29F0D1
:102040000C94550F51110C94A00F0C945B0F0E942F
:102050007D0F68F39923B1F3552391F3951B550B2D
:10206000BB27AA2762177307840738F09F5F5F4F6B
:10207000220F331F441FAA1FA9F335D00E2E3AF0AA
:10208000E0E832D091505040E695001CCAF72BD0C2
:10209000FE2F29D0660F771F881FBB1F2617370713
:1020A0004807AB07B0E809F0BB0B802DBF01FF2745
:1020B00093585F4F3AF09E3F510578F00C94550FBE
:1020C0000C94A00F5F3FE4F3983ED4F38695779588
:1020D0006795B795F7959F5FC9F7880F911D9695FE
:1020E000879597F90895E1E0660F771F881FBB1F5A
:1020F000621773078407BA0720F0621B730B840B07
:10210000BA0BEE1F88F7E09508950E94C10E880B68
:10211000990B0895A1E21A2EAA1BBB1BFD010DC04D
:10212000AA1FBB1FEE1FFF1FA217B307E407F50787
:1021300020F0A21BB30BE40BF50B661F771F881F63
:10214000991F1A9469F760957095809590959B01F9
:10215000AC01BD01CF010895EE0FFF1F881F8BBF9B
:102160000790F691E02D19940F931F93CF93DF936F
:102170008230910510F482E090E0E0915903F091F3
:102180005A0330E020E0B0E0A0E0309799F4211548
:10219000310509F44AC0281B390B24303105D8F524
:1021A0008A819B816115710589F1FB01938382838B
:1021B000FE0111C0408151810281138148175907E6
:1021C000E0F04817590799F4109761F012960C93B4
:1021D000129713961C933296CF01DF91CF911F91E6
:1021E0000F9108950093590310935A03F4CF2115CA
:1021F000310551F04217530738F0A901DB019A016C
:10220000BD01DF01F801C1CFEF01F9CF90935A036F
:1022100080935903CDCFFE01E20FF31F8193919379
:102220002250310939832883D7CF20915703309129
:102230005803232B41F420910F0230911002309368
:1022400058032093570320910D0230910E0221155F
:10225000310541F42DB73EB7409111025091120261
:10226000241B350BE0915703F0915803E217F30755
:10227000A0F42E1B3F0B2817390778F0AC014E5FF6
:102280005F4F2417350748F04E0F5F1F50935803D8
:1022900040935703819391939FCFF0E0E0E09CCF70
:1022A000CF93DF930097E9F0FC01329713821282FB
:1022B000A0915903B0915A03ED0130E020E010974E
:1022C000A1F420813181820F931F20915703309117
:1022D00058032817390709F061C0F0935803E093B9
:1022E0005703DF91CF910895EA01CE17DF07E8F594
:1022F0004A815B819E0141155105B1F7E901FB83DC
:10230000EA8349915991C40FD51FEC17FD0761F479
:10231000808191810296840F951FE90199838883BA
:10232000828193819B838A83F0E0E0E012968D9115
:102330009C9113970097B9F52D913C911197CD0180
:102340000296820F931F209157033091580328174C
:10235000390739F6309751F510925A031092590304
:10236000B0935803A0935703BCCFD383C28340815B
:102370005181840F951FC817D90761F44E5F5F4FD5
:1023800088819981480F591F518340838A819B819D
:10239000938382832115310509F0B0CFF0935A035E
:1023A000E09359039ECFFD01DC01C0CF138212825E
:1023B000D7CF4F925F926F927F928F929F92AF9200
:1023C000BF92CF92DF92EF92FF920F931F93CF9322
:1023D000DF938C01009799F4CB01DF91CF911F918E
:1023E0000F91FF90EF90DF90CF90BF90AF909F90B4
:1023F0008F907F906F905F904F900C94B410FC0181
:10240000E60FF71F9C0122503109E217F30708F489
:10241000AEC0D901CD91DC911197C617D70720F135
:10242000C530D10578F0CE0104978617970750F094
:10243000C61BD70B2297C193D1936D937C93CF0189
:102440000E945011C801DF91CF911F910F91FF9011
:10245000EF90DF90CF90BF90AF909F908F907F9044
:102460006F905F904F9008955B01AC1ABD0A4C01CC
:102470008C0E9D1EA0915903B0915A03512C412CF2
:10248000F12CE12C109731F580915703909158036E
:102490008815990509F05CC04616570608F058C023
:1024A00080910D0290910E02009741F48DB79EB776
:1024B0004091110250911202841B950BE817F90705
:1024C00008F055C0F0935803E0935703F901718366
:1024D0006083B8CF8D919C91119712966C90129752
:1024E00013967C901397A815B90559F56C0142E035
:1024F000C40ED11CCA14DB0420F1AC014A195B09DB
:10250000DA011296159780F06282738251834083BC
:10251000D9016D937C93E114F10471F0D701139606
:10252000FC93EE9312978ECF22968C0F9D1FF9018C
:1025300091838083F301EFCFF0935A03E093590323
:1025400081CF4816590608F42C017D01D3019ACF9A
:10255000CB010E94B4107C01009749F0AE01B80194
:102560000E94C212C8010E94501187016BCF10E077
:1025700000E068CF9111089581568A5108F4805285
:1025800085580895FB01DC0102C001900D92415075
:102590005040D8F70895FC018191861721F08823D7
:1025A000D9F7992708953197CF010895FB01DC01F0
:1025B0008D91019080190110D9F3990B0895FB01B9
:1025C000DC0101900D920020E1F70895FB01DC0190
:1025D0004150504030F08D910190801919F4002045
:0C25E000B9F7881B990B0895F894FFCF01
:1025EC000200F40100003800070008000100005B45
:1025FC0003800000000000C004EA031704280588CB
:10260C000426047A040D0A005354415254205245B6
:10261C004144494E470053544F5020524541444980
:10262C004E470050494E470047455420535441549F
:10263C005553004745542050494E5300434C454197
:10264C005220444556494345530053455420444574
:10265C00564943452000410044006468740074727C
:10266C006967006563686F0068616C6C0050524F5D
:0E267C00544F20005345542044454C41590012
:00000001FF
