:100000000C9440010C9471010C9471010C947101D9
:100010000C9471010C9471010C9471010C94710198
:100020000C9471010C9471010C9471010C94710188
:100030000C9471010C9471010C9471010C94710178
:100040000C9471010C9471010C9471010C94710168
:100050000C9471010C9471010C9471010C94BB0609
:100060000C9471010C942F070C9405070C947101EA
:100070000C9471010C9471010C9471010C94710138
:100080000C9471010C9471010C9471010C94710128
:100090000C9471010C9471010C9471010C94710118
:1000A0000C9471010C9471010C9471010C94710108
:1000B0000C9471010C9471010C9471010C947101F8
:1000C0000C9471010C9471010C9471010C947101E8
:1000D0000C9471010C9471010C9471010C947101D8
:1000E0000C9471010C94E0010C9407020C94010231
:1000F0000C940B020C94DA030C946A040C94FD0427
:100100000C9411020C9423020C9416040C94FE011E
:100110000C94B0040C94DB010C9478040C94070448
:100120000C94FA010C94F2010C94AA070C94270287
:100130000C941F020C9419020C9431020C94F601D9
:100140000C942D020C94150250524F544F204F4BDB
:1001500020310050524F544F204F4B2032000000AE
:100160002100240027002A002D0030003300010167
:100170000000040107010A010000220025002800F8
:100180002B002E003100340002010000050108019F
:100190000B0100000A0B02090C0D0E0807030401F5
:1001A000000000000000000000000000000000004F
:1001B000000000000000000000000000000012111C
:1001C000100000000000000000000000000000001F
:1001D00000000000000000000000200023002600B6
:1001E00029002C002F00320000010000030106014D
:1001F00009010505050507050808080802020202AD
:100200000A0A0808040404040101010101010101B2
:100210000303030303030303040707070C0C0C0C7D
:100220000C0C0C0C02020202060606060606060666
:100230000B0B0B0B0B0B0B0B0102102020080810F3
:100240002040102040800201020108040201010246
:10025000040810204080804020100804020180041F
:10026000020180402010080402010804020101027A
:100270000408102040800102040810204080AA07D2
:1002800011241FBECFEFD1E2DEBFCDBF00E00CBF17
:1002900023E0ACE5B2E001C01D92A931B207E1F75D
:1002A00012E0A0E0B2E0E4E5F0E200E00BBF02C043
:1002B00007900D92AC35B107D9F711E0C0E4D1E059
:1002C00000E006C021970109802FFE010E94F30D76
:1002D000CF33D10780E00807A9F70E94F7070C94F5
:1002E00028100C940000CF92DF92EF92FF92CF93F0
:1002F000DF93B0910903A0E08111AB2F80910A0335
:1003000090E0880F991FAC0148525E4FC0900F03D8
:10031000D0901003E0901103F090120330E020E041
:10032000FA01C591D491E881B90190E080E0EB2316
:10033000EA130AC02F5F3F4F6C157D058E059F05A0
:1003400078F36FEF7FEFCB01DF91CF91FF90EF90CC
:10035000DF90CF900895282F30E0F901EE56FE4F40
:100360009491F901E85CFD4F44912E503E4FF90104
:100370002491222309F435C0992311F1915092312F
:10038000F8F4E92FF0E08827E753FE4F8F4F0C94E5
:10039000F30DFA01FE01DB01F201F601E0010102B9
:1003A00007020B021102150219021F022302E001CB
:1003B00027022D023102809180008F778093800088
:1003C000E22FF0E0EE0FFF1FE858FE4FA591B49129
:1003D0008FB7F894EC91611148C040954E234C932F
:1003E0008FBF0895809180008F7DE8CF809180003D
:1003F000877FE4CF84B58F7784BDE2CF84B58F7DCE
:10040000FBCF8091B0008F778093B000D9CF8091DF
:10041000B0008F7DF9CF809190008F77809390000E
:10042000CFCF809190008F7DF9CF80919000877F12
:10043000F5CF8091A0008F778093A000C1CF8091ED
:10044000A0008F7DF9CF8091A000877FF5CF8091AC
:1004500020018F7780932001B3CF809120018F7D81
:10046000F9CF80912001877FF5CF4E2BB8CFCF9366
:10047000DF9390E0FC01E85CFD4F24918E509E4F8D
:10048000FC0184918823C9F090E0880F991FFC013A
:10049000E25AFE4FA591B491FC01E858FE4FC59178
:1004A000D49161110DC09FB7F8948C91209582234F
:1004B0008C938881282328839FBFDF91CF91089553
:1004C000623051F49FB7F8943C91822F809583233A
:1004D0008C93E8812E2BEFCF8FB7F894EC912E2BD5
:1004E0002C938FBFEACF3FB7F89480915D02909133
:1004F0005E02A0915F02B091600226B5A89B05C084
:100500002F3F19F00196A11DB11D3FBFBA2FA92F92
:10051000982F8827BC01CD01620F711D811D911D8F
:1005200042E0660F771F881F991F4A95D1F70895FB
:100530008F929F92AF92BF92CF92DF92EF92FF92F3
:100540006B017C010E9473024B015C01C114D10458
:10055000E104F104B9F00E947302681979098A096B
:100560009B09683E73408105910580F321E0C21A22
:10057000D108E108F10888EE880E83E0981EA11CDE
:10058000B11CE4CFFF90EF90DF90CF90BF90AF9081
:100590009F908F900895CF92DF92EF92FF920F93EA
:1005A0001F93CF93DF93CDB7DEB7C054D1400FB6C2
:1005B000F894DEBF0FBECDBF2FB7F89480916102D3
:1005C00090916202A0916302B09164022FBF4091AA
:1005D0000B0350910C0360910D0370910E038C017D
:1005E0009D01041B150B260B370BB901A801403DDB
:1005F00057406105710590F480911303C05CDE4F94
:100600000FB6F894DEBF0FBECDBFDF91CF911F9123
:100610000F91FF90EF90DF90CF90089580930B03A0
:1006200090930C03A0930D03B0930E031092060356
:100630001092050310920403109203031092020318
:1006400062E0809107030E94370261E070E080E081
:1006500090E00E94980261E0809107030E943702B7
:1006600060E0809107030E94AB01809108038551EF
:10067000823020F58BE291E10197F1F762E0809101
:1006800007030E9437028091140390E082309105A5
:1006900038F0880F991F880F991F05970197F1F778
:1006A000F89480E00E9473016F3F7F4F8F4F9F4F00
:1006B00061F410921303789480E0A0CF64E170E0BD
:1006C00080E090E00E949802D9CF81E00E947301FF
:1006D0006F3F7F4F8F4F9F4F61F38E010F5F1F4F13
:1006E0006E018FEBC81A8EEFD80A780180E00E9465
:1006F0007301F701608371838283938381E00E9499
:100700007301F7016483758386839783F8E0EF0EA6
:10071000F11CEC14FD0451F7789430E020E0F8016E
:10072000C080D180E280F3804481558166817781E9
:10073000FFEFCF16DF06EF06FF0631F04F3F8FEFDA
:1007400058076807780719F410921303B5CFF90119
:1007500083E0F595E7958A95E1F7EE5FFC4F8081A0
:10076000880FC416D506E606F70610F180832F5FC2
:100770003F4F085F1F4F2832310589F6409106032D
:100780002091020380910303280F3327331F8091A8
:100790000403280F311D80910503820F932F911DB3
:1007A00099274817190681F681E08093130326CF15
:1007B0008160DCCFAF92BF92CF92DF92EF92FF9237
:1007C0000F931F93CF93DF936C017B018B01040F79
:1007D000151FEB015E01AE18BF08C017D10759F015
:1007E0006991D601ED91FC910190F081E02DC60157
:1007F0001995892B79F7C501DF91CF911F910F9141
:10080000FF90EF90DF90CF90BF90AF900895FC01E4
:10081000538D448D252F30E0842F90E0821B930B65
:10082000541710F0CF96089501970895FC01918D0B
:10083000828D981761F0A28DAE0FBF2FB11D5D960E
:100840008C91928D9F5F9F73928F90E008958FEFB0
:100850009FEF08952FB7F894809161029091620202
:10086000A0916302B09164022FBF80936D029093B8
:100870006E02A0936F02B093700285E692E00E9430
:10088000160497FF26C02FB7F894809161029091CB
:100890006202A0916302B09164022FBF40916D0289
:1008A00050916E0260916F0270917002841B950BE3
:1008B000A60BB70B4091690250916A0260916B02DE
:1008C00070916C0284179507A607B707B0F28FEFF7
:1008D0009FEF0895FC01918D828D981731F0828DE4
:1008E000E80FF11D858D90E008958FEF9FEF08953B
:1008F000FC01918D228D892F90E0805C9F4F821B9F
:1009000091098F739927089585E692E00E947804F3
:1009100021E0892B09F420E0822F0895FC01A48DA9
:10092000A80FB92FB11DA35ABF4F2C91848D90E011
:1009300001968F739927848FA689B7892C93A089F4
:10094000B1898C91837080648C93938D848D98137E
:1009500006C00288F389E02D80818F7D8083089511
:10096000EF92FF920F931F93CF93DF93EC0181E0FF
:10097000888F9B8D8C8D98131AC0E889F9898081A6
:1009800085FF15C09FB7F894EE89FF896083E889D9
:10099000F98980818370806480839FBF81E090E0CB
:1009A000DF91CF911F910F91FF90EF900895F62E58
:1009B0000B8D10E00F5F1F4F0F731127E02E8C8DF2
:1009C0008E110CC00FB607FCFACFE889F989808137
:1009D00085FFF5CFCE010E948E04F1CFEB8DEC0F99
:1009E000FD2FF11DE35AFF4FF0829FB7F8940B8F54
:1009F000EA89FB8980818062CFCFCF93DF93EC01BE
:100A0000888D8823B9F0AA89BB89E889F9898C91F6
:100A100085FD03C0808186FD0DC00FB607FCF7CFB2
:100A20008C9185FFF2CF808185FFEDCFCE010E94B2
:100A30008E04E9CFDF91CF91089580E090E0892B7B
:100A400029F00E94840481110E94000080E090E05F
:100A5000892B49F080E090E0892B29F00E9400006A
:100A600081110E94000080E090E0892B49F080E035
:100A700090E0892B29F00E94000081110E94000063
:100A800080E090E0892B49F080E090E0892B29F00C
:100A90000E94000081110C9400000895FB01DC010C
:100AA0008D919C91009761F0608171816115710554
:100AB00039F0448155810E941A1021E0892B09F0F8
:100AC00020E0822F0895EF92FF920F931F93CF9310
:100AD000DF93CDB7DEB7C854D1090FB6F894DEBFA7
:100AE0000FBECDBF7B018A019AEA26969FAF26975B
:100AF00027968FAF279728964FAF289729961FAE36
:100B0000299744E050E0BE016B5B7F4F85E692E0A1
:100B10000E94DA03A801B70185E692E00E94DA0399
:100B200029968CAD9DADAEADBFAD299789839A83D3
:100B3000AB83BC83A801B701CE0105960E940110CA
:100B40000C5F1F4FAE014F5F5F4FFA0160E07CE822
:100B50008191682728E030E0862F90E09595879571
:100B600060FF1DC0682F672721503109A9F7CF0109
:100B7000841B950B801791075CF385E692E00E9439
:100B8000B004C85BDF4F0FB6F894DEBF0FBECDBF19
:100B9000DF91CF911F910F91FF90EF900895682FF3
:100BA000E3CFFC0124813581232B39F421E0FB01C3
:100BB0008081882349F020E007C0808191810E94D4
:100BC0000A1021E0892BB9F7822F08950F931F9304
:100BD000CF93DF93EC0188819981009759F02A81A6
:100BE0003B812617370730F081E0DF91CF911F91CD
:100BF0000F9108958B016F5F7F4F0E94200F009728
:100C000059F0998388831B830A832C813D81232B90
:100C100059F7FC011082E8CF80E0E7CFCF93DF9354
:100C2000EC0188819981009711F00E94970E19823A
:100C300018821D821C821B821A82DF91CF91089537
:100C4000EF92FF920F931F93CF93DF938C017B0161
:100C5000EB0109900020E9F72197C61BD70BBE01D5
:100C60000E94E605811109C0C801DF91CF911F9153
:100C70000F91FF90EF900C940E06F801D583C4837A
:100C8000B70180819181DF91CF911F910F91FF90EA
:100C9000EF900C9413109F92AF92BF92CF92DF927D
:100CA000EF92FF920F931F93CF93DF93EC016B01B1
:100CB0005A0179012417350720F48B2D5901E42EB0
:100CC000F82E198218821B821A821D821C8261E50D
:100CD00072E0CE010E942006D60114960D911C915F
:100CE000A016B10658F5E016F10608F48701D60102
:100CF000ED91FC911197E00FF11F90801082ED9023
:100D0000FC90EA0CFB1CE114F10471F0F701019076
:100D10000020E9F731975F01AE18BF08B501CE0199
:100D20000E94E605811117C0CE010E940E06F60151
:100D300080819181080F191FD8019C92CE01DF910B
:100D4000CF911F910F91FF90EF90DF90CF90BF90C8
:100D5000AF909F900895BD82AC82B7018881998140
:100D60000E941310E4CFFC0180819181009711F063
:100D70000C94970E08951F920F920FB60F921124A4
:100D80002F933F938F939F93AF93BF938091610273
:100D900090916202A0916302B091640230915C0272
:100DA00023E0230F2D3758F50196A11DB11D209387
:100DB0005C028093610290936202A0936302B093FD
:100DC000640280915D0290915E02A0915F02B091F9
:100DD00060020196A11DB11D80935D0290935E0299
:100DE000A0935F02B0936002BF91AF919F918F91EA
:100DF0003F912F910F900FBE0F901F90189526E8EE
:100E0000230F0296A11DB11DD2CF1F920F920FB6D4
:100E10000F9211240BB60F922F933F934F935F9332
:100E20006F937F938F939F93AF93BF93EF93FF93B2
:100E300085E692E00E948E04FF91EF91BF91AF9101
:100E40009F918F917F916F915F914F913F912F91E2
:100E50000F900BBE0F900FBE0F901F9018951F9212
:100E60000F920FB60F9211240BB60F922F938F9300
:100E70009F93EF93FF93E0917502F091760280814A
:100E8000E0917B02F0917C0282FD1DC090818091F7
:100E90007E028F5F8F7320917F02821741F0E09175
:100EA0007E02F0E0EB59FD4F958F80937E02FF911B
:100EB000EF919F918F912F910F900BBE0F900FBECE
:100EC0000F901F9018958081F2CFCF92DF92EF9212
:100ED000FF920F931F93E82FF92F05C001501109BE
:100EE0002109310961F1908196239417B9F305C066
:100EF000015011092109310911F1908196239413B0
:100F0000F7CFC12CD12CE12CF12C0AC08FEFC81ADD
:100F1000D80AE80AF80A0C151D052E053F0579F0D8
:100F200080818623841791F36C2D7D2D8E2D9F2D2E
:100F30001F910F91FF90EF90DF90CF90089560E0A8
:100F400070E080E090E01F910F91FF90EF90DF90B4
:100F5000CF900895E5E6F2E01382128288EE93E0E6
:100F6000A0E0B0E084839583A683B7838FE092E00E
:100F70009183808385EC90E09587848784EC90E072
:100F80009787868780EC90E0918B808B81EC90E056
:100F9000938B828B82EC90E0958B848B86EC90E037
:100FA000978B868B118E128E138E148EA2E0B3E077
:100FB00082E015968C9315978BE016968C93169776
:100FC000EAE3F2E0E4911796EC931797E4EFF1E08F
:100FD000E4911896EC93189740E85EE360E070E0C7
:100FE0001D964D935D936D937C9350970895CF9389
:100FF000DF93CDB7DEB76C970FB6F894DEBF0FBEA8
:10100000CDBF789484B5826084BD84B5816084BD91
:1010100085B5826085BD85B5816085BD80916E0096
:10102000816080936E0010928100809181008260C7
:101030008093810080918100816080938100809104
:1010400080008160809380008091B10084608093F3
:10105000B1008091B00081608093B00080919100D8
:1010600082608093910080919100816080939100D3
:10107000809190008160809390008091A1008260B7
:101080008093A1008091A10081608093A100809154
:10109000A00081608093A0008091210182608093F4
:1010A00021018091210181608093210180912001A3
:1010B00081608093200180917A00846080937A001F
:1010C00080917A00826080937A0080917A008160BA
:1010D00080937A0080917A00806880937A001092E1
:1010E000C100E0917502F091760282E08083E09188
:1010F0007502F09176021082E0917102F091720215
:101100001082E0917302F091740280E1808310926A
:101110007D02E0917902F0917A0286E08083E0918D
:101120007702F0917802808180618083E09177027C
:10113000F0917802808188608083E0917702F0915D
:101140007802808180688083E0917702F091780254
:1011500080818F7D808361E088E00E94370260E0BB
:1011600087E00E94370260E088E30E94370262E075
:10117000809107030E9437022FB7F8948091610293
:1011800090916202A0916302B09164022FBF805DD2
:101190009740A109B10980930B0390930C03A0938E
:1011A0000D03B0930E0387E38093140353E0252EC1
:1011B000312C85E692E00E947804181619060CF08E
:1011C0004AC01C8A1B8A1E8A1D8A188E1F8A61E5E6
:1011D00072E0CE0143960E9420060E942A0497FDE9
:1011E0001FC08A309105E1F089831A82EF88F88C5C
:1011F0002FEFE21AF20AB701CE0143960E94E605EC
:10120000882359F32B893C898F89988DBE016F5FA4
:101210007F4F820F931F0E941310F88EEF8ADDCF4D
:101220008B889C888114910431F0EF88F88C6401DC
:10123000E114F10459F56DE172E0CE0143960E948C
:10124000D105882309F45BC081E080930402CE01BC
:1012500043960E94B30680910402882309F452C287
:101260000E94CB02882351F0809108038C3009F44E
:101270006FC108F010C18B3009F42BC1C12CD12CE7
:1012800030ECE32E3FE7F32E4EC1650156018FEFA0
:10129000A81AB80AD6018C91082E000C990B0E944E
:1012A000E40B892B91F7B1E0EB1AF108E80CF91C7B
:1012B000F7018081082E000C990B0E94E40B892B0A
:1012C00039F0EC14FD0420F0F1E0EF1AF108F0CF52
:1012D0002FEFE21AF20AA7014C195D09588F4F8BC4
:1012E0008C149D0420F4B601C4010E940110EB8906
:1012F000FC898F89988DE80FF91F10829CCF6BE2D3
:1013000072E0CE0143960E94D105882319F0109215
:1013100004029DCF68E372E0CE0143960E94D1059E
:10132000811109C06DE372E0CE0143960E94D105A0
:10133000182F882359F091E0998341E050E0BE01D5
:101340006F5F7F4F8FE70E94630581CF1A821982FA
:101350001C821B821E821D8268E472E0CE0101960F
:101360000E9420062F89388D8D819E81281739078C
:1013700040F0BE016F5F7F4FCE0143960E944E0545
:10138000182FCE0101960E94B3061123C1F12F89B7
:10139000388D46E050E0BE016D5E7F4FCE01019674
:1013A0000E944B0689819A81C12CD12C760100972D
:1013B00019F00E94A80B6B01CE0101960E94B306A2
:1013C00083E591E0A2E0CA16D10414F488E491E028
:1013D0007C01F7016491662349F085E692E00E9462
:1013E000B004FFEFEF1AFF0A892B99F742E050E0B3
:1013F0006FE472E085E692E00E94DA0328CF1A8259
:1014000019821C821B821E821D8262E572E0CE015F
:1014100001960E9420062F89388D8D819E81281784
:10142000390740F0BE016F5F7F4FCE0143960E94A7
:101430004E05182FCE0101960E94B306112309F420
:1014400006CF2F89388D4AE050E0BE016D5E7F4F98
:10145000CE0101960E944B0689819A81812C912CA4
:101460005401009719F00E94A80B4B01CE01019680
:101470000E94B306181419040CF0E9CE092C000CD4
:10148000AA08BB088092000290920102A092020278
:10149000B0920302DCCE8551823008F0EFCEB090DE
:1014A00004036B2D70E0762F662766277F77809187
:1014B0000503682B90E080E00E94ED0B2DEC3CECE6
:1014C0004CEC5DE30E944E0C6B017C01B7FE2BC01F
:1014D0005FC06091040370E090E080E00E94ED0B3B
:1014E0006B017C011091050317FF0AC0AC019B0141
:1014F00060E070E080E89FEB0E940F0D6B017C01C3
:101500001F70612F70E090E080E00E94EF0B2DECE7
:101510003CEC4CEC5DE30E944E0CA70196010E944E
:10152000100D6B017C010E94CB02882351F0809149
:1015300008038B3030F08D3080F18551823008F413
:10154000EEC0812C912C20ECA22E2FE7B22E43C0AE
:1015500010910403612F70E090E080E00E94ED0B99
:101560006B017C01609105036F7070E090E080E09A
:101570000E94EF0B2DEC3CEC4CEC5DE30E944E0C1A
:10158000A70196010E94100D6B017C0117FFCBCFC4
:10159000F7FAF094F7F8F094C6CF6091030370E087
:1015A00090E080E00E94EF0B2DEC3CEC4CEC5DE316
:1015B0000E944E0C4B015C016091020370E090E0D0
:1015C00080E00E94EF0B9B01AC01C501B4010E94B9
:1015D000100D4B015C0160E088E00E94AB01C1018D
:1015E0000197F1F761E088E00E94AB0183E290E0AF
:1015F0000197F1F760E088E00E94AB01EFE3F2E0D1
:101600006491E9EFF1E08491E82FF0E0EE0FFF1F25
:10161000E852FE4F8591949108EA11E620E030E00F
:10162000462F0E946507611571058105910509F432
:1016300088C06F5F7F4F8F4F9F4F9F7061157105FF
:101640008105910509F47DC00E94ED0B20E030E09A
:1016500048E652E40E947C0D2B013C0180917B0006
:10166000877F80937B0082E480937C0080917A0066
:10167000806480937A0080917A0086FDFCCF60912F
:10168000780070917900072E000C880B990B0E944E
:10169000EF0B698F7A8F8B8F9C8FA7019601C70103
:1016A000B6010E94EE0D882319F0C12CD12C7601D1
:1016B000A5019401C501B4010E94EE0D882319F023
:1016C000812C912C5401198284E08A83CB82DC82A4
:1016D000ED82FE828F829886A986BA864B865C86CA
:1016E0006D867E86898D9A8DAB8DBC8D8F87988B0C
:1016F000A98BBA8B42E150E0BE016F5F7F4F81E062
:101700000E946305609100027091010280910202C3
:10171000909103020E9498020E941D054ACD60919B
:1017200002037091030376276727762790E080E015
:101730000E94ED0B2DEC3CEC4CEC5DE30E944E0C5A
:1017400048CF412C512C80E8682E8FEB782E86CF25
:101750001F93FC0199278827BC01E894119110324E
:10176000E9F3193010F01E30C8F31B3251F01D326E
:1017700049F4689406C00E94CF0B610F711D811D52
:10178000911D119110531A30B0F33EF4909580954D
:10179000709561957F4F8F4F9F4F1F910895592FDF
:1017A000482F372F262F660F771F881F991F660F28
:1017B000771F881F991F620F731F841F951F660F65
:1017C000771F881F991F089591110C94BB0C8032CC
:1017D00019F089508550C8F70895E89409C097FB1F
:1017E0003EF490958095709561957F4F8F4F9F4FF8
:1017F0009923A9F0F92F96E9BB279395F69587953C
:1018000077956795B795F111F8CFFAF4BB0F11F4FE
:1018100060FF1BC06F5F7F4F8F4F9F4F16C08823A5
:1018200011F096E911C0772321F09EE8872F762FDB
:1018300005C0662371F096E8862F70E060E02AF01C
:101840009A95660F771F881FDAF7880F9695879508
:1018500097F90895990F0008550FAA0BE0E8FEEFDD
:1018600016161706E807F907C0F012161306E40764
:10187000F50798F0621B730B840B950B39F40A265D
:1018800061F0232B242B252B21F408950A2609F43B
:10189000A140A6958FEF811D811D08950E94610CC6
:1018A0000C94D50C0E94C70C38F00E94CE0C20F08E
:1018B000952311F00C94BE0C0C94C40C11240C94C0
:1018C000090D0E94E60C70F3959FC1F3950F50E04F
:1018D000551F629FF001729FBB27F00DB11D639FE2
:1018E000AA27F00DB11DAA1F649F6627B00DA11D88
:1018F000661F829F2227B00DA11D621F739FB00D2E
:10190000A11D621F839FA00D611D221F749F33279D
:10191000A00D611D231F849F600D211D822F762F36
:101920006A2F11249F5750409AF0F1F088234AF013
:10193000EE0FFF1FBB1F661F771F881F915050407F
:10194000A9F79E3F510580F00C94BE0C0C94090D34
:101950005F3FE4F3983ED4F3869577956795B79506
:10196000F795E7959F5FC1F7FE2B880F911D969520
:10197000879597F9089599278827089597F99F677C
:1019800080E870E060E008959FEF80EC0895002407
:101990000A941616170618060906089500240A94D4
:1019A00012161306140605060895092E0394000C5A
:1019B00011F4882352F0BB0F40F4BF2B11F460FFE9
:1019C00004C06F5F7F4F8F4F9F4F089557FD905812
:1019D000440F551F59F05F3F71F04795880F97FBF3
:1019E000991F61F09F3F79F08795089512161306AD
:1019F0001406551FF2CF4695F1DF08C016161706DC
:101A00001806991FF1CF8695710561050894089510
:101A1000E894BB2766277727CB0197F9089550589C
:101A2000BB27AA270E94270D0C94D50C0E94C70C37
:101A300038F00E94CE0C20F039F49F3F19F426F4C0
:101A40000C94C40C0EF4E095E7FB0C94BE0CE92F4B
:101A50000E94E60C58F3BA176207730784079507CC
:101A600020F079F4A6F50C94080D0EF4E0950B2EF9
:101A7000BA2FA02D0B01B90190010C01CA01A001E0
:101A80001124FF27591B99F0593F50F4503E68F13B
:101A90001A16F040A22F232F342F4427585FF3CF7C
:101AA000469537952795A795F0405395C9F77EF44D
:101AB0001F16BA0B620B730B840BBAF09150A1F096
:101AC000FF0FBB1F661F771F881FC2F70EC0BA0F1C
:101AD000621F731F841F48F4879577956795B795A4
:101AE000F7959E3F08F0B0CF9395880F08F099279F
:101AF000EE0F9795879508950E94900D0C94D50C44
:101B00000E94CE0C58F00E94C70C40F029F45F3FB1
:101B100029F00C94BE0C51110C94090D0C94C40CBA
:101B20000E94E60C68F39923B1F3552391F3951BBA
:101B3000550BBB27AA2762177307840738F09F5FEE
:101B40005F4F220F331F441FAA1FA9F335D00E2E5B
:101B50003AF0E0E832D091505040E695001CCAF7C8
:101B60002BD0FE2F29D0660F771F881FBB1F26178B
:101B700037074807AB07B0E809F0BB0B802DBF0162
:101B8000FF2793585F4F3AF09E3F510578F00C9431
:101B9000BE0C0C94090D5F3FE4F3983ED4F3869598
:101BA00077956795B795F7959F5FC9F7880F911D52
:101BB0009695879597F90895E1E0660F771F881F3E
:101BC000BB1F621773078407BA0720F0621B730BF1
:101BD000840BBA0BEE1F88F7E09508950E942A0C3B
:101BE000880B990B0895EE0FFF1F881F8BBF07907E
:101BF000F691E02D19940F931F93CF93DF938230CA
:101C0000910510F482E090E0E0911703F091180341
:101C100030E020E0B0E0A0E0309799F421153105E4
:101C200009F44AC0281B390B24303105D8F58A81C4
:101C30009B816115710589F1FB0193838283FE010C
:101C400011C0408151810281138148175907E0F08A
:101C50004817590799F4109761F012960C93129750
:101C600013961C933296CF01DF91CF911F910F9164
:101C700008950093170310931803F4CF211531052D
:101C800051F04217530738F0A901DB019A01BD0159
:101C9000DF01F801C1CFEF01F9CF909318038093D2
:101CA0001703CDCFFE01E20FF31F819391932250D2
:101CB000310939832883D7CF20911503309116033A
:101CC000232B41F420910702309108023093160330
:101CD000209315032091050230910602211531054C
:101CE00041F42DB73EB74091090250910A02241BDE
:101CF000350BE0911503F0911603E217F307A0F4FA
:101D00002E1B3F0B2817390778F0AC014E5F5F4F51
:101D10002417350748F04E0F5F1F5093160340936A
:101D20001503819391939FCFF0E0E0E09CCFCF9398
:101D3000DF930097E9F0FC01329713821282A091A1
:101D40001703B0911803ED0130E020E01097A1F4E3
:101D500020813181820F931F20911503309116034A
:101D60002817390709F061C0F0931603E0931503B3
:101D7000DF91CF910895EA01CE17DF07E8F54A8198
:101D80005B819E0141155105B1F7E901FB83EA83AF
:101D900049915991C40FD51FEC17FD0761F480815B
:101DA00091810296840F951FE9019983888382812E
:101DB00093819B838A83F0E0E0E012968D919C9161
:101DC00013970097B9F52D913C911197CD0102968B
:101DD000820F931F2091150330911603281739079E
:101DE00039F6309751F51092180310921703B093FB
:101DF0001603A0931503BCCFD383C28340815181C6
:101E0000840F951FC817D90761F44E5F5F4F888113
:101E10009981480F591F518340838A819B81938305
:101E200082832115310509F0B0CFF0931803E093B8
:101E300017039ECFFD01DC01C0CF13821282D7CFE2
:101E40004F925F926F927F928F929F92AF92BF92CA
:101E5000CF92DF92EF92FF920F931F93CF93DF9376
:101E60008C01009799F4CB01DF91CF911F910F91D5
:101E7000FF90EF90DF90CF90BF90AF909F908F90AA
:101E80007F906F905F904F900C94FB0DFC01E60FDC
:101E9000F71F9C0122503109E217F30708F4AEC086
:101EA000D901CD91DC911197C617D70720F1C53024
:101EB000D10578F0CE0104978617970750F0C61B1E
:101EC000D70B2297C193D1936D937C93CF010E943E
:101ED000970EC801DF91CF911F910F91FF90EF9066
:101EE000DF90CF90BF90AF909F908F907F906F903A
:101EF0005F904F9008955B01AC1ABD0A4C018C0EA7
:101F00009D1EA0911703B0911803512C412CF12C68
:101F1000E12C109731F580911503909116038815E7
:101F2000990509F05CC04616570608F058C0809124
:101F3000050290910602009741F48DB79EB740913B
:101F4000090250910A02841B950BE817F90708F063
:101F500055C0F0931603E0931503F9017183608374
:101F6000B8CF8D919C91119712966C901297139601
:101F70007C901397A815B90559F56C0142E0C40E81
:101F8000D11CCA14DB0420F1AC014A195B09DA0147
:101F90001296159780F06282738251834083D90133
:101FA0006D937C93E114F10471F0D7011396FC93C7
:101FB000EE9312978ECF22968C0F9D1FF90191837D
:101FC0008083F301EFCFF0931803E093170381CFE1
:101FD0004816590608F42C017D01D3019ACFCB0194
:101FE0000E94FB0D7C01009749F0AE01B8010E94F0
:101FF0000110C8010E94970E87016BCF10E000E02E
:1020000068CFFB01DC0102C001900D9241505040AD
:10201000D8F70895FB01DC018D9101908019011022
:10202000D9F3990B0895FB01DC0101900D9200207A
:10203000E1F70895FB01DC014150504030F08D91F3
:102040000190801919F40020B9F7881B990B0895A5
:04205000F894FFCF32
:10205400F40100000100001903800000000000B03A
:1020640004DA030704FD04780416046A0453544193
:1020740052542052454144494E470053544F502036
:1020840052454144494E470050494E470047455444
:10209400205354415455530050524F544F20000D77
:0C20A4000A005345542044454C415900AB
:00000001FF
