:100000000C947D000C94A5000C94A5000C94A50004
:100010000C94A5000C94A5000C94A5000C94A500CC
:100020000C94A5000C94A5000C94A5000C94A500BC
:100030000C94A5000C94A5000C94A5000C94A500AC
:100040000C94AD060C94A5000C941D070C94F706B7
:100050000C94A5000C94A5000C94A5000C94A5008C
:100060000C94A5000C94A5002068616C6C3D0020E8
:100070006563686F3D0020747269673D0050494EAA
:1000800053206468743D0050524F544F204F4B2012
:10009000310050524F544F204F4B2032000000008F
:1000A00000240027002A0000000000250028002B63
:1000B0000000000008000201000003040700000027
:1000C00000000000000000000023002600290004BA
:1000D00004040404040404020202020202030303EF
:1000E00003030301020408102040800102040810E9
:1000F0002001020408102000FE0711241FBECFEFCC
:10010000D8E0DEBFCDBF22E0A4EAB1E001C01D927D
:10011000A136B207E1F711E0A0E0B1E0E8E4F3E2D4
:1001200002C005900D92A43AB107D9F710E0CDE7CF
:10013000D0E004C02197FE010E94800FCC37D10788
:10014000C9F70E944B080C94A2110C940000CF92A6
:10015000DF92EF92FF92CF93DF93B0915102A0E034
:100160008111AB2F8091520290E0880F991FAC0152
:100170004B535F4FC0905702D0905802E090590205
:10018000F0905A0230E020E0FA01C591D491E88164
:10019000B90190E080E0EB23EA130AC02F5F3F4FE4
:1001A0006C157D058E059F0578F36FEF7FEFCB0112
:1001B000DF91CF91FF90EF90DF90CF90089590E086
:1001C000FC01EF54FF4F2491FC01ED51FF4F34919E
:1001D000FC01E153FF4FE491EE23C9F0222339F0F3
:1001E000233001F1A8F4213019F1223029F1F0E097
:1001F000EE0FFF1FE955FF4FA591B4918FB7F8940B
:10020000EC91611126C030953E233C938FBF089539
:100210002730A9F02830C9F0243049F780918000B8
:100220008F7D03C0809180008F7780938000DFCF27
:1002300084B58F7784BDDBCF84B58F7DFBCF809174
:10024000B0008F778093B000D2CF8091B0008F7DC7
:10025000F9CF3E2BDACFCF93DF9390E0FC01ED5145
:10026000FF4F249181539F4FFC0184918823C9F053
:1002700090E0880F991FFC01E356FF4FA591B491C0
:10028000FC01E955FF4FC591D49161110DC09FB795
:10029000F8948C91209582238C938881282328833D
:1002A0009FBFDF91CF910895623051F49FB7F894CA
:1002B0003C91822F809583238C93E8812E2BEFCF66
:1002C0008FB7F894EC912E2B2C938FBFEACF3FB7CA
:1002D000F8948091A5019091A601A091A701B091F9
:1002E000A80126B5A89B05C02F3F19F00196A11DB6
:1002F000B11D3FBFBA2FA92F982F8827BC01CD0170
:10030000620F711D811D911D42E0660F771F881FCE
:10031000991F4A95D1F708958F929F92AF92BF92FD
:10032000CF92DF92EF92FF926B017C010E946701F6
:100330004B015C01C114D104E104F104B9F00E9445
:100340006701681979098A099B09683E734081052C
:10035000910580F321E0C21AD108E108F10888EE86
:10036000880E83E0981EA11CB11CE4CFFF90EF9093
:10037000DF90CF90BF90AF909F908F900895CF92D5
:10038000DF92EF92FF920F931F93CF93DF93CDB73E
:10039000DEB7C054D1400FB6F894DEBF0FBECDBF5C
:1003A0002FB7F8948091A9019091AA01A091AB0177
:1003B000B091AC012FBF4091530250915402609113
:1003C0005502709156028C019D01041B150B260BE2
:1003D000370BB901A801403D57406105710590F404
:1003E00080915B02C05CDE4F0FB6F894DEBF0FBE9B
:1003F000CDBFDF91CF911F910F91FF90EF90DF90D4
:10040000CF9008958093530290935402A093550285
:10041000B093560210924E0210924D0210924C026E
:1004200010924B0210924A0262E080914F020E94A9
:100430002B0161E070E080E090E00E948C0161E0BF
:1004400080914F020E942B0160E080914F020E9438
:10045000DF00809150028551823020F58BE291E1DE
:100460000197F1F762E080914F020E942B01809189
:100470005C0290E08230910538F0880F991F880F58
:10048000991F05970197F1F7F89480E00E94A70063
:100490006F3F7F4F8F4F9F4F61F410925B027894B4
:1004A00080E0A0CF64E170E080E090E00E948C01E9
:1004B000D9CF81E00E94A7006F3F7F4F8F4F9F4FA2
:1004C00061F38E010F5F1F4F6E018FEBC81A8EEF25
:1004D000D80A780180E00E94A700F7016083718349
:1004E0008283938381E00E94A700F7016483758370
:1004F00086839783F8E0EF0EF11CEC14FD0451F7AE
:10050000789430E020E0F801C080D180E280F38070
:100510004481558166817781FFEFCF16DF06EF06B4
:10052000FF0631F04F3F8FEF58076807780719F43F
:1005300010925B02B5CFF90183E0F595E7958A95B6
:10054000E1F7E65BFD4F8081880FC416D506E6060D
:10055000F70610F180832F5F3F4F085F1F4F28324F
:10056000310589F640914E0220914A0280914B025A
:10057000280F3327331F80914C02280F311D8091A3
:100580004D02820F932F911D99274817190681F666
:1005900081E080935B0226CF8160DCCFAF92BF9277
:1005A000CF92DF92EF92FF920F931F93CF93DF933F
:1005B0006C017B018B01040F151FEB015E01AE186E
:1005C000BF08C017D10759F06991D601ED91FC9190
:1005D0000190F081E02DC6010995892B79F7C501BD
:1005E000DF91CF911F910F91FF90EF90DF90CF900F
:1005F000BF90AF900895FC01538D448D252F30E0BE
:10060000842F90E0821B930B541710F0CF9608951F
:1006100001970895FC01918D828D981761F0A28D4C
:10062000AE0FBF2FB11D5D968C91928D9F5F9F7312
:10063000928F90E008958FEF9FEF08952FB7F89471
:100640008091A9019091AA01A091AB01B091AC0158
:100650002FBF8093B5019093B601A093B701B093DB
:10066000B8018DEA91E00E940A0397FF26C02FB7D8
:10067000F8948091A9019091AA01A091AB01B09149
:10068000AC012FBF4091B5015091B6016091B70107
:100690007091B801841B950BA60BB70B4091B1016B
:1006A0005091B2016091B3017091B4018417950724
:1006B000A607B707B0F28FEF9FEF0895FC01918D69
:1006C000828D981731F0828DE80FF11D858D90E0B5
:1006D00008958FEF9FEF0895FC01918D228D892F52
:1006E00090E0805C9F4F821B91098F73992708953A
:1006F0008DEA91E00E946C0321E0892B09F420E04F
:10070000822F089580E090E0892B29F00E947803E1
:1007100081110C9400000895FC01A48DA80FB92F3D
:10072000B11DA35ABF4F2C91848D90E001968F7319
:100730009927848FA689B7892C93A089B1898C9138
:10074000837080648C93938D848D981306C0028887
:10075000F389E02D80818F7D80830895EF92FF9251
:100760000F931F93CF93DF93EC0181E0888F9B8DD4
:100770008C8D98131AC0E889F989808185FF15C08E
:100780009FB7F894EE89FF896083E889F9898081B1
:100790008370806480839FBF81E090E0DF91CF9180
:1007A0001F910F91FF90EF900895F62E0B8D10E0A2
:1007B0000F5F1F4F0F731127E02E8C8D8E110CC011
:1007C0000FB607FCFACFE889F989808185FFF5CF5C
:1007D000CE010E948C03F1CFEB8DEC0FFD2FF11DAC
:1007E000E35AFF4FF0829FB7F8940B8FEA89FB8999
:1007F00080818062CFCF0F931F93CF93DF938C01C3
:10080000D0E0C0E0F801EC0FFD1F6491662341F0D9
:100810008DEA91E00E94AE03892B11F02196F2CF70
:10082000CE01DF91CF911F910F910895CF93DF9368
:10083000EC01888D8823B9F0AA89BB89E889F989F8
:100840008C9185FD03C0808186FD0DC00FB607FC2D
:10085000F7CF8C9185FFF2CF808185FFEDCFCE0160
:100860000E948C03E9CFDF91CF910895CF93DF935E
:1008700090930101809300019C013327F901ED5110
:10088000FF4F949121533F4FF9012491CAE4D2E0E4
:100890008D833BE03E839F83288740E85EE360E0F2
:1008A00070E04D875E876F87788B62E00E942B0136
:1008B0002FB7F8948091A9019091AA01A091AB0162
:1008C000B091AC012FBF805D9740A109B109898724
:1008D0009A87AB87BC8787E38A8BDF91CF91089596
:1008E0008F929F92AF92BF920F931F93CF93DF93FC
:1008F000CDB7DEB7A1970FB6F894DEBF0FBECDBF60
:1009000019A2423008F44AE08E010F5D1F4F842E79
:10091000912CB12CA12CA50194010E945E0FE62F11
:10092000B901CA01EA3044F5E05DD801EE938D01CA
:10093000232B242B252B79F790E080E0109769F08A
:10094000FD0101900020E9F73197AF014A1B5B0BD5
:10095000BD018DEA91E00E94CE02A1960FB6F894F7
:10096000DEBF0FBECDBFDF91CF911F910F91BF9022
:10097000AF909F908F900895E95CD7CF42E050E010
:1009800067E271E08DEA91E00C94CE02CF92DF92A3
:10099000EF92FF92CF93DF936C01990FEE08FF085F
:1009A000F7FE19C06DE28DEA91E00E94AE03EC0102
:1009B00066277727CB016C197D098E099F094AE0CC
:1009C0000E9470048C0F9D1FDF91CF91FF90EF90DC
:1009D000DF90CF9008954AE0C701B601DF91CF9133
:1009E000FF90EF90DF90CF900C947004FC01808119
:1009F0009181009711F00C9422100895EF92FF92CC
:100A00000F931F93CF93DF93CDB7DEB7C854D109AF
:100A10000FB6F894DEBF0FBECDBF7B018A019AEA04
:100A200026969FAF269727968FAF279728964FAF8A
:100A3000289729961FAE299744E050E0BE016B5BD2
:100A40007F4F8DEA91E00E94CE02A801B7018DEAA6
:100A500091E00E94CE0229968CAD9DADAEADBFADAA
:100A6000299789839A83AB83BC83A801B701CE0100
:100A700005960E9470110C5F1F4FAE014F5F5F4FD4
:100A8000FA0160E07CE88191682728E030E0862F59
:100A900090E09595879560FF1DC0682F67272150CE
:100AA0003109A9F7CF01841B950B801791075CF3DF
:100AB0008DEA91E00E94AE03C85BDF4F0FB6F89459
:100AC000DEBF0FBECDBFDF91CF911F910F91FF9081
:100AD000EF900895682FE3CFCF93DF9300D000D03D
:100AE0001F92CDB7DEB780910001898380910C0100
:100AF0008A8380910A018B83809108018C83809185
:100B000006018D8344E050E0BE016F5F7F4F82E2BB
:100B10000E94FE048DE790E00E94FB03809100019B
:100B2000909101010E94C60486E790E00E94FB03B9
:100B300080910C0190910D010E94C6048FE690E017
:100B40000E94FB0380910A0190910B010E94C60450
:100B500088E690E00E94FB038091080190910901D2
:100B60000E94C6040E94BE040F900F900F900F9039
:100B70000F90DF91CF910895AF92BF92CF92DF9205
:100B8000EF92FF920F931F93CF93DF93DC01CD90F1
:100B9000DC901197C114D10439F01496CD91DC91F9
:100BA0008C017601209761F4DF91CF911F910F9115
:100BB000FF90EF90DF90CF90BF90AF9008957501B8
:100BC0005701BFEFAB1ABB0AF7018081082E000C5A
:100BD000990B0E94180D892B91F72197CC0DDD1DE3
:100BE0008881082E000C990B0E94180D892B29F082
:100BF000CE15DF0510F02197F3CFAE014F5F5F4FA9
:100C00004E195F09D80115965C934E931497CE1434
:100C1000DF0420F4B701C6010E947011D801ED91E4
:100C2000FC91119714968D919C91E80FF91F1082F9
:100C3000BBCFFB0144815581FC0124813581241700
:100C4000350778F080819181009759F0FB01608130
:100C500071816115710529F00E94941121E0892BA1
:100C600009F020E0822F0895FC0124813581232B97
:100C700039F421E0FB018081882349F020E007C09E
:100C8000808191810E94841121E0892BB9F7822F04
:100C900008950F931F93CF93DF93EC01888199817F
:100CA000009759F02A813B812617370730F081E001
:100CB000DF91CF911F910F9108958B016F5F7F4F4F
:100CC0000E94AB10009759F0998388831B830A8395
:100CD0002C813D81232B59F7FC011082E8CF80E065
:100CE000E7CFEF92FF920F931F93CF93DF93EC0127
:100CF0007B018A01BA010E9449062881398181114C
:100D000014C02115310519F0C9010E942210198261
:100D100018821D821C821B821A82CE01DF91CF9124
:100D20001F910F91FF90EF9008951D830C83B701E1
:100D3000C9010E948D11F1CFFC0111821082138232
:100D4000128215821482FB0101900020E9F731978D
:100D5000AF01461B570B0C9471061F920F920FB6F2
:100D60000F9211242F933F938F939F93AF93BF9331
:100D70008091A9019091AA01A091AB01B091AC0121
:100D80003091A40123E0230F2D3758F50196A11DC2
:100D9000B11D2093A4018093A9019093AA01A0936F
:100DA000AB01B093AC018091A5019091A601A091F7
:100DB000A701B091A8010196A11DB11D8093A501C5
:100DC0009093A601A093A701B093A801BF91AF9102
:100DD0009F918F913F912F910F900FBE0F901F9079
:100DE000189526E8230F0296A11DB11DD2CF1F92A0
:100DF0000F920FB60F9211242F933F934F935F934F
:100E00006F937F938F939F93AF93BF93EF93FF93D2
:100E10008DEA91E00E948C03FF91EF91BF91AF9119
:100E20009F918F917F916F915F914F913F912F9102
:100E30000F900FBE0F901F9018951F920F920FB634
:100E40000F9211242F938F939F93EF93FF93E09131
:100E5000BD01F091BE018081E091C301F091C40118
:100E600082FD1BC090818091C6018F5F8F7320919E
:100E7000C701821741F0E091C601F0E0E355FE4F53
:100E8000958F8093C601FF91EF919F918F912F9144
:100E90000F900FBE0F901F9018958081F4CFCF92C6
:100EA000DF92EF92FF920F931F93E82FF92F05C067
:100EB000015011092109310961F19081962394179C
:100EC000B9F305C0015011092109310911F19081CF
:100ED00096239413F7CFC12CD12CE12CF12C0AC00E
:100EE0008FEFC81AD80AE80AF80A0C151D052E0556
:100EF0003F0579F080818623841791F36C2D7D2D39
:100F00008E2D9F2D1F910F91FF90EF90DF90CF902E
:100F1000089560E070E080E090E01F910F91FF90F5
:100F2000EF90DF90CF900895FC0180819181009730
:100F300011F00C94DC0C60E070E0CB010895AF92EE
:100F4000BF92CF92DF92EF92FF920F931F93CF93B6
:100F5000DF93EC016B015A0179012417350720F466
:100F60008B2D5901E42EF82E69E271E0CE010E942A
:100F70009C06D60114960D911C91A016B10628F579
:100F8000E016F10608F48701D601ED91FC91119766
:100F9000E00FF11FF08010826D917C916A0D7B1D36
:100FA00061157105F1F0FB0101900020E9F731971F
:100FB000AF01461B570BCE010E947106F6018081DE
:100FC0009181080F191FD801FC92CE01DF91CF91BA
:100FD0001F910F91FF90EF90DF90CF90BF90AF9057
:100FE000089588819981009711F00E94221019823A
:100FF00018821D821C821B821A82E0CFEDEAF1E08A
:101000001382128288EE93E0A0E0B0E0848395839F
:10101000A683B78389E191E09183808385EC90E09A
:101020009587848784EC90E09787868780EC90E0B2
:10103000918B808B81EC90E0938B828B82EC90E0A3
:10104000958B848B86EC90E0978B868B118E128E1D
:10105000138E148EAAE4B2E082E015968C93159755
:101060008BE016968C931697E5EEF0E0E4911796D8
:10107000EC931797E1EDF0E0E4911896EC93189754
:1010800040E85EE360E070E01D964D935D936D93E4
:101090007C9350970895CF93DF93CDB7DEB7E29757
:1010A0000FB6F894DEBF0FBECDBF789484B58260D2
:1010B00084BD84B5816084BD85B5826085BD85B5FC
:1010C000816085BD80916E00816080936E0010927A
:1010D00081008091810082608093810080918100F5
:1010E0008160809381008091800081608093800086
:1010F0008091B10084608093B1008091B0008160E4
:101100008093B00080917A00846080937A0080910F
:101110007A00826080937A0080917A008160809367
:101120007A0080917A00806880937A001092C100E2
:10113000E091BD01F091BE0182E08083E091BD01AC
:10114000F091BE011082E091B901F091BA011082D4
:10115000E091BB01F091BC0180E180831092C50158
:10116000E091C101F091C20186E08083E091BF016E
:10117000F091C001808180618083E091BF01F09196
:10118000C001808188608083E091BF01F091C0013F
:10119000808180688083E091BF01F091C0018081EF
:1011A0008F7D808361E080910C010E942B0160E0C3
:1011B00080910A010E942B0160E0809108010E9449
:1011C0002B0162E080914F020E942B012FB7F8940F
:1011D0008091A9019091AA01A091AB01B091AC01BD
:1011E0002FBF805D9740A109B1098093530290936E
:1011F0005402A0935502B093560287E380935C0299
:1012000057E0252E312C8DEA91E00E946C031816D0
:101210001906E4F569E271E0CE0189960E949C0608
:101220000E941E0397FD1FC08A309105E1F089835B
:101230001A82EDA4FEA48FEFE81AF80AB701CE01D6
:1012400089960E944906882359F329A53AA58DA5B8
:101250009EA5BE016F5F7F4F820F931F0E948D116D
:10126000FEA6EDA6DDCFCE0189960E94BC056AE2FE
:1012700071E0CE0189960E943406882309F181E04D
:1012800080930E01CE0189960E94F60480910E0192
:10129000882309F461C30E94BF01882351F0809123
:1012A00050028C3009F474C208F015C28B3009F476
:1012B00030C2C12CD12C30ECE32E3FE7F32E53C2C9
:1012C00068E371E0CE0189960E943406882319F004
:1012D00010920E01D7CF65E471E0CE0189960E948D
:1012E0003406811108C06AE471E0CE0189960E943B
:1012F0003406882359F081E0898341E050E0BE0143
:101300006F5F7F4F8FE70E94FE04BCCF65E571E001
:10131000CE0189960E943406882319F00E946C053C
:10132000B1CF6EE571E0CE0189960E943406882324
:1013300039F182E090E00E943604A8E0B0E0B0937A
:101340000D01A0930C0130920B0120920A0180E163
:1013500090E0909309018093080161E088E00E9489
:101360002B0160E087E00E942B0160E080E10E9499
:101370002B0183E090E09093070180930601CECF8C
:101380006CE671E0CE0101960E949C06BE016F5F83
:101390007F4FCE0189960E941906182FCE01019623
:1013A0000E94F604112309F427C18DA59EA50C9770
:1013B00008F468CF09A51AA560E270E0C8010B9691
:1013C0000E947911009709F45DCF7C01E01AF10ABF
:1013D0001E141F040CF056CF97014BE050E0BE01E5
:1013E000675D7F4FCE0183960E949F072DA53EA586
:1013F000A7014F5F5F4FBE01675D7F4FCE014D96E6
:101400000E949F07188E1F8A1A8E198E1C8E1B8EA3
:101410006D8D7E8D6115710531F049A15AA1CE0106
:1014200047960E947106CE0147960E94BC05EF8840
:10143000F88CE114F10471F0F70181917F018823A8
:1014400049F0082E000C990B0E946811F7013197A2
:101450008083F2CF68E771E0CE0101960E949C067E
:10146000BE016F5F7F4FCE0147960E941906882309
:1014700029F011E08B8D9C8D029708F410E0CE01CD
:1014800001960E94F6041123A1F12B8D3C8D41E0C1
:1014900050E0BE01695E7F4FCE0101960E949F071A
:1014A000CE0101960E9494076B01CE0101960E9425
:1014B000F6048601025F1F4FCE0147960E94F60494
:1014C00017FD0EC06CE771E0CE0183960E943406D2
:1014D000882309F457C0C8010E9436040E946C0595
:1014E000CE014D960E94F604CE0183960E94F6042A
:1014F000C9CE6AE771E0CE0101960E949C06BE014A
:101500006F5F7F4FCE0147960E941906882331F006
:1015100011E08B8D9C8D029708F410E0CE010196AE
:101520000E94F6041123A9F02B8D3C8D41E050E080
:10153000BE01695E7F4FCE0101960E949F07CE01DA
:1015400001960E9494078B01CE0101960E94F60439
:10155000B3CF8B8D9C8D892B91F0EF89F88D80E036
:10156000309709F08081082E000C990BC0970A97DC
:1015700030F4CE0147960E9494078B019DCF0FEF68
:101580001FEF9ACF60E871E0CE0183960E94340687
:10159000882349F010930D0100930C0161E0802F26
:1015A0000E942B019BCF65E871E0CE0183960E94DB
:1015B0003406882331F010930B0100930A0160E098
:1015C000EECF6AE871E0CE0183960E94340688234C
:1015D00029F01093090100930801F1CF6FE871E041
:1015E000CE0183960E943406882309F477CF1093A6
:1015F00007010093060172CF62E971E0CE01019606
:101600000E949C06BE016F5F7F4FCE0189960E94AB
:101610001906182FCE0101960E94F604112309F134
:101620002DA53EA546E050E0BE01675D7F4FCE018F
:1016300001960E949F07CE0101960E9494076B01BC
:10164000CE0101960E94F60487E890E0F2E0CF1602
:10165000D10414F082E990E00E94FB030E94BE04D2
:1016600011CE69E971E0CE0101960E949C06BE018F
:101670006F5F7F4FCE0189960E941906182FCE0109
:1016800001960E94F604112309F4FCCD2DA53EA578
:101690004AE050E0BE01675D7F4FCE0101960E9497
:1016A0009F07CE0101960E9494074B01CE0101963F
:1016B0000E94F604181419040CF0E4CD092C000C57
:1016C000AA08BB088092020190920301A092040133
:1016D000B0920501D7CD8551823008F0EACDB090A7
:1016E0004C026B2D70E0762F662766277F778091FE
:1016F0004D02682B90E080E00E94210D2DEC3CEC27
:101700004CEC5DE30E94820D6B017C01B7FE2BC0A7
:101710005FC060914C0270E090E080E00E94210D7B
:101720006B017C0110914D0217FF0AC0AC019B01B7
:1017300060E070E080E89FEB0E947A0E6B017C0114
:101740001F70612F70E090E080E00E94230D2DEC6F
:101750003CEC4CEC5DE30E94820DA70196010E94D7
:101760007B0E6B017C010E94BF01882351F08091A8
:1017700050028B3030F08D3080F18551823008F48A
:1017800002C1812C912C20ECA22E2FE7B22E43C057
:1017900010914C02612F70E090E080E00E94210DDA
:1017A0006B017C0160914D026F7070E090E080E011
:1017B0000E94230D2DEC3CEC4CEC5DE30E94820D6D
:1017C000A70196010E947B0E6B017C0117FFCBCF16
:1017D000F7FAF094F7F8F094C6CF60914B0270E0FE
:1017E00090E080E00E94230D2DEC3CEC4CEC5DE39E
:1017F0000E94820D4B015C0160914A0270E090E012
:1018000080E00E94230D9B01AC01C501B4010E9440
:101810007B0E4B015C0110910C0160E0812F0E9456
:10182000DF0083E090E00197F1F761E0812F0E94F3
:10183000DF0083E290E00197F1F760E0812F0E94E2
:10184000DF0080910A0190910B019927FC01ED5175
:10185000FF4F6491FC01E153FF4FE491F0E0EE0F84
:10186000FF1FEB53FF4F8591949108EA11E620E0AA
:1018700030E0462F0E944F076115710581059105E3
:1018800009F493C06F5F7F4F8F4F9F4F9F7061151B
:1018900071058105910509F488C00E94210D20E0A1
:1018A00030E048E652E40E94E70E2B013C018091B3
:1018B00008018E3008F08E508770806480937C0021
:1018C00080917A00806480937A0080917A0086FD0E
:1018D000FCCF6091780070917900072E000C880B86
:1018E000990B0E94230D6FA778AB89AB9AABA70128
:1018F0009601C701B6010E94590F882319F0C12C27
:10190000D12C7601A5019401C501B4010E94590FA3
:10191000882319F0812C912C5401198284E08A8348
:10192000CB82DC82ED82FE828F829886A986BA867F
:101930004B865C866D867E868FA598A9A9A9BAA9D3
:101940008F87988BA98BBA8B42E150E0BE016F5F05
:101950007F4F81E00E94FE046091020170910301BB
:1019600080910401909105010E948C0180E090E03B
:10197000892B09F448CC0E947803882309F440CCD1
:101980000E9400003DCC60914A0270914B02762784
:101990006727762790E080E00E94210D2DEC3CEC3B
:1019A0004CEC5DE30E94820D34CF412C512C80E839
:1019B000682E8FEB782E7BCF1F93FC019927882709
:1019C000BC01E89411911032E9F3193010F01E3087
:1019D000C8F31B3251F01D3249F4689406C00E94CE
:1019E000030D610F711D811D911D119110531A304E
:1019F000B0F33EF490958095709561957F4F8F4F31
:101A00009F4F1F910895592F482F372F262F660F6C
:101A1000771F881F991F660F771F881F991F620FF6
:101A2000731F841F951F660F771F881F991F0895C6
:101A300091110C94EF0D803219F089508550C8F740
:101A40000895E89409C097FB3EF4909580957095B1
:101A500061957F4F8F4F9F4F9923A9F0F92F96E9FA
:101A6000BB279395F695879577956795B795F1116F
:101A7000F8CFFAF4BB0F11F460FF1BC06F5F7F4F0C
:101A80008F4F9F4F16C0882311F096E911C077231E
:101A900021F09EE8872F762F05C0662371F096E827
:101AA000862F70E060E02AF09A95660F771F881FF6
:101AB000DAF7880F9695879597F90895990F00089A
:101AC000550FAA0BE0E8FEEF16161706E807F90710
:101AD000C0F012161306E407F50798F0621B730BAB
:101AE000840B950B39F40A2661F0232B242B252B2C
:101AF00021F408950A2609F4A140A6958FEF811DCF
:101B0000811D08950E94950D0C94090E0E94FB0DF5
:101B100038F00E94020E20F0952311F00C94F20D83
:101B20000C94F80D11240C943D0E0E941A0E70F3C3
:101B3000959FC1F3950F50E0551F629FF001729F72
:101B4000BB27F00DB11D639FAA27F00DB11DAA1F81
:101B5000649F6627B00DA11D661F829F2227B00DCE
:101B6000A11D621F739FB00DA11D621F839FA00D59
:101B7000611D221F749F3327A00D611D231F849FA9
:101B8000600D211D822F762F6A2F11249F57504000
:101B90009AF0F1F088234AF0EE0FFF1FBB1F661F7B
:101BA000771F881F91505040A9F79E3F510580F044
:101BB0000C94F20D0C943D0E5F3FE4F3983ED4F389
:101BC000869577956795B795F795E7959F5FC1F7E8
:101BD000FE2B880F911D9695879597F90895992763
:101BE0008827089597F99F6780E870E060E008957E
:101BF0009FEF80EC089500240A9416161706180625
:101C00000906089500240A94121613061406050600
:101C10000895092E0394000C11F4882352F0BB0F91
:101C200040F4BF2B11F460FF04C06F5F7F4F8F4FF4
:101C30009F4F089557FD9058440F551F59F05F3F2F
:101C400071F04795880F97FB991F61F09F3F79F0DE
:101C500087950895121613061406551FF2CF469560
:101C6000F1DF08C0161617061806991FF1CF8695E2
:101C70007105610508940895E894BB2766277727C6
:101C8000CB0197F908952F923F924F925F926F92F6
:101C90007F928F929F92AF92BF92CF92DF92EF92FC
:101CA000FF920F931F93CF93DF93CDB7DEB7CA1B7D
:101CB000DB0B0FB6F894DEBF0FBECDBF09942A88A8
:101CC000398848885F846E847D848C849B84AA8450
:101CD000B984C884DF80EE80FD800C811B81AA81DD
:101CE000B981CE0FD11D0FB6F894DEBF0FBECDBFA8
:101CF000ED0108955058BB27AA270E94920E0C941C
:101D0000090E0E94FB0D38F00E94020E20F039F4FB
:101D10009F3F19F426F40C94F80D0EF4E095E7FBC0
:101D20000C94F20DE92F0E941A0E58F3BA176207AD
:101D300073078407950720F079F4A6F50C943C0E00
:101D40000EF4E0950B2EBA2FA02D0B01B9019001D6
:101D50000C01CA01A0011124FF27591B99F0593F1A
:101D600050F4503E68F11A16F040A22F232F342F62
:101D70004427585FF3CF469537952795A795F040B0
:101D80005395C9F77EF41F16BA0B620B730B840BC5
:101D9000BAF09150A1F0FF0FBB1F661F771F881F7D
:101DA000C2F70EC0BA0F621F731F841F48F48795D5
:101DB00077956795B795F7959E3F08F0B0CF9395C7
:101DC000880F08F09927EE0F9795879508950E9440
:101DD000FB0E0C94090E0E94020E58F00E94FB0D9F
:101DE00040F029F45F3F29F00C94F20D51110C944E
:101DF0003D0E0C94F80D0E941A0E68F39923B1F36E
:101E0000552391F3951B550BBB27AA276217730720
:101E1000840738F09F5F5F4F220F331F441FAA1FB4
:101E2000A9F335D00E2E3AF0E0E832D09150504070
:101E3000E695001CCAF72BD0FE2F29D0660F771F1E
:101E4000881FBB1F261737074807AB07B0E809F004
:101E5000BB0B802DBF01FF2793585F4F3AF09E3F89
:101E6000510578F00C94F20D0C943D0E5F3FE4F3B5
:101E7000983ED4F3869577956795B795F7959F5FCC
:101E8000C9F7880F911D9695879597F90895E1E018
:101E9000660F771F881FBB1F621773078407BA0777
:101EA00020F0621B730B840BBA0BEE1F88F7E095D2
:101EB00008950E945E0D880B990B0895A1E21A2ED9
:101EC000AA1BBB1BFD010DC0AA1FBB1FEE1FFF1FDE
:101ED000A217B307E407F50720F0A21BB30BE40B2E
:101EE000F50B661F771F881F991F1A9469F7609575
:101EF0007095809590959B01AC01BD01CF0108952F
:101F0000EE0FFF1F0590F491E02D09940F931F939E
:101F1000CF93DF938230910510F482E090E0E0915E
:101F20005F02F091600230E020E0B0E0A0E0309786
:101F300099F42115310509F44AC0281B390B2430C6
:101F40003105D8F58A819B816115710589F1FB0105
:101F500093838283FE0111C04081518102811381EC
:101F600048175907E0F04817590799F4109761F09E
:101F700012960C93129713961C933296CF01DF9111
:101F8000CF911F910F91089500935F02109360020B
:101F9000F4CF2115310551F04217530738F0A9014C
:101FA000DB019A01BD01DF01F801C1CFEF01F9CFDB
:101FB0009093600280935F02CDCFFE01E20FF31F8A
:101FC000819391932250310939832883D7CF20916F
:101FD0005D0230915E02232B41F42091110130917A
:101FE000120130935E0220935D0220910F01309127
:101FF00010012115310541F42DB73EB74091130171
:1020000050911401241B350BE0915D02F0915E02AA
:10201000E217F307A0F42E1B3F0B2817390778F0BF
:10202000AC014E5F5F4F2417350748F04E0F5F1F1E
:1020300050935E0240935D02819391939FCFF0E0B5
:10204000E0E09CCFCF93DF930097E9F0FC0132975B
:1020500013821282A0915F02B0916002ED0130E024
:1020600020E01097A1F420813181820F931F2091ED
:102070005D0230915E022817390709F061C0F093C4
:102080005E02E0935D02DF91CF910895EA01CE17E1
:10209000DF07E8F54A815B819E0141155105B1F7E3
:1020A000E901FB83EA8349915991C40FD51FEC17CD
:1020B000FD0761F4808191810296840F951FE901EB
:1020C00099838883828193819B838A83F0E0E0E017
:1020D00012968D919C9113970097B9F52D913C9193
:1020E0001197CD010296820F931F20915D023091CE
:1020F0005E022817390739F6309751F510926002C1
:1021000010925F02B0935E02A0935D02BCCFD383B6
:10211000C28340815181840F951FC817D90761F48C
:102120004E5F5F4F88819981480F591F51834083CB
:102130008A819B81938382832115310509F0B0CF79
:10214000F0936002E0935F029ECFFD01DC01C0CFFF
:1021500013821282D7CFB0E0A0E0E1EBF0E10C9463
:10216000450E8C01009751F4CB010E94860F8C0123
:10217000C801CDB7DEB7E0E10C94610EFC01E60FBB
:10218000F71F9C0122503109E217F30708F49DC0A4
:10219000D901CD91DC911197C617D70798F0C530BA
:1021A000D10530F3CE0104978617970708F3C61BB5
:1021B000D70B2297C193D1936D937C93CF010E944B
:1021C0002210D6CF5B01AC1ABD0A4C018C0E9D1EAD
:1021D000A0915F02B0916002512C412CF12CE12CB6
:1021E000109731F580915D0290915E0288159905F6
:1021F00009F05CC04616570608F058C080910F01E0
:1022000090911001009741F48DB79EB74091130152
:1022100050911401841B950BE817F90708F055C07D
:10222000F0935E02E0935D02F90171836083A0CFB9
:102230008D919C91119712966C90129713967C90A9
:102240001397A815B90559F56C0142E0C40ED11CCD
:10225000CA14DB0420F1AC014A195B09DA011296B9
:10226000159780F06282738251834083D9016D9308
:102270007C93E114F10471F0D7011396FC93EE9373
:10228000129776CF22968C0F9D1FF9019183808340
:10229000F301EFCFF0936002E0935F0269CF48163D
:1022A000590608F42C017D01D3019ACFCB010E947D
:1022B000860F7C01009749F0AE01B8010E947011B1
:1022C000C8010E942210870153CF10E000E050CFD8
:1022D0009111089581568A5108F4805285580895C5
:1022E000FB01DC0102C001900D9241505040D8F733
:1022F0000895FC018191861721F08823D9F7992749
:1023000008953197CF010895FB01DC018D91019073
:1023100080190110D9F3990B0895FB01DC0101909C
:102320000D920020E1F70895FB01DC01415050407F
:1023300030F08D910190801919F40020B9F7881BB5
:08234000990B0895F894FFCFFA
:102348000200F4010000030010000700080001006B
:10235800006102800000000000AE03CE02FB0216FE
:10236800046C030A035E030D0A00535441525420BF
:1023780052454144494E470053544F50205245411D
:1023880044494E470050494E47004745542053544E
:1023980041545553004745542050494E5300434C2F
:1023A800454152204445564943455300534554201E
:1023B8004445564943452000410044006468740080
:1023C80074726967006563686F0068616C6C0064AB
:1023D800730050524F544F20005345542044454CED
:0423E8004159000057
:00000001FF
