:100000000C9455010C9486010C9486010C94860185
:100010000C9486010C9486010C9486010C94860144
:100020000C9486010C9486010C9486010C94860134
:100030000C9486010C9486010C9486010C94860124
:100040000C9486010C9486010C9486010C94860114
:100050000C9486010C9486010C9486010C9477080C
:100060000C9486010C94EB080C94C1080C94860146
:100070000C9486010C9486010C9486010C948601E4
:100080000C9486010C9486010C9486010C948601D4
:100090000C9486010C9486010C9486010C948601C4
:1000A0000C9486010C9486010C9486010C948601B4
:1000B0000C9486010C9486010C9486010C948601A4
:1000C0000C9486010C9486010C9486010C94860194
:1000D0000C9486010C9486010C9486010C94860184
:1000E0000C9486010C94E8010C9400020C940A0212
:1000F0000C948E030C94DB010C94E6040C94D70151
:100100000C9409050C94B8010C94FB020C94F601B4
:100110000C9427050C94C8040C94F5040C941D054C
:100120000C9409030C9413050C94DE010C949802B2
:100130000C94DC040C940E020C94A7020C94C004E2
:100140000C94A4040C94F2010C94EE010C94D301D1
:100150000C94E4010C94FF040C946B020C94410386
:100160000C94FC010C948B040C94410E0C949A0496
:100170000C9495040C94BD010C94AE040C94CF0126
:100180000C9404020C94D2040C94B80450524F54B2
:100190004F204F4B20310050524F544F204F4B2097
:1001A000320000002100240027002A002D0030002A
:1001B000330001010000040107010A0100002200D0
:1001C000250028002B002E00310034000201000021
:1001D000050108010B0105050505070508080808C4
:1001E000020202020A0A08080404040401010101CF
:1001F00001010101030303030303030304070707CA
:100200000C0C0C0C0C0C0C0C02020202060606066E
:10021000060606060B0B0B0B0B0B0B0B010210203B
:10022000200808102040102040800201020108042C
:1002300002010102040810204080804020100804C0
:100240000201800402018040201008040201080419
:10025000020101020408102040800102040810205D
:10026000408000000A0B02090C0D0E080703040170
:10027000000000000000000000000000000000007E
:10028000000000000000000000000000000012114B
:10029000100000000000000000000000000000004E
:1002A0000000000000000000410E11241FBECFEF2F
:1002B000D1E2DEBFCDBF00E00CBF23E0A2EDB2E093
:1002C00001C01D92A038B207E1F712E0A0E0B2E051
:1002D000EEEBF2E200E00BBF02C007900D92A23DF0
:1002E000B107D9F711E0C5E5D1E000E006C02197DC
:1002F0000109802FFE010E94F30EC435D10780E072
:100300000807A9F70E9421090C945D110C940000C4
:10031000282F30E0F901EE59FD4F9491F901E45E88
:10032000FD4F44912A523E4FF9012491222309F4B2
:1003300035C0992311F191509231F8F4E92FF0E092
:100340008827EA55FE4F8F4F0C94F30ED701DB013F
:10035000B801CF01D301BD01DE01E401E801EE01E6
:10036000F201F601FC010002BD0104020A020E02C4
:10037000809180008F7780938000E22FF0E0EE0F75
:10038000FF1FE454FE4FA591B4918FB7F894EC9100
:10039000611148C040954E234C938FBF08958091C2
:1003A00080008F7DE8CF80918000877FE4CF84B587
:1003B0008F7784BDE2CF84B58F7DFBCF8091B00075
:1003C0008F778093B000D9CF8091B0008F7DF9CF27
:1003D000809190008F7780939000CFCF8091900094
:1003E0008F7DF9CF80919000877FF5CF8091A0001D
:1003F0008F778093A000C1CF8091A0008F7DF9CF2F
:100400008091A000877FF5CF809120018F77809326
:100410002001B3CF809120018F7DF9CF8091200101
:10042000877FF5CF4E2BB8CFCF93DF9390E0FC01C1
:10043000E45EFD4F24918A529E4FFC0184918823F3
:10044000D1F090E0880F991FFC01EE55FE4FA59169
:10045000B491FC01E454FE4FC591D49161110EC0DA
:100460009FB7F8948C91E22FE0958E238C9328818E
:10047000E223E8839FBFDF91CF9108958FB7F8946F
:10048000EC91E22BEC938FBFF6CF3FB7F8948091BD
:10049000D7029091D802A091D902B091DA0226B584
:1004A000A89B05C02F3F19F00196A11DB11D3FBFAC
:1004B000BA2FA92F982F8827BC01CD01620F711D7B
:1004C000811D911D42E0660F771F881F991F4A9575
:1004D000D1F708950895AF92BF92CF92DF92EF9235
:1004E000FF920F931F93CF93DF936C017B018B01DE
:1004F000040F151FEB015E01AE18BF08C017D1072E
:1005000059F06991D601ED91FC910190F081E02DB7
:10051000C6011995892B79F7C501DF91CF911F91FC
:100520000F91FF90EF90DF90CF90BF90AF90089524
:10053000FC01538D448D252F30E0842F90E0821BE9
:10054000930B541710F0CF96089501970895FC016E
:10055000918D828D981761F0A28DAE0FBF2FB11DC6
:100560005D968C91928D9F5F9F73928F90E008951E
:100570008FEF9FEF08952FB7F8948091DB02909151
:10058000DC02A091DD02B091DE022FBF8093E70272
:100590009093E802A093E902B093EA028FED92E013
:1005A0000E94A70297FF26C02FB7F8948091DB0224
:1005B0009091DC02A091DD02B091DE022FBF40914C
:1005C000E7025091E8026091E9027091EA02841B0F
:1005D000950BA60BB70B4091E3025091E40260919A
:1005E000E5027091E60284179507A607B707B0F2F7
:1005F0008FEF9FEF0895FC01918D828D981731F058
:10060000828DE80FF11D858D90E008958FEF9FEFAB
:100610000895FC01918D228D892F90E0805C9F4F81
:10062000821B91098F73992708958FED92E00E94A4
:10063000090321E0892B09F420E0822F0895FC01B1
:10064000A48DA80FB92FB11DA35ABF4F2C91848D33
:1006500090E001968F739927848FA689B7892C9390
:10066000A089B1898C91837080648C93938D848DE3
:10067000981306C00288F389E02D80818F7D8083E6
:100680000895EF92FF920F931F93CF93DF93EC01A6
:1006900081E0888F9B8D8C8D98131AC0E889F98929
:1006A000808185FF15C09FB7F894EE89FF8960832C
:1006B000E889F98980818370806480839FBF81E0AD
:1006C00090E0DF91CF911F910F91FF90EF900895EF
:1006D000F62E0B8D10E00F5F1F4F0F731127E02ECA
:1006E0008C8D8E110CC00FB607FCFACFE889F98902
:1006F000808185FFF5CFCE010E941F03F1CFEB8DE6
:10070000EC0FFD2FF11DE35AFF4FF0829FB7F894D5
:100710000B8FEA89FB8980818062CFCFCF93DF93F3
:10072000EC01888D8823B9F0AA89BB89E889F98909
:100730008C9185FD03C0808186FD0DC00FB607FC3E
:10074000F7CF8C9185FFF2CF808185FFEDCFCE0171
:100750000E941F03E9CFDF91CF91089580E090E0E0
:10076000892B29F00E94150381110E94000080E06E
:1007700090E0892B49F080E090E0892B29F00E94DD
:10078000000081110E94000080E090E0892B49F078
:1007900080E090E0892B29F00E94000081110E94E6
:1007A000000080E090E0892B49F080E090E0892B08
:1007B00029F00E94000081110C9400000895CF934D
:1007C000DF93EC018A819B8197FD03C061E00E9469
:1007D00014028C819D8197FD03C061E00E94140288
:1007E0008E819F8197FD03C061E00E94140288857D
:1007F000998597FD03C061E00E9414028A859B855C
:1008000097FD03C061E00E9414028C859D8597FDD1
:1008100005C060E0DF91CF910C941402DF91CF917D
:1008200008952FB7F8948091DB029091DC02A0919B
:10083000DD02B091DE022FBF8093D2029093D302EB
:10084000A093D402B093D5020895FF920F931F9303
:10085000CF93DF93EC018A819B8197FD07C061E014
:100860002981211101C060E00E9488018C819D8155
:1008700097FD06C061E02981211160E00E94880196
:100880008A859B8597FD03C060E00E94880188856A
:10089000998597FD03C061E00E9488010E811F8148
:1008A00017FD3DC0F880CF2DD0E061E0802F0E9481
:1008B0001402209749F460E0802FDF91CF911F91BF
:1008C0000F91FF900C948801CF3FD10511F461E0A6
:1008D000F3CFF801FF27EE59FD4FE491E150E231EB
:1008E00008F0B5C0F0E08827E758FB4F8F4F0C9415
:1008F000F30E8B0495049A04A404AE042705B804EF
:10090000C004C804D204DC04E604F504FF0427058F
:10091000090513051D0584B5806884BDF7BCDF910A
:10092000CF911F910F91FF90089584B5806284BD8F
:10093000F8BCF5CF80918000806880938000D093D0
:100940008900C0938800EBCF809180008062809303
:100950008000D0938B00C0938A00E1CF809180000B
:10096000886080938000D0938D00C0938C00D7CF97
:100970008091B00080688093B000F092B300CFCF38
:100980008091B00080628093B000F092B400C7CF35
:1009900080919000806880939000D0939900C093DC
:1009A0009800BDCF80919000806280939000D0939A
:1009B0009B00C0939A00B3CF809190008860809391
:1009C0009000D0939D00C0939C00A9CF8091A0007F
:1009D00080688093A0008091A0008F7B8093A0000E
:1009E000D093A900C093A8009ACF8091A000806204
:1009F0008093A000D093AB00C093AA0090CF8091C9
:100A0000A00088608093A000D093AD00C093AC009C
:100A100086CF80912001806880932001D0932901A6
:100A2000C09328017CCF80912001806280932001B7
:100A3000D0932B01C0932A0172CF8091200188604E
:100A400080932001D0932D01C0932C0168CFC03832
:100A5000D1050CF03CCF2FCFCF93DF93FC01248145
:100A600035816217730788F49B01C081D18160E2F0
:100A700070E0CE01820F931F0E941A11009729F097
:100A80008C1B9D0BDF91CF9108958FEF9FEFFACFD5
:100A9000FC0180819181009711F00C94970F0895CB
:100AA0000F931F93CF93DF93EC0118828A859B8568
:100AB00097FD03C061E00E9488010E811F8117FD30
:100AC00008C061E0802F0E94140260E0802F0E9425
:100AD00088018885998597FD07C060E0DF91CF91F7
:100AE0001F910F910C948801DF91CF911F910F916D
:100AF000089583E192E00E94500581E092E00C9419
:100B00005005FC0180819181009711F00C946E0ECC
:100B100060E070E0CB010895EF92FF920F931F9376
:100B2000CF93DF93CDB7DEB7C854D1090FB6F89491
:100B3000DEBF0FBECDBF7B018A019AEA26969FAF2A
:100B4000269727968FAF279728964FAF28972996F5
:100B50001FAE299744E050E0BE016B5B7F4F8FEDE5
:100B600092E00E946B02A801B7018FED92E00E9413
:100B70006B0229968CAD9DADAEADBFAD2997898333
:100B80009A83AB83BC83A801B701CE0105960E946E
:100B900011110C5F1F4FAE014F5F5F4FFA0160E014
:100BA0007CE88191682728E030E0862F90E09595D9
:100BB000879560FF1DC0682F672721503109A9F76D
:100BC000CF01841B950B801791075CF38FED92E0AA
:100BD0000E944103C85BDF4F0FB6F894DEBF0FBE23
:100BE000CDBFDF91CF911F910F91FF90EF900895AE
:100BF000682FE3CFCF93DF93CDB7DEB72C970FB637
:100C0000F894DEBF0FBECDBF809115029091160201
:100C100097FF02C08FEF90E0898380911702909137
:100C2000180297FF02C08FEF90E08A83809119022B
:100C300090911A0297FF02C08FEF90E08B83809112
:100C40001B0290911C0297FF02C08FEF90E08C83F3
:100C500080911D0290911E0297FF02C08FEF90E0DD
:100C60008D8380911F029091200297FF02C08FEF29
:100C700090E08E83809103029091040297FF02C05E
:100C80008FEF90E08F83809105029091060297FF8D
:100C900002C08FEF90E08887809107029091080250
:100CA00097FF02C08FEF90E08987809109029091B1
:100CB0000A0297FF02C08FEF90E08A8780910B02B3
:100CC00090910C0297FF02C08FEF90E08B8780918C
:100CD0000D0290910E0297FF02C08FEF90E08C877B
:100CE0004CE050E0BE016F5F7F4F81E20E948C05B7
:100CF0002C960FB6F894DEBF0FBECDBFDF91CF911B
:100D00000895FF920F931F93CF93DF9300D000D0ED
:100D10001F92CDB7DEB7F82E8B01FB0124853585F8
:100D200060E070E0CB0137FD24C0822F263310F045
:100D30008AEC820F20917B00982F9870277F922B4E
:100D400090937B008770806480937C0080917A0010
:100D5000806480937A0080917A0086FDFCCF609158
:100D6000780070917900072E000C880B990B0E9477
:100D7000B50EF982F80120812A8321812B836C83AF
:100D80007D838E839F8347E050E0BE016F5F7F4F7E
:100D900080E20E948C0527960FB6F894DEBF0FBE46
:100DA000CDBFDF91CF911F910F91FF900895AF922A
:100DB000BF92CF92DF92EF92FF920F931F93CF9348
:100DC000DF93DC01CD90DC901197C114D10439F090
:100DD0001496CD91DC918C017601209761F4DF911E
:100DE000CF911F910F91FF90EF90DF90CF90BF9028
:100DF000AF90089575015701BFEFAB1ABB0AF70119
:100E00008081082E000C990B0E94AA0E892B91F765
:100E10002197CC0DDD1D8881082E000C990B0E94B6
:100E2000AA0E892B29F0CE15DF0510F02197F3CFFC
:100E3000AE014F5F5F4F4E195F09D80115965C9365
:100E40004E931497CE14DF0420F4B701C6010E941C
:100E50001111D801ED91FC91119714968D919C91EF
:100E6000E80FF91F1082BBCFCF93DF93DC011496FC
:100E70002D913C911597232B79F0FB01CD91DC91BD
:100E800060817181CE010E944311009729F08C1B73
:100E90009D0BDF91CF9108958FEF9FEFFACFFB016C
:100EA00044815581FC01248135812417350778F070
:100EB00080819181009759F0FB01608171816115FA
:100EC000710529F00E94351121E0892B09F020E0FD
:100ED000822F0895FC0124813581232B39F421E0F0
:100EE000FB018081882349F020E007C08081918147
:100EF0000E94251121E0892BB9F7822F0895CF9305
:100F0000DF93EC0169E372E00E946A0781111AC065
:100F10006BE372E0CE010E946A07811113C06DE39A
:100F200072E0CE010E946A0781110FC06FE372E088
:100F3000CE010E946A07811108C090E080E0DF9135
:100F4000CF91089583E192E0FACF81E092E0F7CF6C
:100F50000F931F93CF93DF93EC01888199810097C2
:100F600059F02A813B812617370730F081E0DF9165
:100F7000CF911F910F9108958B016F5F7F4F0E945A
:100F80002010009759F0998388831B830A832C8152
:100F90003D81232B59F7FC011082E8CF80E0E7CF99
:100FA000EF92FF920F931F93CF93DF93EC017B019E
:100FB0008A01BA010E94A80728813981811114C0D1
:100FC0002115310519F0C9010E94970F1982188265
:100FD0001D821C821B821A82CE01DF91CF911F914C
:100FE0000F91FF90EF9008951D830C83B701C90105
:100FF0000E942E11F1CFFC01118210821382128205
:1010000015821482FB0101900020E9F73197AF01AE
:10101000461B570B0C94D007AF92BF92CF92DF9232
:10102000EF92FF920F931F93CF93DF93EC016B012D
:101030005A0179012417350720F48B2D5901E42E2C
:10104000F82E61ED72E0CE010E94FB07D6011496E6
:101050000D911C91A016B10628F5E016F10608F4D2
:101060008701D601ED91FC911197E00FF11FF080FF
:1010700010826D917C916A0D7B1D61157105F1F0F7
:10108000FB0101900020E9F73197AF01461B570B98
:10109000CE010E94D007F60180819181080F191FAF
:1010A000D801FC92CE01DF91CF911F910F91FF905B
:1010B000EF90DF90CF90BF90AF9008958881998195
:1010C000009711F00E94970F198218821D821C82CE
:1010D0001B821A82E0CFCF93DF93EC01FB012481C6
:1010E00035810E940C08CE01DF91CF9108951F92A7
:1010F0000F920FB60F9211242F933F938F939F93CC
:10110000AF93BF938091DB029091DC02A091DD024E
:10111000B091DE023091D60223E0230F2D3758F52F
:101120000196A11DB11D2093D6028093DB029093FE
:10113000DC02A093DD02B093DE028091D702909191
:10114000D802A091D902B091DA020196A11DB11D79
:101150008093D7029093D802A093D902B093DA0279
:10116000BF91AF919F918F913F912F910F900FBEA3
:101170000F901F90189526E8230F0296A11DB11D10
:10118000D2CF1F920F920FB60F9211240BB60F926F
:101190002F933F934F935F936F937F938F939F937F
:1011A000AF93BF93EF93FF938FED92E00E941F03E5
:1011B000FF91EF91BF91AF919F918F917F916F912F
:1011C0005F914F913F912F910F900BBE0F900FBEEB
:1011D0000F901F9018951F920F920FB60F92112427
:1011E0000BB60F922F938F939F93EF93FF93E09102
:1011F000EF02F091F0028081E091F502F091F602A9
:1012000082FD1DC090818091F8028F5F8F732091C5
:10121000F902821741F0E091F802F0E0E152FD4F4F
:10122000958F8093F802FF91EF919F918F912F916D
:101230000F900BBE0F900FBE0F901F9018958081DE
:10124000F2CFCF93DF93CDB7DEB7A4970FB6F89464
:10125000DEBF0FBECDBF789484B5826084BD84B5F7
:10126000816084BD85B5826085BD85B5816085BDA1
:1012700080916E00816080936E0010928100809159
:1012800081008260809381008091810081608093E1
:101290008100809180008160809380008091B10006
:1012A00084608093B1008091B00081608093B00031
:1012B0008091910082608093910080919100816083
:1012C0008093910080919000816080939000809144
:1012D000A10082608093A1008091A1008160809331
:1012E000A1008091A00081608093A00080912101E5
:1012F000826080932101809121018160809321018E
:101300008091200181608093200180917A00846027
:1013100080937A0080917A00826080937A00809135
:101320007A00816080937A0080917A00806880934F
:101330007A001092C100E091EF02F091F00282E099
:101340008083E091EF02F091F0021082E091EB02D5
:10135000F091EC021082E091ED02F091EE0280E15A
:1013600080831092F702E091F302F091F40286E09C
:101370008083E091F102F091F202808180618083AC
:10138000E091F102F091F202808188608083E09127
:10139000F102F091F202808180688083E091F10295
:1013A000F091F20280818F7D808383E192E00E9440
:1013B000DF0381E092E00E94DF030E9479050E9432
:1013C0001104BB24B3948FED92E00E940903181618
:1013D00019060CF045C061ED72E0CE014F960E94F7
:1013E000FB070E94BB0297FD1EC08A309105D9F011
:1013F00089831A820BA11CA10F5F1F4FB801CE0178
:101400004F960E94A807882361F32F8D38A18BA1E6
:101410009CA1BE016F5F7F4F820F931F0E942E1110
:101420001CA30BA3DECFCE014F960E94D7060E94CD
:10143000110461E472E0CE014F960E946A078111A7
:1014400009C067E472E0CE014F960E946A078823C4
:1014500009F475C00E947905CE014F960E94480597
:1014600080910F0290911002A0911102B09112028E
:10147000892B8A2B8B2B71F180911302811104C06F
:1014800080910102882331F12FB7F8948091DB021B
:101490009091DC02A091DD02B091DE022FBF40915D
:1014A000D2025091D3026091D4027091D502841B74
:1014B000950BA60BB70B40910F0250911002609153
:1014C000110270911202481759076A077B0710F43E
:1014D0000E94790580910002882351F063E172E057
:1014E00080E00E94810661E072E081E00E94810656
:1014F0000E9445022B013C0184E6C82ED12CE12C30
:10150000F12C0E9445026419750986099709683E05
:10151000734081059105A8F3F1E0CF1AD108E108E5
:10152000F10828EE420E23E0521E611C711CC1140A
:10153000D104E104F10429F70E94AE0344CF6CE426
:1015400072E0CE0101960E94FB07BE016F5F7F4FE4
:10155000CE014F960E944F0710E08823B1F063E55B
:1015600072E0CE0107960E94FB07BE01695F7F4FC4
:10157000CE014F960E94340711E0181619060CF0A0
:1015800010E0CE0107960E944805CE0101960E9408
:101590004805112309F451C066E070E0CE014F9672
:1015A0000E942C05181619060CF056CF9C0146E037
:1015B00050E0BE01615E7F4FCE0107960E940C088D
:1015C000CE0107960E947F077C0164E572E0CE01A0
:1015D00001960E94FB07BE016F5F7F4FCE014F96C1
:1015E0000E9434078C01CE0101960E944805E11447
:1015F000F104F1F010161106DCF4A8014D5F5F4F05
:10160000BE01615E7F4FCE0101960E946B08CE0144
:1016100001960E94810581E0611101C080E0F7011F
:101620008183CE0101960E944805C7010E942504CE
:10163000CE0107960E9448050FCF6CE472E0CE0100
:1016400001960E94FB07BE016F5F7F4FCE014F9650
:101650000E944F07182FCE0101960E9448051123C2
:10166000E9F166E070E0CE014F960E942C057C0106
:10167000181619060CF0F0CE9C0146E050E0BE01B1
:10168000615E7F4FCE0107960E940C08CE0107963F
:101690000E947F078C01892B59F2A7014F5F5F4F92
:1016A000BE01615E7F4FCE0101960E946B08CE01A4
:1016B00001960E9481056B01CE0101960E944805AA
:1016C000FFEFCF16D10421F01CF0CC24CA94D12C0A
:1016D000D7FCC12CF801C082C801A8CF68E572E030
:1016E000CE0101960E94FB07BE016F5F7F4FCE01C6
:1016F0004F960E944F07182FCE0101960E94480571
:10170000112309F4FEC148E050E0BE01615E7F4F45
:10171000CE0149960E946B08CE0149960E94D706D9
:1017200070E060E0CE0149960E942C057C011816FD
:1017300019060CF063C19C0150E040E0BE01675EF9
:101740007F4FCE0107960E940C0869E372E0CE013C
:1017500007960E946A0781111AC06DE372E0CE01FC
:1017600007960E946A07811112C06BE372E0CE01F6
:1017700007960E946A0781110AC06FE372E0CE01EA
:1017800007960E946A0703E112E08823C9F1CE019F
:1017900007960E947F078C01A7014F5F5F4FBE0134
:1017A000675E7F4FCE0101960E946B08898D9A8DEE
:1017B000009709F4ADC069817A816115710509F45A
:1017C000A5C04B8D5C8D2D813E814217530708F4D7
:1017D0009DC00E942E118D819E819E8F8D8F1E82B5
:1017E0001D82CE0101960E944805CE0149960E94B5
:1017F000D70670E060E0CE0149960E942C057C017E
:10180000CE0107960E9448050115110509F4F6C09E
:101810001E141F040CF0F2C0970150E040E0BE011E
:10182000675E7F4FCE0143960E940C08A7014F5F71
:101830005F4FBE01675E7F4FCE010D960E946B0821
:1018400061E672E0CE0101960E94FB0789899A89C0
:101850002D813E8182179307F1F4892B09F469C029
:10186000CD84DE84E980FA80F60181916F018823BE
:1018700009F45FC0082E000C990B0E9401113C0175
:10188000F70181917F01082E000C990B0E94011134
:101890006816790649F366E672E0CE010D960E945D
:1018A0006A07FF24F394811101C0F12CCE01019647
:1018B0000E944805CC24CA94DC2CF11075C018860F
:1018C0001F821A8619861C861B866D857E8561158A
:1018D000710531F049895A89CE0107960E94D007D7
:1018E000CE0107960E94D706CF80D884C114D104B8
:1018F00019F1F60180818823F9F0082E000C990B6C
:101900000E940911F60181936F01F3CF0E94970F96
:1019100089819A819A8F898F8B819C819C8F8B8FF3
:101920008D819E819E8F8D8F1A8219821C821B82CF
:1019300056CFFF24F394BACF69E372E0CE0101964B
:101940000E94FB07BE016F5F7F4FCE0107960E948A
:101950004F07882339F0FF24F3948B859C850297E9
:1019600008F4F12CCE0101960E944805FF2009F4ED
:1019700048C041E050E0BE01695F7F4FCE01019653
:101980000E946B08CE0101960E9481056B01CE0179
:1019900001960E944805F6E3CF0ED11CCE010796B2
:1019A0000E944805D7FC22C06AE672E0CE01439649
:1019B0000E946A07F82E60E772E0CE0143960E940B
:1019C0006A07882309F466C0F801D382C282FFEF58
:1019D000CF16DF0631F061E0F11060E08C2D0E943F
:1019E0001402C8010E9425040E94FA05CE010D963A
:1019F0000E944805CE0143960E944805CE014996B3
:101A000019CE68E672E0CE0101960E94FB07BE0186
:101A10006F5F7F4FCE0107960E944F07882339F0F2
:101A2000FF24F3948B859C85029708F4F12CCE015A
:101A300001960E944805FF2099F041E050E0BE0168
:101A4000695F7F4FCE0101960E946B08CE0101961F
:101A50000E9481056B01CE0101960E9448059ECF30
:101A60008B859C85892B91F0EF81F88580E03097FC
:101A700009F08081082E000C990BC0970A9730F46A
:101A8000CE0107960E9481056B0188CFCC24CA94B1
:101A9000DC2C84CF64E772E0CE0143960E946A0793
:101AA000882321F0F801D582C48291CF69E772E0E2
:101AB000CE0143960E946A07882321F0F801D7825D
:101AC000C68285CF6DE772E0CE0143960E946A0719
:101AD000882321F0F801D186C08679CF64E872E0CE
:101AE000CE0143960E946A07882321F0F801D3862D
:101AF000C2866DCFFF2009F46ACFF801D586C4866F
:101B000066CF6AE872E0CE0101960E94FB07BE0133
:101B10006F5F7F4FCE014F960E944F07182FCE0167
:101B200001960E944805112319F149E050E0BE01D9
:101B3000615E7F4FCE0101960E946B08CE01019637
:101B40000E9481057B018C01CE0101960E9448050F
:101B5000C701D801B7FF03C080E090E0DC018093AB
:101B60000F0290931002A0931102B093120274CC52
:101B700064E972E0CE014F960E946A07882319F04B
:101B80000E94FA0569CC6DE972E0CE014F960E9481
:101B90006A0781111BC062EA72E0CE014F960E9473
:101BA0006A07811113C06DEA72E0CE014F960E9460
:101BB0006A0781111FC06BEB72E0CE014F960E9445
:101BC0006A078823D1F01092000246CCB98241E026
:101BD00050E0BE016F5F7F4F8FE70E948C0563E18D
:101BE00072E080E00E94810661E072E081E00E9484
:101BF000810632CCB09200022FCC68EC72E0CE01AC
:101C000001960E94FB07BE016F5F7F4FCE014F968A
:101C10000E944F07182FCE0101960E9448051123FC
:101C200009F41ACC46E050E0BE01615E7F4FCE0160
:101C300001960E946B08CE0101960E9481056B01FE
:101C4000CE0101960E94480507E911E022E0C21684
:101C5000D10414F40CE811E0F8016491662341F01A
:101C60008FED92E00E9441030F5F1F4F892BA1F778
:101C700042E050E06FEC72E08FED92E00E946B0268
:101C8000EBCBEFEDF2E01382128288EE93E0A0E05E
:101C9000B0E084839583A683B7838BE292E091833F
:101CA000808385EC90E09587848784EC90E097872B
:101CB000868780EC90E0918B808B81EC90E0938B19
:101CC000828B82EC90E0958B848B86EC90E0978BF6
:101CD000868B118E128E138E148E08951F93FC0125
:101CE00099278827BC01E89411911032E9F3193043
:101CF00010F01E30C8F31B3251F01D3249F46894C5
:101D000006C00E94950E610F711D811D911D1191DC
:101D100010531A30B0F33EF490958095709561950C
:101D20007F4F8F4F9F4F1F910895592F482F372F67
:101D3000262F660F771F881F991F660F771F881F32
:101D4000991F620F731F841F951F660F771F881FCF
:101D5000991F089591110C94F00E803219F089505A
:101D60008550C8F70895E89409C097FB3EF4909514
:101D70008095709561957F4F8F4F9F4F9923A9F064
:101D8000F92F96E9BB279395F695879577956795F3
:101D9000B795F111F8CFFAF4BB0F11F460FF1BC037
:101DA0006F5F7F4F8F4F9F4F16C0882311F096E9CA
:101DB00011C0772321F09EE8872F762F05C0662378
:101DC00071F096E8862F70E060E02AF09A95660F31
:101DD000771F881FDAF7880F9695879597F90895EA
:101DE000992788270895EE0FFF1F881F8BBF079044
:101DF000F691E02D19940F931F93CF93DF938230C8
:101E0000910510F482E090E0E0917E03F0917F0371
:101E100030E020E0B0E0A0E0309799F421153105E2
:101E200009F44AC0281B390B24303105D8F58A81C2
:101E30009B816115710589F1FB0193838283FE010A
:101E400011C0408151810281138148175907E0F088
:101E50004817590799F4109761F012960C9312974E
:101E600013961C933296CF01DF91CF911F910F9162
:101E7000089500937E0310937F03F4CF211531055D
:101E800051F04217530738F0A901DB019A01BD0157
:101E9000DF01F801C1CFEF01F9CF90937F03809369
:101EA0007E03CDCFFE01E20FF31F81939193225069
:101EB000310939832883D7CF20917C0330917D036A
:101EC000232B41F4209123023091240230937D038F
:101ED00020937C03209121023091220221153105AB
:101EE00041F42DB73EB74091250250912602241BA4
:101EF000350BE0917C03F0917D03E217F307A0F42A
:101F00002E1B3F0B2817390778F0AC014E5F5F4F4F
:101F10002417350748F04E0F5F1F50937D03409301
:101F20007C03819391939FCFF0E0E0E09CCFCF932F
:101F3000DF930097E9F0FC01329713821282A0919F
:101F40007E03B0917F03ED0130E020E01097A1F413
:101F500020813181820F931F20917C0330917D037A
:101F60002817390709F061C0F0937D03E0937C03E3
:101F7000DF91CF910895EA01CE17DF07E8F54A8196
:101F80005B819E0141155105B1F7E901FB83EA83AD
:101F900049915991C40FD51FEC17FD0761F4808159
:101FA00091810296840F951FE9019983888382812C
:101FB00093819B838A83F0E0E0E012968D919C915F
:101FC00013970097B9F52D913C911197CD01029689
:101FD000820F931F20917C0330917D0328173907CE
:101FE00039F6309751F510927F0310927E03B0932B
:101FF0007D03A0937C03BCCFD383C28340815181F6
:10200000840F951FC817D90761F44E5F5F4F888111
:102010009981480F591F518340838A819B81938303
:1020200082832115310509F0B0CFF0937F03E0934F
:102030007E039ECFFD01DC01C0CF13821282D7CF79
:102040004F925F926F927F928F929F92AF92BF92C8
:10205000CF92DF92EF92FF920F931F93CF93DF9374
:102060008C01009799F4CB01DF91CF911F910F91D3
:10207000FF90EF90DF90CF90BF90AF909F908F90A8
:102080007F906F905F904F900C94FB0EFC01E60FD9
:10209000F71F9C0122503109E217F30708F4AEC084
:1020A000D901CD91DC911197C617D70720F1C53022
:1020B000D10578F0CE0104978617970750F0C61B1C
:1020C000D70B2297C193D1936D937C93CF010E943C
:1020D000970FC801DF91CF911F910F91FF90EF9063
:1020E000DF90CF90BF90AF909F908F907F906F9038
:1020F0005F904F9008955B01AC1ABD0A4C018C0EA5
:102100009D1EA0917E03B0917F03512C412CF12C98
:10211000E12C109731F580917C0390917D03881517
:10212000990509F05CC04616570608F058C0809122
:10213000210290912202009741F48DB79EB7409101
:10214000250250912602841B950BE817F90708F029
:1021500055C0F0937D03E0937C03F90171836083A4
:10216000B8CF8D919C91119712966C9012971396FF
:102170007C901397A815B90559F56C0142E0C40E7F
:10218000D11CCA14DB0420F1AC014A195B09DA0145
:102190001296159780F06282738251834083D90131
:1021A0006D937C93E114F10471F0D7011396FC93C5
:1021B000EE9312978ECF22968C0F9D1FF90191837B
:1021C0008083F301EFCFF0937F03E0937E0381CF11
:1021D0004816590608F42C017D01D3019ACFCB0192
:1021E0000E94FB0E7C01009749F0AE01B8010E94ED
:1021F0001111C8010E94970F87016BCF10E000E01A
:1022000068CF9111089581548A5108F4805E855AEF
:1022100008959111089581568A5108F48052855885
:102220000895FB01DC0102C001900D924150504025
:10223000D8F70895FC018191861721F08823D9F7FA
:10224000992708953197CF010895FB01DC018D9105
:10225000019080190110D9F3990B0895FB01DC015D
:1022600001900D920020E1F70895FB01DC0141503F
:10227000504030F08D910190801919F40020B9F789
:10228000881B990B0895FB0151915523A9F0BF01BB
:10229000DC014D9145174111E1F759F4CD01019051
:1022A000002049F04D9140154111C9F3FB01411146
:0E22B000EFCF81E090E001970895F894FFCF02
:1022BE000100010D00FFFF0B00FFFF08003700D0EB
:1022CE0007000000010C00FFFF0300FFFF090036AE
:1022DE00000000800380000000000041036B0298A4
:1022EE00028E030903A702FB024100610042006255
:1022FE00004D4F544F522053544F50004D4F544F9A
:10230E0052200020444952005345542050494E203B
:10231E00004E4F4E45002D00440073656E736500F0
:10232E0064697200646972320070776D00656E6167
:10233E00626C65006272616B65005741544348449C
:10234E004F4720004745542050494E530050494EA8
:10235E00470047455420535441545553005354415C
:10236E0052542052454144494E470053544F502039
:10237E0052454144494E470050524F544F20000D94
:02238E000A0043
:00000001FF
