:100000000C9468000C9490000C9490000C94900058
:100010000C9490000C9490000C9490000C94900020
:100020000C9490000C9490000C9490000C94900010
:100030000C9490000C9490000C9490000C94900000
:100040000C9499060C9490000C9409070C94E30608
:100050000C9490000C9490000C9490000C949000E0
:100060000C9490000C94900050524F544F204F4BE2
:1000700020310050524F544F204F4B20320000008F
:100080000000240027002A000000000025002800AE
:100090002B00040404040404040402020202020209
:1000A000030303030303010204081020408001023C
:1000B00004081020010204081020000000080002BB
:1000C00001000003040700000000000000003B0CDA
:1000D00011241FBECFEFD8E0DEBFCDBF22E0A2EDDE
:1000E000B1E001C01D92A038B207E1F711E0A0E035
:1000F000B1E0E4EDFEE102C005900D92A23DB10732
:10010000D9F710E0C8E6D0E004C02197FE010E94B4
:10011000240DC736D107C9F70E943B070C94680F1E
:100120000C94000090E0FC01E654FF4F2491FC0188
:10013000EA55FF4F3491FC01EE56FF4FE491EE2358
:10014000C9F0222339F0233001F1A8F4213019F14C
:10015000223029F1F0E0EE0FFF1FE857FF4FA59185
:10016000B4918FB7F894EC91611126C030953E237D
:100170003C938FBF08952730A9F02830C9F0243070
:1001800049F7809180008F7D03C0809180008F7738
:1001900080938000DFCF84B58F7784BDDBCF84B5BB
:1001A0008F7DFBCF8091B0008F778093B000D2CF4E
:1001B0008091B0008F7DF9CF3E2BDACFCF93DF93C4
:1001C00090E0FC01EA55FF4F24918E569F4FFC01B1
:1001D00084918823D1F090E0880F991FFC01E258A8
:1001E000FF4FA591B491FC01E857FF4FC591D49101
:1001F00061110EC09FB7F8948C91E22FE0958E2389
:100200008C932881E223E8839FBFDF91CF910895EB
:100210008FB7F894EC91E22BEC938FBFF6CF3FB7FA
:10022000F8948091D7019091D801A091D901B09113
:10023000DA0126B5A89B05C02F3F19F00196A11D34
:10024000B11D3FBFBA2FA92F982F8827BC01CD0120
:10025000620F711D811D911D42E0660F771F881F7F
:10026000991F4A95D1F708950895AF92BF92CF9202
:10027000DF92EF92FF920F931F93CF93DF936C0166
:100280007B018B01040F151FEB015E01AE18BF0847
:10029000C017D10759F06991D601ED91FC910190F9
:1002A000F081E02DC6010995892B79F7C501DF9111
:1002B000CF911F910F91FF90EF90DF90CF90BF9063
:1002C000AF900895FC01538D448D252F30E0842F8D
:1002D00090E0821B930B541710F0CF96089501976E
:1002E0000895FC01918D828D981761F0A28DAE0F5B
:1002F000BF2FB11D5D968C91928D9F5F9F73928FE2
:1003000090E008958FEF9FEF08952FB7F8948091B4
:10031000DB019091DC01A091DD01B091DE012FBFE6
:100320008093E7019093E801A093E901B093EA017B
:100330008FED91E00E94710197FF26C02FB7F894CE
:100340008091DB019091DC01A091DD01B091DE0193
:100350002FBF4091E7015091E8016091E901709150
:10036000EA01841B950BA60BB70B4091E30150915A
:10037000E4016091E5017091E60184179507A607F5
:10038000B707B0F28FEF9FEF0895FC01918D828D3A
:10039000981731F0828DE80FF11D858D90E008955A
:1003A0008FEF9FEF0895FC01918D228D892F90E0B2
:1003B000805C9F4F821B91098F73992708958FED61
:1003C00091E00E94D30121E0892B09F420E0822FE3
:1003D000089580E090E0892B29F00E94DF018111CF
:1003E0000C9400000895FC01A48DA80FB92FB11D35
:1003F000A35ABF4F2C91848D90E001968F7399275B
:10040000848FA689B7892C93A089B1898C91837038
:1004100080648C93938D848D981306C00288F38931
:10042000E02D80818F7D80830895EF92FF920F935E
:100430001F93CF93DF93EC0181E0888F9B8D8C8D90
:1004400098131AC0E889F989808185FF15C09FB784
:10045000F894EE89FF896083E889F9898081837047
:10046000806480839FBF81E090E0DF91CF911F91F6
:100470000F91FF90EF900895F62E0B8D10E00F5F17
:100480001F4F0F731127E02E8C8D8E110CC00FB6ED
:1004900007FCFACFE889F989808185FFF5CFCE0185
:1004A0000E94F301F1CFEB8DEC0FFD2FF11DE35A0C
:1004B000FF4FF0829FB7F8940B8FEA89FB89808108
:1004C0008062CFCFCF93DF93EC01888D8823B9F082
:1004D000AA89BB89E889F9898C9185FD03C080814F
:1004E00086FD0DC00FB607FCF7CF8C9185FFF2CFCC
:1004F000808185FFEDCFCE010E94F301E9CFDF912E
:10050000CF910895CF93DF93EC018A819B8197FD72
:1005100003C061E00E94DE008C819D8197FD03C0D5
:1005200061E00E94DE008E819F8197FD03C061E043
:100530000E94DE008885998597FD03C061E00E94D6
:10054000DE008A859B8597FD03C061E00E94DE0086
:100550008C859D8597FD05C060E0DF91CF910C945F
:10056000DE00DF91CF9108952FB7F8948091DB01E1
:100570009091DC01A091DD01B091DE012FBF80934D
:10058000D2019093D301A093D401B093D5010895E3
:10059000FF920F931F93CF93DF93EC018A819B818E
:1005A00097FD07C061E02981211101C060E00E9430
:1005B00092008C819D8197FD06C061E02981211107
:1005C00060E00E9492008A859B8597FD03C060E0F1
:1005D0000E9492008885998597FD03C061E00E9482
:1005E00092000E811F8117FD3BC0F880CF2DD0E017
:1005F00061E0802F0E94DE00209749F460E0802FA8
:10060000DF91CF911F910F91FF900C949200CF3FFB
:10061000D10511F461E0F3CFF801FF27E654FF4F55
:10062000E491E33041F140F4E130B1F0E230F1F037
:10063000C038D1057CF7E2CFE73039F1E83069F115
:10064000E430B1F780918000806280938000D09385
:100650008B00C0938A0004C084B5806884BDF7BC59
:10066000DF91CF911F910F91FF90089584B5806223
:1006700084BDF8BCF5CF80918000806880938000B5
:10068000D0938900C0938800EBCF8091B000806840
:100690008093B000F092B300E3CF8091B00080620D
:1006A0008093B000F092B400DBCFCF93DF93FC01D6
:1006B000248135816217730788F49B01C081D18141
:1006C00060E270E0CE01820F931F0E94250F009719
:1006D00029F08C1B9D0BDF91CF9108958FEF9FEF39
:1006E000FACFFC0180819181009711F00C94C60D26
:1006F00008950F931F93CF93DF93EC0118828A859F
:100700009B8597FD03C061E00E9492000E811F81CE
:1007100017FD08C061E0802F0E94DE0060E0802F9E
:100720000E9492008885998597FD07C060E0DF915F
:10073000CF911F910F910C949200DF91CF911F9157
:100740000F91089583E191E00E94790381E091E0A7
:100750000C947903FC0180819181009711F00C9435
:10076000680C60E070E0CB010895EF92FF920F9368
:100770001F93CF93DF93CDB7DEB7C854D1090FB61F
:10078000F894DEBF0FBECDBF7B018A019AEA2696A0
:100790009FAF269727968FAF279728964FAF28971A
:1007A00029961FAE299744E050E0BE016B5B7F4F56
:1007B0008FED91E00E943501A801B7018FED91E026
:1007C0000E94350129968CAD9DADAEADBFAD299788
:1007D00089839A83AB83BC83A801B701CE010596B8
:1007E0000E941C0F0C5F1F4FAE014F5F5F4FFA015D
:1007F00060E07CE88191682728E030E0862F90E077
:100800009595879560FF1DC0682F67272150310996
:10081000A9F7CF01841B950B801791075CF38FED2F
:1008200091E00E941502C85BDF4F0FB6F894DEBF5F
:100830000FBECDBFDF91CF911F910F91FF90EF9031
:100840000895682FE3CFCF93DF93CDB7DEB72C9712
:100850000FB6F894DEBF0FBECDBF80911501909109
:10086000160197FF02C08FEF90E0898380911701F6
:100870009091180197FF02C08FEF90E08A838091DA
:10088000190190911A0197FF02C08FEF90E08B83BE
:1008900080911B0190911C0197FF02C08FEF90E0A7
:1008A0008C8380911D0190911E0197FF02C08FEFF4
:1008B00090E08D8380911F019091200197FF02C0ED
:1008C0008FEF90E08E83809103019091040197FF58
:1008D00002C08FEF90E08F83809105019091060117
:1008E00097FF02C08FEF90E0888780910701909179
:1008F000080197FF02C08FEF90E08987809109017E
:1009000090910A0197FF02C08FEF90E08A87809153
:100910000B0190910C0197FF02C08FEF90E08B8745
:1009200080910D0190910E0197FF02C08FEF90E032
:100930008C874CE050E0BE016F5F7F4F81E20E94E8
:10094000B5032C960FB6F894DEBF0FBECDBFDF9176
:10095000CF910895FF920F931F93CF93DF9300D011
:1009600000D000D01F92CDB7DEB7F82E8B01FB016F
:100970002485358560E070E0CB0137FD1CC0822FF7
:100980002E3010F082EF820F8770806480937C009D
:1009900080917A00806480937A0080917A0086FD4D
:1009A000FCCF6091780070917900072E000C880BC5
:1009B000990B0E94AF0CF982F80120812A832181D2
:1009C0002B836C837D838E839F8347E050E0BE0141
:1009D0006F5F7F4F80E20E94B50327960FB6F894B1
:1009E000DEBF0FBECDBFDF91CF911F910F91FF9062
:1009F0000895AF92BF92CF92DF92EF92FF920F9342
:100A00001F93CF93DF93DC01CD90DC901197C1143D
:100A1000D10439F01496CD91DC918C0176012097A8
:100A200061F4DF91CF911F910F91FF90EF90DF90D4
:100A3000CF90BF90AF90089575015701BFEFAB1AEB
:100A4000BB0AF7018081082E000C990B0E94A40CB0
:100A5000892B91F72197CC0DDD1D8881082E000C84
:100A6000990B0E94A40C892B29F0CE15DF0510F0FC
:100A70002197F3CFAE014F5F5F4F4E195F09D80149
:100A800015965C934E931497CE14DF0420F4B701AF
:100A9000C6010E941C0FD801ED91FC91119714968C
:100AA0008D919C91E80FF91F1082BBCFCF93DF93FC
:100AB000DC0114962D913C911597232B79F0FB01C5
:100AC000CD91DC9160817181CE010E944E0F009723
:100AD00029F08C1B9D0BDF91CF9108958FEF9FEF35
:100AE000FACFFB0144815581FC0124813581241713
:100AF000350778F080819181009759F0FB01608182
:100B000071816115710529F00E94400F21E0892B48
:100B100009F020E0822F0895FC0124813581232BE8
:100B200039F421E0FB018081882349F020E007C0EF
:100B3000808191810E94300F21E0892BB9F7822FAB
:100B40000895CF93DF93EC0169E371E00E948C0577
:100B500081111AC06BE371E0CE010E948C058111F6
:100B600013C06DE371E0CE010E948C0581110FC0AE
:100B70006FE371E0CE010E948C05811108C090E006
:100B800080E0DF91CF91089583E191E0FACF81E099
:100B900091E0F7CF0F931F93CF93DF93EC01888100
:100BA0009981009759F02A813B812617370730F049
:100BB00081E0DF91CF911F910F9108958B016F5FBD
:100BC0007F4F0E944F0E009759F0998388831B83B3
:100BD0000A832C813D81232B59F7FC011082E8CF39
:100BE00080E0E7CFEF92FF920F931F93CF93DF93B5
:100BF000EC017B018A01BA010E94CA052881398172
:100C0000811114C02115310519F0C9010E94C60DCA
:100C1000198218821D821C821B821A82CE01DF91EA
:100C2000CF911F910F91FF90EF9008951D830C833A
:100C3000B701C9010E94390FF1CFFC011182108266
:100C40001382128215821482FB0101900020E9F7C1
:100C50003197AF01461B570B0C94F205AF92BF9230
:100C6000CF92DF92EF92FF920F931F93CF93DF9378
:100C7000EC016B015A0179012417350720F48B2D03
:100C80005901E42EF82E61ED71E0CE010E941D069F
:100C9000D60114960D911C91A016B10628F5E01608
:100CA000F10608F48701D601ED91FC911197E00F50
:100CB000F11FF08010826D917C916A0D7B1D611592
:100CC0007105F1F0FB0101900020E9F73197AF01C8
:100CD000461B570BCE010E94F205F60180819181DF
:100CE000080F191FD801FC92CE01DF91CF911F91FF
:100CF0000F91FF90EF90DF90CF90BF90AF9008954D
:100D000088819981009711F00E94C60D198218827E
:100D10001D821C821B821A82E0CFCF93DF93EC01ED
:100D2000FB01248135810E942E06CE01DF91CF91F7
:100D300008951F920F920FB60F9211242F933F9395
:100D40008F939F93AF93BF938091DB019091DC01D0
:100D5000A091DD01B091DE013091D60123E0230F97
:100D60002D3758F50196A11DB11D2093D601809312
:100D7000DB019093DC01A093DD01B093DE01809153
:100D8000D7019091D801A091D901B091DA010196D3
:100D9000A11DB11D8093D7019093D801A093D901D3
:100DA000B093DA01BF91AF919F918F913F912F91B5
:100DB0000F900FBE0F901F90189526E8230F0296F4
:100DC000A11DB11DD2CF1F920F920FB60F92112409
:100DD0002F933F934F935F936F937F938F939F9343
:100DE000AF93BF93EF93FF938FED91E00E94F301D8
:100DF000FF91EF91BF91AF919F918F917F916F91F3
:100E00005F914F913F912F910F900FBE0F901F90C8
:100E100018951F920F920FB60F9211242F938F9354
:100E20009F93EF93FF93E091EF01F091F0018081A8
:100E3000E091F501F091F60182FD1BC09081809157
:100E4000F8018F5F8F732091F901821741F0E091D3
:100E5000F801F0E0E152FE4F958F8093F801FF9189
:100E6000EF919F918F912F910F900FBE0F901F9038
:100E700018958081F4CFCF93DF93CDB7DEB7A497D9
:100E80000FB6F894DEBF0FBECDBF789484B58260F4
:100E900084BD84B5816084BD85B5826085BD85B51E
:100EA000816085BD80916E00816080936E0010929C
:100EB0008100809181008260809381008091810017
:100EC00081608093810080918000816080938000A8
:100ED0008091B10084608093B1008091B000816006
:100EE0008093B00080917A00846080937A00809132
:100EF0007A00826080937A0080917A00816080938A
:100F00007A0080917A00806880937A001092C10004
:100F1000E091EF01F091F00182E08083E091EF0138
:100F2000F091F0011082E091EB01F091EC01108260
:100F3000E091ED01F091EE0180E180831092F701E4
:100F4000E091F301F091F40186E08083E091F101FA
:100F5000F091F201808180618083E091F101F09154
:100F6000F201808188608083E091F101F091F201CB
:100F7000808180688083E091F101F091F2018081AD
:100F80008F7D808383E191E00E94820281E091E085
:100F90000E9482020E94A2030E94B40277247394EA
:100FA00040E0A42E40E0B42E8FED91E00E94D301EA
:100FB000181619060CF045C061ED71E0CE014F9690
:100FC0000E941D060E94850197FD1EC08A30910572
:100FD000D9F089831A820BA11CA10F5F1F4FB801A2
:100FE000CE014F960E94CA05882361F32F8D38A148
:100FF0008BA19CA1BE016F5F7F4F820F931F0E9448
:10100000390F1CA30BA3DECFCE014F960E94F9042B
:101010000E94B40261E471E0CE014F960E948C05FB
:10102000811109C067E471E0CE014F960E948C05E2
:10103000882309F47EC00E94A203CE014F960E942D
:10104000710380910F0190911001A0911101B09155
:101050001201892B8A2B8B2B71F180911301811145
:1010600004C080910101882331F12FB7F894809159
:10107000DB019091DC01A091DD01B091DE012FBF79
:101080004091D2015091D3016091D4017091D5016A
:10109000841B950BA60BB70B40910F0150911001CB
:1010A0006091110170911201481759076A077B0777
:1010B00010F40E94A20380910001882351F063E1A3
:1010C00071E080E00E94AA0461E071E081E00E948A
:1010D000AA040E940F011B012C0184E6C82ED12C0A
:1010E000E12CF12C0E940F01621973098409950902
:1010F000683E734081059105A8F3F1E0CF1AD1084D
:10110000E108F10828EE220E23E0321E411C511C9A
:10111000C114D104E104F10429F7A114B10409F4C4
:1011200043CF0E94DF01882309F438CF0E940000DA
:1011300035CF6CE471E0CE0101960E941D06BE0120
:101140006F5F7F4FCE014F960E94710510E088239C
:10115000B1F063E571E0CE0107960E941D06BE0165
:10116000695F7F4FCE014F960E94560511E0181619
:1011700019060CF010E0CE0107960E947103CE0113
:1011800001960E947103112309F451C066E070E0DA
:10119000CE014F960E945503181619060CF04DCF3C
:1011A0009C0146E050E0BE01615E7F4FCE01079694
:1011B0000E942E06CE0107960E94A1057C0164E5DF
:1011C00071E0CE0101960E941D06BE016F5F7F4F48
:1011D000CE014F960E9456058C01CE0101960E94C9
:1011E0007103E114F104F1F010161106DCF4A8010A
:1011F0004D5F5F4FBE01615E7F4FCE0101960E9441
:101200008D06CE0101960E94AA0381E0611101C002
:1012100080E0F7018183CE0101960E947103C7012E
:101220000E94C802CE0107960E94710306CF6CE4AB
:1012300071E0CE0101960E941D06BE016F5F7F4FD7
:10124000CE014F960E947105182FCE0101960E9483
:1012500071031123E9F166E070E0CE014F960E9420
:1012600055037C01181619060CF0E7CE9C0146E0E8
:1012700050E0BE01615E7F4FCE0107960E942E06B0
:10128000CE0107960E94A1058C01892B59F2A70176
:101290004F5F5F4FBE01615E7F4FCE0101960E949E
:1012A0008D06CE0101960E94AA036B01CE01019624
:1012B0000E947103FFEFCF16D10421F01CF0CC2463
:1012C000CA94D12CD7FCC12CF801C082C801A8CF88
:1012D00068E571E0CE0101960E941D06BE016F5FB8
:1012E0007F4FCE014F960E947105182FCE010196B7
:1012F0000E947103112309F4FEC148E050E0BE01D1
:10130000615E7F4FCE0149960E948D06CE014996BF
:101310000E94F90470E060E0CE0149960E945503F6
:101320007C01181619060CF063C19C0150E040E0E6
:10133000BE01675E7F4FCE0107960E942E0669E3CD
:1013400071E0CE0107960E948C0581111AC06DE3F1
:1013500071E0CE0107960E948C05811112C06BE3EB
:1013600071E0CE0107960E948C0581110AC06FE3DF
:1013700071E0CE0107960E948C0503E111E08823FD
:10138000C9F1CE0107960E94A1058C01A7014F5F0C
:101390005F4FBE01675E7F4FCE0101960E948D06B2
:1013A000898D9A8D009709F4ADC069817A816115A4
:1013B000710509F4A5C04B8D5C8D2D813E814217CE
:1013C000530708F49DC00E94390F8D819E819E8F26
:1013D0008D8F1E821D82CE0101960E947103CE0167
:1013E00049960E94F90470E060E0CE0149960E949F
:1013F00055037C01CE0107960E947103011511056A
:1014000009F4F6C01E141F040CF0F2C0970150E05E
:1014100040E0BE01675E7F4FCE0143960E942E06DC
:10142000A7014F5F5F4FBE01675E7F4FCE010D96F4
:101430000E948D0661E671E0CE0101960E941D06B4
:1014400089899A892D813E8182179307F1F4892B2E
:1014500009F469C0CD84DE84E980FA80F6018191C7
:101460006F01882309F45FC0082E000C990B0E94BD
:101470000C0F4C01F70181917F01082E000C990B94
:101480000E940C0F8816990649F366E671E0CE01BA
:101490000D960E948C05FF24F394811101C0F12C5C
:1014A000CE0101960E947103CC24CA94DC2CF11069
:1014B00075C018861F821A8619861C861B866D8544
:1014C0007E856115710531F049895A89CE010796EB
:1014D0000E94F205CE0107960E94F904CF80D884BD
:1014E000C114D10419F1F60180818823F9F0082E86
:1014F000000C990B0E94140FF60181936F01F3CF3A
:101500000E94C60D89819A819A8F898F8B819C81D7
:101510009C8F8B8F8D819E819E8F8D8F1A821982D9
:101520001C821B8256CFFF24F394BACF69E371E08B
:10153000CE0101960E941D06BE016F5F7F4FCE0156
:1015400007960E947105882339F0FF24F3948B8558
:101550009C85029708F4F12CCE0101960E9471033C
:10156000FF2009F448C041E050E0BE01695F7F4FB1
:10157000CE0101960E948D06CE0101960E94AA031B
:101580006B01CE0101960E947103FEE0CF0ED11CCB
:10159000CE0107960E947103D7FC22C06AE671E073
:1015A000CE0143960E948C05F82E60E771E0CE01D3
:1015B00043960E948C05882309F466C0F801D38203
:1015C000C282FFEFCF16DF0631F061E0F11060E07C
:1015D0008C2D0E94DE00C8010E94C8020E942304D4
:1015E000CE010D960E947103CE0143960E947103B5
:1015F000CE01499619CE68E671E0CE0101960E94AF
:101600001D06BE016F5F7F4FCE0107960E947105D8
:10161000882339F0FF24F3948B859C85029708F486
:10162000F12CCE0101960E947103FF2099F041E058
:1016300050E0BE01695F7F4FCE0101960E948D068A
:10164000CE0101960E94AA036B01CE0101960E9471
:1016500071039ECF8B859C85892B91F0EF81F88556
:1016600080E0309709F08081082E000C990BC0971C
:101670000A9730F4CE0107960E94AA036B0188CF27
:10168000CC24CA94DC2C84CF64E771E0CE0143966D
:101690000E948C05882321F0F801D582C48291CF65
:1016A00069E771E0CE0143960E948C05882321F002
:1016B000F801D782C68285CF6DE771E0CE014396EF
:1016C0000E948C05882321F0F801D186C08679CF4D
:1016D00064E871E0CE0143960E948C05882321F0D6
:1016E000F801D386C2866DCFFF2009F46ACFF801D6
:1016F000D586C48666CF6AE871E0CE0101960E9465
:101700001D06BE016F5F7F4FCE014F960E9471058F
:10171000182FCE0101960E947103112319F149E09F
:1017200050E0BE01615E7F4FCE0101960E948D06A2
:10173000CE0101960E94AA037B018C01CE01019685
:101740000E947103C701D801B7FF03C080E090E099
:10175000DC0180930F0190931001A0931101B093CD
:1017600012016BCC64E971E0CE014F960E948C05AA
:10177000882319F00E94230460CC6DE971E0CE014A
:101780004F960E948C0581111BC062EA71E0CE0168
:101790004F960E948C05811113C06DEA71E0CE0155
:1017A0004F960E948C0581111FC06BEB71E0CE013A
:1017B0004F960E948C058823D1F0109200013DCCF9
:1017C000798241E050E0BE016F5F7F4F8FE70E945A
:1017D000B50363E171E080E00E94AA0461E071E07A
:1017E00081E00E94AA0429CC7092000126CC68EC0A
:1017F00071E0CE0101960E941D06BE016F5F7F4F12
:10180000CE014F960E947105182FCE0101960E94BD
:101810007103112309F411CC46E050E0BE01615E72
:101820007F4FCE0101960E948D06CE0101960E9447
:10183000AA036B01CE0101960E94710308E610E035
:1018400022E0C216D10414F003E710E0F80164911D
:10185000662341F08FED91E00E9415020F5F1F4F4C
:10186000892BA1F742E050E06FEC71E08FED91E041
:101870000E943501E2CBEFEDF1E01382128288EE97
:1018800093E0A0E0B0E084839583A683B7838BE2E6
:1018900091E09183808385EC90E09587848784EC48
:1018A00090E09787868780EC90E0918B808B81EC2D
:1018B00090E0938B828B82EC90E0958B848B86EC0E
:1018C00090E0978B868B118E128E138E148E089556
:1018D0001F93FC0199278827BC01E89411911032CD
:1018E000E9F3193010F01E30C8F31B3251F01D32ED
:1018F00049F4689406C00E948F0C610F711D811D10
:10190000911D119110531A30B0F33EF490958095CB
:10191000709561957F4F8F4F9F4F1F910895592F5D
:10192000482F372F262F660F771F881F991F660FA6
:10193000771F881F991F620F731F841F951F660FE3
:10194000771F881F991F089591110C94EA0C80321B
:1019500019F089508550C8F70895E89409C097FB9D
:101960003EF490958095709561957F4F8F4F9F4F76
:101970009923A9F0F92F96E9BB279395F6958795BA
:1019800077956795B795F111F8CFFAF4BB0F11F47D
:1019900060FF1BC06F5F7F4F8F4F9F4F16C0882324
:1019A00011F096E911C0772321F09EE8872F762F5A
:1019B00005C0662371F096E8862F70E060E02AF09B
:1019C0009A95660F771F881FDAF7880F9695879587
:1019D00097F908959927882708952F923F924F925B
:1019E0005F926F927F928F929F92AF92BF92CF92AF
:1019F000DF92EF92FF920F931F93CF93DF93CDB7B8
:101A0000DEB7CA1BDB0B0FB6F894DEBF0FBECDBF2F
:101A100009942A88398848885F846E847D848C8400
:101A20009B84AA84B984C884DF80EE80FD800C8109
:101A30001B81AA81B981CE0FD11D0FB6F894DEBFEC
:101A40000FBECDBFED010895EE0FFF1F0590F4917D
:101A5000E02D09940F931F93CF93DF93823091056C
:101A600010F482E090E0E0917E02F0917F0230E09D
:101A700020E0B0E0A0E0309799F42115310509F499
:101A80004AC0281B390B24303105D8F58A819B8147
:101A90006115710589F1FB0193838283FE0111C0F9
:101AA000408151810281138148175907E0F048179E
:101AB000590799F4109761F012960C9312971396A8
:101AC0001C933296CF01DF91CF911F910F91089512
:101AD00000937E0210937F02F4CF2115310551F05F
:101AE0004217530738F0A901DB019A01BD01DF015C
:101AF000F801C1CFEF01F9CF90937F0280937E026E
:101B0000CDCFFE01E20FF31F819391932250310953
:101B100039832883D7CF20917C0230917D02232BFB
:101B200041F4209123013091240130937D022093D0
:101B30007C0220912101309122012115310541F4CF
:101B40002DB73EB74091250150912601241B350B3E
:101B5000E0917C02F0917D02E217F307A0F42E1BC6
:101B60003F0B2817390778F0AC014E5F5F4F241701
:101B7000350748F04E0F5F1F50937D0240937C0263
:101B8000819391939FCFF0E0E0E09CCFCF93DF93E0
:101B90000097E9F0FC01329713821282A0917E0235
:101BA000B0917F02ED0130E020E01097A1F4208198
:101BB0003181820F931F20917C0230917D02281782
:101BC000390709F061C0F0937D02E0937C02DF9158
:101BD000CF910895EA01CE17DF07E8F54A815B81CE
:101BE0009E0141155105B1F7E901FB83EA83499153
:101BF0005991C40FD51FEC17FD0761F480819181C5
:101C00000296840F951FE9019983888382819381CD
:101C10009B838A83F0E0E0E012968D919C9113976C
:101C20000097B9F52D913C911197CD010296820F45
:101C3000931F20917C0230917D022817390739F6D5
:101C4000309751F510927F0210927E02B0937D0280
:101C5000A0937C02BCCFD383C28340815181840F87
:101C6000951FC817D90761F44E5F5F4F888199812E
:101C7000480F591F518340838A819B8193838283BC
:101C80002115310509F0B0CFF0937F02E0937E0279
:101C90009ECFFD01DC01C0CF13821282D7CFB0E00E
:101CA000A0E0E5E5FEE00C94EF0C8C01009751F408
:101CB000CB010E942A0D8C01C801CDB7DEB7E0E14F
:101CC0000C940B0DFC01E60FF71F9C01225031090B
:101CD000E217F30708F49DC0D901CD91DC9111976B
:101CE000C617D70798F0C530D10530F3CE01049759
:101CF0008617970708F3C61BD70B2297C193D1937A
:101D00006D937C93CF010E94C60DD6CF5B01AC1AB8
:101D1000BD0A4C018C0E9D1EA0917E02B0917F02E7
:101D2000512C412CF12CE12C109731F580917C0243
:101D300090917D028815990509F05CC046165706FA
:101D400008F058C08091210190912201009741F440
:101D50008DB79EB74091250150912601841B950BAC
:101D6000E817F90708F055C0F0937D02E0937C0274
:101D7000F90171836083A0CF8D919C911197129688
:101D80006C90129713967C901397A815B90559F586
:101D90006C0142E0C40ED11CCA14DB0420F1AC017A
:101DA0004A195B09DA011296159780F062827382F4
:101DB00051834083D9016D937C93E114F10471F058
:101DC000D7011396FC93EE93129776CF22968C0F41
:101DD0009D1FF90191838083F301EFCFF0937F0280
:101DE000E0937E0269CF4816590608F42C017D0164
:101DF000D3019ACFCB010E942A0D7C01009749F0B4
:101E0000AE01B8010E941C0FC8010E94C60D8701D7
:101E100053CF10E000E050CF9111089581548A51C2
:101E200008F4805E855A08959111089581568A516B
:101E300008F4805285580895FB01DC0102C001902E
:101E40000D9241505040D8F70895FC0181918617BA
:101E500021F08823D9F7992708953197CF01089564
:101E6000FB01DC018D91019080190110D9F3990BD0
:101E70000895FB01DC0101900D920020E1F7089527
:101E8000FB01DC014150504030F08D9101908019F0
:101E900019F40020B9F7881B990B0895FB015191A3
:101EA0005523A9F0BF01DC014D9145174111E1F720
:101EB00059F4CD010190002049F04D914015411198
:101EC000C9F3FB014111EFCF81E090E00197089544
:041ED000F894FFCFB4
:101ED4000100010D00FFFF0B00FFFF08000F00D001
:101EE40007000000010C00FFFF0300FFFF09000EC4
:101EF400000000800280000000000015023501622D
:101F0400016202D3017101C5014100610042006216
:101F1400004D4F544F522053544F50004D4F544F87
:101F240052200020444952005345542050494E2029
:101F3400004E4F4E45002D00440073656E736500DE
:101F440064697200646972320070776D00656E6155
:101F5400626C65006272616B65005741544348448A
:101F64004F4720004745542050494E530050494E96
:101F7400470047455420535441545553005354414A
:101F840052542052454144494E470053544F502027
:101F940052454144494E470050524F544F20000D82
:021FA4000A0031
:00000001FF
