:100000000C9468000C9490000C9490000C94900058
:100010000C9490000C9490000C9490000C94900020
:100020000C9490000C9490000C9490000C94900010
:100030000C9490000C9490000C9490000C94900000
:100040000C94E6050C9490000C9456060C94300623
:100050000C9490000C9490000C9490000C949000E0
:100060000C9490000C94900050524F544F204F4BE2
:1000700020310050524F544F204F4B20320000008F
:100080000000240027002A000000000025002800AE
:100090002B00040404040404040402020202020209
:1000A000030303030303010204081020408001023C
:1000B00004081020010204081020000000080002BB
:1000C0000100000304070000000000000000280BEE
:1000D00011241FBECFEFD8E0DEBFCDBF22E0A8EBDA
:1000E000B1E001C01D92A636B207E1F711E0A0E031
:1000F000B1E0EEE9FCE102C005900D92A83BB1072A
:10010000D9F710E0C8E6D0E004C02197FE010E94B4
:10011000110CC736D107C9F70E9488060C944D0E02
:100120000C94000090E0FC01E654FF4F2491FC0188
:10013000EA55FF4F3491FC01EE56FF4FE491EE2358
:10014000C9F0222339F0233001F1A8F4213019F14C
:10015000223029F1F0E0EE0FFF1FE857FF4FA59185
:10016000B4918FB7F894EC91611126C030953E237D
:100170003C938FBF08952730A9F02830C9F0243070
:1001800049F7809180008F7D03C0809180008F7738
:1001900080938000DFCF84B58F7784BDDBCF84B5BB
:1001A0008F7DFBCF8091B0008F778093B000D2CF4E
:1001B0008091B0008F7DF9CF3E2BDACFCF93DF93C4
:1001C00090E0FC01EA55FF4F24918E569F4FFC01B1
:1001D00084918823D1F090E0880F991FFC01E258A8
:1001E000FF4FA591B491FC01E857FF4FC591D49101
:1001F00061110EC09FB7F8948C91E22FE0958E2389
:100200008C932881E223E8839FBFDF91CF910895EB
:100210008FB7F894EC91E22BEC938FBFF6CF3FB7FA
:10022000F8948091BD019091BE01A091BF01B09161
:10023000C00126B5A89B05C02F3F19F00196A11D4E
:10024000B11D3FBFBA2FA92F982F8827BC01CD0120
:10025000620F711D811D911D42E0660F771F881F7F
:10026000991F4A95D1F708950895AF92BF92CF9202
:10027000DF92EF92FF920F931F93CF93DF936C0166
:100280007B018B01040F151FEB015E01AE18BF0847
:10029000C017D10759F06991D601ED91FC910190F9
:1002A000F081E02DC6010995892B79F7C501DF9111
:1002B000CF911F910F91FF90EF90DF90CF90BF9063
:1002C000AF900895FC01538D448D252F30E0842F8D
:1002D00090E0821B930B541710F0CF96089501976E
:1002E0000895FC01918D828D981761F0A28DAE0F5B
:1002F000BF2FB11D5D968C91928D9F5F9F73928FE2
:1003000090E008958FEF9FEF08952FB7F8948091B4
:10031000C1019091C201A091C301B091C4012FBF4E
:100320008093CD019093CE01A093CF01B093D001E3
:1003300085EC91E00E94710197FF26C02FB7F894D9
:100340008091C1019091C201A091C301B091C401FB
:100350002FBF4091CD015091CE016091CF0170919E
:10036000D001841B950BA60BB70B4091C90150918E
:10037000CA016091CB017091CC0184179507A60743
:10038000B707B0F28FEF9FEF0895FC01918D828D3A
:10039000981731F0828DE80FF11D858D90E008955A
:1003A0008FEF9FEF0895FC01918D228D892F90E0B2
:1003B000805C9F4F821B91098F739927089585EC6C
:1003C00091E00E94D30121E0892B09F420E0822FE3
:1003D000089580E090E0892B29F00E94DF018111CF
:1003E0000C9400000895FC01A48DA80FB92FB11D35
:1003F000A35ABF4F2C91848D90E001968F7399275B
:10040000848FA689B7892C93A089B1898C91837038
:1004100080648C93938D848D981306C00288F38931
:10042000E02D80818F7D80830895EF92FF920F935E
:100430001F93CF93DF93EC0181E0888F9B8D8C8D90
:1004400098131AC0E889F989808185FF15C09FB784
:10045000F894EE89FF896083E889F9898081837047
:10046000806480839FBF81E090E0DF91CF911F91F6
:100470000F91FF90EF900895F62E0B8D10E00F5F17
:100480001F4F0F731127E02E8C8D8E110CC00FB6ED
:1004900007FCFACFE889F989808185FFF5CFCE0185
:1004A0000E94F301F1CFEB8DEC0FFD2FF11DE35A0C
:1004B000FF4FF0829FB7F8940B8FEA89FB89808108
:1004C0008062CFCFCF93DF93EC01888D8823B9F082
:1004D000AA89BB89E889F9898C9185FD03C080814F
:1004E00086FD0DC00FB607FCF7CF8C9185FFF2CFCC
:1004F000808185FFEDCFCE010E94F301E9CFDF912E
:10050000CF910895CF93DF93EC0161E08A810E943F
:10051000DE0061E08C810E94DE0061E08E810E943D
:10052000DE0060E08885DF91CF910C94DE002FB76C
:10053000F8948091C1019091C201A091C301B09142
:10054000C4012FBF8093B8019093B901A093BA0161
:10055000B093BB010895FF920F931F93CF93DF9346
:10056000EC0161E08981811101C060E08A810E9413
:10057000920060E08E810E949200F8800F2D10E0C2
:100580000C80DD81C02D61E08C2F0E94DE00011502
:10059000110549F460E08C2FDF91CF911F910F91ED
:1005A000FF900C9492000F3F110511F461E0F3CF1E
:1005B000FE01FF27E654FF4FE491E33041F140F4A0
:1005C000E130B1F0E230F1F0003811057CF7E2CF14
:1005D000E73039F1E83069F1E430B1F7809180001B
:1005E00080628093800010938B0000938A0004C087
:1005F00084B5806884BDF7BCDF91CF911F910F91C6
:10060000FF90089584B5806284BDF8BCF5CF8091D9
:100610008000806880938000109389000093880098
:10062000EBCF8091B00080688093B000F092B3006F
:10063000E3CF8091B00080628093B000F092B4006C
:10064000DBCFCF93DF93FC012481358162177307E1
:1006500088F49B01C081D18160E270E0CE01820FFD
:10066000931F0E940A0E009729F08C1B9D0BDF91AF
:10067000CF9108958FEF9FEFFACFFC018081918198
:10068000009711F00C94B30C0895CF93DF93EC0115
:10069000188261E08E810E949200CC8161E08C2FF3
:1006A0000E94DE0060E08C2FDF91CF910C949200CD
:1006B0008FE091E00E94450381E091E00C944503B6
:1006C000FC0180819181009711F00C94550B60E042
:1006D00070E0CB010895EF92FF920F931F93CF9399
:1006E000DF93CDB7DEB7C854D1090FB6F894DEBF9B
:1006F0000FBECDBF7B018A019AEA26969FAF26974F
:1007000027968FAF279728964FAF289729961FAE29
:10071000299744E050E0BE016B5B7F4F85EC91E090
:100720000E943501A801B70185EC91E00E943501D6
:1007300029968CAD9DADAEADBFAD299789839A83C7
:10074000AB83BC83A801B701CE0105960E94010EC0
:100750000C5F1F4FAE014F5F5F4FFA0160E07CE816
:100760008191682728E030E0862F90E09595879565
:1007700060FF1DC0682F672721503109A9F7CF01FD
:10078000841B950B801791075CF385EC91E00E9428
:100790001502C85BDF4F0FB6F894DEBF0FBECDBFAA
:1007A000DF91CF911F910F91FF90EF900895682FE7
:1007B000E3CFCF93DF93CDB7DEB728970FB6F8948A
:1007C000DEBF0FBECDBFEFE0F1E08281898384817F
:1007D0008A8386818B8380858C83E1E0F1E082814E
:1007E0008D8384818E8386818F838085888748E08E
:1007F00050E0BE016F5F7F4F81E20E946B0328963D
:100800000FB6F894DEBF0FBECDBFDF91CF91089534
:10081000CF93DF9300D000D000D01F92CDB7DEB7CA
:10082000FB0190859E3008F09E50977090649093E5
:100830007C0090917A00906490937A0090917A0075
:1008400096FDFCCF6091780070917900898380815A
:100850008A8381818B83072E000C880B990B0E9461
:100860009C0B6C837D838E839F8347E050E0BE01A9
:100870006F5F7F4F80E20E946B0327960FB6F8945C
:10088000DEBF0FBECDBFDF91CF910895AF92BF9273
:10089000CF92DF92EF92FF920F931F93CF93DF934C
:1008A000DC01CD90DC901197C114D10439F014967D
:1008B000CD91DC918C017601209761F4DF91CF918D
:1008C0001F910F91FF90EF90DF90CF90BF90AF906E
:1008D000089575015701BFEFAB1ABB0AF70180817C
:1008E000082E000C990B0E94910B892B91F72197F0
:1008F000CC0DDD1D8881082E000C990B0E94910BF8
:10090000892B29F0CE15DF0510F02197F3CFAE012A
:100910004F5F5F4F4E195F09D80115965C934E9358
:100920001497CE14DF0420F4B701C6010E94010E13
:10093000D801ED91FC91119714968D919C91E80F3F
:10094000F91F1082BBCFCF93DF93DC0114962D915A
:100950003C911597232B79F0FB01CD91DC916081BF
:100960007181CE010E94330E009729F08C1B9D0BE4
:10097000DF91CF9108958FEF9FEFFACFFB01448174
:100980005581FC01248135812417350778F0808159
:100990009181009759F0FB016081718161157105AA
:1009A00029F00E94250E21E0892B09F020E0822FFA
:1009B0000895FC0124813581232B39F421E0FB01CA
:1009C0008081882349F020E007C0808191810E94C6
:1009D000150E21E0892BB9F7822F0895CF93DF936D
:1009E000EC0161E371E00E94D90481111AC063E354
:1009F00071E0CE010E94D904811113C065E371E05A
:100A0000CE010E94D90481110FC067E371E0CE01CD
:100A10000E94D904811108C090E080E0DF91CF915D
:100A200008958FE091E0FACF81E091E0F7CF0F9346
:100A30001F93CF93DF93EC0188819981009759F040
:100A40002A813B812617370730F081E0DF91CF9173
:100A50001F910F9108958B016F5F7F4F0E943C0D96
:100A6000009759F0998388831B830A832C813D81E9
:100A7000232B59F7FC011082E8CF80E0E7CFEF92FB
:100A8000FF920F931F93CF93DF93EC017B018A01B9
:100A9000BA010E94170528813981811114C02115DE
:100AA000310519F0C9010E94B30C198218821D8208
:100AB0001C821B821A82CE01DF91CF911F910F9170
:100AC000FF90EF9008951D830C83B701C9010E9428
:100AD0001E0EF1CFFC011182108213821282158248
:100AE0001482FB0101900020E9F73197AF01461B0A
:100AF000570B0C943F05AF92BF92CF92DF92EF92CB
:100B0000FF920F931F93CF93DF93EC016B015A0178
:100B100079012417350720F48B2D5901E42EF82E86
:100B200066EB71E0CE010E946A05D60114960D9124
:100B30001C91A016B10628F5E016F10608F487010D
:100B4000D601ED91FC911197E00FF11FF08010821A
:100B50006D917C916A0D7B1D61157105F1F0FB01B2
:100B600001900020E9F73197AF01461B570BCE01EA
:100B70000E943F05F60180819181080F191FD8015D
:100B8000FC92CE01DF91CF911F910F91FF90EF90DA
:100B9000DF90CF90BF90AF900895888199810097A2
:100BA00011F00E94B30C198218821D821C821B82D4
:100BB0001A82E0CFCF93DF93EC01FB0124813581D2
:100BC0000E947B05CE01DF91CF9108951F920F9275
:100BD0000FB60F9211242F933F938F939F93AF9350
:100BE000BF938091C1019091C201A091C301B091C6
:100BF000C4013091BC0123E0230F2D3758F5019635
:100C0000A11DB11D2093BC018093C1019093C2012D
:100C1000A093C301B093C4018091BD019091BE0126
:100C2000A091BF01B091C0010196A11DB11D80939B
:100C3000BD019093BE01A093BF01B093C001BF91CD
:100C4000AF919F918F913F912F910F900FBE0F9079
:100C50001F90189526E8230F0296A11DB11DD2CF33
:100C60001F920F920FB60F9211242F933F934F9321
:100C70005F936F937F938F939F93AF93BF93EF9304
:100C8000FF9385EC91E00E94F301FF91EF91BF91FA
:100C9000AF919F918F917F916F915F914F913F9114
:100CA0002F910F900FBE0F901F9018951F920F92CB
:100CB0000FB60F9211242F938F939F93EF93FF936F
:100CC000E091D501F091D6018081E091DB01F091B6
:100CD000DC0182FD1BC090818091DE018F5F8F73EC
:100CE0002091DF01821741F0E091DE01F0E0EB534B
:100CF000FE4F958F8093DE01FF91EF919F918F9131
:100D00002F910F900FBE0F901F9018958081F4CFF8
:100D1000CF93DF93CDB7DEB7A4970FB6F894DEBFBD
:100D20000FBECDBF789484B5826084BD84B58160E8
:100D300084BD85B5826085BD85B5816085BD8091A6
:100D40006E00816080936E0010928100809181001E
:100D50008260809381008091810081608093810016
:100D6000809180008160809380008091B1008460D8
:100D70008093B1008091B00081608093B000809139
:100D80007A00846080937A0080917A0082608093F8
:100D90007A0080917A00816080937A0080917A0055
:100DA000806880937A001092C100E091D501F091A3
:100DB000D60182E08083E091D501F091D6011082C6
:100DC000E091D101F091D2011082E091D301F09134
:100DD000D40180E180831092DD01E091D901F0918E
:100DE000DA0186E08083E091D701F091D80180811B
:100DF00080618083E091D701F091D8018081886083
:100E00008083E091D701F091D80180818068808350
:100E1000E091D701F091D80180818F7D80838FE0B0
:100E200091E00E94820281E091E00E9482020E9491
:100E300058030E9497029924939430E0A32E30E047
:100E4000B32E85EC91E00E94D301181619060CF020
:100E500045C066EB71E0CE014F960E946A050E9484
:100E6000850197FD1EC08A309105D9F089831A82C9
:100E70000BA11CA10F5F1F4FB801CE014F960E941E
:100E80001705882361F32F8D38A18BA19CA1BE018A
:100E90006F5F7F4F820F931F0E941E0E1CA30BA338
:100EA000DECFCE014F960E9446040E94970269E36E
:100EB00071E0CE014F960E94D904811109C06FE301
:100EC00071E0CE014F960E94D904882309F47EC0B8
:100ED0000E945803CE014F960E943D0380910B0162
:100EE00090910C01A0910D01B0910E01892B8A2BDC
:100EF0008B2B71F180910F01811104C08091010150
:100F0000882331F12FB7F8948091C1019091C201EB
:100F1000A091C301B091C4012FBF4091B80150917D
:100F2000B9016091BA017091BB01841B950BA60BAE
:100F3000B70B40910B0150910C0160910D01709124
:100F40000E01481759076A077B0710F40E945803DF
:100F500080910001882351F06FE071E080E00E94F1
:100F6000080461E071E081E00E9408040E940F0122
:100F70006B017C0184E6482E512C612C712C0E945F
:100F80000F016C197D098E099F09683E7340810528
:100F90009105A8F3F1E04F1A51086108710828EE95
:100FA000C20E23E0D21EE11CF11C41145104610465
:100FB000710429F7A114B10409F443CF0E94DF01A1
:100FC000882309F438CF0E94000035CF64E471E033
:100FD000CE0101960E946A05BE016F5F7F4FCE0170
:100FE0004F960E94BE04D12C8823B9F06BE471E0C7
:100FF000CE0107960E946A05BE01695F7F4FCE0150
:101000004F960E94A304DD24D394181619060CF001
:10101000D12CCE0107960E943D03CE0101960E947D
:101020003D03DD2009F451C066E070E0CE014F962B
:101030000E942103181619060CF04CCF9C0146E0C3
:1010400050E0BE01615E7F4FCE0107960E947B0596
:10105000CE0107960E94EE047C016CE471E0CE01A3
:1010600001960E946A05BE016F5F7F4FCE014F96C9
:101070000E94A3048C01CE0101960E943D03E1145D
:10108000F104F1F010161106DCF4A8014D5F5F4F7A
:10109000BE01615E7F4FCE0101960E94DA05CE014E
:1010A00001960E94600381E0611101C080E0F701B8
:1010B0008183CE0101960E943D03C7010E94AB02CD
:1010C000CE0107960E943D0305CF64E471E0CE0196
:1010D00001960E946A05BE016F5F7F4FCE014F9659
:1010E0000E94BE04182FCE0101960E943D031123D9
:1010F000E9F166E070E0CE014F960E9421037C0189
:10110000181619060CF0E6CE9C0146E050E0BE0130
:10111000615E7F4FCE0107960E947B05CE01079648
:101120000E94EE048C01892B59F2A7014F5F5F4F9B
:10113000BE01615E7F4FCE0101960E94DA05CE01AD
:1011400001960E9460036B01CE0101960E943D034F
:10115000FFEFCF16D10421F01CF0CC24CA94D12C7F
:10116000D7FCC12CF801C082C801A8CF60E571E0AE
:10117000CE0101960E946A05BE016F5F7F4FCE01CE
:101180004F960E94BE04182FCE0101960E943D0387
:10119000112309F49DC148E050E0BE01615E7F4F1C
:1011A000CE0149960E94DA05CE0149960E94460476
:1011B00070E060E0CE0149960E9421037C01181680
:1011C00019060CF013C19C0150E040E0BE01675EBF
:1011D0007F4FCE0107960E947B0561E371E0CE014F
:1011E00007960E94D90481111AC065E371E0CE010F
:1011F00007960E94D904811112C063E371E0CE0109
:1012000007960E94D90481110AC067E371E0CE01FC
:1012100007960E94D9040FE011E08823C9F1CE019E
:1012200007960E94EE048C01A7014F5F5F4FBE013D
:10123000675E7F4FCE0101960E94DA05898D9A8DF7
:10124000009709F46EC069817A816115710509F40E
:1012500066C04B8D5C8D2D813E814217530708F48B
:101260005EC00E941E0E8D819E819E8F8D8F1E827C
:101270001D82CE0101960E943D03CE0149960E9437
:10128000460470E060E0CE0149960E9421037C0193
:10129000CE0107960E943D030115110509F4A6C071
:1012A0001E141F040CF0A2C0970150E040E0BE01E4
:1012B000675E7F4FCE0143960E947B05A7014F5F7B
:1012C0005F4FBE01675E7F4FCE010D960E94DA052B
:1012D00018861F821A8619861C861B866D857E8558
:1012E0006115710531F049895A89CE0107960E942E
:1012F0003F05CE0107960E944604EF80F884E11472
:10130000F10401F1F70180818823E1F0082E000C3F
:10131000990B0E94F90DF70181937F01F3CF0E9491
:10132000B30C89819A819A8F898F8B819C819C8F44
:101330008B8F8D819E819E8F8D8F1A8219821C8248
:101340001B8295CF61E371E0CE0101960E946A0590
:10135000BE016F5F7F4FCE0107960E94BE048823B7
:1013600039F0DD24D3948B859C85029708F4D12C29
:10137000CE0101960E943D03DD20D9F141E050E00D
:10138000BE01695F7F4FCE0101960E94DA05CE0152
:1013900001960E9460036B01CE0101960E943D03FD
:1013A000FEE0CF0ED11CCE0107960E943D03D7FC74
:1013B00015C06BE571E0CE0143960E94D9048823E5
:1013C00009F460C0F801D382C28261E08C2D0E94D2
:1013D000DE00C8010E94AB020E94D903CE010D9627
:1013E0000E943D03CE0143960E943D03CE014996E3
:1013F00069CE69E571E0CE0101960E946A05BE01E1
:101400006F5F7F4FCE0107960E94BE04882339F09C
:10141000DD24D3948B859C85029708F4D12CCE01D2
:1014200001960E943D03DD2099F041E050E0BE01AD
:10143000695F7F4FCE0101960E94DA05CE010196C9
:101440000E9460036B01CE0101960E943D03ABCF69
:101450008B859C85892B91F0EF81F88580E0309712
:1014600009F08081082E000C990BC0970A9730F480
:10147000CE0107960E9460036B0195CFCC24CA94DD
:10148000DC2C91CF6FE571E0CE0143960E94D90428
:10149000882321F0F801D582C48297CF63E671E0FA
:1014A000CE0143960E94D904882321F0F801D78207
:1014B000C6828BCF69E671E0CE0143960E94D904C3
:1014C000882309F486CFF801D186C08660E07ECFFC
:1014D0006FE671E0CE0101960E946A05BE016F5F62
:1014E0007F4FCE014F960E94BE04182FCE01019669
:1014F0000E943D03112319F149E050E0BE01615EF5
:101500007F4FCE0101960E94DA05CE0101960E941E
:1015100060037B018C01CE0101960E943D03C7014F
:10152000D801B7FF03C080E090E0DC0180930B019D
:1015300090930C01A0930D01B0930E01CBCC69E701
:1015400071E0CE014F960E94D904882319F00E94C1
:10155000D903C0CC62E871E0CE014F960E94D90455
:1015600081111BC067E871E0CE014F960E94D9043B
:10157000811113C062E971E0CE014F960E94D90437
:1015800081111FC060EA71E0CE014F960E94D9041C
:101590008823D1F0109200019DCC998241E050E067
:1015A000BE016F5F7F4F8FE70E946B036FE071E0BA
:1015B00080E00E94080461E071E081E00E9408047C
:1015C00089CC9092000186CC6DEA71E0CE01019643
:1015D0000E946A05BE016F5F7F4FCE014F960E9449
:1015E000BE04182FCE0101960E943D03112309F479
:1015F00071CC46E050E0BE01615E7F4FCE010196A6
:101600000E94DA05CE0101960E9460036B01CE01B3
:1016100001960E943D0308E610E0F2E0CF16D104E7
:1016200014F003E710E0F8016491662341F085ECC3
:1016300091E00E9415020F5F1F4F892BA1F742E036
:1016400050E064EB71E085EC91E00E94350142CC02
:10165000E5ECF1E01382128288EE93E0A0E0B0E0C6
:1016600084839583A683B78383E291E0918380830B
:1016700085EC90E09587848784EC90E09787868757
:1016800080EC90E0918B808B81EC90E0938B828B4F
:1016900082EC90E0958B848B86EC90E0978B868B28
:1016A000118E128E138E148E08951F93FC019927AC
:1016B0008827BC01E89411911032E9F3193010F039
:1016C0001E30C8F31B3251F01D3249F4689406C035
:1016D0000E947C0B610F711D811D911D1191105392
:1016E0001A30B0F33EF490958095709561957F4FD8
:1016F0008F4F9F4F1F910895592F482F372F262F17
:10170000660F771F881F991F660F771F881F991F05
:10171000620F731F841F951F660F771F881F991F05
:10172000089591110C94D70B803219F0895085508F
:10173000C8F70895E89409C097FB3EF4909580950A
:10174000709561957F4F8F4F9F4F9923A9F0F92F87
:1017500096E9BB279395F695879577956795B79505
:10176000F111F8CFFAF4BB0F11F460FF1BC06F5FEB
:101770007F4F8F4F9F4F16C0882311F096E911C0FD
:10178000772321F09EE8872F762F05C0662371F01E
:1017900096E8862F70E060E02AF09A95660F771F32
:1017A000881FDAF7880F9695879597F908959927F6
:1017B000882708952F923F924F925F926F927F9267
:1017C0008F929F92AF92BF92CF92DF92EF92FF9251
:1017D0000F931F93CF93DF93CDB7DEB7CA1BDB0BFD
:1017E0000FB6F894DEBF0FBECDBF09942A883988A2
:1017F00048885F846E847D848C849B84AA84B984A9
:10180000C884DF80EE80FD800C811B81AA81B981B4
:10181000CE0FD11D0FB6F894DEBF0FBECDBFED01C8
:101820000895EE0FFF1F0590F491E02D09940F939A
:101830001F93CF93DF938230910510F482E090E004
:10184000E0916402F091650230E020E0B0E0A0E0B9
:10185000309799F42115310509F44AC0281B390B3A
:1018600024303105D8F58A819B816115710589F194
:10187000FB0193838283FE0111C04081518102816B
:10188000138148175907E0F04817590799F4109742
:1018900061F012960C93129713961C933296CF0117
:1018A000DF91CF911F910F910895009364021093DF
:1018B0006502F4CF2115310551F04217530738F076
:1018C000A901DB019A01BD01DF01F801C1CFEF01E0
:1018D000F9CF9093650280936402CDCFFE01E20FB1
:1018E000F31F819391932250310939832883D7CFF5
:1018F0002091620230916302232B41F420911B015D
:1019000030911C01309363022093620220911901EF
:1019100030911A012115310541F42DB73EB74091A0
:101920001D0150911E01241B350BE0916202F091C4
:101930006302E217F307A0F42E1B3F0B28173907A9
:1019400078F0AC014E5F5F4F2417350748F04E0F1B
:101950005F1F5093630240936202819391939FCFE4
:10196000F0E0E0E09CCFCF93DF930097E9F0FC013B
:10197000329713821282A0916402B0916502ED0148
:1019800030E020E01097A1F420813181820F931F75
:1019900020916202309163022817390709F061C073
:1019A000F0936302E0936202DF91CF910895EA0120
:1019B000CE17DF07E8F54A815B819E01411551058D
:1019C000B1F7E901FB83EA8349915991C40FD51F0F
:1019D000EC17FD0761F4808191810296840F951FB9
:1019E000E90199838883828193819B838A83F0E0D4
:1019F000E0E012968D919C9113970097B9F52D9187
:101A00003C911197CD010296820F931F20916202A3
:101A1000309163022817390739F6309751F5109243
:101A2000650210926402B0936302A0936202BCCF7D
:101A3000D383C28340815181840F951FC817D90772
:101A400061F44E5F5F4F88819981480F591F518320
:101A500040838A819B81938382832115310509F01C
:101A6000B0CFF0936502E09364029ECFFD01DC01EC
:101A7000C0CF13821282D7CFB0E0A0E0E2E4FDE055
:101A80000C94DC0B8C01009751F4CB010E94170CD5
:101A90008C01C801CDB7DEB7E0E10C94F80BFC0176
:101AA000E60FF71F9C0122503109E217F30708F4F3
:101AB0009DC0D901CD91DC911197C617D70798F039
:101AC000C530D10530F3CE0104978617970708F388
:101AD000C61BD70B2297C193D1936D937C93CF01F3
:101AE0000E94B30CD6CF5B01AC1ABD0A4C018C0E20
:101AF0009D1EA0916402B0916502512C412CF12CE5
:101B0000E12C109731F58091620290916302881563
:101B1000990509F05CC04616570608F058C0809138
:101B2000190190911A01009741F48DB79EB7409129
:101B30001D0150911E01841B950BE817F90708F051
:101B400055C0F0936302E0936202F90171836083F0
:101B5000A0CF8D919C91119712966C90129713962D
:101B60007C901397A815B90559F56C0142E0C40E95
:101B7000D11CCA14DB0420F1AC014A195B09DA015B
:101B80001296159780F06282738251834083D90147
:101B90006D937C93E114F10471F0D7011396FC93DB
:101BA000EE93129776CF22968C0F9D1FF9019183A9
:101BB0008083F301EFCFF0936502E093640269CF75
:101BC0004816590608F42C017D01D3019ACFCB01A8
:101BD0000E94170C7C01009749F0AE01B8010E94E9
:101BE000010EC8010E94B30C870153CF10E000E042
:101BF00050CF9111089581568A5108F4805285582A
:101C00000895FB01DC0102C001900D92415050404B
:101C1000D8F70895FC018191861721F08823D9F720
:101C2000992708953197CF010895FB01DC018D912B
:101C3000019080190110D9F3990B0895FB01DC0183
:101C400001900D920020E1F70895FB01DC01415065
:101C5000504030F08D910190801919F40020B9F7AF
:101C6000881B990B0895FB0151915523A9F0BF01E1
:101C7000DC014D9145174111E1F759F4CD01019077
:101C8000002049F04D9140154111C9F3FB0141116C
:0E1C9000EFCF81E090E001970895F894FFCF28
:101C9E000100010D000B0008000F00D0070000002E
:101CAE00010C00030009000E000000660280000017
:101CBE000000001502350162016202D3017101C5F7
:101CCE000141006100420062004D4F544F522053BB
:101CDE00544F50004D4F544F522000204449520053
:101CEE005345542050494E200044006469720070E0
:101CFE00776D006272616B650073656E7365005778
:101D0E0041544348444F4720004745542050494EC4
:101D1E00530050494E4700474554205354415455A3
:101D2E00530053544152542052454144494E4700AA
:101D3E0053544F502052454144494E470050524F44
:081D4E00544F20000D0A0000B3
:00000001FF
