:100000000C9468000C9490000C9490000C94900058
:100010000C9490000C9490000C9490000C94900020
:100020000C9490000C9490000C9490000C94900010
:100030000C9490000C9490000C9490000C94900000
:100040000C949B040C9490000C940B050C94E50408
:100050000C9490000C9490000C9490000C949000E0
:100060000C9490000C94900050524F544F204F4BE2
:1000700020310050524F544F204F4B20320000008F
:100080000000240027002A000000000025002800AE
:100090002B00040404040404040402020202020209
:1000A000030303030303010204081020408001023C
:1000B00004081020010204081020000000080002BB
:1000C0000100000304070000000000000000970783
:1000D00011241FBECFEFD8E0DEBFCDBF22E0A0E7E6
:1000E000B1E001C01D92AB31B207E1F711E0A0E031
:1000F000B1E0E2E2F5E102C005900D92A037B10750
:10010000D9F710E0C8E6D0E004C02197FE010E94B4
:100110008008C736D107C9F70E943D050C948F0AA5
:100120000C94000090E0FC01E654FF4F2491FC0188
:10013000EA55FF4F3491FC01EE56FF4FE491EE2358
:10014000C9F0222339F0233001F1A8F4213019F14C
:10015000223029F1F0E0EE0FFF1FE857FF4FA59185
:10016000B4918FB7F894EC91611126C030953E237D
:100170003C938FBF08952730A9F02830C9F0243070
:1001800049F7809180008F7D03C0809180008F7738
:1001900080938000DFCF84B58F7784BDDBCF84B5BB
:1001A0008F7DFBCF8091B0008F778093B000D2CF4E
:1001B0008091B0008F7DF9CF3E2BDACFCF93DF93C4
:1001C00090E0FC01EA55FF4F24918E569F4FFC01B1
:1001D00084918823D1F090E0880F991FFC01E258A8
:1001E000FF4FA591B491FC01E857FF4FC591D49101
:1001F00061110EC09FB7F8948C91E22FE0958E2389
:100200008C932881E223E8839FBFDF91CF910895EB
:100210008FB7F894EC91E22BEC938FBFF6CF3FB7FA
:10022000F8948091720190917301A0917401B09142
:10023000750126B5A89B05C02F3F19F00196A11D99
:10024000B11D3FBFBA2FA92F982F8827BC01CD0120
:10025000620F711D811D911D42E0660F771F881F7F
:10026000991F4A95D1F70895AF92BF92CF92DF922E
:10027000EF92FF920F931F93CF93DF936C017B015B
:100280008B01040F151FEB015E01AE18BF08C017EC
:10029000D10759F06991D601ED91FC910190F0815F
:1002A000E02DC6010995892B79F7C501DF91CF9122
:1002B0001F910F91FF90EF90DF90CF90BF90AF9084
:1002C0000895FC01538D448D252F30E0842F90E05C
:1002D000821B930B541710F0CF9608950197089541
:1002E000FC01918D828D981761F0A28DAE0FBF2F0A
:1002F000B11D5D968C91928D9F5F9F73928F90E060
:1003000008958FEF9FEF08952FB7F89480917601AD
:1003100090917701A0917801B09179012FBF8093DE
:10032000820190938301A0938401B09385018AE7B1
:1003300091E00E94700197FF26C02FB7F89480913A
:10034000760190917701A0917801B09179012FBF4A
:1003500040918201509183016091840170918501E7
:10036000841B950BA60BB70B40917E0150917F012A
:10037000609180017091810184179507A607B707E6
:10038000B0F28FEF9FEF0895FC01918D828D981749
:1003900031F0828DE80FF11D858D90E008958FEF8B
:1003A0009FEF0895FC01918D228D892F90E0805C54
:1003B0009F4F821B91098F73992708958AE791E0D7
:1003C0000E94D20121E0892B09F420E0822F0895B8
:1003D00080E090E0892B29F00E94DE0181110C94CD
:1003E00000000895FC01A48DA80FB92FB11DA35AD8
:1003F000BF4F2C91848D90E001968F739927848F45
:10040000A689B7892C93A089B1898C918370806467
:100410008C93938D848D981306C00288F389E02D08
:1004200080818F7D80830895EF92FF920F931F93B9
:10043000CF93DF93EC0181E0888F9B8D8C8D981397
:100440001AC0E889F989808185FF15C09FB7F894A3
:10045000EE89FF896083E889F989808183708064EF
:1004600080839FBF81E090E0DF91CF911F910F913A
:10047000FF90EF900895F62E0B8D10E00F5F1F4F49
:100480000F731127E02E8C8D8E110CC00FB607FC58
:10049000FACFE889F989808185FFF5CFCE010E94E6
:1004A000F201F1CFEB8DEC0FFD2FF11DE35AFF4F61
:1004B000F0829FB7F8940B8FEA89FB898081806274
:1004C000CFCFCF93DF93EC01888D8823B9F0AA8931
:1004D000BB89E889F9898C9185FD03C0808186FDFF
:1004E0000DC00FB607FCF7CF8C9185FFF2CF80814E
:1004F00085FFEDCFCE010E94F201E9CFDF91CF91D0
:1005000008951F93CF93DF9361E0809101018111E2
:1005100001C060E08CE00E94920060E089E00E94EF
:10052000920010917001C12FD0E061E083E00E9441
:10053000DE00209739F460E083E0DF91CF911F91D6
:100540000C949200CF3FD10511F461E0F5CFEDEBB3
:10055000F0E0E491E33031F140F4E130B1F0E23029
:10056000E1F0C038D1058CF7E6CFE73029F1E8306B
:1005700059F1E430B1F7809180008062809380006F
:10058000D0938B00C0938A0004C084B5806884BD7A
:1005900017BDDF91CF911F91089584B5806284BD0E
:1005A00018BDF7CF80918000806880938000D09341
:1005B0008900C0938800EDCF8091B000806880935F
:1005C000B0001093B300E5CF8091B00080628093BB
:1005D000B0001093B400DDCFEF92FF920F931F9302
:1005E000CF93DF93CDB7DEB7C854D1090FB6F894D7
:1005F000DEBF0FBECDBF7B018A019AEA26969FAF70
:10060000269727968FAF279728964FAF289729963A
:100610001FAE299744E050E0BE016B5B7F4F8AE735
:1006200091E00E943401A801B7018AE791E00E949D
:10063000340129968CAD9DADAEADBFAD29978983B0
:100640009A83AB83BC83A801B701CE0105960E94B3
:10065000680A0C5F1F4FAE014F5F5F4FFA0160E009
:100660007CE88191682728E030E0862F90E095951E
:10067000879560FF1DC0682F672721503109A9F7B2
:10068000CF01841B950B801791075CF38AE791E0FB
:100690000E941402C85BDF4F0FB6F894DEBF0FBE96
:1006A000CDBFDF91CF911F910F91FF90EF900895F3
:1006B000682FE3CFCF93DF9300D000D000D01F92FC
:1006C000CDB7DEB780E480937C0080917A008064AF
:1006D00080937A0080917A0086FDFCCF609178004B
:1006E000709179001982809170018A838091010153
:1006F0008B83072E000C880B990B0E940B086C83D0
:100700007D838E839F8347E050E0BE016F5F7F4F04
:1007100080E20E94EC0227960FB6F894DEBF0FBE6F
:10072000CDBFDF91CF910895FB0144815581FC013C
:10073000248135812417350778F0808191810097D5
:1007400059F0FB01608171816115710529F00E94EA
:10075000810A21E0892B09F020E0822F0895FC0115
:1007600024813581232B39F421E0FB01808188230A
:1007700049F020E007C0808191810E94710A21E048
:10078000892BB9F7822F08950F931F93CF93DF938F
:10079000EC0188819981009759F02A813B812617C5
:1007A000370730F081E0DF91CF911F910F910895CD
:1007B0008B016F5F7F4F0E94AB09009759F09983BF
:1007C00088831B830A832C813D81232B59F7FC01ED
:1007D0001082E8CF80E0E7CFCF93DF93EC018881F0
:1007E0009981009711F00E942209198218821D82B6
:1007F0001C821B821A82DF91CF910895EF92FF92A3
:100800000F931F93CF93DF938C017B01EB01099032
:100810000020E9F72197C61BD70BBE010E94C40335
:10082000811109C0C801DF91CF911F910F91FF90F5
:10083000EF900C94EC03F801D583C483B701808159
:100840009181DF91CF911F910F91FF90EF900C94C8
:100850007A0A9F92AF92BF92CF92DF92EF92FF926D
:100860000F931F93CF93DF93EC016B015A01DB01D0
:100870001496ED90FC90E416F50620F48B2D5701AC
:10088000E42EF82E198218821B821A821D821C8285
:100890006EE671E0CE010E94FE03F601048115812F
:1008A000A016B10658F5E016F10608F48701D60146
:1008B000ED91FC911197E00FF11F90801082ED9067
:1008C000FC90EA0CFB1CE114F10471F0F7010190BB
:1008D0000020E9F731975F01AE18BF08B501CE01DE
:1008E0000E94C403811117C0CE010E94EC03F601DF
:1008F00080819181080F191FD8019C92CE01DF9150
:10090000CF911F910F91FF90EF90DF90CF90BF900C
:10091000AF909F900895BD82AC82B7018881998184
:100920000E947A0AE4CFFC0180819181009711F046
:100930000C94220908951F920F920FB60F92112462
:100940002F933F938F939F93AF93BF9380917601A3
:1009500090917701A0917801B09179013091710166
:1009600023E0230F2D3758F50196A11DB11D2093CB
:1009700071018093760190937701A0937801B093F1
:1009800079018091720190917301A0917401B091ED
:1009900075010196A11DB11D8093720190937301A1
:1009A000A0937401B0937501BF91AF919F918F9106
:1009B0003F912F910F900FBE0F901F90189526E832
:1009C000230F0296A11DB11DD2CF1F920F920FB619
:1009D0000F9211242F933F934F935F936F937F93C5
:1009E0008F939F93AF93BF93EF93FF938AE791E029
:1009F0000E94F201FF91EF91BF91AF919F918F9172
:100A00007F916F915F914F913F912F910F900FBE0A
:100A10000F901F9018951F920F920FB60F921124EE
:100A20002F938F939F93EF93FF93E0918A01F0911F
:100A30008B018081E0919001F091910182FD1BC0BA
:100A40009081809193018F5F8F7320919401821721
:100A500041F0E0919301F0E0E658FE4F958F8093CE
:100A60009301FF91EF919F918F912F910F900FBE66
:100A70000F901F9018958081F4CFCF93DF93CDB75F
:100A8000DEB72C970FB6F894DEBF0FBECDBF7894BB
:100A900084B5826084BD84B5816084BD85B5826083
:100AA00085BD85B5816085BD80916E008160809334
:100AB0006E0010928100809181008260809381009D
:100AC00080918100816080938100809180008160AD
:100AD000809380008091B10084608093B100809108
:100AE000B00081608093B00080917A008460809330
:100AF0007A0080917A00826080937A0080917A00F7
:100B0000816080937A0080917A00806880937A0077
:100B10001092C100E0918A01F0918B0182E0808304
:100B2000E0918A01F0918B011082E0918601F091B1
:100B300087011082E0918801F091890180E1808332
:100B400010929201E0918E01F0918F0186E08083F6
:100B5000E0918C01F0918D01808180618083E09132
:100B60008C01F0918D01808188608083E0918C01FF
:100B7000F0918D01808180688083E0918C01F091FB
:100B80008D0180818F7D808361E08CE00E94DE009A
:100B900061E083E00E94DE0061E089E00E94DE0007
:100BA00060E08EE00E94DE000E94810220E0A22E22
:100BB00020E0B22E772473948AE791E00E94D2015C
:100BC000181619060CF053C018861F821A8619864B
:100BD0001C861B866EE671E0CE0107960E94FE031E
:100BE0000E94840197FD1EC08A309105D9F0898347
:100BF0001A820B851C850F5F1F4FB801CE01079627
:100C00000E94C403882361F32F8138858B859C85DE
:100C1000BE016F5F7F4F820F931F0E947A0A1C876D
:100C20000B87DECFCF80D884C114D10439F00B8577
:100C30001C8576010115110509F04FC06AE171E0CC
:100C4000CE0107960E94AF03811109C060E271E0F6
:100C5000CE0107960E94AF03882309F474C0109256
:100C600070010E948102CE0107960E949304809138
:100C7000000181110E945A030E940F016B017C0147
:100C800084E6282E312C412C512C0E940F016C1926
:100C90007D098E099F09683E734081059105A8F37F
:100CA000F1E02F1A31084108510828EEC20E23E066
:100CB000D21EE11CF11C211431044104510429F716
:100CC000A114B10409F478CF0E94DE01882309F44D
:100CD00073CF0E94000070CF740147012FEF821A7A
:100CE000920AF7018081082E000C990B0E940008DF
:100CF000892B91F7015011090C0D1D1DF801808100
:100D0000082E000C990B0E940008892B31F00E155B
:100D10001F0518F001501109F1CFA8014F5F5F4F77
:100D20004E195F095C874B87CE14DF0420F4B701AE
:100D3000C6010E94680AEF81F8858B859C85E80FC3
:100D4000F91F10827BCF1A8219821C821B821E829D
:100D50001D8265E271E0CE0101960E94FE03BE0194
:100D60006F5F7F4FCE0107960E949403182FCE012C
:100D700001960E9493041123D9F04CE050E0BE018B
:100D8000695F7F4FCE0101960E94290489819A8173
:100D900060E0009711F00E94C40781E0611101C07A
:100DA00080E080930101CE0101960E94930459CF07
:100DB0001A8219821C821B821E821D8261E371E0ED
:100DC000CE0101960E94FE03BE016F5F7F4FCE01F0
:100DD00007960E949403182FCE0101960E94930457
:100DE000112321F148E050E0BE01695F7F4FCE0141
:100DF00001960E94290489819A81C12CD12C760107
:100E0000009719F00E94C4076B01CE0101960E9461
:100E10009304FFEFCF16D10421F01CF0CC24CA9428
:100E2000D12CD7FCC12CC09270011BCF6AE371E0BA
:100E3000CE0107960E94AF0381111BC06FE371E0E2
:100E4000CE0107960E94AF03811113C06AE471E0DE
:100E5000CE0107960E94AF03811117C068E571E0CB
:100E6000CE0107960E94AF03882391F010920001F3
:100E7000FACE798241E050E0BE016F5F7F4F8FE78D
:100E80000E94EC020E945A03EECE70920001EBCE5B
:100E90001A8219821C821B821E821D8265E671E005
:100EA000CE0101960E94FE03BE016F5F7F4FCE010F
:100EB00007960E949403182FCE0101960E94930476
:100EC000112309F4D0CE46E050E0BE01695F7F4FA8
:100ED000CE0101960E94290489819A81C12CD12CCE
:100EE0007601009719F00E94C4076B01CE010196AC
:100EF0000E94930408E610E022E0C216D10414F028
:100F000003E710E0F8016491662341F08AE791E07D
:100F10000E9414020F5F1F4F892BA1F742E050E09F
:100F20006CE671E08AE791E00E9434019CCEEAE72A
:100F3000F1E01382128288EE93E0A0E0B0E08483B7
:100F40009583A683B7838CE091E09183808385ECC1
:100F500090E09587848784EC90E09787868780EC83
:100F600090E0918B808B81EC90E0938B828B82EC74
:100F700090E0958B848B86EC90E0978B868B118E1E
:100F8000128E138E148E08951F93FC0199278827C3
:100F9000BC01E89411911032E9F3193010F01E30C1
:100FA000C8F31B3251F01D3249F4689406C00E9408
:100FB000EB07610F711D811D911D119110531A30A6
:100FC000B0F33EF490958095709561957F4F8F4F6B
:100FD0009F4F1F910895592F482F372F262F660FA7
:100FE000771F881F991F660F771F881F991F620F31
:100FF000731F841F951F660F771F881F991F089501
:1010000091110C944608803219F089508550C8F728
:101010000895E89409C097FB3EF4909580957095EB
:1010200061957F4F8F4F9F4F9923A9F0F92F96E934
:10103000BB279395F695879577956795B795F111A9
:10104000F8CFFAF4BB0F11F460FF1BC06F5F7F4F46
:101050008F4F9F4F16C0882311F096E911C0772358
:1010600021F09EE8872F762F05C0662371F096E861
:10107000862F70E060E02AF09A95660F771F881F30
:10108000DAF7880F9695879597F908959927882715
:1010900008952F923F924F925F926F927F928F921C
:1010A0009F92AF92BF92CF92DF92EF92FF920F93F7
:1010B0001F93CF93DF93CDB7DEB7CA1BDB0B0FB601
:1010C000F894DEBF0FBECDBF09942A8839884888BE
:1010D0005F846E847D848C849B84AA84B984C88454
:1010E000DF80EE80FD800C811B81AA81B981CE0F4B
:1010F000D11D0FB6F894DEBF0FBECDBFED01089530
:10110000EE0FFF1F0590F491E02D09940F931F93AC
:10111000CF93DF938230910510F482E090E0E0916C
:101120001902F0911A0230E020E0B0E0A0E0309720
:1011300099F42115310509F44AC0281B390B2430D4
:101140003105D8F58A819B816115710589F1FB0113
:1011500093838283FE0111C04081518102811381FA
:1011600048175907E0F04817590799F4109761F0AC
:1011700012960C93129713961C933296CF01DF911F
:10118000CF911F910F9108950093190210931A02A5
:10119000F4CF2115310551F04217530738F0A9015A
:1011A000DB019A01BD01DF01F801C1CFEF01F9CFE9
:1011B00090931A0280931902CDCFFE01E20FF31F24
:1011C000819391932250310939832883D7CF20917D
:1011D000170230911802232B41F420910401309121
:1011E00005013093180220931702209102013091DB
:1011F00003012115310541F42DB73EB74091060199
:1012000050910701241B350BE0911702F091180251
:10121000E217F307A0F42E1B3F0B2817390778F0CD
:10122000AC014E5F5F4F2417350748F04E0F5F1F2C
:101230005093180240931702819391939FCFF0E04F
:10124000E0E09CCFCF93DF930097E9F0FC01329769
:1012500013821282A0911902B0911A02ED0130E0BE
:1012600020E01097A1F420813181820F931F2091FB
:101270001702309118022817390709F061C0F0935E
:101280001802E0931702DF91CF910895EA01CE177B
:10129000DF07E8F54A815B819E0141155105B1F7F1
:1012A000E901FB83EA8349915991C40FD51FEC17DB
:1012B000FD0761F4808191810296840F951FE901F9
:1012C00099838883828193819B838A83F0E0E0E025
:1012D00012968D919C9113970097B9F52D913C91A1
:1012E0001197CD010296820F931F20911702309122
:1012F00018022817390739F6309751F510921A025B
:1013000010921902B0931802A0931702BCCFD38396
:10131000C28340815181840F951FC817D90761F49A
:101320004E5F5F4F88819981480F591F51834083D9
:101330008A819B81938382832115310509F0B0CF87
:10134000F0931A02E09319029ECFFD01DC01C0CF99
:1013500013821282D7CFB0E0A0E0E1EBF9E00C9469
:101360004B088C01009751F4CB010E9486088C0138
:10137000C801CDB7DEB7E0E10C946708FC01E60FC9
:10138000F71F9C0122503109E217F30708F49DC0B2
:10139000D901CD91DC911197C617D70798F0C530C8
:1013A000D10530F3CE0104978617970708F3C61BC3
:1013B000D70B2297C193D1936D937C93CF010E9459
:1013C0002209D6CF5B01AC1ABD0A4C018C0E9D1EC2
:1013D000A0911902B0911A02512C412CF12CE12C50
:1013E000109731F580911702909118028815990590
:1013F00009F05CC04616570608F058C080910201FB
:1014000090910301009741F48DB79EB7409106017A
:1014100050910701841B950BE817F90708F055C098
:10142000F0931802E0931702F90171836083A0CF53
:101430008D919C91119712966C90129713967C90B7
:101440001397A815B90559F56C0142E0C40ED11CDB
:10145000CA14DB0420F1AC014A195B09DA011296C7
:10146000159780F06282738251834083D9016D9316
:101470007C93E114F10471F0D7011396FC93EE9381
:10148000129776CF22968C0F9D1FF901918380834E
:10149000F301EFCFF0931A02E093190269CF4816D7
:1014A000590608F42C017D01D3019ACFCB010E948B
:1014B00086087C01009749F0AE01B8010E94680AD5
:1014C000C8010E942209870153CF10E000E050CFED
:1014D000FB01DC0102C001900D9241505040D8F751
:1014E0000895FB01DC018D91019080190110D9F361
:1014F000990B0895FB01DC0101900D920020E1F7AA
:101500000895FB01DC014150504030F08D91019075
:10151000801919F40020B9F7881B990B0895F894E5
:02152000FFCFFB
:10152200010100001B0280000000000014023401CF
:1015320061016102D2017001C4014D4F544F52202A
:1015420053544F50004D4F544F5220412044495262
:10155200004D4F544F522041200050494E47004702
:10156200455420535441545553005354415254202E
:1015720052454144494E470053544F502052454131
:1015820044494E470050524F544F20000D0A00006C
:00000001FF
