:100000000C94B3010C94E4010C94E4010C94E4010D
:100010000C94E4010C94E4010C94E4010C94E401CC
:100020000C94E4010C948D150C948D150C948D1585
:100030000C94E4010C94E4010C94E4010C94E401AC
:100040000C94E4010C9445170C94E4010C94E40125
:100050000C94E4010C94E4010C94E4010C94F3136B
:100060000C94E4010C9463150C9439150C94E40180
:100070000C94E4010C94E4010C94E4010C94E4016C
:100080000C9417170C94E4010C94E4010C94E40113
:100090000C940F150C94E5140C94E4010C94971532
:1000A0000C94E4010C94E4010C94E9160C94E40122
:1000B0000C94E4010C94E4010C94E4010C94BB1640
:1000C0000C94E4010C94E4010C94E4010C94BB1432
:1000D0000C9491140C94E4010C9467140C943D144A
:1000E0000C94E4010C94E6010C94B40C0C94E4021E
:1000F0000C94A1130C9432040C9423020C94600F02
:100100000C9403030C9473170C9492120C94B20F7A
:100110000C94E2130C9407030C94A9040C94070D9F
:100120000C942B040C942E020C94DA020C940D0304
:100130000C94B0080C9478040C94980C0C94F50F63
:100140000C94840C0C94E90F0C94A80E0C94EF0200
:100150000C94F5020C949D0A0C94E0020C94890C0A
:100160000C941B030C94BC0C0C9414130C94E80218
:100170000C94AF080C94D2080C941F030C942A130F
:100180000C94780D0C949B040C94BF080C948B1168
:100190000C9422020C94F0010C94CA0A0C94F902FB
:1001A0000C94E90C0C94540F0C94AD080C941103AE
:1001B0000C94EC020C94CA110C9452070C94A20CEF
:1001C0000C9406090C94110D0C94980F0C948E0C41
:1001D0000C9487040C9404020C94FF020C944C13AE
:1001E0000C94C60C0C94430F0C946C0F0C941503D8
:1001F0000C94B1110C94FD0C0C94CE120C941802BA
:100200000C94200D0C941A030C944C050C94FF04D0
:100210000C94AE080C94810F0C94D00C0C94041028
:100220000C94950B0C94DA0C0C94FA010C94AC0C15
:100230000C941B0D0C94D9080C940E020C94F30C26
:100240000C94350900002100240027002A002D000D
:100250003000330001010000040107010A01000021
:100260002200250028002B002E003100340002015E
:100270000000050108010B010000200023002600FA
:1002800029002C002F0032000001000003010601AC
:10029000090105050505070508080808020202020C
:1002A0000A0A080804040404010101010101010112
:1002B0000303030303030303040707070C0C0C0CDD
:1002C0000C0C0C0C020202020606060606060606C6
:1002D0000B0B0B0B0B0B0B0B010210202008081053
:1002E00020401020408002010201080402010102A6
:1002F000040810204080804020100804020180047F
:1003000002018040201008040201080402010102D9
:1003100004081020408001020408102040800000E2
:100320000A0B02090C0D0E0807030401000000006F
:1003300000000000000000000000000000000000BD
:10034000000000000000000000001211100000007A
:10035000000000000000000000000000000000009D
:1003600000000000731711241FBECFEFD1E2DEBFE3
:10037000CDBF00E00CBF13E0A0E0B2E0EEE9F2E494
:1003800000E00BBF02C007900D92AE30B107D9F765
:1003900029E0AEE0B3E001C01D92A73EB207E1F74D
:1003A00011E0C3EBD1E000E006C021970109802FE6
:1003B000FE010E941120C23BD10780E00807A9F787
:1003C0000E943B190C944D210C940000862FE09163
:1003D0004D04F0914E04309711F0BA01199408952C
:1003E000862FE0914B04F0914C04309711F0BA0144
:1003F00019940895862FE0914904F0914A043097AA
:1004000011F0BA0119940895862FE0914704F091F4
:100410004804309711F0BA0119940895862FE0919D
:100420004504F0914604309711F0BA0119940895EB
:10043000862FE0914304F0914404309711F0BA0103
:10044000199408950895862F642FE0914F04F09138
:100450005004309711F0A90119940895E0915104C6
:10046000F0915204309709F019940895CF93DF93D7
:10047000FC01A081B181109701F1EC01ED91FC919B
:1004800011970190F081E02D69EFCD0119958881D8
:100490009981DC01ED91FC910190F081E02D62E009
:1004A000199588819981DC01ED91FC910190F08191
:1004B000E02D65E0DF91CF911994DF91CF91089500
:1004C000A091DE07B091DF07ED91FC9111970190AB
:1004D000F081E02D682FCD0119941F93CF93DF9306
:1004E000182FEB018091A5079091A607681779074F
:1004F00060F48091A3079091A407C80FD91F1883B7
:1005000080E0DF91CF911F910895E091D207F091A3
:10051000D307309711F481E0F4CF81E08093A207F4
:100520008091BE079091BF0719958091A507909182
:10053000A607C817D90778F7DCCFCF93DF93EC0174
:10054000FB0130E020E0C901880F991F8C179D073F
:1005500078F44081DB014D93BD011197918197950E
:1005600099279795942B9C932F5F3F4F3296EBCF13
:10057000C901DF91CF9108958150823108F05AC0AE
:10058000E82FF0E08827E853FD4F8F4F0C9411209F
:10059000E802EC02DA02E002E4021A03EF02F502DA
:1005A000F902FF02030307030D0311031A031503E6
:1005B0001B031F03809180008F7780938000089534
:1005C000809180008F7DF9CF80918000877FF5CF6B
:1005D00084B58F7784BD089584B58F7DFBCF8091DE
:1005E000B0008F778093B00008958091B0008F7D28
:1005F000F9CF809190008F7780939000089580913B
:1006000090008F7DF9CF80919000877FF5CF80910A
:10061000A0008F778093A00008958091A0008F7D27
:10062000F9CF8091A000877FF5CF809120018F774F
:10063000809320010895809120018F7DF9CF8091D2
:100640002001877FF5CFCF93DF93282F30E0F9018A
:10065000E25EFC4F8491F901E852FD4FD491F9011B
:10066000EE56FD4FC491CC23A1F081110E94BC0233
:10067000EC2FF0E0EE0FFF1FE858FD4FA591B4916D
:10068000EC91ED2381E090E009F480E0DF91CF91DF
:10069000089580E090E0FACF1F93CF93DF93282F47
:1006A00030E0F901E25EFC4F8491F901E852FD4F20
:1006B000D491F901EE56FD4FC491CC23A9F0162F29
:1006C00081110E94BC02EC2FF0E0EE0FFF1FE25AF6
:1006D000FD4FA591B4918FB7F894EC91111108C01A
:1006E000D095DE23DC938FBFDF91CF911F910895CA
:1006F000DE2BF8CFCF93DF9390E0FC01E852FD4F63
:1007000024918E569D4FFC0184918823C9F090E07E
:10071000880F991FFC01EC5BFD4FA591B491FC0182
:10072000E25AFD4FC591D49161110DC09FB7F89465
:100730008C91209582238C938881282328839FBFC6
:10074000DF91CF910895623051F49FB7F8943C91B6
:10075000822F809583238C93E8812E2BEFCF8FB748
:10076000F894EC912E2B2C938FBFEACF863308F0B0
:10077000865320917B00982F9870277F922B90931F
:100780007B008770806480937C0080917A00806415
:1007900080937A0080917A0086FDFCCF809178006A
:1007A0009091790008953FB7F894809198049091C2
:1007B0009904A0919A04B0919B0426B5A89B05C00A
:1007C0002F3F19F00196A11DB11D3FBFBA2FA92FD0
:1007D000982F8827BC01CD01620F711D811D911DCD
:1007E00042E0660F771F881F991F4A95D1F7089539
:1007F0008F929F92AF92BF92CF92DF92EF92FF9231
:100800006B017C010E94D3034B015C01C114D10434
:10081000E104F104B9F00E94D303681979098A0947
:100820009B09683E73408105910580F321E0C21A5F
:10083000D108E108F10888EE880E83E0981EA11C1B
:10084000B11CE4CFFF90EF90DF90CF90BF90AF90BE
:100850009F908F900895009721F0805C9F4F0C949B
:1008600036020895AF92BF92CF92DF92EF92FF923D
:100870000F931F93CF93DF936C017B018B01040FC8
:10088000151FEB015E01AE18BF08C017D10759F064
:100890006991D601ED91FC910190F081E02DC601A6
:1008A0001995892B79F7C501DF91CF911F910F9190
:1008B000FF90EF90DF90CF90BF90AF900895FC0134
:1008C000A089B1898C91A689B78982FD0FC09C91BE
:1008D000818D8F5F8F73228D821749F0A18DAE0FAE
:1008E000BF2FB11D5D969C93818F08958C910895C3
:1008F000FC01538D448D252F30E0842F90E0821B26
:10090000930B541710F0CF96089501970895FC01AA
:10091000918D828D981761F0A28DAE0FBF2FB11D02
:100920005D968C91928D9F5F9F73928F90E008955A
:100930008FEF9FEF0895FC01918D828D981731F014
:10094000828DE80FF11D858D90E008958FEF9FEF68
:100950000895FC01918D228D892F90E0805C9F4F3E
:10096000821B91098F73992708958CEE94E00E9461
:10097000A90421E0892B09F420E0822F089589E859
:1009800095E00E94A90421E0892B09F420E0822F40
:10099000089586E296E00E94A90421E0892B09F4DB
:1009A00020E0822F089583EC96E00E94A90421E0C4
:1009B000892B09F420E0822F0895FC01A48DA80F53
:1009C000B92FB11DA35ABF4F2C91848D90E0019691
:1009D0008F739927848FA689B7892C93A089B189B1
:1009E0008C91837080648C93938D848D981306C052
:1009F0000288F389E02D80818F7D80830895EF92B6
:100A0000FF920F931F93CF93DF93EC0181E0888FC8
:100A10009B8D8C8D98131AC0E889F989808185FF98
:100A200015C09FB7F894EE89FF896083E889F9893A
:100A300080818370806480839FBF81E090E0DF913C
:100A4000CF911F910F91FF90EF900895F62E0B8D8F
:100A500010E00F5F1F4F0F731127E02E8C8D8E114A
:100A60000CC00FB607FCFACFE889F989808185FFB1
:100A7000F5CFCE010E94DD04F1CFEB8DEC0FFD2F01
:100A8000F11DE35AFF4FF0829FB7F8940B8FEA896C
:100A9000FB8980818062CFCFCF93DF93EC01888D7B
:100AA0008823B9F0AA89BB89E889F9898C9185FDE9
:100AB00003C0808186FD0DC00FB607FCF7CF8C9177
:100AC00085FFF2CF808185FFEDCFCE010E94DD044E
:100AD000E9CFDF91CF91089580E090E0892B29F054
:100AE0000E94D30481110E94000080E090E0892BD5
:100AF00029F00E94C90481110E94000080E090E06A
:100B0000892B29F00E94BF0481110E94000080E01F
:100B100090E0892B29F00E94B50481110C9400000B
:100B200008955F926F927F928F929F92AF92BF9241
:100B3000CF92DF92EF92FF920F931F93CF93DF93A9
:100B40005C016901DA015C90232B19F4CC24CA946E
:100B5000DC2C8A013A01660E771ED0E0C0E0F12C51
:100B6000E12C87E0882E912CF50180819181D801BC
:100B70006C910C2E01C0660F0A94EAF765296F7715
:100B8000DC01ED91FC910190F081E02D1995BFEF12
:100B9000EB1AFB0AF801608170E0C4018C1B9D0B0D
:100BA00002C0759567958A95E2F7562E2196C73053
:100BB000D10558F1CE14DF0441F1D5018D919C91FE
:100BC000652D6F77DC01ED91FC910190F081E02DB6
:100BD0001995BFEFEB1AFB0A551C5524551C279796
:100BE000E6CFEC14FD0408F4BFCFDF91CF911F9145
:100BF0000F91FF90EF90DF90CF90BF90AF909F90BC
:100C00008F907F906F905F9008950F5F1F4F6016D9
:100C1000710639F7209749F3EC14FD0430F7F5011C
:100C20008081918161E070E001C0660FCA95EAF7AA
:100C300061506521DC01ED91FC910190F081E02D86
:100C4000DF91CF911F910F91FF90EF90DF90CF90A8
:100C5000BF90AF909F908F907F906F905F9019940E
:100C60001F93CF93DF931F921F92CDB7DEB7182F3C
:100C70007A8369838091A0079091A1070097C9F0BA
:100C8000DC01ED91FC910190F081E02D1031B8F480
:100C900061157044A0F4612F606E199522E030E078
:100CA000AE014F5F5F4F62E070E080EA97E00E9424
:100CB00091050F900F90DF91CF911F91089560EFF4
:100CC00019958091A0079091A107DC01ED91FC910D
:100CD0000190F081E02D6FE619958091A007909129
:100CE000A107DC01ED91FC910190F081E02D612FD5
:100CF000199522E030E0AE014F5F5F4F62E070E097
:100D000080EA97E00E9491058091A0079091A10749
:100D1000DC01ED91FC910190F081E02D67EF1995D8
:100D2000C8CFEF92FF920F931F93CF93DF93C82FFB
:100D30008091A0079091A1070097C9F17A018B01DA
:100D4000DC01ED91FC910190F081E02D60EF1995AF
:100D50008091A0079091A107DC01ED91FC91019099
:100D6000F081E02D6C2F1995E7010E0D1F1DC017A6
:100D7000D10759F030E020E0AE0161E070E080EA98
:100D800097E00E9491052196F2CF8091A007909163
:100D9000A107DC01ED91FC910190F081E02D67EF5E
:100DA000DF91CF911F910F91FF90EF901994DF91F8
:100DB000CF911F910F91FF90EF900895CF92DF9206
:100DC000EF92FF920F931F93CF93DF93FC01E058B4
:100DD000FF4FE080EE2009F45CC0EC01C05CDF4F07
:100DE000A881B981109709F454C0FC01EF57FF4F57
:100DF000C080D180F60111810081ED91FC911197A5
:100E00000190F081E02D60EFCD01199588819981E5
:100E1000DC01ED91FC910190F081E02D69E71995DD
:100E200088819981DC01ED91FC910190F081E02DA8
:100E3000602F199588819981DC01ED91FC910190D9
:100E4000F081E02D612F1995F12C01E010E00F5F8A
:100E50001F4FE016F10659F030E020E0A601400FE8
:100E6000511F61E070E0CE010E949105F0CF8881B2
:100E70009981DC01ED91FC910190F081E02D67EF0B
:100E8000DF91CF911F910F91FF90EF90DF90CF9066
:100E90001994DF91CF911F910F91FF90EF90DF9008
:100EA000CF900895009711F00C94DE0608952091DC
:100EB0001C04260F3327331F21323105ECF4209117
:100EC000C204FC0190E080E0243069F082E00895E3
:100ED000A0911C042191AC0146505C4FA40FB52F8A
:100EE000B11D2C930196861798F380911C04680F0E
:100EF00060931C0480E0089581E008951092C2047C
:100F000081E08093C10410929C0461E084E10E941E
:100F10004C0361E085E10E944C03E9EBF0E0808145
:100F20008E7F808380818D7F808388E48093B8006A
:100F300085E48093BC000895CF93DF9391E0909374
:100F4000F9038823B9F0C091B800D091BA0080911C
:100F5000BC008A7B8093BC0060E084E10E944C036B
:100F600060E085E10E944C030E947E07D093BA00A6
:100F7000C093B800DF91CF9108958F929F92AF9266
:100F8000BF92CF92DF92EF92FF920F931F93CF9376
:100F9000DF93D091EB04D13208F0D7C0182FC09165
:100FA000EA040E94D3036B017C018091C204811189
:100FB0006BC082E08093C2041093C1048FEF8093D2
:100FC000C0041092BF04D093BE04AAECB4E0EEE9D2
:100FD000F4E080E0D81391C010929D0480919D04AC
:100FE000CC0FC82BC0939D0480919C04813009F0E4
:100FF00088C010929C040E94D3036B017C018091F5
:101000009D048093BB008091C4049091C504A0917D
:10101000C604B091C704892B8A2B8B2BA1F00E94A8
:10102000D3030091C4041091C5042091C6043091EB
:10103000C7046C197D098E099F0906171707280731
:10104000390708F442C08091BC0083FDD8CF85ECFD
:101050008093BC000E94D3036B017C018091C20489
:10106000823009F450C08091C0048F3F09F46FC0F2
:101070008091C004803209F46CC08091C004803338
:1010800009F469C084E026C08091C4049091C5042D
:10109000A091C604B091C704892B8A2B8B2B09F42D
:1010A00084CF0E94D3038090C4049090C504A09084
:1010B000C604B090C7046C197D098E099F09861675
:1010C0009706A806B90608F070CF8091C3040E9465
:1010D0009C0785E01092C9041092EB041092C8049A
:1010E000DF91CF911F910F91FF90EF90DF90CF9004
:1010F000BF90AF909F908F9008959D9191938F5F37
:1011000069CF85EEA5CF8091C4049091C504A091CC
:10111000C604B091C704892B8A2B8B2B09F49ECF70
:101120000E94D3030091C4041091C5042091C60409
:101130003091C7046C197D098E099F09061717079E
:101140002807390708F08ACFC0CF81E0C3CF80E0FD
:10115000C1CF82E0BFCF83E0BDCF08950895089549
:10116000E091F8038091F703E81730F4F0E0E952DA
:10117000FC4F808190E008958FEF9FEF089590914C
:10118000F8038091F7032FEF3FEF981748F4E92F0A
:10119000F0E0E952FC4F208130E09F5F9093F8032C
:1011A000C90108958091F7039091F803891B990B69
:1011B0000895CF92DF92EF92FF920F931F93CF93F8
:1011C000DF937C01CB018A012091C804222389F09E
:1011D000EB016B01C40ED51ECC15DD0569F06991DC
:1011E000D701ED91FC910190F081E02DC701199597
:1011F000F3CF642F0E945707C801DF91CF911F9151
:101200000F91FF90EF90DF90CF900895CF93DF93F1
:101210001F92CDB7DEB769832091C8042223F9F06D
:101220002091EB04203258F021E030E0FC013383C0
:10123000228390E080E00F90DF91CF91089580911C
:10124000C904E82FF0E0E653FB4F998190838F5F4C
:101250008093C9048093EB0481E090E0ECCF61E0DF
:10126000CE0101960E945707F7CF90E080E00895E5
:10127000DF92EF92FF920F931F93CF93DF93EC01D6
:10128000D62E7A0189018881803308F067C061E039
:101290008D2D0E947A038881282F30E0F901EE0F0E
:1012A000FF1FE20FF31FEE53F74F9D2D9F736081D9
:1012B000607C692B608320E232E02E193F0937FF02
:1012C00002C02D5F3F4F359527953595279529838A
:1012D00020E639E0201B310B37FF02C02D5F3F4F66
:1012E00035952795359527952A832CE0622F0E9406
:1012F0000520829FB001112430E020E0AB01420FB5
:10130000531FFA01EE0FFF1FE40FF51FEE53F74FC7
:10131000908196FD16C02F5F3F4F2C30310571F73D
:10132000813029F51092800082E080938100109234
:10133000850010928400B19A80916F008260809342
:101340006F00E8818E2F90E0FC01EE0FFF1FE80F89
:10135000F91FEE53F74F8081806480838881DF918D
:10136000CF911F910F91FF90EF90DF900895823001
:1013700061F4109290008093910010929500109269
:10138000940088BB80937100DCCF833069F41092A5
:10139000A00082E08093A1001092A5001092A4000A
:1013A00089BB80937200CDCF8111CBCF10922001E9
:1013B00082E08093210110922501109224018ABBC2
:1013C00080937300BECFAF92BF92CF92DF92EF9225
:1013D000FF920F931F93CF93DF936B017A01EC0180
:1013E000CD52DC4F28813CE0389F8001399F100DA1
:1013F0001124A0905209B12C27FF1FC0FB011182BC
:10140000108288818F5F888388819801280F311D21
:1014100087FD3A95F6012A153B051CF488818C302E
:10142000C4F180819181049680349C4908F473C092
:10143000F60180819181049670C088819801280FFF
:10144000311D87FD3A952A153B05DCF68881A801F8
:10145000480F511D87FD5A95FA01EE0FFF1FE40F4B
:10146000F51FEE53F74F808186FFCBCF8881F801BF
:10147000E80FF11D87FDFA95CF01EE0FFF1FE80F72
:10148000F91FEE53F74F808160E08F730E944C0389
:10149000B8CF808191812881A801420F511D27FD7D
:1014A0005A959A01FA01EE0FFF1FE20FF31FEE5358
:1014B000F74F21813281820F931FF701918380833F
:1014C00088819801280F311D87FD3A95F901EE0FAB
:1014D000FF1FE20FF31FEE53F74F808186FF22C0FC
:1014E0008881080F111D87FD1A95F801EE0FFF1F67
:1014F000E00FF11FEE53F74F808161E08F73DF91B2
:10150000CF911F910F91FF90EF90DF90CF90BF9000
:10151000AF900C944C0380E49CE9F70191838083A5
:101520008FEF8883DF91CF911F910F91FF90EF9004
:10153000DF90CF90BF90AF900895CF938031B0F4FB
:1015400021E030E0082E02C0220F331F0A94E2F798
:1015500040918D0450918E04672B51F42095309565
:101560002423352330938E0420938D04CF91089546
:10157000242B352B30938E0420938D049091D2032D
:101580009111F4CFC82F0E94B603BC018C2FCF91CC
:101590000C9430064F925F926F927F928F929F923F
:1015A000AF92BF92CF92DF92EF92FF920F931F9371
:1015B000CF93DF93893008F0A7C08F5FC82FCC0F7F
:1015C000CC0FCC0F4C2EC73410F056E4452ED62F3E
:1015D00038EF532E5C0E852C912CC401880F991F77
:1015E0009C01205A384F5901052DD12CC12C10E0F7
:1015F000772473940415C8F58EEF800F8434F8F4C3
:10160000F601E80DF91DED51F84F90819230B8F4D4
:10161000872D8D2366246394811101C0612C76018E
:10162000EE0CFF1C913089F4172939ECE30EF11C04
:10163000F501EE0DFF1D862D90E091838083770CE0
:101640000F5F8FEFC81AD80AD5CF882371F3F7013F
:10165000E753FF4FEA0DFB1D80819181019729F32C
:1016600062E0802F0E947A03E0CF10FF05C06D2F4B
:101670006170852D0E944C0311FF06C06D2F6270B2
:1016800089EF8C0F0E944C0312FF06C06D2F64700F
:101690008AEF8C0F0E944C0313FF06C06D2F6870F9
:1016A0008BEF8C0F0E944C0314FF06C06D2F6071EE
:1016B0008CEF8C0F0E944C0315FF06C06D2F6072DB
:1016C0008DEF8C0F0E944C0316FF06C06D2F6074C7
:1016D0008EEF8C0F0E944C0317FF16C06D2F6078A1
:1016E0008FEF8C0FDF91CF911F910F91FF90EF90B3
:1016F000DF90CF90BF90AF909F908F907F906F9032
:101700005F904F900C944C03DF91CF911F910F91FC
:10171000FF90EF90DF90CF90BF90AF909F908F9011
:101720007F906F905F904F9008958F929F92AF92AD
:10173000BF92CF92DF92EF92FF920F931F93CF93BE
:10174000DF93EB01863408F098C0082F10E0F80111
:10175000ED51F84F9081933009F49CC0943009F01A
:101760008CC08250843408F081C0F801EE57FC4FE1
:10177000C080D12C7601EE0CFF1C4B01603282E060
:1017800078070CF03EC0F701EC0DFD1DED5AF64F49
:101790008181A8E88A2E912C881A910887FD93945C
:1017A000880C991C880C991C092C000CAA08BB08F1
:1017B000828128E532E0281B310987FD3395220F0D
:1017C000331F220F331F032E000C440B550B281917
:1017D00039094A095B09DB01653B710514F0A4EB8B
:1017E000B0E0B7FF02C0B0E0A0E00E94CC1F24EB45
:1017F00030E040E050E00E94A21F820E931EA41E23
:10180000B51EF701EC0DFD1DED5AF64F208120337A
:1018100068F5318188E890E0831B910937FD939545
:10182000880F991F880F991F881699067CF03281BE
:1018300088E592E0831B910937FD9395880F991FE6
:10184000880F991F881699060CF4C4010297880F17
:10185000991F4FB7F89430E0F901EE0FFF1FE20F28
:10186000F31FEE53F74F928381834FBF000F111F79
:10187000F801E75DF74FD183C083DF91CF911F91CE
:101880000F91FF90EF90DF90CF90BF90AF909F901F
:101890008F900895F82E8EEF800F8C3020F084ED1D
:1018A000800F833018F761E08F2D0E947A03209714
:1018B00029F460E08F2D0E944C03D8CFCF3FD10593
:1018C00011F461E0F7CFF801E25EFC4FE491E150E2
:1018D000E23108F0B0C0F0E08827EE58F34F8F4FA8
:1018E0000C941120840C890C8E0C980CA20C1B0DEE
:1018F000AC0CB40CBC0CC60CD00CDA0CE90CF30C20
:101900001B0DFD0C070D110D84B5806884BDC7BD8E
:10191000ADCF84B5806284BDC8BDA8CF8091800062
:10192000806880938000D0938900C09388009ECF08
:1019300080918000806280938000D0938B00C09360
:101940008A0094CF80918000886080938000D0933B
:101950008D00C0938C008ACF8091B0008068809306
:10196000B000C093B30082CF8091B00080628093BA
:10197000B000C093B4007ACF8091900080688093CB
:101980009000D0939900C093980070CF8091900000
:10199000806280939000D0939B00C0939A0066CFA2
:1019A00080919000886080939000D0939D00C093B8
:1019B0009C005CCF8091A00080688093A000809103
:1019C000A0008F7B8093A000D093A900C093A800B3
:1019D0004DCF8091A00080628093A000D093AB0097
:1019E000C093AA0043CF8091A00088608093A0009C
:1019F000D093AD00C093AC0039CF809120018068B6
:101A000080932001D0932901C09328012FCF80918A
:101A10002001806280932001D0932B01C0932A0182
:101A200025CF80912001886080932001D0932D01E3
:101A3000C0932C011BCFC038D1050CF042CF39CF59
:101A40009EEF980F943480F4E82FF0E0DF01AD5161
:101A5000B84F9C91913041F4EE0FFF1FE75DF74FB7
:101A6000608371830C944C030895FF920F931F932E
:101A7000CF93DF931F921F92CDB7DEB7082F10E0F0
:101A8000F801ED5AFB4F9081F62EF92208531C4FB6
:101A9000411104C0F80190819F1511F12F2D30E004
:101AA0003A832983A091A007B091A1071097B1F0C4
:101AB000682F6F706069ED91FC9111970190F08132
:101AC000E02DCD01199522E030E0AE014F5F5F4F70
:101AD00062E070E080EA97E00E949105F801F082F0
:101AE0000F900F90DF91CF911F910F91FF9008956C
:101AF0000F931F93CF93DF93893008F071C0282F85
:101B000030E0F901E45AFB4F6083672B09F468C0A9
:101B1000082F2D5A3B4FF9011081D82FDD0FDD0F13
:101B2000DD0F8EEF8D0F843450F4C12FC17010FF84
:101B300007C08D2F0E942303C1E0892B09F4C0E068
:101B40008FEF8D0F843448F411FF07C081E08D0FB3
:101B50000E942303892B09F0C26012FF07C082E0B4
:101B60008D0F0E942303892B09F0C46013FF07C067
:101B700083E08D0F0E942303892B09F0C86014FFB6
:101B800007C084E08D0F0E942303892B09F0C061F8
:101B900015FF07C085E08D0F0E942303892B09F0F4
:101BA000C062D034A1F016FF07C086E08D0F0E94FE
:101BB0002303892B09F0C064DF3349F017FF07C006
:101BC00087E08D0F0E942303892B09F0C06841E054
:101BD0006C2F802FDF91CF911F910F910C94350DB9
:101BE000DF91CF911F910F910895A82FB0E0AE57CC
:101BF000BC4F9C91292F30E0F901EE0FFF1FE20F3F
:101C0000F31FED5AF64FE0812E2F30E0F901EE0F71
:101C1000FF1FE20FF31FEE53F74F80818F7B80830E
:101C200080918003981308C0992319F091509093E4
:101C300080038FEF8C9308958823D9F3E09181037B
:101C4000EF5FE0938103F0E0E35FFC4F9083F1CF1F
:101C5000FC0101900020E9F73197BF01681B790B67
:101C6000AC0181E70C949106CF93DF93DB01909157
:101C70008003903378F530918103682F70E0FB0189
:101C8000EE57FC4F3323E1F0C32FD0E0C35FDC4FAE
:101C900088818083315030938103808123E0829F4B
:101CA000C00111248D5A964F1A161B0674F414168F
:101CB00015065CF49A01AD01DF91CF910C943809BF
:101CC00090839F5F90938003E8CF20E639E040E265
:101CD00052E0F2CF8DE292E0DF91CF910C94280E8A
:101CE00085ED8093BC008091C4049091C504A091BF
:101CF000C604B091C7040796A11DB11D23E0B69597
:101D0000A795979587952A95D1F72091BC0024FD3A
:101D100003C01092C20408954091C4045091C504B8
:101D20006091C6047091C704452B462B472B69F37D
:101D30000097A105B10541F02AE22A95F1F700C00C
:101D40000197A109B109E1CF8091C3040C949C07CC
:101D50008F929F92BF92CF92DF92EF92FF920F935A
:101D60001F93CF93DF93C82ED12CE601C05AD84FD2
:101D7000FE01ED57FF4F90819F3709F4A1C09630C7
:101D800061F49091D103992341F06630710529F0F7
:101D90001092D1039FEF909300027B01182F0EEF5A
:101DA000080F043408F564307105F1F0F601EE57C0
:101DB000FC4F80818033C0F490E0FC01EE0FFF1FE8
:101DC000E80FF91FED5AF64FE0818E2F90E0FC01ED
:101DD000EE0FFF1FE80FF91FEE53F74F808186FFCC
:101DE00003C0812F0E94F50D5AECB52EB10E8FE085
:101DF0008B1558F061E070E032E0E316F10411F069
:101E000070E060E08B2D0E949D0A0434C8F4E12F3D
:101E1000E695E695E695F0E0ED5AFB4F2081312FEF
:101E2000377081E090E001C0880F3A95EAF7E1143D
:101E3000F10421F03BE0E316F10411F5822B8083DD
:101E40004601880C991CF401E75DF74F118210825E
:101E50008CE0E816F10408F0C8C0F7018827EC5CB4
:101E6000F04F8F4F0C941120540F810F430F980F98
:101E7000B20FF50FE90FF50FF50FF50F600F6C0FAF
:101E800080958223DCCF3FE03B15D0F0043420F472
:101E900060E0812F0E947A03CD57DF4F88818F3712
:101EA00079F082E088830CC0043450F460E0812F24
:101EB0000E947A03CD57DF4F88818F3709F018824F
:101EC000DF91CF911F910F91FF90EF90DF90CF9016
:101ED000BF909F908F900895043490F762E0812F17
:101EE0000E947A03CD57DF4F88818F3711F08BE046
:101EF0008883F401E75DF74F81E090E09183808370
:101F0000DFCF0434E8F6FE01ED57FF4F80818330C8
:101F100021F460E0812F0E944C0361E0812F0E9438
:101F20007A03CD57DF4F88818F3751F281E0BACFE6
:101F30000C3020F084ED810F833010F661E0812FAA
:101F40000E947A0361E0812F0E947A0360E0812F72
:101F50000E944C03CD57DF4F88818F3709F4B0CFF3
:101F600083E0A0CF043408F0ABCFCD57DF4F88819A
:101F70008F3711F084E08883F601EE57FC4F8081A3
:101F80008F3FA9F090E0FC01EE0FFF1FE80FF91F53
:101F9000ED5AF64FE0818E2F90E0FC01EE0FFF1F0F
:101FA000E80FF91FEE53F74F808186FD89CF4FEF81
:101FB0005FEF6FEF7FEF812FDF91CF911F910F9137
:101FC000FF90EF90DF90CF90BF909F908F900C94F8
:101FD000340E1451123008F073CFCD57DF4F888183
:101FE0008F3709F46DCF86E05DCF81E492E0DF9119
:101FF000CF911F910F91FF90EF90DF90CF90BF9006
:102000009F908F900C94280E0F931F93CF93DF9384
:1020100081E08093D2038091D103882329F010922C
:10202000D1038FEF80930002ECE5F4E0C3E5D4E048
:10203000A8ECB3E0119219921D9284E0E536F807FE
:10204000C9F702E813E0C0E0DFEF8AEC8C0F62E032
:1020500070E0803130F08EEF8C0F843428F461E032
:1020600070E08C2F0E94A80EF801D1938F01CF5FF2
:10207000C63459F710928E0410928D041092810389
:10208000109280031092D203DF91CF911F910F9194
:1020900008954F925F926F927F928F929F92AF922C
:1020A000BF92FF920F931F93CF93DF93F82E8B0174
:1020B000D42FC22F6F3F760709F490C081E0809340
:1020C000C804F092EA041092C9041092EB0486EB63
:1020D00098E00E9406098C2F0E94BD0780917E0324
:1020E00090917F038230910538F0880F991F880FF7
:1020F000991F05970197F1F70E94D3034B015C01EB
:102100008091C20481116CC0CD2FD13208F0C0E2A1
:1021100081E08093C2048093C1049FEF9093C00438
:102120001092BF049C0F9093BE0480939D049091E5
:102130009D048F2D880F892B80939D0480919C0492
:10214000813009F0A1C010929C040E94D3034B017E
:102150005C0180919D048093BB008091C4049091A8
:10216000C504A091C604B091C704892B8A2B8B2B80
:10217000A1F00E94D3034090C4045090C504609025
:10218000C6047090C704681979098A099B09461624
:1021900057066806790608F444C08091BC0083FDA8
:1021A000D8CF85EC8093BC000E94D3034B015C0127
:1021B0008091C204813009F469C08091BF048C17FA
:1021C00010F4C091BF04EEE9F4E0A7EDB3E080E0C5
:1021D0008C1761F191919D938F5FFACF00E08CCFC6
:1021E0008091C4049091C504A091C604B091C70425
:1021F000892B8A2B8B2B09F483CF0E94D303409029
:10220000C4045090C5046090C6047090C704681957
:1022100079098A099B09461657066806790608F067
:102220006FCF8091C3040E949C07C0E01092F80316
:10223000C093F7032D2F30E08C2F90E0281739073B
:102240000CF046C082E592E00E94280EF0923E0318
:1022500000933F030EE313E0AD2EB12CC8018E5363
:1022600093408A159B050CF041C00F5F1F4F909162
:10227000F7038091F8039817C9F186EB98E00E9464
:10228000BF08F8018183EACF85EE8CCF8091C4042A
:102290009091C504A091C604B091C704892B8A2BE4
:1022A0008B2B09F485CF0E94D3034090C404509037
:1022B000C5046090C6047090C704681979098A093A
:1022C0009B09461657066806790608F071CFA9CF14
:1022D000821793070CF0BACF8FE692E00E94280E87
:1022E000D091F7038091F803D81BB0CFDE5F6D2F3C
:1022F00070E04EE353E087E7DF91CF911F910F919C
:10230000FF90BF90AF909F908F907F906F905F9065
:102310004F900C949106EF92FF920F931F93CF93DF
:10232000DF938956823108F035C0EA01162FE82F75
:10233000F0E08827E156FE4E8F4F0C941120E213F7
:10234000CA114C13CA11A113CA112A13CE12CA11F1
:10235000CA11CA11CA11CA11B111CA119212CA11F5
:102360001413998195FF0AC08BE892E0DF91CF9119
:102370001F910F91FF90EF900C94280E888131E00F
:1023800096FB222720F9232798719830D1F148F441
:102390009923A9F0DF91CF911F910F91FF90EF90BA
:1023A0000895903109F44CC09831A1F720910002B2
:1023B00012160CF472C08FEF80930002EBCF3093B3
:1023C000C8048093EA041092C9041092EB0402E05E
:1023D000011778F4FE01E00FF11D61816795662712
:1023E00067958081680F86EB98E00E9406090E5F72
:1023F000EFCF81E00E94BD0783E191E00197F1F703
:10240000C9CF9A814B816630A1F430E8439FB00177
:102410001124690F711D4D814795442747959C8173
:10242000490FDF91CF911F910F91FF90EF900C9486
:102430004910479544274795490F6FEF7FEFF1CF3C
:10244000E0910002E7301CF08BEA92E08FCF3A81F6
:102450009B816630D9F460E8969FA0011124430F58
:10246000511D9D819795992797953C81930FEF5F1B
:10247000E093000235E0E302F0011124EB59FB4F39
:102480008083528341839383248384CF97959927B4
:102490009795930F4FEF5FEFEACF90E0622F022EF8
:1024A000000C770B35E0492F50E06417750764F096
:1024B000349FF001359FF00D1124EB59FB4F408103
:1024C000481719F09F5FEFCF90E085E0492F50E06B
:1024D000641775071CF19830F8F4FA0131968E9F55
:1024E000D0018F9FB00D1124AB59BB4F3C91849FFD
:1024F000F001859FF00D1124EB59FB4F30831196AD
:102500004D915C9112975283418313963C9113979E
:10251000338314963C9134839F5FD8CF215020930E
:10252000000238CF623078F0898160E8869F9001A0
:1025300011248881820F932F911D009721F0909391
:102540007F0380937E038091D103811123CFC0E06C
:102550008CEE8C0F823028F466E070E08C2F0E94A5
:10256000A80ECF5FC634A1F781E08093D10310920B
:10257000F8031092F7031092C9041092EB040E9422
:102580007E078DEA98E090931B0480931A048EEAEC
:1025900098E090931F0480931E04FCCE653008F4ED
:1025A000F9CE18818EEF810F843408F0F3CE0981C3
:1025B000EA80FB80CC81E12FF0E0EE57FC4F808178
:1025C0008033C0F490E0FC01EE0FFF1FE80FF91F0D
:1025D000ED5AF64FE0818E2F90E0FC01EE0FFF1FC9
:1025E000E80FF91FEE53F74F808186FF03C0812F5C
:1025F0000E94F50D80E8C89FA00111244F0D511DC8
:1026000090E8E99EB0011124600F711D812F0E9496
:10261000340E64E070E0812FDF91CF911F910F9114
:10262000FF90EF900C94A80E623008F4B3CE89812D
:10263000E0E88E9F900111248881820F932F911DD5
:10264000009729F09093020280930102A3CE81E0CB
:1026500090E0F8CF623008F49DCE698170E01230CE
:1026600091F08A81F0E88F9FC0011124682B792BAB
:10267000133049F08B8190E090E4899F902D88275A
:102680001124682B792B8881DF91CF911F910F91B5
:10269000FF90EF900C94950B80EF0E9460028CE607
:1026A0000E946002CEEF8CEC8C0F803108F040C0AD
:1026B00082E00E9460028AE00E94600286ED8C0F38
:1026C0008330C0F1C43430F484E00E9460028EE0B4
:1026D0000E9460028EEE8C0F823030F486E00E9401
:1026E000600281E00E9460028FE70E946002CF5F7B
:1026F000C43449F487EFDF91CF911F910F91FF9080
:10270000EF900C946002C43470F680E00E94600286
:1027100081E00E9460028BE00E94600281E00E94E2
:10272000600281E00E94600281E00E946002BBCFF3
:10273000CC3020F683E00E94600288E00E946002B4
:10274000C1CF662309F426CEC88180EF0E946002C3
:102750008EE60E9460028C2F0E946002C63450F602
:10276000D0E0FE01ED51F84F80810E946002CC0F55
:10277000DD1F8E01075D174FF80180818F770E9462
:102780006002F801808191819C012078232B39F02F
:10279000880F892F881F990B8F770E946002C75D71
:1027A000D74F888199819C012227307C232B09F403
:1027B000A1CF990F880B990F982F881F8F770E94B0
:1027C000600298CF80EF0E9460028AE60E94600259
:1027D000CAEC8FE7C03108F48C2F0E946002CF5FF3
:1027E000C031B9F787CF1F920F920FB60F92112405
:1027F0002F933F938F939F93AF93BF9380919404B4
:1028000090919504A0919604B0919704309193040F
:1028100023E0230F2D3758F50196A11DB11D2093FC
:1028200093048093940490939504A0939604B0939A
:1028300097048091980490919904A0919A04B09182
:102840009B040196A11DB11D809398049093990457
:10285000A0939A04B0939B04BF91AF919F918F91E5
:102860003F912F910F900FBE0F901F90189526E863
:10287000230F0296A11DB11DD2CF1F920F920FB64A
:102880000F9211240BB60F922F933F934F935F93A8
:102890006F937F938F939F93AF93BF93EF93FF9328
:1028A0008CEE94E00E94DD04FF91EF91BF91AF9117
:1028B0009F918F917F916F915F914F913F912F9158
:1028C0000F900BBE0F900FBE0F901F9018951F9288
:1028D0000F920FB60F9211240BB60F922F933F93C6
:1028E0004F935F936F937F938F939F93AF93BF9318
:1028F000EF93FF938CEE94E00E945F04FF91EF91C1
:10290000BF91AF919F918F917F916F915F914F9107
:102910003F912F910F900BBE0F900FBE0F901F9005
:1029200018951F920F920FB60F9211240BB60F92AB
:102930002F933F934F935F936F937F938F939F93C7
:10294000AF93BF93EF93FF9389E895E00E94DD0476
:10295000FF91EF91BF91AF919F918F917F916F9177
:102960005F914F913F912F910F900BBE0F900FBE33
:102970000F901F9018951F920F920FB60F9211246F
:102980000BB60F922F933F934F935F936F937F9369
:102990008F939F93AF93BF93EF93FF9389E895E055
:1029A0000E945F04FF91EF91BF91AF919F918F9132
:1029B0007F916F915F914F913F912F910F900BBE3F
:1029C0000F900FBE0F901F9018951F920F920FB689
:1029D0000F9211240BB60F922F933F934F935F9357
:1029E0006F937F938F939F93AF93BF93EF93FF93D7
:1029F00086E296E00E94DD04FF91EF91BF91AF91D6
:102A00009F918F917F916F915F914F913F912F9106
:102A10000F900BBE0F900FBE0F901F9018951F9236
:102A20000F920FB60F9211240BB60F922F933F9374
:102A30004F935F936F937F938F939F93AF93BF93C6
:102A4000EF93FF9386E296E00E945F04FF91EF917F
:102A5000BF91AF919F918F917F916F915F914F91B6
:102A60003F912F910F900BBE0F900FBE0F901F90B4
:102A700018951F920F920FB60F9211240BB60F925A
:102A80002F933F934F935F936F937F938F939F9376
:102A9000AF93BF93EF93FF9383EC96E00E94DD0426
:102AA000FF91EF91BF91AF919F918F917F916F9126
:102AB0005F914F913F912F910F900BBE0F900FBEE2
:102AC0000F901F9018951F920F920FB60F9211241E
:102AD0000BB60F922F933F934F935F936F937F9318
:102AE0008F939F93AF93BF93EF93FF9383EC96E005
:102AF0000E945F04FF91EF91BF91AF919F918F91E1
:102B00007F916F915F914F913F912F910F900BBEED
:102B10000F900FBE0F901F9018951F920F920FB637
:102B20000F9211240F900FBE0F901F9018951F92B7
:102B30000F920FB60F9211240BB60F922F933F9363
:102B40004F935F936F937F938F939F93AF93BF93B5
:102B5000EF93FF938091B900887F803609F44DC0D0
:102B600008F040C0883209F4A9C028F5803109F482
:102B70009DC0C8F4882309F4FBC0883009F496C0CE
:102B8000FF91EF91BF91AF919F918F917F916F9145
:102B90005F914F913F912F910F900BBE0F900FBE01
:102BA0000F901F901895883109F488C0803241F742
:102BB0008093C00414C0803409F49DC040F4803375
:102BC000B9F38833E9F68093C00485ECB0C0803552
:102BD00009F485C0883509F496C0883489F60E94C6
:102BE000700ECECF883909F48CC038F5883729F0BB
:102BF00050F4883611F0803719F683E08093C204D0
:102C00001092400457C0883809F47BC0803919F00D
:102C1000803809F0B5CF80914004803208F071C04F
:102C2000E091400481E08E0F809340048091BB00CE
:102C3000F0E0E05EFB4F80833DC0803B39F0E0F484
:102C4000803A09F479C0883A09F09ACF84E08093F9
:102C5000C20410921D0410921C04E0911A04F09119
:102C60001B04199580911C0481110FC081E0809391
:102C70001C041092FA0309C0803C09F4A6CF883CDA
:102C800009F4A3CF883B09F07BCFE0911D0481E0DC
:102C90008E0F80931D04F0E0E650FC4F80818093FE
:102CA000BB0090911D0480911C0429C080919D045B
:102CB0008093BB0085EC8093BC0062CF9091BF04F1
:102CC0008091BE04981758F5E091BF0481E08E0F03
:102CD0008093BF04F0E0E256FB4F8081E9CFE091A2
:102CE000BF0481E08E0F8093BF048091BB00F0E0B1
:102CF000E256FB4F80839091BF048091BE049817E9
:102D0000C8F285E8D8CFE091BF0481E08E0F8093B0
:102D1000BF048091BB00F0E0E256FB4F80838091BE
:102D2000C10481115CCF81E080939C0484EA80938C
:102D3000BC001092C20424CF85EC8093BC0010929A
:102D4000C20480914004803230F4E0914004F0E00D
:102D5000E05EFB4F10826091400470E0E0911E0441
:102D6000F0911F0480E294E019951092400408CF7E
:102D70001092C00434CF1F920F920FB60F921124FD
:102D80000BB60F922F933F934F935F936F937F9365
:102D90008F939F93AF93BF93EF93FF9348E251E0DC
:102DA00064E271E090E080E00E94E309FF91EF911E
:102DB000BF91AF919F918F917F916F915F914F9153
:102DC0003F912F910F900BBE0F900FBE0F901F9051
:102DD00018951F920F920FB60F9211240BB60F92F7
:102DE0002F933F934F935F936F937F938F939F9313
:102DF000AF93BF93EF93FF9348EA50E064EA70E02B
:102E000083E090E00E94E309FF91EF91BF91AF91C1
:102E10009F918F917F916F915F914F913F912F91F2
:102E20000F900BBE0F900FBE0F901F9018951F9222
:102E30000F920FB60F9211240BB60F922F933F9360
:102E40004F935F936F937F938F939F93AF93BF93B2
:102E5000EF93FF9348E950E064E970E082E090E08E
:102E60000E94E309FF91EF91BF91AF919F918F91E4
:102E70007F916F915F914F913F912F910F900BBE7A
:102E80000F900FBE0F901F9018951F920F920FB6C4
:102E90000F9211240BB60F922F933F934F935F9392
:102EA0006F937F938F939F93AF93BF93EF93FF9312
:102EB00048E850E064E870E081E090E00E94E309B7
:102EC000FF91EF91BF91AF919F918F917F916F9102
:102ED0005F914F913F912F910F900BBE0F900FBEBE
:102EE0000F901F9018951092EF041092EE0488EE48
:102EF00093E0A0E0B0E08093F0049093F104A093FD
:102F0000F204B093F3042DE032E03093ED0420930B
:102F1000EC0445E351E05093F9044093F80444E392
:102F200051E05093FB044093FA0440E351E0509386
:102F3000FD044093FC0441E351E05093FF044093AF
:102F4000FE0442E351E0509301054093000546E33F
:102F500051E050930305409302051092050510922D
:102F60000605109207051092080510928C05109224
:102F70008B0580938D0590938E05A0938F05B0935C
:102F8000900530938A052093890545ED50E05093D4
:102F900096054093950544ED50E050939805409375
:102FA000970540ED50E050939A054093990541ED07
:102FB00050E050939C0540939B0542ED50E05093A8
:102FC0009E0540939D0546ED50E05093A00540932B
:102FD0009F051092A2051092A3051092A4051092CD
:102FE000A505109229061092280680932A06909330
:102FF0002B06A0932C06B0932D0630932706209322
:1030000026064DEC50E050933306409332064CECCC
:1030100050E0509335064093340648EC50E050930E
:1030200037064093360649EC50E0509339064093FA
:1030300038064AEC50E050933B0640933A064EEC7B
:1030400050E050933D0640933C0610923F0610928C
:10305000400610924106109242061092C606109247
:10306000C5068093C7069093C806A093C906B0937F
:10307000CA063093C4062093C30625EC30E0309393
:10308000D0062093CF0624EC30E03093D206209374
:10309000D10620EC30E03093D4062093D30621EC07
:1030A00030E03093D6062093D50622EC30E0309302
:1030B000D8062093D70626EC30E03093DA0620932A
:1030C000D9061092DC061092DD061092DE061092F0
:1030D000DF0620E637E01092A1071092A007309398
:1030E000A4072093A30740E450E05093A607409321
:1030F000A5071092A7071092A8071092AA0710928E
:10310000A9071092AB071092AD071092AC0710926E
:10311000AF071092AE071092B1071092B00710924D
:10312000B3071092B2071092B5071092B40710922D
:10313000B7071092B6071092B9071092B80710920D
:10314000BF071092BE071092C1071092C0071092DD
:10315000C3071092C2071092C5071092C4071092BD
:10316000D3071092D2071092A2071092E007109294
:10317000E2071092E1071092B50846EE51E0509335
:10318000C7074093C60740EF51E05093C9074093EB
:10319000C8074AEF51E05093CB074093CA0744E079
:1031A00052E05093CD074093CC074EE052E050934D
:1031B000CF074093CE0748E152E05093D1074093A8
:1031C000D00742E252E05093D5074093D40743E240
:1031D00052E05093D7074093D60742E557E050930B
:1031E000D9074093D8073093BB072093BA074BE227
:1031F00054E05093DB074093DA073093BD072093E8
:10320000BC072EE232E03093DD072093DC071092FA
:10321000B9081092B8088093BA089093BB08A0939D
:10322000BC08B093BD088FE192E09093B7088093FB
:10323000B608E3E5F9E02FEF48EB5BE08091520937
:103240008033B8F491E0980F90935209808390E016
:10325000DC01AA0FBB1FA80FB91FAE53B74F1296C0
:103260005C934E931197339689E0E33EF80731F76C
:1032700008952083F8CF789484B5826084BD84B5A6
:10328000816084BD85B5826085BD85B5816085BD61
:1032900080916E00816080936E0010928100809119
:1032A00081008260809381008091810081608093A1
:1032B0008100809180008160809380008091B100C6
:1032C00084608093B1008091B00081608093B000F1
:1032D0008091910082608093910080919100816043
:1032E0008093910080919000816080939000809104
:1032F000A10082608093A1008091A10081608093F1
:10330000A1008091A00081608093A00080912101A4
:10331000826080932101809121018160809321014D
:103320008091200181608093200180917A008460E7
:1033300080937A0080917A00826080937A008091F5
:103340007A00816080937A0080917A00806880930F
:103350007A001092C10085E18093E0078091E10737
:103360009091E2070E94B520C091E007D0E0CE0125
:1033700001960E9419209093E2078093E107FC01D7
:10338000EC0FFD1F108212E0DC011C9325E011966A
:103390002C93AE01425051096AEF72E002960E94EE
:1033A0003E2185E99BE090934E0480934D048AEC86
:1033B0009AE090934C0480934B048DE99AE09093AB
:1033C0004A048093490488E79DE0909348048093E1
:1033D000470488EA9EE0909346048093450480E287
:1033E0009DE090934404809343048BE891E1909393
:1033F000500480934F0484E090E1909352048093B2
:103400005104E091D306F091D4061083E091D306E5
:10341000F091D4061082E091CF06F091D006108290
:10342000E091D106F091D20680E180831092DB0614
:10343000E091D706F091D80686E08083E091D5062A
:10344000F091D606808180618083E091D506F0916D
:10345000D606808188608083E091D506F091D606FB
:10346000808180688083E091D506F091D6068081C6
:103470008F7D80838091B50881114FC061E08DE020
:103480000E947A0362ED70E080E090E00E94F80311
:1034900061E08DE00E944C0368E270E080E090E023
:1034A0000E94F80360E08DE00E944C0362ED70E042
:1034B00080E090E00E94F80361E08DE00E944C0300
:1034C00068E270E080E090E00E94F80360E08DE048
:1034D0000E944C036AEF70E080E090E00E94F803E5
:1034E000C5E062ED70E080E090E00E94F80361E0EA
:1034F0008DE00E944C0368E270E080E090E00E9462
:10350000F80360E08DE00E944C03C15051F76DE775
:1035100070E080E090E00E94F80383EC96E09093E6
:10352000DF078093DE079093A1078093A00780EACE
:1035300097E00E94360280E697E00E94DE060E9435
:103540000410D5E0DD24D39402E010E0EE24E394EF
:10355000F12C80915C04882391F1C0905304C2FC4B
:10356000E1C2C0E0C3FE06C083E00E942303892BB2
:1035700009F0C860C4FE06C084E00E942303892BC2
:1035800009F0C061C5FE06C085E00E942303892BB7
:1035900009F0C062C6FE06C086E00E942303892BA4
:1035A00009F0C064C7FE06C087E00E942303892B90
:1035B00009F0C06840E06C2F80E00E94350D8091DA
:1035C0005D04882309F44AC0C0905404CC2DC17016
:1035D000C0FE07C088E00E942303C1E0892B09F4E4
:1035E000C0E0C1FE06C089E00E942303892B09F0D8
:1035F000C260C2FE06C08AE00E942303892B09F044
:10360000C460C3FE06C08BE00E942303892B09F02F
:10361000C860C4FE06C08CE00E942303892B09F019
:10362000C061C5FE06C08DE00E942303892B09F00E
:10363000C062C6FE06C08EE00E942303892B09F0FB
:10364000C064C7FE06C08FE00E942303892B09F0E7
:10365000C06840E06C2F81E00E94350D80915E04CF
:10366000882309F44AC0C0905504CC2DC170C0FE17
:1036700007C080E10E942303C1E0892B09F4C0E068
:10368000C1FE06C081E10E942303892B09F0C260BC
:10369000C2FE06C082E10E942303892B09F0C460A8
:1036A000C3FE06C083E10E942303892B09F0C86092
:1036B000C4FE06C084E10E942303892B09F0C06187
:1036C000C5FE06C085E10E942303892B09F0C06274
:1036D000C6FE06C086E10E942303892B09F0C06460
:1036E000C7FE06C087E10E942303892B09F0C0684A
:1036F00040E06C2F82E00E94350D80915F048823AA
:1037000009F44AC0C0905604CC2DC170C0FE07C059
:1037100088E10E942303C1E0892B09F4C0E0C1FEC7
:1037200006C089E10E942303892B09F0C260C2FE12
:1037300006C08AE10E942303892B09F0C460C3FEFE
:1037400006C08BE10E942303892B09F0C860C4FEE8
:1037500006C08CE10E942303892B09F0C061C5FEDD
:1037600006C08DE10E942303892B09F0C062C6FECA
:1037700006C08EE10E942303892B09F0C064C7FEB6
:1037800006C08FE10E942303892B09F0C06840E046
:103790006C2F83E00E94350D80916004882309F42A
:1037A0004AC0C0905704CC2DC170C0FE07C080E253
:1037B0000E942303C1E0892B09F4C0E0C1FE06C0CA
:1037C00081E20E942303892B09F0C260C2FE06C079
:1037D00082E20E942303892B09F0C460C3FE06C065
:1037E00083E20E942303892B09F0C860C4FE06C04F
:1037F00084E20E942303892B09F0C061C5FE06C044
:1038000085E20E942303892B09F0C062C6FE06C030
:1038100086E20E942303892B09F0C064C7FE06C01C
:1038200087E20E942303892B09F0C06840E06C2FD7
:1038300084E00E94350D80916104882309F44AC018
:10384000C0905804CC2DC170C0FE07C088E20E9411
:103850002303C1E0892B09F4C0E0C1FE06C089E260
:103860000E942303892B09F0C260C2FE06C08AE2CF
:103870000E942303892B09F0C460C3FE06C08BE2BB
:103880000E942303892B09F0C860C4FE06C08CE2A5
:103890000E942303892B09F0C061C5FE06C08DE29A
:1038A0000E942303892B09F0C062C6FE06C08EE287
:1038B0000E942303892B09F0C064C7FE06C08FE273
:1038C0000E942303892B09F0C06840E06C2F85E03B
:1038D0000E94350D80916204882309F44AC0C0908B
:1038E0005904CC2DC170C0FE07C080E30E942303A1
:1038F000C1E0892B09F4C0E0C1FE06C081E30E944B
:103900002303892B09F0C260C2FE06C082E30E9435
:103910002303892B09F0C460C3FE06C083E30E9421
:103920002303892B09F0C860C4FE06C084E30E940B
:103930002303892B09F0C061C5FE06C085E30E9400
:103940002303892B09F0C062C6FE06C086E30E94ED
:103950002303892B09F0C064C7FE06C087E30E94D9
:103960002303892B09F0C06840E06C2F86E00E9499
:10397000350D80916304882309F44AC0C0905A042D
:10398000CC2DC170C0FE07C088E30E942303C1E0B4
:10399000892B09F4C0E0C1FE06C089E30E9423031D
:1039A000892B09F0C260C2FE06C08AE30E9423038D
:1039B000892B09F0C460C3FE06C08BE30E94230379
:1039C000892B09F0C860C4FE06C08CE30E94230363
:1039D000892B09F0C061C5FE06C08DE30E94230358
:1039E000892B09F0C062C6FE06C08EE30E94230345
:1039F000892B09F0C064C7FE06C08FE30E94230331
:103A0000892B09F0C06840E06C2F87E00E94350DDB
:103A1000809164048823D1F1C0905B04CC2DC170E7
:103A2000C0FE07C080E40E942303C1E0892B09F493
:103A3000C0E0C1FE06C081E40E942303892B09F087
:103A4000C260C2FE06C082E40E942303892B09F0F3
:103A5000C460C3FE06C083E40E942303892B09F0DF
:103A6000C860C4FE06C084E40E942303892B09F0C9
:103A7000C061C5FE06C085E40E942303892B09F0BE
:103A8000C06240E06C2F88E00E94350D8091DE0717
:103A90009091DF07DC01ED91FC910084F185E02D30
:103AA0001995892B09F4D7C18091DE079091DF0722
:103AB000DC01ED91FC910284F385E02D19959C01C8
:103AC0008F3F980719F3982F8091AB07882309F44B
:103AD0009BC0973F09F087C01092AB07A091A30746
:103AE000B091A4076C91613709F440C0693709F0BF
:103AF00064C0E091D807F091D907309739F28091EE
:103B0000AC079091AD0783309105A0F430E020E040
:103B100050E040E070E060E08091BA079091BB0710
:103B20001995B4CF82E00E942303892B09F419CDA3
:103B3000C4E018CDBD016D5F7F4F03970E949D02C9
:103B4000BC016D5F7F4F80E00E946D02E091A30792
:103B5000F091A4079F012D5F3F4F428150E06181AA
:103B600070E0E091D807F091D907D6CF8091D407C3
:103B70009091D507892B09F489CFBD016F5F7F4FE5
:103B80008091AC079091AD0701970E949D02BC0106
:103B90006F5F7F4F80E00E946D026091A30770917C
:103BA000A4076F5F7F4FE091D407F091D507809114
:103BB000C0079091C107199569CFE091D607F091A0
:103BC000D707309709F462CF9D012F5F3F4F409197
:103BD000AC075091AD07415051098091C2079091B7
:103BE000C307199553CF6091AC077091AD07822F31
:103BF0000E946D028091AC079091AD070196909361
:103C0000AD078093AC0742CF6091A9077091AA07D6
:103C10006115710509F4B1C027FDAFC0615071098C
:103C20007093AA076093A907822F0E946D0280916A
:103C3000A9079091AA07892B09F028CF8091A7079F
:103C4000882309F423CF803D09F483C040F48039F0
:103C500049F1803C09F469C01092A70717CF843F4F
:103C6000E1F1853F09F44DC0803EB1F7E091C60710
:103C7000F091C707309781F3A091A307B091A407F3
:103C80004C9120E8429FC001112411964C91480F9D
:103C9000592F511D6091A8078091AE079091AF07F1
:103CA0001995DACFE091C807F091C9073097A1F2D2
:103CB000A091A307B091A4074C9120E8429FC001B6
:103CC000112411964C91480F592F511D6091A8074E
:103CD0008091B0079091B107E3CFE091CE07F091CA
:103CE000CF07309709F4B8CFA091A307B091A407EC
:103CF0004C9150E011966C918091B6079091B70766
:103D0000CFCFE091D007F091D107309709F4A4CF3D
:103D1000A091A307B091A4074C9150E011966C912B
:103D20008091B8079091B907BBCFE091CA07F09195
:103D3000CB07309709F490CFA091A307B091A407C7
:103D40004C9150E06091A8078091B2079091B30721
:103D5000A7CFE091CC07F091CD07309709F47CCF45
:103D6000A091A307B091A4074C9150E06091A807DF
:103D70008091B4079091B50793CF903F30F4822F94
:103D80008F708093A807922F907F903FF1F190F46D
:103D9000903CB1F150F4903909F078CE1093AA0715
:103DA0000093A9079093A70771CE903D49F1903EEB
:103DB000A9F36CCE993F09F442C028F48CE0890F36
:103DC000823060F363CE9F3F09F060CE1092AA0765
:103DD0001092A9071092A7071092A80790E080E020
:103DE0002091A5073091A60782179307A8F4E091C8
:103DF000A307F091A407E80FF91F10820196F0CFF6
:103E0000F092AA07E092A907CDCFD092AB0710920B
:103E1000AD071092AC073ACE1092AB071092AD07E7
:103E20001092AC07E091DC07F091DD078091C407A8
:103E30009091C507309709F429CE199527CEE091C6
:103E4000DA07F091DB07309709F420CE8091BC07A8
:103E50009091BD07F2CF8FB7F89480909404909022
:103E60009504A0909604B09097048FBF80918F0422
:103E700090919004A0919104B0919204409101021C
:103E80005091020270E060E0881A990AAA0ABB0AFF
:103E9000481559056A057B0508F051C0840F951F28
:103EA000A61FB71F80938F0490939004A093910452
:103EB000B093920480E6A82E87E0B82ECAECC031F9
:103EC000C8F4F501ED57FF4F8081823099F480915D
:103ED0008D0490918E040C2E02C0959587950A94BE
:103EE000E2F780FF07C08C2F0E94B603BC018C2F25
:103EF0000E943006CF5F8FEFA81AB80AC031F9F6DA
:103F00008091000287FD1BC0C0E02C2F30E0809123
:103F10000002082E000C990B8217930784F0D29FA1
:103F2000F001D39FF00D1124EB59FB4F6181728199
:103F30002481438180810E944910CF5FE6CF0E9497
:103F40006C0507CB052E97FB1EF400940E94B91F49
:103F500057FD07D00E94D41F07FC03D04EF40C94E9
:103F6000B91F50954095309521953F4F4F4F5F4F6A
:103F7000089590958095709561957F4F8F4F9F4FD5
:103F800008950E94F61FA59F900DB49F900DA49FC9
:103F9000800D911D11240895B7FF0C94C11F0E943C
:103FA000C11F821B930B0895A1E21A2EAA1BBB1BF3
:103FB000FD010DC0AA1FBB1FEE1FFF1FA217B307F5
:103FC000E407F50720F0A21BB30BE40BF50B661F0B
:103FD000771F881F991F1A9469F7609570958095CF
:103FE00090959B01AC01BD01CF010895A29FB00146
:103FF000B39FC001A39F700D811D1124911DB29F1D
:10400000700D811D1124911D0895991B79E004C044
:10401000991F961708F0961B881F7A95C9F7809507
:104020000895EE0FFF1F881F8BBF0790F691E02DBC
:1040300019940F931F93CF93DF938230910510F45F
:1040400082E090E0E091E509F091E60930E020E0BF
:10405000B0E0A0E0309799F42115310509F44AC089
:10406000281B390B24303105D8F58A819B816115D5
:10407000710589F1FB0193838283FE0111C04081A8
:1040800051810281138148175907E0F048175907F9
:1040900099F4109761F012960C93129713961C9353
:1040A0003296CF01DF91CF911F910F910895009328
:1040B000E5091093E609F4CF2115310551F04217B7
:1040C000530738F0A901DB019A01BD01DF01F801B6
:1040D000C1CFEF01F9CF9093E6098093E509CDCFE9
:1040E000FE01E20FF31F819391932250310939832E
:1040F0002883D7CF2091E3093091E409232B41F4A1
:1041000020910502309106023093E4092093E309DF
:1041100020910302309104022115310541F42DB79D
:104120003EB74091070250910802241B350BE091E5
:10413000E309F091E409E217F307A0F42E1B3F0B0B
:104140002817390778F0AC014E5F5F4F2417350709
:1041500048F04E0F5F1F5093E4094093E3098193A9
:1041600091939FCFF0E0E0E09CCFCF93DF93009757
:10417000E9F0FC01329713821282A091E509B09117
:10418000E609ED0130E020E01097A1F420813181B3
:10419000820F931F2091E3093091E4092817390712
:1041A00009F061C0F093E409E093E309DF91CF9156
:1041B0000895EA01CE17DF07E8F54A815B819E0189
:1041C00041155105B1F7E901FB83EA834991599102
:1041D000C40FD51FEC17FD0761F480819181029611
:1041E000840F951FE90199838883828193819B8342
:1041F0008A83F0E0E0E012968D919C9113970097EE
:10420000B9F52D913C911197CD010296820F931F24
:104210002091E3093091E4092817390739F63097DE
:1042200051F51092E6091092E509B093E409A093C4
:10423000E309BCCFD383C28340815181840F951F92
:10424000C817D90761F44E5F5F4F88819981480F85
:10425000591F518340838A819B81938382832115D7
:10426000310509F0B0CFF093E609E093E5099ECF60
:10427000FD01DC01C0CF13821282D7CFFB01DC012C
:104280004150504048F001900D920020C9F701C004
:0E4290001D9241505040E0F70895F894FFCF82
:10429E00FF13000000E709800000000000FF043259
:1042AE000478044C05A90487049B04000000000652
:1042BE0009D9083509AF08D208BF08B0084D617892
:1042CE0020736572766F73206174746163686564C0
:1042DE0000556E6B6E6F776E2070696E206D6F6419
:1042EE0065004932433A20546F6F206D616E79201C
:1042FE0062797465732072656365697665640049D9
:10430E0032433A20546F6F20666577206279746568
:10431E00732072656365697665640031302D62695C
:10432E00742061646472657373696E67206E6F7456
:10433E0020737570706F7274656400746F6F206D8A
:10434E00616E792071756572696573002F686F6D86
:10435E00652F757365722F41726475696E6F2F6C60
:10436E0069627261726965732F4669726D617461FB
:10437E002F6578616D706C65732F5374616E646117
:10438E0072644669726D6174612F5374616E6461FB
:0E439E0072644669726D6174612E696E6F0003
:00000001FF
