:100000000C945D000C9485000C9485000C94AD104C
:100010000C94AD100C94AD100C9485000C948500DC
:100020000C9485000C9485000C9485000C94D611DA
:100030000C9485000C9485000C9485000C9485002C
:100040000C940B100C9485000C947B100C945510A0
:100050000C9485000C9485000C9485000C9485000C
:100060000C94B7100C9485000000000024002700B9
:100070002A0000000000250028002B0004040404CE
:100080000404040402020202020203030303030342
:10009000010204081020408001020408102001021F
:1000A00004081020000000080002010000030407FB
:1000B0000000000000000000921211241FBECFEFCC
:1000C000D8E0DEBFCDBF12E0A0E0B1E0E4E4F2E3AF
:1000D00002C005900D92A233B107D9F725E0A2E343
:1000E000B2E001C01D92AB35B207E1F710E0CDE5FB
:1000F000D0E004C02197FE010E94E617CC35D1075D
:10010000C9F70E94A6130C9420190C940000862FA6
:10011000E0911203F0911303309711F0BA010994A2
:100120000895862FE0911003F0911103309711F09C
:10013000BA0109940895862FE0910E03F0910F0300
:10014000309711F0BA0109940895862FE0910C03BD
:10015000F0910D03309711F0BA0109940895862F9C
:10016000E0910A03F0910B03309711F0BA01099462
:100170000895862FE0910803F0910903309711F05C
:10018000BA01099408950895862F642FE09114030D
:10019000F0911503309711F0A90109940895E091A9
:1001A0001603F0911703309709F009940895CF933F
:1001B000DF93FC01A081B181109701F1EC01ED9179
:1001C000FC9111970190F081E02D69EFCD01099527
:1001D00088819981DC01ED91FC910190F081E02D05
:1001E00062E0099588819981DC01ED91FC91019093
:1001F000F081E02D65E0DF91CF910994DF91CF91FF
:100200000895A091C004B091C104ED91FC911197A3
:100210000190F081E02D682FCD0109941F93CF93B9
:10022000DF93182FEB018091870490918804681761
:10023000790760F48091850490918604C80FD91FD6
:10024000188380E0DF91CF911F910895E091B4046D
:10025000F091B504309711F481E0F4CF81E0809300
:1002600084048091A0049091A10409958091870451
:1002700090918804C817D90778F7DCCFCF93DF9324
:10028000EC01FB0130E020E0C901880F991F8C17B9
:100290009D0778F44081DB014D93BD011197918159
:1002A000979599279795942B9C932F5F3F4F329664
:1002B000EBCFC901DF91CF91089590E0FC01EC559F
:1002C000FF4F2491FC01E057FF4F3491FC01E458AB
:1002D000FF4FE491EE23C9F0222339F0233001F1DE
:1002E000A8F4213019F1223029F1F0E0EE0FFF1FC0
:1002F000EE58FF4FA591B4918FB7F894EC9161112E
:1003000026C030953E233C938FBF08952730A9F037
:100310002830C9F0243049F7809180008F7D03C0D8
:10032000809180008F7780938000DFCF84B58F77B6
:1003300084BDDBCF84B58F7DFBCF8091B0008F77FC
:100340008093B000D2CF8091B0008F7DF9CF3E2B4B
:10035000DACFCF93DF9390E0FC01E057FF4F249179
:1003600084589F4FFC0184918823C9F090E0880F46
:10037000991FFC01E859FF4FA591B491FC01EE587B
:10038000FF4FC591D49161110DC09FB7F8948C9126
:10039000209582238C938881282328839FBFDF9117
:1003A000CF910895623051F49FB7F8943C91822F19
:1003B000809583238C93E8812E2BEFCF8FB7F89411
:1003C000EC912E2B2C938FBFEACF8E3008F08E50FD
:1003D0008770806480937C0080917A008064809331
:1003E0007A0080917A0086FDFCCF80917800909110
:1003F000790008953FB7F89480915103909152038A
:10040000A0915303B091540326B5A89B05C02F3F7C
:1004100019F00196A11DB11D3FBFBA2FA92F982F2A
:100420008827BC01CD01620F711D811D911D42E025
:10043000660F771F881F991F4A95D1F708958F92ED
:100440009F92AF92BF92CF92DF92EF92FF926B0199
:100450007C010E94FA014B015C01C114D104E1044A
:10046000F104B9F00E94FA01681979098A099B0917
:10047000683E73408105910580F321E0C21AD108DE
:10048000E108F10888EE880E83E0981EA11CB11CDB
:10049000E4CFFF90EF90DF90CF90BF90AF909F9010
:1004A0008F900895009721F0805C9F4F0C94D700A7
:1004B0000895AF92BF92CF92DF92EF92FF920F9387
:1004C0001F93CF93DF936C017B018B01040F151FEA
:1004D000EB015E01AE18BF08C017D10759F0699152
:1004E000D601ED91FC910190F081E02DC6010995B6
:1004F000892B79F7C501DF91CF911F910F91FF9063
:10050000EF90DF90CF90BF90AF900895FC01538D96
:10051000448D252F30E0842F90E0821B930B5417DD
:1005200010F0CF96089501970895FC01918D828D6A
:10053000981761F0A28DAE0FBF2FB11D5D968C9103
:10054000928D9F5F9F73928F90E008958FEF9FEF42
:100550000895FC01918D828D981731F0828DE80FFE
:10056000F11D858D90E008958FEF9FEF0895FC01B8
:10057000918D228D892F90E0805C9F4F821B910985
:100580008F739927089585EA93E00E94B70221E0CE
:10059000892B09F420E0822F089580E090E0892BD8
:1005A00029F00E94C30281110C9400000895FC01FF
:1005B000A48DA80FB92FB11DA35ABF4F2C91848DC4
:1005C00090E001968F739927848FA689B7892C9321
:1005D000A089B1898C91837080648C93938D848D74
:1005E000981306C00288F389E02D80818F7D808377
:1005F0000895EF92FF920F931F93CF93DF93EC0137
:1006000081E0888F9B8D8C8D98131AC0E889F989B9
:10061000808185FF15C09FB7F894EE89FF896083BC
:10062000E889F98980818370806480839FBF81E03D
:1006300090E0DF91CF911F910F91FF90EF9008957F
:10064000F62E0B8D10E00F5F1F4F0F731127E02E5A
:100650008C8D8E110CC00FB607FCFACFE889F98992
:10066000808185FFF5CFCE010E94D702F1CFEB8DBF
:10067000EC0FFD2FF11DE35AFF4FF0829FB7F89466
:100680000B8FEA89FB8980818062CFCFCF93DF9384
:10069000EC01888D8823B9F0AA89BB89E889F9899A
:1006A0008C9185FD03C0808186FD0DC00FB607FCCF
:1006B000F7CF8C9185FFF2CF808185FFEDCFCE0102
:1006C0000E94D702E9CFDF91CF9108955F926F9298
:1006D0007F928F929F92AF92BF92CF92DF92EF92D2
:1006E000FF920F931F93CF93DF935C016901DA01AF
:1006F0005C90232B19F4CC24CA94DC2C8A013A0197
:10070000660E771ED0E0C0E0F12CE12C87E0882E49
:10071000912CF50180819181D8016C910C2E01C042
:10072000660F0A94EAF765296F77DC01ED91FC9179
:100730000190F081E02D0995BFEFEB1AFB0AF8015B
:10074000608170E0C4018C1B9D0B02C0759567959C
:100750008A95E2F7562E2196C730D10558F1CE146E
:10076000DF0441F1D5018D919C91652D6F77DC01FE
:10077000ED91FC910190F081E02D0995BFEFEB1A0E
:10078000FB0A551C5524551C2797E6CFEC14FD0495
:1007900008F4BFCFDF91CF911F910F91FF90EF90A1
:1007A000DF90CF90BF90AF909F908F907F906F9091
:1007B0005F9008950F5F1F4F6016710639F72097FD
:1007C00049F3EC14FD0430F7F5018081918161E07B
:1007D00070E001C0660FCA95EAF761506521DC013F
:1007E000ED91FC910190F081E02DDF91CF911F916F
:1007F0000F91FF90EF90DF90CF90BF90AF909F90C0
:100800008F907F906F905F9009941F93CF93DF93A9
:1008100000D0CDB7DEB7182F7A8369838091820428
:10082000909183040097C9F0DC01ED91FC91019057
:10083000F081E02D1031B8F461157044A0F4612FFF
:10084000606E099522E030E0AE014F5F5F4F62E0DD
:1008500070E082E894E00E9466030F900F90DF91B1
:10086000CF911F91089560EF099580918204909136
:100870008304DC01ED91FC910190F081E02D6FE6A5
:1008800009958091820490918304DC01ED91FC91A3
:100890000190F081E02D612F099522E030E0AE015A
:1008A0004F5F5F4F62E070E082E894E00E94660371
:1008B0008091820490918304DC01ED91FC91019080
:1008C000F081E02D67EF0995C8CFEF92FF920F936B
:1008D0001F93CF93DF93C82F80918204909183045C
:1008E0000097C9F17A018B01DC01ED91FC91019037
:1008F000F081E02D60EF099580918204909183044E
:10090000DC01ED91FC910190F081E02D6C2F0995B7
:10091000E7010E0D1F1DC017D10759F030E020E090
:10092000AE0161E070E082E894E00E9466032196E7
:10093000F2CF8091820490918304DC01ED91FC91CF
:100940000190F081E02D67EFDF91CF911F910F9122
:10095000FF90EF900994DF91CF911F910F91FF903D
:10096000EF900895CF92DF92EF92FF920F931F9333
:10097000CF93DF93FC01E058FF4FE080EE2009F4B5
:100980005CC0EC01C05CDF4FA881B981109709F40D
:1009900054C0FC01EF57FF4FC080D180F601118198
:1009A0000081ED91FC9111970190F081E02D60EFB5
:1009B000CD01099588819981DC01ED91FC9101902F
:1009C000F081E02D69E7099588819981DC01ED913D
:1009D000FC910190F081E02D602F0995888199812B
:1009E000DC01ED91FC910190F081E02D612F0995E2
:1009F000F12C01E010E00F5F1F4FE016F10659F0F7
:100A000030E020E0A601400F511F61E070E0CE0110
:100A10000E946603F0CF88819981DC01ED91FC9101
:100A20000190F081E02D67EFDF91CF911F910F9141
:100A3000FF90EF90DF90CF900994DF91CF911F91BD
:100A40000F91FF90EF90DF90CF900895009711F0F5
:100A50000C94B20408952091E102260F3327331F2E
:100A600021323105ECF420917B03FC0190E080E021
:100A7000243069F082E00895A091E1022191AC0157
:100A800041545D4FA40FB52FB11D2C9301968617CD
:100A900098F38091E102680F6093E10280E008958D
:100AA00081E0089510927B0381E080937A03109295
:100AB000550361E082E10E945D0161E083E10E94F3
:100AC0005D01E9EBF0E080818E7F808380818D7F06
:100AD000808388E48093B80085E48093BC00089507
:100AE000CF93DF9391E09093BE028823B9F0C09139
:100AF000B800D091BA008091BC008A7B8093BC0082
:100B000060E082E10E945D0160E083E10E945D019E
:100B10000E945205D093BA00C093B800DF91CF91E4
:100B200008958F929F92AF92BF92CF92DF92EF92F1
:100B3000FF920F931F93CF93DF93D091A403D132F1
:100B400008F0D7C0182FC091A3030E94FA016B01CF
:100B50007C0180917B0381116BC082E080937B03D9
:100B600010937A038FEF8093790310927803D093D8
:100B70007703A3E8B3E0E7E5F3E080E0D81391C0A2
:100B80001092560380915603CC0FC82BC093560386
:100B900080915503813009F088C0109255030E945E
:100BA000FA016B017C01809156038093BB00809118
:100BB0007D0390917E03A0917F03B0918003892BE8
:100BC0008A2B8B2BA1F00E94FA0100917D031091DA
:100BD0007E0320917F03309180036C197D098E097B
:100BE0009F09061717072807390708F442C08091A4
:100BF000BC0083FDD8CF85EC8093BC000E94FA0135
:100C00006B017C0180917B03823009F450C080919C
:100C100079038F3F09F46FC080917903803209F422
:100C20006CC080917903803309F469C084E026C0E8
:100C300080917D0390917E03A0917F03B09180030A
:100C4000892B8A2B8B2B09F484CF0E94FA01809088
:100C50007D0390907E03A0907F03B09080036C1979
:100C60007D098E099F0986169706A806B90608F021
:100C700070CF80917C030E94700585E01092820302
:100C80001092A40310928103DF91CF911F910F91D5
:100C9000FF90EF90DF90CF90BF90AF909F908F909C
:100CA00008959D9191938F5F69CF85EEA5CF809137
:100CB0007D0390917E03A0917F03B0918003892BE7
:100CC0008A2B8B2B09F49ECF0E94FA0100917D03A1
:100CD00010917E0320917F03309180036C197D0970
:100CE0008E099F09061717072807390708F08ACFCA
:100CF000C0CF81E0C3CF80E0C1CF82E0BFCF83E02F
:100D0000BDCF089508950895E091BD028091BC0281
:100D1000E81730F4F0E0E456FD4F808190E008954C
:100D20008FEF9FEF08959091BD028091BC022FEF4D
:100D30003FEF981748F4E92FF0E0E456FD4F20818B
:100D400030E09F5F9093BD02C90108958091BC027D
:100D50009091BD02891B990B0895CF92DF92EF927B
:100D6000FF920F931F93CF93DF937C01CB018A01F6
:100D700020918103222389F0EB016B01C40ED51E63
:100D8000CC15DD0569F06991D701ED91FC910190D9
:100D9000F081E02DC7010995F3CF642F0E942B0548
:100DA000C801DF91CF911F910F91FF90EF90DF90DD
:100DB000CF900895CF93DF931F92CDB7DEB76983AD
:100DC000209181032223F9F02091A403203258F0CE
:100DD00021E030E0FC013383228390E080E00F903B
:100DE000DF91CF91089580918203E82FF0E0ED57D5
:100DF000FC4F998190838F5F809382038093A4033B
:100E000081E090E0ECCF61E0CE0101960E942B05DD
:100E1000F7CF90E080E00895DF92EF92FF920F937A
:100E20001F93CF93DF93EC01D62E7A01890188813D
:100E30008C3008F067C061E08D2D0E94A901888187
:100E4000282F30E0F901EE0FFF1FE20FF31FE25FE2
:100E5000FA4F9D2D9F736081607C692B608320E237
:100E600032E02E193F0937FF02C02D5F3F4F359505
:100E7000279535952795298320E639E0201B310BEE
:100E800037FF02C02D5F3F4F359527953595279544
:100E90002A832CE0622F0E94DA17829FB00111246E
:100EA00030E020E0AB01420F531FFA01EE0FFF1FAD
:100EB000E40FF51FE25FFA4F908196FD16C02F5F99
:100EC0003F4F2C30310571F781110FC01092800017
:100ED00082E0809381001092850010928400B19A84
:100EE00080916F00826080936F00E8818E2F90E088
:100EF000FC01EE0FFF1FE80FF91FE25FFA4F808140
:100F0000806480838881DF91CF911F910F91FF9042
:100F1000EF90DF900895CF938630B0F421E030E079
:100F2000082E02C0220F331F0A94E2F740914603B5
:100F300050914703672B51F4209530952423352396
:100F40003093470320934603CF910895242B352BEC
:100F5000309347032093460390919A029111F4CF66
:100F6000C82F0E94E501BC018C2FCF910C94050481
:100F70005F926F927F928F929F92AF92BF92CF9229
:100F8000DF92EF92FF920F931F93CF93DF93833003
:100F900008F061C0D1E0D80FDD0FDD0FDD0F5D2E51
:100FA000D53110F044E1542EC62F082FD8508D2E85
:100FB000912CC401880F991F9C012E5B3B4F590156
:100FC000D12CC12C10E077247394D515C8F58EEF81
:100FD0008D0F8231F8F4F601E80DF91DEB53FB4F4C
:100FE00090819230B8F48C2F87216624639481110C
:100FF00001C0612C7601EE0CFF1C913089F4172999
:1010000037E9E30EF11CF501EE0DFF1D862D90E092
:1010100091838083770CDF5F8FEFC81AD80AD5CF12
:10102000882371F3F701E956FF4FEA0DFB1D80811C
:101030009181019729F362E08D2F0E94A901E0CFF1
:10104000011119C0F8948BB16C2F68276C7F612354
:1010500068276BB97894DF91CF911F910F91FF9022
:10106000EF90DF90CF90BF90AF909F908F907F9048
:101070006F905F9008950130D1F4C123F89495B139
:10108000812F8F73809589239C2F9F73892B85B91E
:1010900088B1612F62956695669563706095682347
:1010A000C295C695C695C370C62BC8B9D3CF1F705D
:1010B000F89498B1812F880F880F80958923C123D8
:1010C000CC0FCC0FC82BF1CF8F929F92AF92BF92D3
:1010D000CF92DF92EF92FF920F931F93CF93DF9304
:1010E000EB01843108F098C0082F10E0F801EB53B1
:1010F000FB4F9081933009F49CC0943009F08CC070
:101100008250823108F081C0F801EE57FD4FC08057
:10111000D12C7601EE0CFF1C4B01603282E0780787
:101120000CF03EC0F701EC0DFD1DED5CFA4F818126
:10113000A8E88A2E912C881A910887FD9394880C30
:10114000991C880C991C092C000CAA08BB088281E8
:1011500028E532E0281B310987FD3395220F331F24
:10116000220F331F032E000C440B550B281939098D
:101170004A095B09DB01653B710514F0A4EBB0E0A3
:10118000B7FF02C0B0E0A0E00E94A11724EB30E05E
:1011900040E050E00E947717820E931EA41EB51EF9
:1011A000F701EC0DFD1DED5CFA4F20812C3068F548
:1011B000318188E890E0831B910937FD9395880F72
:1011C000991F880F991F881699067CF0328188E54F
:1011D00092E0831B910937FD9395880F991F880F23
:1011E000991F881699060CF4C4010297880F991F5D
:1011F0004FB7F89430E0F901EE0FFF1FE20FF31F35
:10120000E25FFA4F928381834FBF000F111FF801F5
:10121000E752FB4FD183C083DF91CF911F910F9194
:10122000FF90EF90DF90CF90BF90AF909F908F9006
:1012300008957B01D82F833041F08BEF800F8230EF
:1012400020F087EF800F833058F461E08D2F0E94EB
:10125000A901E114F10461F460E08D2F0E945D01A9
:10126000000F111FF801E752FB4FF182E082D4CF4B
:101270008FEFE816F10411F461E0EFCFF801EC55BF
:10128000FF4FE491E33021F148F4E130B9F0E2306E
:10129000D1F080E8E816F1047CF7DECFE73011F1F9
:1012A000E83041F1E430A9F78091800080628093BA
:1012B0008000F0928B00E0928A00D2CF84B58068E3
:1012C00084BDE7BCCDCF84B5806284BDE8BCC8CF07
:1012D00080918000806880938000F0928900E09285
:1012E0008800BECF8091B00080688093B000E0920B
:1012F000B300B6CF8091B00080628093B000E092DE
:10130000B400AECF9EEF980F923180F4E82FF0E05A
:10131000DF01AB53BB4F9C91913041F4EE0FFF1FA7
:10132000E752FB4F608371830C945D010895FF9237
:101330000F931F93CF93DF9300D0CDB7DEB7082F65
:1013400010E0F801E85EFC4F9081F62EF9220A5673
:101350001D4F411104C0F80190819F1511F12F2DEF
:1013600030E03A832983A0918204B09183041097DE
:10137000B1F0682F6F706069ED91FC911197019049
:10138000F081E02DCD01099522E030E0AE014F5F04
:101390005F4F62E070E082E894E00E946603F8012B
:1013A000F0820F900F90DF91CF911F910F91FF90DE
:1013B0000895833040F5282F30E0F901E55EFC4FB9
:1013C0006083672B01F1285E3C4FF9016081811138
:1013D00006C099B19C7F692341E00C949709813044
:1013E00049F493B126B19F73F0E42F9F900111242B
:1013F000922BF1CF26B130E035952795359527957D
:101400002F706223E9CF0895A82FB0E0AE57BD4FEB
:101410009C91292F30E0F901EE0FFF1FE20FF31F1F
:10142000ED5CFA4FE0812E2F30E0F901EE0FFF1F47
:10143000E20FF31FE25FFA4F80818F7B8083809100
:101440008002981308C0992319F09150909380025C
:101450008FEF8C9308958823D9F3E0918102EF5F99
:10146000E0938102F0E0EF5CFD4F9083F1CFFC014F
:1014700001900020E9F73197BF01681B790BAC019F
:1014800081E70C946504CF93DF93DB019091800298
:101490009C3078F530918102682F70E0FB01EE57A7
:1014A000FD4F3323E1F0C32FD0E0CF5CDD4F8881C7
:1014B0008083315030938102808123E0829FC0017C
:1014C00011248D5C9A4F1A161B0674F41416150617
:1014D0005CF49A01AD01DF91CF910C940C079083DD
:1014E0009F5F90938002E8CF20E639E040E252E02F
:1014F000F2CF8DE291E0DF91CF910C94370A85ED28
:101500008093BC0080917D0390917E03A0917F0326
:10151000B09180030796A11DB11D23E0B695A79554
:10152000979587952A95D1F72091BC0024FD03C09B
:1015300010927B03089540917D0350917E0360914A
:101540007F0370918003452B462B472B69F300974F
:10155000A105B10541F02AE22A95F1F700C00197F3
:10156000A109B109E1CF80917C030C9470059F9291
:10157000AF92BF92CF92DF92EF92FF920F931F93A1
:10158000CF93DF93C82ED12CE601CE5BDB4FFE015B
:10159000ED57FF4F90819F3709F49FC0963061F45B
:1015A00090919902992341F06630710529F01092CB
:1015B00099029FEF909300017B01182F0EEF080F07
:1015C000023108F564307105F1F0F601EE57FD4F78
:1015D00080818C30C0F490E0FC01EE0FFF1FE80F1B
:1015E000F91FED5CFA4FE0818E2F90E0FC01EE0FC9
:1015F000FF1FE80FF91FE25FFA4F808186FF03C0EB
:10160000812F0E94040A52EF952E910E85E08915D4
:1016100058F061E070E032E0E316F10411F070E0A0
:1016200060E0892D0E948B070231C8F4E12FE69516
:10163000E695E695F0E0E85EFC4F2081312F3770AB
:1016400081E090E001C0880F3A95EAF7E114F104D7
:1016500021F03BE0E316F10401F5822B8083560173
:10166000AA0CBB1CF501E752FB4F118210828CE0E3
:10167000E816F10408F0CBC0F701EF5BF44F0C94CF
:10168000E617610B8E0B500BA50BC40B070CFB0B65
:10169000070C070C070C6D0B790B80958223DECFAE
:1016A00035E03915D0F0023120F460E0812F0E943E
:1016B000A901CD57DF4F88818F3779F082E0888389
:1016C0000CC0023150F460E0812F0E94A901CD5777
:1016D000DF4F88818F3709F01882DF91CF911F91FA
:1016E0000F91FF90EF90DF90CF90BF90AF909F90C1
:1016F0000895023190F762E0812F0E94A901CD5731
:10170000DF4F88818F3711F08BE08883F501E75236
:10171000FB4F81E090E091838083DFCF0231E8F6D8
:10172000FE01ED57FF4F8081833021F460E0812F6F
:101730000E945D0161E0812F0E94A901CD57DF4F1A
:1017400088818F3751F281E0BACF133049F08BEFA7
:10175000810F823028F087EF810F833008F0BDCFF2
:1017600061E0812F0E94A90161E0812F0E94A901FF
:1017700060E0812F0E945D01CD57DF4F88818F3758
:1017800009F4ABCF83E09BCF023108F0A6CFCD5751
:10179000DF4F88818F3711F084E08883F601EE57A0
:1017A000FD4F80818F3FA9F090E0FC01EE0FFF1FFD
:1017B000E80FF91FED5CFA4FE0818E2F90E0FC01FD
:1017C000EE0FFF1FE80FF91FE25FFA4F808186FDE1
:1017D00084CF4FEF5FEF6FEF7FEF812FDF91CF91DE
:1017E0001F910F91FF90EF90DF90CF90BF90AF903F
:1017F0009F900C94430A1251123008F06ECFCD57CF
:10180000DF4F88818F3709F468CF86E058CF81E4B5
:1018100091E0DF91CF911F910F91FF90EF90DF90BA
:10182000CF90BF90AF909F900C94370A0F931F9367
:10183000CF93DF9381E080939A028091990288236D
:1018400029F0109299028FEF8093000110921B03F0
:10185000109218031092960210921C031092190312
:101860001092970210921D0310921A031092980280
:1018700002E812E0C0E0DFEF82EF8C0F62E070E080
:10188000863030F08EEF8C0F823128F461E070E00A
:101890008C2F0E94B70AF801D1938F01CF5FC4311A
:1018A00059F710924703109246031092810210924A
:1018B000800210929A02DF91CF911F910F910895AB
:1018C0004F925F926F927F928F929F92AF92BF9250
:1018D000FF920F931F93CF93DF93F82E8B01D42F9A
:1018E000C22F6F3F760709F490C081E08093810397
:1018F000F092A303109282031092A40382E095E079
:101900000E94DA068C2F0E94910580917E029091B0
:101910007F028230910538F0880F991F880F991F38
:1019200005970197F1F70E94FA014B015C01809144
:101930007B0381116CC0CD2FD13208F0C0E281E071
:1019400080937B0380937A039FEF909379031092A7
:1019500078039C0F909377038093560390915603DE
:101960008F2D880F892B80935603809155038130EA
:1019700009F0A1C0109255030E94FA014B015C01CD
:10198000809156038093BB0080917D0390917E03EC
:10199000A0917F03B0918003892B8A2B8B2BA1F020
:1019A0000E94FA0140907D0350907E0360907F0377
:1019B00070908003681979098A099B0946165706B1
:1019C0006806790608F444C08091BC0083FDD8CF36
:1019D00085EC8093BC000E94FA014B015C01809170
:1019E0007B03813009F469C0809178038C1710F46F
:1019F000C0917803E7E5F3E0ACE9B2E080E08C1752
:101A000061F191919D938F5FFACF00E08CCF80912F
:101A10007D0390917E03A0917F03B0918003892B79
:101A20008A2B8B2B09F483CF0E94FA0140907D030F
:101A300050907E0360907F0370908003681979094D
:101A40008A099B09461657066806790608F06FCF83
:101A500080917C030E947005C0E01092BD02C0938B
:101A6000BC022D2F30E08C2F90E0281739070CF0A6
:101A700046C082E591E00E94370AF0923E02009350
:101A80003F020EE312E0AD2EB12CC8018E539240FE
:101A90008A159B050CF041C00F5F1F4F9091BC024F
:101AA0008091BD029817C9F182E095E00E949306EB
:101AB000F8018183EACF85EE8CCF80917D039091F0
:101AC0007E03A0917F03B0918003892B8A2B8B2BFF
:101AD00009F485CF0E94FA0140907D0350907E0367
:101AE00060907F0370908003681979098A099B09C7
:101AF000461657066806790608F071CFA9CF8217F7
:101B000093070CF0BACF8FE691E00E94370AD0918C
:101B1000BC028091BD02D81BB0CFDE5F6D2F70E09C
:101B20004EE352E087E7DF91CF911F910F91FF9035
:101B3000BF90AF909F908F907F906F905F904F90ED
:101B40000C946504EF92FF920F931F93CF93DF9352
:101B50008956823108F033C0EA01162FE82FF0E0F1
:101B6000EC54F24F0C94E617FA0FDF0D610FDF0D06
:101B7000B90FDF0D3F0FE30EDF0DDF0DDF0DDF0DC2
:101B8000DF0DC60DDF0DA70EDF0D290F998195FF23
:101B90000AC08BE891E0DF91CF911F910F91FF90E8
:101BA000EF900C94370A888131E096FB222720F9C8
:101BB000232798719830D1F148F49923A9F0DF9147
:101BC000CF911F910F91FF90EF900895903109F4FC
:101BD0004CC09831A1F72091000112160CF472C08C
:101BE0008FEF80930001EBCF309381038093A303A9
:101BF000109282031092A40302E0011778F4FE0110
:101C0000E00FF11D61816795662767958081680FF8
:101C100082E095E00E94DA060E5FEFCF81E00E943D
:101C2000910583E191E00197F1F7C9CF9A814B814A
:101C30006630A1F430E8439FB0011124690F711D93
:101C40004D814795442747959C81490FDF91CF915E
:101C50001F910F91FF90EF900C94600C47954427D3
:101C60004795490F6FEF7FEFF1CFE0910001E7302B
:101C70001CF08BEA91E08FCF3A819B816630D9F4DA
:101C800060E8969FA0011124430F511D9D819795F7
:101C9000992797953C81930FEF5FE093000135E022
:101CA000E302F0011124E25EFC4F80835283418302
:101CB0009383248384CF979599279795930F4FEF1C
:101CC0005FEFEACF90E0622F022E000C770B35E039
:101CD000492F50E06417750764F0349FF001359F79
:101CE000F00D1124E25EFC4F4081481719F09F5F10
:101CF000EFCF90E085E0492F50E0641775071CF1A5
:101D00009830F8F4FA0131968E9FD0018F9FB00D74
:101D10001124A25EBC4F3C91849FF001859FF00D81
:101D20001124E25EFC4F308311964D915C91129725
:101D30005283418313963C911397338314963C91BD
:101D400034839F5FD8CF21502093000138CF623079
:101D500078F0898160E8869F900111248881820F44
:101D6000932F911D009721F090937F0280937E0224
:101D700080919902811123CFC0E08EEE8C0F8230CA
:101D800028F466E070E08C2F0E94B70ACF5FC43160
:101D9000A1F781E0809399021092BD021092BC02DB
:101DA000109282031092A4030E94520581E896E0EB
:101DB0009093E0028093DF0282E896E09093E40241
:101DC0008093E302FCCE653008F4F9CE18818EEFE3
:101DD000810F823108F0F3CE0981EA80FB80CC814B
:101DE000E12FF0E0EE57FD4F80818C30C0F490E0A1
:101DF000FC01EE0FFF1FE80FF91FED5CFA4FE081C9
:101E00008E2F90E0FC01EE0FFF1FE80FF91FE25F3D
:101E1000FA4F808186FF03C0812F0E94040A80E868
:101E2000C89FA00111244F0D511D90E8E99EB001FB
:101E30001124600F711D812F0E94430A64E070E03D
:101E4000812FDF91CF911F910F91FF90EF900C9414
:101E5000B70A623008F4B3CE8981E0E88E9F900122
:101E600011248881820F932F911D009729F0909360
:101E7000020180930101A3CE81E090E0F8CF6230AF
:101E800008F49DCE698170E0123091F08A81F0E80B
:101E90008F9FC0011124682B792B133049F08B815F
:101EA00090E090E4899F902D88271124682B792B4E
:101EB0008881DF91CF911F910F91FF90EF900C944B
:101EC000640880EF0E9401018CE60E940101CEEFC0
:101ED00084EF8C0F863020F582E00E9401018AE0B9
:101EE0000E9401018DEF8C0F8230E0F089EF8C0FA2
:101EF0008330F0F417C0C23158F780E00E9401012E
:101F000081E00E9401018BE00E94010181E00E94BA
:101F1000010181E00E94010181E00E940101D8CF0E
:101F2000C13001F783E00E94010188E00E940101B5
:101F3000C23130F484E00E9401018EE00E94010170
:101F400080EF8C0F823030F486E00E94010181E046
:101F50000E9401018FE70E940101CF5FC23159F653
:101F600087EFDF91CF911F910F91FF90EF900C942D
:101F70000101662309F423CEC88180EF0E9401018C
:101F80008EE60E9401018C2F0E940101C43140F7AE
:101F9000D0E0FE01EB53FB4F80810E940101CC0F8A
:101FA000DD1F8E0107521B4FF80180818F770E9441
:101FB0000101F801808191819C012078232B39F067
:101FC000880F892F881F990B8F770E940101C752B4
:101FD000DB4F888199819C012227307C232B09F4D7
:101FE000BFCF990F880B990F982F881F8F770E946A
:101FF0000101B6CF80EF0E9401018AE60E94010133
:10200000C2EF8FE7C63008F48C2F0E940101CF5F2A
:10201000C630B9F7A5CF1F920F920FB60F921124B9
:102020002F933F938F939F93AF93BF9380914D03D3
:1020300090914E03A0914F03B091500330914C0307
:1020400023E0230F2D3758F50196A11DB11D2093D4
:102050004C0380934D0390934E03A0934F03B09392
:1020600050038091510390915203A0915303B0917A
:1020700054030196A11DB11D809351039093520307
:10208000A0935303B0935403BF91AF919F918F914D
:102090003F912F910F900FBE0F901F90189526E83B
:1020A000230F0296A11DB11DD2CF1F920F920FB622
:1020B0000F9211242F933F934F935F936F937F93CE
:1020C0008F939F93AF93BF93EF93FF9385EA93E032
:1020D0000E94D702FF91EF91BF91AF919F918F9195
:1020E0007F916F915F914F913F912F910F900FBE14
:1020F0000F901F9018951F920F920FB60F921124F8
:102100002F938F939F93EF93FF93E091B503F091FB
:10211000B6038081E091BB03F091BC0382FD1BC03C
:1021200090818091BE038F5F8F732091BF038217D0
:1021300041F0E091BE03F0E0EB55FC4F958F8093AA
:10214000BE03FF91EF919F918F912F910F900FBE42
:102150000F901F9018958081F4CF1F920F920FB6A9
:102160000F9211240F900FBE0F901F9018951F9281
:102170000F920FB60F9211242F933F934F935F93BB
:102180006F937F938F939F93AF93BF93EF93FF933F
:102190008091B900887F803609F44AC0F0F5883212
:1021A00009F4A7C018F5803109F49BC0B8F488235E
:1021B00009F4F9C0883009F494C0FF91EF91BF9100
:1021C000AF919F918F917F916F915F914F913F91CF
:1021D0002F910F900FBE0F901F901895883109F422
:1021E00088C0803251F78093790314C0803409F499
:1021F0009DC040F48033B9F38833F9F680937903B6
:1022000085ECB0C0803509F485C0883509F496C0E6
:10221000883499F60E947F0AD0CF883909F48CC09F
:1022200038F5883729F050F4883611F0803729F6D0
:1022300083E080937B031092050357C0883809F42C
:102240007BC0803919F0803809F0B7CF8091050341
:10225000803208F071C0E091050381E08E0F809319
:1022600005038091BB00F0E0EB51FD4F80833DC042
:10227000803B39F0E0F4803A09F479C0883A09F0FB
:102280009CCF84E080937B031092E2021092E102E3
:10229000E091DF02F091E00209958091E102811165
:1022A0000FC081E08093E1021092BF0209C0803C20
:1022B00009F4A6CF883C09F4A3CF883B09F07DCF71
:1022C000E091E20281E08E0F8093E202F0E0E154BF
:1022D000FD4F80818093BB009091E2028091E102EA
:1022E00029C0809156038093BB0085EC8093BC008D
:1022F00064CF9091780380917703981758F5E09117
:10230000780381E08E0F80937803F0E0E95AFC4F68
:102310008081E9CFE091780381E08E0F809378038C
:102320008091BB00F0E0E95AFC4F808390917803E4
:10233000809177039817C8F285E8D8CFE0917803A9
:1023400081E08E0F809378038091BB00F0E0E95A22
:10235000FC4F808380917A0381115CCF81E0809370
:10236000550384EA8093BC0010927B0326CF85EC52
:102370008093BC0010927B0380910503803230F47F
:10238000E0910503F0E0EB51FD4F108260910503F1
:1023900070E0E091E302F091E40285EE92E00995AD
:1023A000109205030ACF1092790334CF1F920F9237
:1023B0000FB60F9211242F933F934F935F936F9318
:1023C0007F938F939F93AF93BF93CF93DF93EF93BD
:1023D000FF9380919B02C0913205D0E087FF24C01B
:1023E000109285001092840080919B028F5F8093F1
:1023F0009B0280919B02082E000C990B8C179D0765
:1024000024F480919B028C30C4F1809184009091DF
:102410008500049680349C4908F47AC08091840039
:1024200090918500049676C080919B02082E000C46
:10243000990B8C179D07C4F6E0919B028E2FEE0F2F
:10244000990BFC01EE0FFF1FE80FF91FE25FFA4F37
:10245000808186FFC9CFE0919B028E2FEE0F990BF2
:10246000FC01EE0FFF1FE80FF91FE25FFA4F8081BA
:1024700060E08F730E945D01B7CF2091840030919E
:102480008500E0919B028E2FEE0F990BFC01EE0F61
:10249000FF1FE80FF91FE25FFA4F81819281820FDF
:1024A000931F9093890080938800E0919B028E2F68
:1024B000EE0F990BFC01EE0FFF1FE80FF91FE25F13
:1024C000FA4F808186FF11C0E0919B028E2FEE0FA4
:1024D000990BFC01EE0FFF1FE80FF91FE25FFA4FA7
:1024E000808161E08F730E945D01FF91EF91DF9128
:1024F000CF91BF91AF919F918F917F916F915F919C
:102500004F913F912F910F900FBE0F901F901895F4
:1025100080E49CE990938900809388008FEF8093FA
:102520009B02E3CF1092A8031092A70348EE53E05A
:1025300060E070E04093A9035093AA036093AB035B
:102540007093AC038DE091E09093A6038093A50374
:1025500085EC90E09093B2038093B10384EC90E01B
:102560009093B4038093B30380EC90E09093B60310
:102570008093B50381EC90E09093B8038093B70308
:1025800082EC90E09093BA038093B90386EC90E0DC
:102590009093BC038093BB031092BE031092BF03C1
:1025A0001092C0031092C10382E494E0109283045D
:1025B00010928204909386048093850420E430E096
:1025C00030938804209387041092890410928A041F
:1025D00010928C0410928B0410928D0410928F0430
:1025E00010928E0410929104109290041092930411
:1025F00010929204109295041092940410929704F1
:1026000010929604109299041092980410929B04D0
:1026100010929A041092A1041092A0041092A304A4
:102620001092A2041092A5041092A4041092A70480
:102630001092A6041092B5041092B404109284046F
:102640001092C2041092C4041092C30410920105A7
:1026500027E830E03093A9042093A80421E930E072
:102660003093AB042093AA042BE930E03093AD04FF
:102670002093AC0425EA30E03093AF042093AE04FD
:102680002FEA30E03093B1042093B00429EB30E01E
:102690003093B3042093B20423EC30E03093B704BA
:1026A0002093B60424EC30E03093B9042093B804AE
:1026B00026E235E03093BB042093BA0490939D0446
:1026C00080939C0422E532E03093BD042093BC0447
:1026D00090939F0480939E048FEC90E09093BF04AE
:1026E0008093BE04109205051092040540930605E0
:1026F0005093070560930805709309058FE191E0F9
:102700009093030580930205E3E3F5E02FEF48EB98
:102710005BE0809132058C30B8F491E0980F909393
:102720003205808390E0DC01AA0FBB1FA80FB91F00
:10273000A25FBA4F12965C934E931197339685E041
:10274000E735F80731F708952083F8CF789484B5FA
:10275000826084BD84B5816084BD85B5826085BD9D
:1027600085B5816085BD80916E00816080936E002B
:10277000109281008091810082608093810080911D
:1027800081008160809381008091800081608093CE
:1027900080008091B10084608093B1008091B0008E
:1027A00081608093B00080917A00846080937A0089
:1027B00080917A00826080937A0080917A008160B3
:1027C00080937A0080917A00806880937A001092DA
:1027D000C10085E18093C2048091C3049091C40438
:1027E0000E948818C091C204D0E0CE0101960E94D8
:1027F000EC179093C4048093C304FC01EC0FFD1FFD
:10280000108212E0DC011C9325E011962C93AE019E
:10281000425051096EE172E002960E94111984E65D
:1028200098E0909313038093120388EB97E09093C2
:102830001103809310038BE897E090930F0380932C
:102840000E0389ED99E090930D0380930C0387EBC1
:102850009AE090930B0380930A0382E899E09093A7
:1028600009038093080382EA9DE090931503809307
:10287000140386E19CE09093170380931603E09184
:10288000B503F091B6031083E091B503F091B60360
:102890001082E091B103F091B2031082E091B30392
:1028A000F091B40380E180831092BD03E091B903FD
:1028B000F091BA0386E08083E091B703F091B8030A
:1028C000808180618083E091B703F091B8038081BB
:1028D00088608083E091B703F091B80380818068BD
:1028E0008083E091B703F091B80380818F7D80836E
:1028F0008091010581114FC061E08DE00E94A90126
:1029000062ED70E080E090E00E941F0261E08DE0E7
:102910000E945D0168E270E080E090E00E941F028A
:1029200060E08DE00E945D0162ED70E080E090E08B
:102930000E941F0261E08DE00E945D0168E270E08C
:1029400080E090E00E941F0260E08DE00E945D0147
:102950006AEF70E080E090E00E941F02C5E062ED47
:1029600070E080E090E00E941F0261E08DE00E9434
:102970005D0168E270E080E090E00E941F0260E08C
:102980008DE00E945D01C15051F76DE770E080E07D
:1029900090E00E941F0285EA93E09093C104809327
:1029A000C004909383048093820482E894E00E94A0
:1029B000D70082E494E00E94B2040E94160C25E045
:1029C000D22EC0E0D0E0CC24C39402E010E0EE248C
:1029D000E394F12C80911B03882349F069B1809125
:1029E000180368236C7F40E080E00E949709809183
:1029F0001C03882379F063B186B16F73B0E48B9FB9
:102A0000C0011124682B80911903682340E081E004
:102A10000E94970980911D03882359F066B1809127
:102A20001A038F7066956695682340E082E00E94E5
:102A300097098091C0049091C104DC01ED91FC9153
:102A40000084F185E02D0995892B09F4CEC1809190
:102A5000C0049091C104DC01ED91FC910284F385E6
:102A6000E02D09959C018F3F980719F3982F8091CD
:102A70008D04882309F492C0973F09F07EC010921C
:102A80008D04A0918504B09186046C916137C1F1E9
:102A9000693709F05CC0E091BA04F091BB0430974B
:102AA00041F280918E0490918F048330910560F4FF
:102AB00030E020E050E040E070E060E080919C0475
:102AC00090919D040995B5CFBD016D5F7F4F039730
:102AD0000E943E01BC016D5F7F4F80E00E940E01AD
:102AE000E0918504F09186049F012D5F3F4F428164
:102AF00050E0618170E0E091BA04F091BB04DECF58
:102B00008091B6049091B704892B09F492CFBD014E
:102B10006F5F7F4F80918E0490918F0401970E9488
:102B20003E01BC016F5F7F4F80E00E940E0160910B
:102B30008504709186046F5F7F4FE091B604F09139
:102B4000B7048091A2049091A304099572CFE091FB
:102B5000B804F091B904309709F46BCF9D012F5F51
:102B60003F4F40918E0450918F0441505109809104
:102B7000A4049091A50409955CCF60918E04709196
:102B80008F04822F0E940E0180918E0490918F04F9
:102B9000019690938F0480938E044BCF60918B04A9
:102BA00070918C046115710509F4B1C027FDAFC0A7
:102BB0006150710970938C0460938B04822F0E9482
:102BC0000E0180918B0490918C04892B09F031CFF8
:102BD00080918904882309F42CCF803D09F483C0B7
:102BE00040F4803949F1803C09F469C010928904AD
:102BF00020CF843FE1F1853F09F44DC0803EB1F71D
:102C0000E091A804F091A904309781F3A091850484
:102C1000B09186044C9120E8429FC0011124119686
:102C20004C91480F592F511D60918A048091900456
:102C3000909191040995DACFE091AA04F091AB0448
:102C40003097A1F2A0918504B09186044C9120E8C0
:102C5000429FC001112411964C91480F592F511DCC
:102C600060918A048091920490919304E3CFE09163
:102C7000B004F091B104309709F4B8CFA091850465
:102C8000B09186044C9150E011966C91809198041B
:102C900090919904CFCFE091B204F091B3043097B2
:102CA00009F4A4CFA0918504B09186044C9150E022
:102CB00011966C9180919A0490919B04BBCFE09106
:102CC000AC04F091AD04309709F490CFA091850445
:102CD000B09186044C9150E060918A0480919404F4
:102CE00090919504A7CFE091AE04F091AF04309796
:102CF00009F47CCFA0918504B09186044C9150E0FA
:102D000060918A04809196049091970493CF903FAC
:102D100030F4822F8F7080938A04922F907F903F9F
:102D2000F1F190F4903CB1F150F4903909F081CE7A
:102D300010938C0400938B04909389047ACE903D79
:102D400049F1903EA9F375CE993F09F442C028F4A9
:102D50008CE0890F823060F36CCE9F3F09F069CE22
:102D600010928C0410928B041092890410928A04A1
:102D700090E080E0209187043091880482179307C7
:102D8000A8F4E0918504F0918604E80FF91F108201
:102D90000196F0CFF0928C04E0928B04CDCFC092DC
:102DA0008D0410928F0410928E0443CE10928D04E5
:102DB00010928F0410928E04E091BE04F091BF0433
:102DC0008091A6049091A704309709F432CE09951A
:102DD00030CEE091BC04F091BD04309709F429CEC7
:102DE00080919E0490919F04F2CF8FB7F8948090C9
:102DF0004D0390904E03A0904F03B09050038FBFAF
:102E00008091480390914903A0914A03B0914B03EC
:102E1000409101015091020170E060E0881A990A26
:102E2000AA0ABB0A481559056A057B0508F054C073
:102E3000840F951FA61FB71F8093480390934903E3
:102E4000A0934A03B0934B0382E4882E84E0982E2B
:102E500092EFB92E85E08B15C8F0F401ED57FF4FC6
:102E60008081823099F480914603909147030B2C26
:102E700002C0959587950A94E2F780FF07C08B2DD5
:102E80000E94E501BC018B2D0E940504B394AFEFB5
:102E90008A1A9A0AB6E0BB12DDCF8091000187FD45
:102EA0001BC0B12C2B2D30E080910001082E000CAE
:102EB000990B8217930784F0D29EF001D39EF00DF8
:102EC0001124E25EFC4F6181728124814381808103
:102ED0000E94600CB394E6CF209709F47BCD0E944A
:102EE000C302882309F476CD0E94000073CD052E1D
:102EF00097FB1EF400940E948E1757FD07D00E9486
:102F0000A91707FC03D04EF40C948E1750954095EA
:102F1000309521953F4F4F4F5F4F08959095809585
:102F2000709561957F4F8F4F9F4F08950E94CB17EB
:102F3000A59F900DB49F900DA49F800D911D11240D
:102F40000895B7FF0C9496170E949617821B930B57
:102F50000895A1E21A2EAA1BBB1BFD010DC0AA1FDA
:102F6000BB1FEE1FFF1FA217B307E407F50720F0F2
:102F7000A21BB30BE40BF50B661F771F881F991F6D
:102F80001A9469F760957095809590959B01AC01B6
:102F9000BD01CF010895A29FB001B39FC001A39FBF
:102FA000700D811D1124911DB29F700D811D112482
:102FB000911D0895991B79E004C0991F961708F098
:102FC000961B881F7A95C9F780950895EE0FFF1F0D
:102FD0000590F491E02D09940F931F93CF93DF9305
:102FE0008230910510F482E090E0E0915905F09173
:102FF0005A0530E020E0B0E0A0E0309799F42115C8
:10300000310509F44AC0281B390B24303105D8F5A5
:103010008A819B816115710589F1FB01938382830C
:10302000FE0111C040815181028113814817590767
:10303000E0F04817590799F4109761F012960C9335
:10304000129713961C933296CF01DF91CF911F9167
:103050000F9108950093590510935A05F4CF211547
:10306000310551F04217530738F0A901DB019A01ED
:10307000BD01DF01F801C1CFEF01F9CF90935A05EF
:1030800080935905CDCFFE01E20FF31F81939193F9
:103090002250310939832883D7CF209157053091A9
:1030A0005805232B41F420910501309106013093FE
:1030B00058052093570520910301309104012115F3
:1030C000310541F42DB73EB74091070150910801F9
:1030D000241B350BE0915705F0915805E217F307D3
:1030E000A0F42E1B3F0B2817390778F0AC014E5F78
:1030F0005F4F2417350748F04E0F5F1F5093580558
:1031000040935705819391939FCFF0E0E0E09CCFEF
:10311000CF93DF930097E9F0FC013297138212827C
:10312000A0915905B0915A05ED0130E020E01097CB
:10313000A1F420813181820F931F20915705309196
:1031400058052817390709F061C0F0935805E09336
:103150005705DF91CF910895EA01CE17DF07E8F513
:103160004A815B819E0141155105B1F7E901FB835D
:10317000EA8349915991C40FD51FEC17FD0761F4FB
:10318000808191810296840F951FE901998388833C
:10319000828193819B838A83F0E0E0E012968D9197
:1031A0009C9113970097B9F52D913C911197CD0102
:1031B0000296820F931F20915705309158052817CA
:1031C000390739F6309751F510925A051092590582
:1031D000B0935805A0935705BCCFD383C2834081D9
:1031E0005181840F951FC817D90761F44E5F5F4F57
:1031F00088819981480F591F518340838A819B811F
:10320000938382832115310509F0B0CFF0935A05DD
:10321000E09359059ECFFD01DC01C0CF13821282DD
:10322000D7CFFB01DC014150504048F001900D9296
:103230000020C9F701C01D9241505040E0F70895A9
:04324000F894FFCF30
:10324400FF130000005B05800000000000F9025934
:103254000286024603B7029502A90200000000DAC2
:1032640006AD0609078306A606930684064D617813
:1032740020736572766F732061747461636865642A
:1032840000556E6B6E6F776E2070696E206D6F6483
:1032940065004932433A20546F6F206D616E792086
:1032A4006279746573207265636569766564004943
:1032B40032433A20546F6F206665772062797465D3
:1032C400732072656365697665640031302D6269C7
:1032D400742061646472657373696E67206E6F74C1
:1032E40020737570706F7274656400746F6F206DF5
:1032F400616E79207175657269657300453A5C5336
:103304006369656E63652D5265706F5C6E6D736481
:103314006B2D6769745C42696E5C506C6174666F96
:10332400726D5C57696E5C41726475696E6F44615D
:1033340074615C6C69627261726965735C4669721E
:103344006D6174615C6578616D706C65735C5374F8
:10335400616E646172644669726D6174615C537418
:10336400616E646172644669726D6174612E696E26
:023374006F00E8
:00000001FF
