:100000000C9447050C946F050C946F050C946F05C8
:100010000C946F050C946F050C946F050C946F0590
:100020000C946F050C946F050C946F050C946F0580
:100030000C946F050C946F050C946F050C946F0570
:100040000C94E5160C946F050C9455170C942F170F
:100050000C946F050C946F050C946F050C946F0550
:100060000C9487170C946F0500000000003E5B4F56
:100070005B3E3E6B4F6B3E1C3E7C3E1C183C7E3C08
:10008000181C577D571C1C5E7F5E1C00183C180016
:10009000FFE7C3E7FF0018241800FFE7DBE7FF30A6
:1000A000483A060E2629792926407F050507407F14
:1000B00005253F5A3CE73C5A7F3E1C1C08081C1C87
:1000C0003E7F14227F22145F5F005F5F06097F017D
:1000D0007F006689956A606060606094A2FFA29468
:1000E00008047E040810207E201008082A1C080836
:1000F0001C2A08081E101010100C1E0C1E0C303884
:100100003E3830060E3E0E06000000000000005F84
:1001100000000007000700147F147F14242A7F2AA0
:100120001223130864623649562050000807030062
:10013000001C2241000041221C002A1C7F1C2A08AE
:10014000083E080800807030000808080808000011
:1001500060600020100804023E5149453E00427F85
:10016000400072494949462141494D331814127FD4
:100170001027454545393C4A494931412111090774
:100180003649494936464949291E000014000000F5
:1001900040340000000814224114141414140041C7
:1001A00022140802015909063E415D594E7C121184
:1001B000127C7F494949363E414141227F414141BC
:1001C0003E7F494949417F090909013E4141517337
:1001D0007F0808087F00417F41002040413F017FA8
:1001E000081422417F404040407F021C027F7F0470
:1001F00008107F3E4141413E7F090909063E4151B9
:10020000215E7F09192946264949493203017F01A8
:10021000033F4040403F1F2040201F3F4038403FA9
:10022000631408146303047804036159494D4300BF
:100230007F4141410204081020004141417F0402F6
:10024000010204404040404000030708002054548D
:1002500078407F284444383844444428384444286B
:100260007F385454541800087E090218A4A49C78BE
:100270007F0804047800447D40002040403D007F1A
:100280001028440000417F40007C047804787C08FA
:100290000404783844444438FC18242418182424CE
:1002A00018FC7C08040408485454542404043F44B3
:1002B000243C4040207C1C2040201C3C4030403CE2
:1002C00044281028444C9090907C4464544C440042
:1002D00008364100000077000000413608000201A6
:1002E0000204023C2623263C1EA1A161123A404092
:1002F000207A38545455592155557941225454780F
:1003000042215554784020545579400C1E527212A7
:100310003955555559395454545939555454580030
:1003200000457C410002457D420001457C407D1234
:1003300011127DF0282528F07C5455450020545496
:100340007C547C0A097F4932494949323A44444441
:100350003A324A4848303A4141217A3A424020787C
:10036000009DA0A07D3D4242423D3D4040403D3C7D
:1003700024FF2424487E4943662B2FFC2F2BFF09A2
:1003800029F620C0887E0903205454794100004496
:100390007D413048484A32384040227A007A0A0A81
:1003A000727D0D19317D2629292F282629292926F4
:1003B00030484D4020380808080808080808382F39
:1003C00010C8ACBA2F102834FA00007B00000814C3
:1003D0002A142222142A14085500550055AA55AA99
:1003E00055AAFF55FF55FF000000FF00101010FF39
:1003F00000141414FF001010FF00FF1010F010F094
:10040000141414FC001414F700FF0000FF00FF1484
:1004100014F404FC141417101F10101F101F1414D0
:10042000141F00101010F0000000001F101010101A
:100430001F10101010F010000000FF10101010100E
:1004400010101010FF10000000FF140000FF00FF4C
:1004500000001F10170000FC04F4141417101714E8
:1004600014F404F40000FF00F7141414141414140A
:10047000F700F7141414171410101F101F1414147D
:10048000F4141010F010F000001F101F0000001FE7
:1004900014000000FC140000F010F01010FF10FF1A
:1004A000141414FF141010101F00000000F010FFAF
:1004B000FFFFFFFFF0F0F0F0F0FFFFFF0000000093
:1004C00000FFFF0F0F0F0F0F3844443844FC4A4A17
:1004D0004A347E02020606027E027E0263554941CC
:1004E000633844443C04407E201E2006027E020203
:1004F00099A5E7A5991C2A492A1C4C7201724C3017
:100500004A4D4D303048784830BC625A463D3E49ED
:100510004949007E0101017E2A2A2A2A2A44445F91
:10052000444440514A444040444A51400000FF0185
:1005300003E080FF000008086B6B08361236243693
:10054000060F090F060000181800000010100030F8
:1005500040FF0101001F01011E00191D1712003C80
:100560003C3C3C0000000000000103070F1F3F7FE0
:100570000080C0E0F0F8FCFEDB40A4A62EAF200017
:10058000A1C8D300408DAED580A800006000000057
:100590000000000000000000000000E0000000007B
:1005A00000000000000000000001E000000000006A
:1005B000000000000000000001F00000000000004A
:1005C0000000000000000003F00000000000000038
:1005D00000000000000007F0000000000000000024
:1005E000000000000007F80000000000000000000C
:1005F000000000000FF800000003C0007E000001B2
:10060000E0007F0FF800000003C000FE000001E0E2
:1006100000FFEFF800000003C000FE000001E00052
:10062000FFFFF800000003C000F00000000F007F93
:10063000FE7FC0000003C000F00000000F003FFE7E
:100640007FF83FF1FBCFFCFEF3BC3DEFE01FFE7FE8
:10065000FF7FFBFFDFFEFEFFBC3DEFE01FC6FFFF9D
:100660007FFBFFDFFEFEFFBC3DEFE00FE3C7FE7840
:100670007BC3DE1EF0FFBC3DEF0007FF87FC787BED
:10068000C3DE1EF0F83C3DEF0001FFFFF0007BC32E
:10069000C01EF0F03C3DEF0001F37FE03FFBC3CF15
:1006A000FEF0F03C3DEF0003E33F807FFBC3DFFE45
:1006B000F0F03C3DEF0007E73C00787BC3DE1EF026
:1006C000F03C3DEF0007FFBE00787BC3DE1EF0F07C
:1006D0003C3DEF0007FFFE00787BC3DE1EF0F03CE0
:1006E0003DEF000FFFFE007FFBFFDFFEF0F03FFD60
:1006F000EFE00FFFFF007FFBFFDFFEF0F03FFDEFBD
:10070000E00FF9FF003E79F9CF9EF0F01F3DE7E0E2
:100710001FF1FF0000000000000000000000001FAB
:1007200080FF007FFFFFFFFFFFFFFFFFFFE01C00D8
:100730007F007FFFFFFFFEB46D888D18E000001F73
:10074000007FFFFFFFFE95AD7DB577E000000F0055
:100750007FFFFFFFFEA5AD9D8D19E0000006007F25
:10076000FFFFFFFEB5ADEDB57EE00000000000012B
:100770008000000000000000000003800000000076
:10078000000000000007C0000000000000000000A2
:1007900007C00000000000000000000FC0000000C3
:1007A0000000000000001FE000000000000000004A
:1007B000001FE00000000000000000003FE000001B
:1007C000000000000000003FF000000000000000FA
:1007D00000007FF0000000000000001FF87FF00024
:1007E0000000000000003FFE7FF00000000000005D
:1007F000003FFF7FF0000000000000001FFFFBE053
:10080000000000000000000FFFF9FFC00000000022
:1008100000000FFFF9FFF800000000000007FFF1E3
:10082000FFFF00000000000003FC73FFFF800000DA
:1008300000000001FE3FFFFF80000000000000FFFD
:100840001E0FFF000000000000007FFE1FFC0000E4
:1008500000000000003FFFFFF80000000000000063
:100860000FDFFFE0000000000000001F19FFC000C4
:100870000000000000003F3CFF00000000000000FE
:10088000007E7CF800000000000000007FFE7C007D
:1008900000000000000000FFFFFC0000000000005E
:1008A0000000FFFFFE0000000000000000FFFFFE50
:1008B0000000000000000001FFEFFE00000000004B
:1008C000000001FFCFFE0000000000000003FF0752
:1008D000FE0000000000000003FC07FE0000000016
:1008E00000000003F003FE00000000000000018093
:1008F00000FE000000000000000000007E0000007C
:10090000000000000000003E0000000000000000A9
:1009100000000C000000000000078000FC00000345
:10092000C0000000078001FC000003C000000007B9
:100930008001FC000003C0000000078001E000000F
:10094000001E000000078001E00000001E007FE3A1
:10095000F79FF9FDE7787BDFC0FFF7FFBFFDFDFFE5
:10096000787BDFC0FFF7FFBFFDFDFF787BDFC0F0C6
:10097000F787BC3DE1FF787BDE00F0F787BC3DE107
:10098000F0787BDE0000F787803DE1E0787BDE00D9
:100990007FF7879FFDE1E0787BDE00FFF787BFFDF3
:1009A000E1E0787BDE00F0F787BC3DE1E0787BDEBC
:1009B00000F0F787BC3DE1E0787BDE00F0F787BC14
:1009C0003DE1E0787BDE00FFF7FFBFFDE1E07FFB6C
:1009D000DFC0FFF7FFBFFDE1E07FFBDFC07CF3F38B
:1009E0009F3DE1E03E7BCFC0000000000000000022
:1009F000000000FFFFFFFFFFFFFFFFFFFFC0FFFF43
:100A0000FFFFFD68DB111A31C0FFFFFFFFFD2B5A0E
:100A1000FB6AEFC0FFFFFFFFFD4B5B3B1A33C0FFDC
:100A2000FFFFFFFD6B5BDB6AFDC050524F544F2050
:100A30004F4B2032000000000800020100000304B8
:100A40000700000000000000000000000025002852
:100A5000002B0000000000240027002A00040404EA
:100A60000404040404020202020202030303030357
:100A70000301020408102040800102040810200134
:100A800002040810202200FF2100A618941E112441
:100A90001FBECFEFD8E0DEBFCDBF23E0ACE9B1E0B1
:100AA00001C01D92AB35B207E1F711E0A0E0B1E063
:100AB000EEEEF2E402C005900D92AC39B107D9F721
:100AC00015E0C6E4D5E004C02197FE010E94441F52
:100AD000C534D107C9F70E9438190C946A210C94C7
:100AE00000000895089590E0FC01EF58F54F24911F
:100AF000835A954FFC018491882399F090E0880FE8
:100B0000991FFC01ED5AF54FA591B491FC01E75BEB
:100B1000F54F859194918FB7F894EC91E22BEC937B
:100B20008FBF0895089590E0FC01EB5CF54F249190
:100B3000FC01EF58F54F3491FC01E35AF54FE49175
:100B4000EE23C9F0222339F0233001F1A8F421303B
:100B500019F1223029F1F0E0EE0FFF1FE75BF54FAE
:100B6000A591B4918FB7F894EC91611126C030959E
:100B70003E233C938FBF08952730A9F02830C9F059
:100B8000243049F7809180008F7D03C080918000E0
:100B90008F7780938000DFCF84B58F7784BDDBCFE4
:100BA00084B58F7DFBCF8091B0008F778093B000AC
:100BB000D2CF8091B0008F7DF9CF3E2BDACF3FB7F7
:100BC000F8948091500290915102A0915202B091FC
:100BD000530226B5A89B05C02F3F19F00196A11D11
:100BE000B11D3FBFBA2FA92F982F8827BC01CD0177
:100BF000620F711D811D911D42E0660F771F881FD6
:100C0000991F4A95D1F708958F929F92AF92BF9204
:100C1000CF92DF92EF92FF924B015C010E94DF05C1
:100C20006B017C010E94DF056C197D098E099F090B
:100C3000683E734081059105A8F321E0821A91086E
:100C4000A108B10888EEC80E83E0D81EE11CF11C93
:100C500081149104A104B10429F7FF90EF90DF9073
:100C6000CF90BF90AF909F908F900895AF92BF921A
:100C7000CF92DF92EF92FF920F931F93CF93DF9368
:100C80006C017B018B01040F151FEB015E01AE1897
:100C9000BF08C017D10759F06991D601ED91FC91B9
:100CA0000190F081E02DC6010995892B79F7C501E6
:100CB000DF91CF911F910F91FF90EF90DF90CF9038
:100CC000BF90AF900895FC01538D448D252F30E0E7
:100CD000842F90E0821B930B541710F0CF96089549
:100CE00001970895FC01918D828D981761F0A28D76
:100CF000AE0FBF2FB11D5D968C91928D9F5F9F733C
:100D0000928F90E008958FEF9FEF08952FB7F8949A
:100D10008091540290915502A0915602B0915702D1
:100D20002FBF80936A0290936B02A0936C02B093E2
:100D30006D0282E692E00E94720697FF26C02FB7EE
:100D4000F8948091540290915502A0915602B0916E
:100D500057022FBF40916A0250916B0260916C0262
:100D600070916D02841B950BA60BB70B4091660228
:100D7000509167026091680270916902841795072B
:100D8000A607B707B0F28FEF9FEF0895FC01918D92
:100D9000828D981731F0828DE80FF11D858D90E0DE
:100DA00008958FEF9FEF0895FC01918D228D892F7B
:100DB00090E0805C9F4F821B91098F739927089563
:100DC00082E692E00E94D40621E0892B09F420E01B
:100DD000822F089580E090E0892B29F00E94E006A0
:100DE00081110C9400000895FC01A48DA80FB92F67
:100DF000B11DA35ABF4F2C91848D90E001968F7343
:100E00009927848FA689B7892C93A089B1898C9161
:100E1000837080648C93938D848D981306C00288B0
:100E2000F389E02D80818F7D80830895EF92FF927A
:100E30000F931F93CF93DF93EC0181E0888F9B8DFD
:100E40008C8D98131AC0E889F989808185FF15C0B7
:100E50009FB7F894EE89FF896083E889F9898081DA
:100E60008370806480839FBF81E090E0DF91CF91A9
:100E70001F910F91FF90EF900895F62E0B8D10E0CB
:100E80000F5F1F4F0F731127E02E8C8D8E110CC03A
:100E90000FB607FCFACFE889F989808185FFF5CF85
:100EA000CE010E94F406F1CFEB8DEC0FFD2FF11D6A
:100EB000E35AFF4FF0829FB7F8940B8FEA89FB89C2
:100EC00080818062CFCFCF93DF93EC01888D882320
:100ED000B9F0AA89BB89E889F9898C9185FD03C09D
:100EE000808186FD0DC00FB607FCF7CF8C9185FF82
:100EF000F2CF808185FFEDCFCE010E94F406E9CFCD
:100F0000DF91CF910895EF92FF920F931F93CF93AC
:100F1000DF93EC01EC80FD806E157F050CF070C056
:100F200057FF04C0240F351F50E040E08E819F81A1
:100F3000FA01E20FF31F8E179F071CF49C01241B7C
:100F4000350B121613060CF05BC0922F842F86957A
:100F5000869586958E9DD0018F9DB00D11246A0FC8
:100F60007B1FAF8DB8A1A60FB71F477049F188E06E
:100F7000841B482F682F70E0FB01E059FA4FE49181
:100F8000281708F063C0621B71092FEF30E002C020
:100F9000359527956A95E2F7E2230130110539F07E
:100FA000B0F10230110561F58C91E82702C08C91F7
:100FB000E82BEC93941720F12C813D81A20FB31FF5
:100FC000E92FE41BE83078F00230110521F58E2F6F
:100FD0009C9190959C932C813D81A20FB31F8850CA
:100FE0008830B0F7E770EE2359F0F0E0E859FA4F97
:100FF000E49101301105F9F010F10230110519F1F9
:10100000DF91CF911F910F91FF90EF900895E095A0
:101010008C91E823CECF81E00115110509F480E021
:1010200081959E2F8C932C813D81A20FB31F9850E8
:101030009830C0F7D7CF8C91E82BEC93E1CFE095B7
:101040008C91E823FACF8C91E827F7CF0130110576
:1010500009F4ADCFE0F20230110509F4A5CFAE0DD1
:10106000BF1DAECF0F931F93CF93DF9377FF04C0C5
:10107000260F371F70E060E0DC011496CD91DC9103
:10108000FB01E20FF31FCE17DF071CF49E01261BA6
:10109000370B121613064CF5FA0157FD3796A3E0ED
:1010A000F595E795AA95E1F7EC9FD001ED9FB00D7E
:1010B000FC9FB00D11246A0F7B1FDC015F96ED9140
:1010C000FC91E60FF71F4770552781E090E001C0C3
:1010D000880F4A95EAF7482F0130110559F0A8F01A
:1010E0002E0F3F1F02301105E1F0DF91CF911F91CC
:1010F0000F9108952E0F3F1FE217F307B1F381916F
:10110000DF011197842B8C93F7CF80952E0F3F1F13
:10111000E217F30751F39191DF01119798239C9304
:10112000F7CFE217F30709F38191DF0111978427C5
:101130008C93F7CF0F931F93FA01DC0156964C91D5
:1011400056974230E9F04330A1F1413061F51496F1
:101150004D915C91DA01AE1BBF0BFD01E21BF30B5D
:1011600077FD0BC0DC0116964D915C9164177507F5
:1011700024F4AB01BF010E9432081F910F91089522
:1011800014964D915C91DA01A61BB70BBD0161501D
:101190007109DC0116964D915C91DA01AE1BBF0B13
:1011A000FD01E21BF30B77FDE8CFAF010E9483073F
:1011B000E4CF16964D915C91DA01A61BB70BBD01E9
:1011C00061507109CDCF0F931F93FA01DC01569640
:1011D0004C9156974230A9F0433091F1413019F5C6
:1011E00014964D915C91DA01AE1BBF0BFD01319756
:1011F000F7FD04C0AB01BF010E9483071F910F914F
:10120000089514964D915C91DA01A61BB70BBD01B0
:10121000DC0116964D915C91DA01AE1BBF0BFD010E
:101220003197621B730BF7FDE9CFDC0116964D91E8
:101230005C91E417F50714F7AF010E943208DECF86
:1012400016964D915C91DA01A61BB70BBD01621B8E
:10125000730BCECFFC0177FD64C080859185681744
:1012600079070CF05EC057FD5CC0828593854817F6
:1012700059070CF056C086898230B1F0833029F1CD
:10128000813041F484819581841B950BAB01BC01B5
:10129000615071092130310509F108F443C0223051
:1012A000310509F463C0089584819581DC01A61B92
:1012B000B70BBD016150710986819781DC01A41BC8
:1012C000B50BAD0141505109E5CF86819781861B51
:1012D000970BBA01AC0141505109DCCFCA0157FD4F
:1012E0000796A3E095958795AA95E1F7A481B58126
:1012F0008A9F90018B9F300D9A9F300D1124620FB1
:10130000731F078CF0A1E02DE60FF71F47705527DC
:1013100021E030E001C0220F4A95EAF78081822B5C
:1013200080830895CA0157FD079633E09595879508
:101330003A95E1F7A481B5818A9F90018B9F300D8A
:101340009A9F300D1124620F731F078CF0A1E02DBE
:10135000E60FF71F4770552781E090E001C0880F26
:101360004A95EAF7809590818923DACFCA0157FD23
:10137000079623E0959587952A95E1F7A481B58195
:101380008A9F90018B9F300D9A9F300D1124620F20
:10139000731F078CF0A1E02DE60FF71F477055274C
:1013A00021E030E001C0220F4A95EAF780818227D0
:1013B000B7CF08958EBD00000DB407FEFDCF8EB5EA
:1013C00008958CBD9DBD08950895FC016370668BE2
:1013D0008481958126813781613039F0633029F02D
:1013E0009187808733872287089531872087938765
:1013F000828708952F923F924F925F926F927F92D1
:101400008F929F92AF92BF92CF92DF92EF92FF9214
:101410000F931F93CF93DF93CDB7DEB76A970FB6C5
:10142000F894DEBF0FBECDBF9A8F898F7A83698310
:101430004A01D22E18870F833701BC2CDC01599644
:101440002D913C915A972115310509F015C1189637
:101450008D919C911997681779070CF0D7C11A964E
:101460008D919C91481759070CF0D0C14C2C512CF0
:10147000B6E0CB9E600D711D11247C876B8716161C
:1014800017060CF0C3C1EA2DF0E0FA87E98793E074
:10149000EE0FFF1F9A95E1F7F88BEF87CF01840FCE
:1014A000951F181619060CF0B1C1A98DBA8D589662
:1014B0008C91811104C0BFEABD1508F4D394A98DA5
:1014C000BA8DED91FC9111970284F385E02DCD0149
:1014D0000995B5E0DB9EC0011124E981FA81FC8306
:1014E000EB83312C212C9C0128593F4F388F2F8BB7
:1014F0004A2D50E05E8B4D8BEF89F88DE20DF31D88
:1015000044919E828D82D12CC12C69817A81620D99
:10151000731D7A8B698B842F90E09C8B8B8BE98D6C
:10152000FA8DA081B18140FF82C0F1E0BF126FC08F
:10153000AF126DC01C96ED91FC912F813885A401EE
:101540004C0D5D1D69897A89898D9A8D0995EB8984
:10155000FC89F595E7954E2F5FEFC51AD50A6D8189
:101560007E818D899E89680F791F7E836D8398E0C7
:10157000C916D10481F6AFEF2A1A3A0AEB81FC8131
:10158000E40DF51DFC83EB83F5E02F16310409F023
:10159000B3CF2F81388526153705B9F0A98DBA8DBF
:1015A000ED91FC91B1E0BB1257C0AB1255C06981FF
:1015B0007A816B5F7F4F0088F189E02D830128E0FD
:1015C00030E0A401898D9A8D0995A98DBA8DED9190
:1015D000FC9111970688F789E02DCD016A960FB628
:1015E000F894DEBF0FBECDBFDF91CF911F910F9159
:1015F000FF90EF90DF90CF90BF90AF909F908F9033
:101600007F906F905F904F903F902F9009941E961F
:10161000ED91FC91EF80F88409851A8592014D8146
:101620005E816B817C81898D9A8D099590CF2F8108
:1016300038852615370509F48ACF31E0B31207C083
:10164000A31205C01C96ED91FC91930178CF1E96D4
:10165000ED91FC917301E0CF6B857C856419750970
:101660000684F785E02D73010F8518899201A40186
:10167000898D9A8D0995A9CFF90134969491329765
:1016800045915491D91AB7E0DB9E400D511D1124AC
:10169000F901259134913C8B2B8BFA0125903490E4
:1016A000FA013296749031963491398B3296649067
:1016B0003196449041E04C1518F04A1508F07FC06F
:1016C000662D062C000C770B7C836B83842D042CF9
:1016D000000C990B9E838D83A98DBA8DED91FC91A1
:1016E00011970284F385E02DCD010995512CD12C61
:1016F000C12CEA2DF0E0FA87E9872B2D30E03C87FA
:101700002B87A401440D511D47FC5A95588F4F8BD0
:1017100069817A81660D711D67FC7A957E876D8778
:101720007989C71608F051CF2C2D30E04D815E81AC
:10173000420F531FA985BA854A9FC0014B9F900D48
:101740005A9F900D1124FC01E80DF91DF88BEF87CD
:10175000852D612C4F89588D420F531F5E8B4D8B09
:10176000671408F050C044244394480E877041F435
:10177000C1010196EB89FC89E20DF31DD4901C0197
:10178000D7FE19C0A98DBA8DED91FC91662D70E040
:10179000B1E0BB1219C0AB1217C02D853E85620F98
:1017A000731F0484F585E02D2F8138854D895E896E
:1017B000898D9A8D0995DD0C6394842DD1CF1E827D
:1017C0001D821C821B8288CF4B815C81640F751F38
:1017D000AB85BC856A9FC0016B9F900D7A9F900D71
:1017E000112469817A81680F791F0684F785E02DBD
:1017F000EF80F88409851A859D014F855889898D68
:101800009A8D0995D8CF570CC3948ACF6A960FB694
:10181000F894DEBF0FBECDBFDF91CF911F910F9126
:10182000FF90EF90DF90CF90BF90AF909F908F9000
:101830007F906F905F904F903F902F9008958F9280
:101840009F92AF92CF92EF92FF920F931F93CF93FD
:10185000DF93EC01262F898D9A8D009709F051C0F6
:101860006A30D1F41D861C868D8948E0849F9001E2
:1018700011248E859F85820F931F9F878E8781E01D
:1018800090E0DF91CF911F910F91FF90EF90CF905B
:10189000AF909F908F9008956D3089F3CC88AD887C
:1018A0008F898823C1F08C859D8536E0C39E800D8D
:1018B000911D1124488559854817590764F44E85B0
:1018C0005F851D861C8638E0A39EC0011124840F0D
:1018D000951F9F878E87EA88FB88088919894E851E
:1018E0005F856C857D85CE010E94FA092C898C85E7
:1018F0009D8546E0249F800D911D11249D878C8736
:10190000BECF6A3069F41D861C86FC013896E491CE
:101910002D898E859F85E29F800D911D1124ADCF6D
:101920006D3009F4ACCFFC0134963491631708F4A0
:10193000A6CF3296E491E61708F4A1CFFC013296C7
:1019400085909490462F431B342F47E0349F800CA2
:10195000911C1124F401329634913196E491332391
:10196000A9F1EE2399F1CC88F4013596E491AD8884
:101970004F89442301F10E2E000CFF0BE30FF11DE4
:10198000CE9EA001CF9E500D11246C857D85460F03
:10199000571F68857985641775076CF44E855F85D8
:1019A0001D861C86FC013896E491AE9E400D511DAB
:1019B00011245F874E87EA88FB88088919894E853C
:1019C0005F856C857D85CE010E94FA09F40134960D
:1019D000E4912C898C859D85E29F800D911D1124B9
:1019E0008DCF6F927F928F929F92AF92BF92CF9244
:1019F000DF92EF92FF920F931F93CF93DF93EC014F
:101A00006B015A0139014801E881F9810284F385AB
:101A1000E02D0995E881F9810288F389E02D87019D
:101A20009301A501B601CE010995A501480D591DE7
:101A300041505109E881F9810288F389E02D930131
:101A4000B601CE010995E881F9810088F189E02D80
:101A50009401A501B601CE010995C60CD71CB601AB
:101A600061507109E881F9810088F189E02D9401C4
:101A7000A501CE010995E881F9810688F789E02D55
:101A8000CE01DF91CF911F910F91FF90EF90DF90EA
:101A9000CF90BF90AF909F908F907F906F90099460
:101AA0006F927F928F929F92AF92BF92CF92DF926E
:101AB000EF92FF920F931F93CF93DF935C01EB01A3
:101AC0006A01490138018701DC01ED91FC9162173F
:101AD000730719F5641675062CF0962D872D3A01BB
:101AE000C92ED82E9601261937092F5F3F4F048C37
:101AF000F58DE02DA301BE01C5010995DF91CF91C0
:101B00001F910F91FF90EF90DF90CF90BF90AF901B
:101B10009F908F907F906F9008954615570591F490
:101B20002617370724F0892D4B01C22FD82F9E018D
:101B3000281939092F5F3F4F068CF78DE02DA6013C
:101B4000B401DACF0284F385E02D0995D501ED913A
:101B5000FC910488F589E02D83019401A601BE0162
:101B6000C5010995D501ED91FC910688F789E02D15
:101B7000C501DF91CF911F910F91FF90EF90DF9002
:101B8000CF90BF90AF909F908F907F906F9009946F
:101B9000EF92FF920F931F93DC011A960D911C9107
:101BA0001B9718962D913C911997ED91FC9100A0EF
:101BB000F1A1E02D7B0150E040E070E060E009958C
:101BC0001F910F91FF90EF9008954F925F926F9247
:101BD0007F928F929F92AF92BF92CF92DF92EF92BD
:101BE000FF920F931F93CF93DF936C012B015A0148
:101BF00039014801DC01ED91FC910284F385E02D6F
:101C00000995E201640C751CD601ED91FC91C61595
:101C1000D7055CF40088F189E02D87019401A501C6
:101C2000BE01C60109952196EFCF0688F789E02D00
:101C3000C601DF91CF911F910F91FF90EF90DF9040
:101C4000CF90BF90AF909F908F907F906F905F905C
:101C50004F9009948F929F92AF92BF92CF92DF9252
:101C6000EF92FF920F931F93CF93DF93EC015B01F1
:101C70004A016901E881F9810284F385E02D099523
:101C800095012C0D3D1D21503109E881F981048811
:101C9000F589E02D78018401A401B501CE010995F3
:101CA000E881F9810688F789E02DCE01DF91CF9197
:101CB0001F910F91FF90EF90DF90CF90BF90AF906A
:101CC0009F908F9009948F929F92AF92BF92CF92E4
:101CD000DF92EF92FF920F931F93CF93DF93EC016C
:101CE0005B014A0169017801E881F9810284F38589
:101CF000E02D0995C80CD91C860101501109E88115
:101D0000F9810488F589E02D9501A401B501CE0182
:101D10000995E881F9810688F789E02DCE01DF91E8
:101D2000CF911F910F91FF90EF90DF90CF90BF90D8
:101D3000AF909F908F900994EF92FF920F931F9313
:101D4000DC01ED91FC9100A0F1A1E02D09951F911E
:101D50000F91FF90EF9008950F931F93DC01ED9189
:101D6000FC91068CF78DE02D09951F910F91089538
:101D70000F931F93DC01ED91FC91048CF58DE02D08
:101D800009951F910F910895DC01ED91FC9100845C
:101D9000F185E02D09943F924F925F926F927F926E
:101DA0008F929F92AF92BF92CF92DF92EF92FF926B
:101DB0000F931F93CF93DF935C017B014A0169016D
:101DC000390187E0680E711C93E0759467949A95C9
:101DD000E1F72B01400E511E10E000E0312CD0E065
:101DE000C0E0CE0187709927330C892B59F4FE018E
:101DF00083E0F595E7958A95E1F7E00FF11FE80D8F
:101E0000F91D349037FE0AC021E030E0A701B5018A
:101E10006C0F7D1F87E193E00E94C40E2196CC16C3
:101E2000DD06F9F68FEFE81AF80A060D171DE4141F
:101E3000F504A9F6DF91CF911F910F91FF90EF90DC
:101E4000DF90CF90BF90AF909F908F907F906F90DA
:101E50005F904F903F9008952F923F924F925F92E4
:101E60006F927F928F929F92AF92BF92CF92DF92AA
:101E7000EF92FF920F931F93CF93DF9300D000D088
:101E800000D0CDB7DEB73C016A013E832D83FC82D2
:101E9000EB825801A41AB50AB7FE03C0B194A1940D
:101EA000B1088D809E80861A970A97FE03C0919490
:101EB000819491088A149B045CF0902F812F0D81EE
:101EC0001E819D838E839C2D8D2D6B01692F782F14
:101ED0000C151D055CF09D818E817E836D83692FBD
:101EE000782F902F812F8601C92ED82E1601201A07
:101EF000310A2B012D813E81421A530A57FE03C03D
:101F0000519441945108710137FE03C03FEFE31A29
:101F1000F30AF594E7948D819E81861797075CF507
:101F2000A1E0B0E0BA83A983C016D1064CF1D30179
:101F3000ED91FC910484F585E02D2B813C81A80175
:101F40006D817E818A149B041CF04D815E81B801F5
:101F5000C3010995E418F508F7FE0AC02D813E81FA
:101F600089819A81280F391F3E832D83E20CF31C4F
:101F70000F5F1F4FD9CF2FEF3FEF3A832983D4CF85
:101F800026960FB6F894DEBF0FBECDBFDF91CF917E
:101F90001F910F91FF90EF90DF90CF90BF90AF9087
:101FA0009F908F907F906F905F904F903F902F9079
:101FB0000895089520910202260F3327331F2132FE
:101FC0003105ECF420912602FC0190E080E0243001
:101FD00069F082E00895A09102022191AC014E5176
:101FE0005E4FA40FB52FB11D2C930196861798F361
:101FF00080910202680F6093020280E0089581E000
:1020000008951092260281E0809328021092270200
:1020100061E082E10E94930561E083E10E94930503
:10202000E9EBF0E080818E7F808380818D7F8083EB
:1020300088E48093B80085E48093BC0008951092F2
:1020400061021092600210925F0210925E020E9482
:10205000011081E795E090935D0280935C0282E736
:1020600095E090935B0280935A020895CF93DF939B
:1020700091E09093E1018823B9F0C091B800D0912C
:10208000BA008091BC008A7B8093BC0060E082E152
:102090000E94930560E083E10E9493050E94011075
:1020A000D093BA00C093B800DF91CF910895E0912A
:1020B000610280916002E81730F4F0E0E454FE4FD2
:1020C000808190E008958FEF9FEF089590916102D5
:1020D000809160022FEF3FEF981748F4E92FF0E06E
:1020E000E454FE4F208130E09F5F90936102C9016C
:1020F00008958091600290916102891B990B089567
:10210000CF92DF92EF92FF920F931F93CF93DF93C3
:102110007C01CB018A0120915902222389F0EB0135
:102120006B01C40ED51ECC15DD0569F06991D70190
:10213000ED91FC910190F081E02DC7010995F3CF5D
:10214000642F0E94DA0FC801DF91CF911F910F9188
:10215000FF90EF90DF90CF900895CF93DF931F9281
:10216000CDB7DEB76983209159022223F9F020917F
:102170005E02203258F021E030E0FC0133832283FC
:1021800090E080E00F90DF91CF91089580915F0201
:10219000E82FF0E0E456FE4F998190838F5F8093A3
:1021A0005F0280935E0281E090E0ECCF61E0CE01BF
:1021B00001960E94DA0FF7CFCF92DF92EF92FF9253
:1021C0000F931F93CF93DF93D0915E0281E0D132C2
:1021D00008F09CC0C09158020E94DF056B017C0191
:1021E0008091260281116CC082E08093260281E0FA
:1021F000809328028FEF8093250210924A02D09399
:102200004902ACE9B1E0E9E2F2E080E0D8138DC028
:1022100010924B0280914B02CC0FC82BC0934B0203
:1022200080912702813009F084C0109227020E9419
:10223000DF056B017C0180914B028093BB00809194
:10224000DD019091DE01A091DF01B091E001892BC9
:102250008A2B8B2BA1F00E94DF050091DD011091EC
:10226000DE012091DF013091E0016C197D098E09BA
:102270009F09061717072807390708F442C08091FD
:10228000BC0083FDD8CF85EC8093BC000E94DF05A5
:102290006B017C0180912602823009F44CC0809150
:1022A00025028F3F09F469C080912502803209F42C
:1022B00066C080912502803309F463C084E026C0A3
:1022C0008091DD019091DE01A091DF01B091E001EC
:1022D000892B8A2B8B2B09F483CF0E94DF05009179
:1022E000DD011091DE012091DF013091E0016C19D8
:1022F0007D098E099F09061717072807390708F077
:102300006FCF8091DC010E94361085E010925F0251
:1023100010925E0210925902DF91CF911F910F919E
:10232000FF90EF90DF90CF9008959D9191938F5FF4
:102330006DCF85EEA9CF8091DD019091DE01A09156
:10234000DF01B091E001892B8A2B8B2B09F4A2CFFE
:102350000E94DF050091DD011091DE012091DF0177
:102360003091E0016C197D098E099F090617170746
:102370002807390708F08ECFC4CF80E0C7CF82E0AE
:10238000C5CF83E0C3CFEF92FF920F931F93CF93FC
:10239000DF937C01C62F8091340390913503009721
:1023A00009F459C02091380331E030935902209349
:1023B000580210925F0210925E02DC01ED91FC91D6
:1023C0000190F081E02D60E009958701EE24E3940F
:1023D000F12CD1E0C1508091340390913503CF3F6F
:1023E00091F1B0E2EB16F104D8F00E94DC1080917C
:1023F00034039091350320913803D09359022093F0
:10240000580210925F0210925E02DC01ED91FC9185
:102410000190F081E02D60E00995EE24E394F12C29
:102420008091340390913503F8016491DC01ED91C2
:10243000FC910190F081E02D0995BFEFEB1AFB0AAA
:102440000F5F1F4FC7CFDF91CF911F910F91FF906B
:10245000EF900C94DC10E0914403F09145039081DF
:1024600080914A038095892380838701C15008F4B5
:1024700038C0F80184912091320330913303232B2B
:1024800029F00E94DA090F5F1F4FF0CF28E030E0FB
:1024900040E8E0914003F091410390914803582FA8
:1024A0005423D9F05081952B9083E0914203F09111
:1024B0004303908150914903952B9083E09142030F
:1024C000F091430350819091490390959523908317
:1024D000469521503109E9F6D6CF50819095952344
:1024E000E3CFDF91CF911F910F91FF90EF9008956F
:1024F000FC01248131E0309359022093580210925C
:102500005F0210925E028385682B8BE093E00E944D
:10251000AD108BE093E00C94DC101F93CF93DF930E
:10252000EC018D8D9E8D009721F1162F29A131E0B0
:10253000309359022093580210925F0210925E026B
:10254000DC01ED91FC910190F081E02D60E00995B6
:102550008D8D9E8DDC01ED91FC910190F081E02D3F
:10256000612F09958D8D9E8DDF91CF911F910C94D8
:10257000DC10ADA5BEA59C918BA9809589238C9379
:102580008B8D9C8D892B31F0862FDF91CF911F9100
:102590000C94DA0928E030E080E8A9A5BAA599A949
:1025A000462F4823C1F04C91942B9C93ABA5BCA51E
:1025B0009C914AA9942B9C93ABA5BCA54C919AA93C
:1025C000909594239C9386952150310931F7DF91A2
:1025D000CF911F9108954C9190959423E6CFDF926F
:1025E000EF92FF920F931F93CF93DF938091340369
:1025F00090913503892B09F4A5C020914C033091AB
:102600004D0340914E0350914F0360E074E284EF1C
:1026100090E00E94221F205131094109510956952D
:102620004795379527952093B80064E085E89AE0B0
:102630000E94C31180911B0390911C03803491056B
:1026400009F097C060E287E193E00E948D126091EB
:102650001B03615E87E193E00E948D1220911D03B0
:1026600030911E03C901079697FD079633E09595B3
:1026700087953A95E1F720911B0330911C03829FC7
:102680008001839F100D929F100D1124C09136037D
:10269000D091370380913403909135030C0F1D1FA7
:1026A000009709F498C02091380331E03093590223
:1026B0002093580210925F0210925E02DC01ED91AD
:1026C000FC910190F081E02D60E40995EE24E39403
:1026D000F12CDD24D39480913403909135030C17B1
:1026E0001D0709F44FC0B0E2EB16F104D8F00E94C8
:1026F000DC10809134039091350320913803D092FF
:1027000059022093580210925F0210925E02DC017F
:10271000ED91FC910190F081E02D60E40995EE24AB
:10272000E394F12C80913403909135036991DC019D
:10273000ED91FC910190F081E02D0995BFEFEB1A2E
:10274000FB0AC9CF8091320390913303892B31F07A
:1027500080915503909156030E94E109E091460350
:10276000F0914703908180914B038095892380836A
:102770005CCF60E087E193E00E948D1260911B03C3
:10278000615068CF0E94DC10809134039091350332
:10279000892B09F461C0209150033091510340917D
:1027A00052035091530360E074E284EF90E00E9482
:1027B000221F2051310941095109569547953795F6
:1027C00027952093B800DF91CF911F910F91FF9033
:1027D000EF90DF900895E0914403F09145038081EC
:1027E00090914A03892B80830C171D0769F2899108
:1027F0002091320330913303232B19F00E94DA0920
:10280000F3CF28E030E040E8E0914003F09141034D
:1028100090914803582F5423D9F05081952B9083E1
:10282000E0914203F0914303908150914903952B2D
:102830009083E0914203F0914303508190914903CA
:10284000909595239083469521503109E9F6CCCF98
:10285000508190959523E3CFE0914603F091470393
:10286000808190914B03892B8083ADCF1F93CF93B1
:10287000DF93EC01162F8D8D9E8D892BB1F12DA943
:102880003EA94FA958AD60E074E284EF90E00E9449
:10289000221F205131094109510956954795379515
:1028A00027952093B80066EA111167EACE010E94CD
:1028B0008D128D8D9E8D892B41F129AD3AAD4BAD99
:1028C0005CAD60E074E284EF90E00E94221F205132
:1028D0003109410951095695479537952795209318
:1028E000B800DF91CF911F9108958B8D9C8D892B1E
:1028F00021F08EAD9FAD0E94E109EFA5F8A990816E
:102900008CA9809589238083CECFEFA5F8A98081FB
:102910009CA9892B8083E5CF90E080E008950F93F8
:102920001F93CF938C01C62F0E9478126C2F646086
:10293000C8010E9478126C2F6B7FC8010E94781228
:1029400083EC90E00197F1F7CF911F910F910895DB
:102950000F931F93CF93DF938C01D62FC42F607FEB
:10296000642B0E948F1480E1D89FB00111246C2B3E
:10297000C801DF91CF911F910F910C948F1441E00A
:102980000E94A81481E090E0089520911D033091E9
:102990001E03C901079697FD079623E09595879535
:1029A0002A95E1F720911B0330911C03829FA0011F
:1029B000839F500D929F500D112470E060E0809134
:1029C0003603909137030C943A21EF92FF920F93C4
:1029D0001F93CF93DF93CDB7DEB7C854D1090FB69D
:1029E000F894DEBF0FBECDBF7B018A019AEA26961E
:1029F0009FAF269727968FAF279728964FAF289798
:102A000029961FAF299744E050E0BE016B5B7F4FD2
:102A100082E692E00E943606A801B70182E692E0C3
:102A20000E94360629968CAD9DADAEADBFAD2997FF
:102A300089839A83AB83BC83C80101978034910555
:102A4000A8F5A801B701CE0105960E9431210C5FBF
:102A50001F4FAE014F5F5F4FFA0160E07CE881914C
:102A6000682728E030E0862F90E09595879560FFF5
:102A700020C0682F672721503109A9F7CF01841B97
:102A8000950B801791075CF382E692E00E9416078F
:102A9000C85BDF4F0FB6F894DEBF0FBECDBFDF912E
:102AA000CF911F910F91FF90EF90089504E010E0F7
:102AB000D0CF682FE0CF0F931F93CF93DF93CDB785
:102AC000DEB7A2970FB6F894DEBF0FBECDBF8091E0
:102AD0004D02882371F180E090E0A0E4B0E440E092
:102AE00050E068EA71E400E010E020E031E419828F
:102AF000E3E0EA830B831C832D833E834F83588757
:102B000069877A878B879C87AD87BE874EE050E0C8
:102B1000BE016F5F7F4F80E40E94E514A2960FB65E
:102B2000F894DEBF0FBECDBFDF91CF911F910F9103
:102B3000089580E090E0A0E8BFE340E050E060E866
:102B400071E400E010E020E030E4D1CF0E942C21BD
:102B5000FB0144815581FC0124813581241735070F
:102B600078F080819181009759F0FB01608171813B
:102B70006115710529F00E945C2121E0892B09F083
:102B800020E0822F0895FC0124813581232B39F424
:102B900021E0FB018081882349F020E007C080818B
:102BA00091810E944C2121E0892BB9F7822F089551
:102BB0000F931F93CF93DF93EC0188819981009746
:102BC00059F02A813B812617370730F081E0DF91E9
:102BD000CF911F910F9108958B016F5F7F4F0E94DE
:102BE0006F20009759F0998388831B830A832C8177
:102BF0003D81232B59F7FC011082E8CF80E0E7CF1D
:102C0000CF93DF93EC0188819981009711F00E94A6
:102C1000E61F198218821D821C821B821A82DF9194
:102C2000CF910895EF92FF920F931F93CF93DF936D
:102C30008C017B01EB0109900020E9F72197C61B6D
:102C4000D70BBE010E94D815811109C0C801DF91C0
:102C5000CF911F910F91FF90EF900C940016F80107
:102C6000D583C483B70180819181DF91CF911F917A
:102C70000F91FF90EF900C9455219F92AF92BF92CD
:102C8000CF92DF92EF92FF920F931F93CF93DF9338
:102C9000EC016B015A0179012417350720F48B2DC3
:102CA0005901E42EF82E198218821B821A821D8285
:102CB0001C8263E871E0CE010E941216D6011496C0
:102CC0000D911C91A016B10658F5E016F10608F416
:102CD0008701D601ED91FC911197E00FF11F9080D3
:102CE0001082ED90FC90EA0CFB1CE114F10471F0F1
:102CF000F70101900020E9F731975F01AE18BF0896
:102D0000B501CE010E94D815811117C0CE010E94D5
:102D10000016F60180819181080F191FD8019C923D
:102D2000CE01DF91CF911F910F91FF90EF90DF9037
:102D3000CF90BF90AF909F900895BD82AC82B701B5
:102D4000888199810E945521E4CFFC018081918185
:102D5000009711F00C94E61F089585ED8093BC0058
:102D60008091DD019091DE01A091DF01B091E00141
:102D70000796A11DB11D23E0B695A7959795879558
:102D80002A95D1F72091BC0024FD03C010922602A1
:102D900008954091DD015091DE016091DF01709155
:102DA000E001452B462B472B69F30097A105B105A0
:102DB00041F02AE22A95F1F700C00197A109B10973
:102DC000E1CF8091DC010C9436101F920F920FB668
:102DD0000F9211242F933F938F939F93AF93BF93A1
:102DE0008091540290915502A0915602B0915702E1
:102DF00030914F0223E0230F2D3758F50196A11D86
:102E0000B11D20934F028093540290935502A093DA
:102E10005602B09357028091500290915102A091B6
:102E20005202B09153020196A11DB11D8093500230
:102E300090935102A0935202B0935302BF91AF916D
:102E40009F918F913F912F910F900FBE0F901F90E8
:102E5000189526E8230F0296A11DB11DD2CF1F920F
:102E60000F920FB60F9211242F933F934F935F93BE
:102E70006F937F938F939F93AF93BF93EF93FF9342
:102E800082E692E00E94F406FF91EF91BF91AF912C
:102E90009F918F917F916F915F914F913F912F9172
:102EA0000F900FBE0F901F9018951F920F920FB6A4
:102EB0000F9211242F938F939F93EF93FF93E091A1
:102EC0007202F09173028081E0917802F0917902B0
:102ED00082FD1BC0908180917B028F5F8F73209158
:102EE0007C02821741F0E0917B02F0E0EE59FD4F49
:102EF000958F80937B02FF91EF919F918F912F91FE
:102F00000F900FBE0F901F9018958081F4CF1F92E5
:102F10000F920FB60F9211242F933F934F935F930D
:102F20006F937F938F939F93AF93BF93EF93FF9391
:102F30008091B900887F803609F44AC0F0F5883264
:102F400009F4A7C018F5803109F49BC0B8F48823B0
:102F500009F4F9C0883009F494C0FF91EF91BF9152
:102F6000AF919F918F917F916F915F914F913F9121
:102F70002F910F900FBE0F901F901895883109F474
:102F800088C0803251F78093250214C0803409F440
:102F90009DC040F48033B9F38833F9F6809325025D
:102FA00085ECB0C0803509F485C0883509F496C039
:102FB000883499F60E94AD16D0CF883909F48CC0B8
:102FC00038F5883729F050F4883611F0803729F623
:102FD00083E0809326021092240257C0883809F4B7
:102FE0007BC0803919F0803809F0B7CF8091240276
:102FF000803208F071C0E091240281E08E0F80934E
:1030000024028091BB00F0E0EC5FFD4F80833DC067
:10301000803B39F0E0F4803A09F479C0883A09F04D
:103020009CCF84E080932602109203021092020249
:10303000E0915C02F0915D0209958091020281119C
:103040000FC081E0809302021092E20109C0803C2F
:1030500009F4A6CF883C09F4A3CF883B09F07DCFC3
:10306000E091030281E08E0F80930302F0E0EE51C5
:10307000FE4F80818093BB009091030280910202F9
:1030800029C080914B028093BB0085EC8093BC00EB
:1030900064CF90914A0280914902981758F5E091C7
:1030A0004A0281E08E0F80934A02F0E0E75DFD4F17
:1030B0008081E9CFE0914A0281E08E0F80934A023D
:1030C0008091BB00F0E0E75DFD4F808390914A0264
:1030D000809149029817C8F285E8D8CFE0914A025A
:1030E00081E08E0F80934A028091BB00F0E0E75DA3
:1030F000FD4F80838091280281115CCF81E0809315
:10310000270284EA8093BC001092260226CF85EC29
:103110008093BC001092260280912402803230F409
:10312000E0912402F0E0EC5FFD4F108260912402F8
:1031300070E0E0915A02F0915B0284E092E0099520
:10314000109224020ACF1092250234CFE2E6F2E078
:103150001382128248EE53E060E070E044835583AE
:103160006683778382E191E09183808385EC90E0B0
:103170009587848784EC90E09787868780EC90E041
:10318000918B808B81EC90E0938B828B82EC90E032
:10319000958B848B86EC90E0978B868B118E128EAC
:1031A000138E148EABE0B3E013961C921E9212970E
:1031B00014964D935D936D937C93179784E291E001
:1031C00011969C938E93E7E1F3E01382128220E83C
:1031D00030E03583248380E490E0978386833187D1
:1031E000208793878287168A158614861786168607
:1031F00081E0858B848B2FEF3FEF338B228B318BDC
:10320000208B878B108E128E118E82E491E0918339
:103210008083148E138EB68FA58F10A2178E8FEF1A
:1032200084A385A386A387A380A780E89AE1A6E06C
:10323000B0E085AB96ABA7ABB0AF80EA96E8A1E073
:10324000B0E081AF92AFA3AFB4AF80E586AF17AE69
:10325000EFEFF2E01382128286E391E091838083A4
:1032600087E2848380E1818782E0828713860895E4
:10327000CF93DF93CDB7DEB764970FB6F894DEBF78
:103280000FBECDBF789484B5826084BD84B5816063
:1032900084BD85B5826085BD85B5816085BD809121
:1032A0006E00816080936E00109281008091810099
:1032B0008260809381008091810081608093810091
:1032C000809180008160809380008091B100846053
:1032D0008093B1008091B00081608093B0008091B4
:1032E0007A00846080937A0080917A008260809373
:1032F0007A0080917A00816080937A0080917A00D0
:10330000806880937A001092C100E0917202F0917F
:10331000730282E08083E0917202F0917302108266
:10332000E0916E02F0916F021082E0917002F091D4
:10333000710280E1808310927A02E0917602F0912E
:10334000770286E08083E0917402F09175028081BB
:1033500080618083E0917402F091750280818860C1
:103360008083E0917402F09175028081806880838F
:10337000E0917402F091750280818F7D80830E94BC
:103380001F108091360390913703892B09F0DFC01D
:1033900020911D0330911E03C901079697FD0796E2
:1033A000B3E095958795BA95E1F720911B0330918D
:1033B0001C03AC01429FC001439F900D529F900D92
:1033C00011240E944A1F9093370380933603892B60
:1033D00009F0BDC010924D020E941F10109204030C
:1033E00080910903823018F098E090930403809351
:1033F000070362E370E080E090E00E9404066091C1
:103400000A038FEF92E00E94781268EE73E080E08A
:1034100090E00E94040660E38FEF92E00E948F1418
:103420000BE416E4C8010197F1F760E38FEF92E037
:103430000E948F14C8010197F1F760E38FEF92E0CB
:103440000E948F1483E592E00197F1F760E28FEF1D
:1034500092E00E948F1460910403606240E08FEF5D
:1034600092E00E94A81484E08093050340E06CE0A1
:103470008FEF92E00E94A81440E061E08FEF92E0AD
:103480000E94A8140BE31FE1C8010197F1F782E045
:103490008093060340E066E08FEF92E00E94A8145C
:1034A00040E062E08FEF92E00E94A814C80101970B
:1034B000F1F788E080930A0360E08FEF92E00E94CA
:1034C000781281E080934E020E945B152BE3622EFE
:1034D0002FE1722E5524539490E0A92E90E0B92E3E
:1034E00082E692E00E94D406181619060CF06BC210
:1034F000188A1F861A8A198A1C8A1B8A63E871E057
:10350000CE010F960E9412160E94860697FD30C2C9
:103510008A30910509F42CC289831A820B891C898F
:103520000F5F1F4FB801CE010F960E94D815882358
:1035300059F32F8538898B899C89BE016F5F7F4F36
:10354000820F931F0E9455211C8B0B8BDDCF0E9495
:10355000C51420911D0330911E0380911B0390918F
:103560001C03B901213231050CF49FC0605471096C
:1035700077FF02C06F5F7F4F759567958255910900
:1035800097FD019600E410E022E530E04AE657E0BE
:10359000959587950E94CB0E82E0809339038091A8
:1035A000340390913503892B09F492C08CE3809306
:1035B00038030E941F1080913F0387FD1DC00E94A9
:1035C000730561E080913F030E94930561E070E024
:1035D00080E090E00E94040660E080913F030E943A
:1035E00093056AE070E080E090E00E94040661E0EC
:1035F00080913F030E94930580913403909135039D
:10360000892B09F41CC120914C0330914D0340914A
:103610004E0350914F0360E074E284EF90E00E940B
:10362000221F205131094109510956954795379577
:1036300027952093B80064E086E895E00E94C311C6
:1036400060911D03615087E193E00E948D1264E058
:1036500082E895E00E94C3118091390364E18130D2
:1036600009F460E187E193E00E948D1264E08EE747
:1036700095E00E94C3118FE88093540380911B034F
:1036800090911C038038910509F044C180911D037D
:1036900090911E038034910509F04CC1809139034B
:1036A000813009F4E3C08FECE2C06052710977FF0A
:1036B00002C06F5F7F4F759567958357910997FD9E
:1036C000019600E210E023E730E04AE855E060CFE1
:1036D00080913D030E94730580913E030E94730513
:1036E00080913D03082E000C990BFC01E35AF54F25
:1036F000E491F0E0EE0FFF1FE75BF54F2591349169
:103700003093450320934403FC01EF58F54FE491B7
:10371000E0934A0380913E03082E000C990BFC01B4
:10372000E35AF54FE491F0E0EE0FFF1FE75BF54F32
:10373000A591B491B0934703A0934603FC01EF58C1
:10374000F54FE491E0934B038C91E82BEC9380913F
:10375000320390913303892B89F11FB7F89480913C
:103760004C02811124C0E7E6FAE08491EBE7FAE02D
:103770009491E82FF0E0EE0FFF1FED5AF54FA59161
:10378000B491EC91E92321F461E08AE00E94930571
:103790008AE00E9473058CB580618CBD8CB5806415
:1037A0008CBD8DE00E9473058BE00E9473058091B3
:1037B0004C028F5F80934C021FBFFDCE80913B0374
:1037C0000E94730580913C030E94730580913B0326
:1037D000082E000C990BFC01E35AF54FE491F0E040
:1037E000EE0FFF1FE75BF54F2591349130934103B6
:1037F00020934003FC01EF58F54FE491E093480318
:1038000080913C03082E000C990BFC01E35AF54F04
:10381000E491F0E0EE0FFF1FE75BF54FA591B49147
:10382000B0934303A0934203FC01EF58F54FE4919A
:10383000E09349038C91E095E823EC93BCCE809112
:10384000320390913303892B31F08091550390918D
:1038500056030E94E109E0914603F09147039081ED
:1038600080914B03809589238083E5CE8FE98093F7
:10387000540312E16AED87E193E00E948D12612FFB
:1038800087E193E00E948D1261E887E193E00E9456
:103890008D126091540387E193E00E948D1269EDCF
:1038A00087E193E00E948D128091390361EF8130AE
:1038B00009F462E287E193E00E948D1266E088E7F6
:1038C00095E00E94C3118091340390913503892BB8
:1038D00009F444C0209150033091510340915203A8
:1038E0005091530360E074E284EF90E00E94221F45
:1038F000205131094109510956954795379527952A
:103900002093B80081E080934D020E94C5140E946C
:10391000EF1262CD8036910589F480911D0390915C
:103920001E03409739F480913903813029F08FEAE2
:103930008093540312E09ECF80E1FACF803491054A
:10394000C9F780911D0390911E03809799F780918C
:103950003903813009F0A7CE80E189CFE091460399
:10396000F0914703808190914B03892B8083CACFCC
:10397000CF84D888C114D10431F00B891C89760119
:103980000115110569F56AE671E0CE010F960E94F6
:10399000C315811109C06FE671E0CE010F960E9438
:1039A000C315882309F452C0598241E050E0BE019A
:1039B0006F5F7F4F8FE70E94E5140E945B15CE0179
:1039C0000F960E94A516A114B10409F489CD0E9496
:1039D000E006882309F484CD0E9400007DCD7401A7
:1039E00047015FEF851A950AF7018081082E000CC8
:1039F000990B0E94DF1E892B91F7015011090C0DC4
:103A00001D1DF8018081082E000C990B0E94DF1EFD
:103A1000892B31F00E151F0518F001501109F1CF57
:103A20000F5F1F4FA8014E195F095C8B4B8BCE14A3
:103A3000DF0420F4B701C6010E943121EF85F88927
:103A40008B899C89E80FF91F10829DCF1A821982F9
:103A50001C821B821E821D826AE771E0CE010196E4
:103A60000E941216BE016F5F7F4FCE010F960E941B
:103A7000A815182FCE0101960E94A5161123B9F0A2
:103A80000AE21AE0F8016491662341F082E692E0CE
:103A90000E9416070F5F1F4F892BA1F742E050E0ED
:103AA00061E871E082E692E00E94360688CF69E81C
:103AB00071E0CE010F960E94C315882379F08091A2
:103AC0004E02882309F47BCF40E061E08FEF92E063
:103AD0000E94A814C3010197F1F771CF1A821982CD
:103AE0001C821B821E821D8264E971E0CE01019658
:103AF0000E941216BE016F5F7F4FCE010F960E948B
:103B0000A815182FCE0101960E94A516112309F4BD
:103B1000A2C0EB88FC88F7E0EF16F10408F498C027
:103B20000F85188960E270E0C80106960E94412165
:103B3000009709F48DC09C01201B310B890168019D
:103B40003FEFC31AD30ACE14DF0408F038CF8F84B6
:103B5000988860E270E0C4018C0D9D1D0E94412197
:103B6000009709F42CCF101611060CF028CF7C0119
:103B7000E818F9081E141F040CF021CF980146E044
:103B800050E0BE01615F7F4FCE0101960E943D165D
:103B900089819A8110E0009719F00E94A31E162FC8
:103BA000CE0101960E94A5169701A601BE01615F94
:103BB0007F4FCE0101960E943D1689819A8100E0D7
:103BC000009719F00E94A31E062FCE0101960E94B5
:103BD000A5162B893C89A7014F5F5F4FBE01615F2E
:103BE0007F4FCE0109960E943D1680914E02882398
:103BF00051F1612F88E0E6E0F1E0DE0111960190DD
:103C00000D928A95E1F780910703811710F46FEF09
:103C1000680FE62FF0E0EE0FFF1F41E050E04C0F81
:103C20005D1FE40FF51F6081600F606840E08FEF5B
:103C300092E00E94A8144D855E8569857A858FEF94
:103C400092E00E943606CE0109960E94A516B7CED4
:103C50000FEF1FEF74CF64E871E0CE010F960E9462
:103C6000C315882351F080914D02882309F4A7CE13
:103C70000E94C5140E94EF12A2CE1A8219821C82E1
:103C80001B821E821D826FE871E0CE0101960E94A8
:103C90001216BE016F5F7F4FCE010F960E94A815CE
:103CA000182FCE0101960E94A516112309F487CE84
:103CB0002B893C894BE050E0BE01615F7F4FCE0114
:103CC00001960E943D1680914D02882351F10E9479
:103CD000C51450922B0350922C0381E090E09093F6
:103CE0002A0380932903909328038093270310923B
:103CF00024031092230310922603109225034D8172
:103D00005E8169817A8187E193E00E94360642E014
:103D100050E061E871E087E193E00E9436060E947E
:103D2000EF12CE01019691CF82E491E090931803B7
:103D3000809317038091360390913703009711F019
:103D40000C94E61F08951F93FC0199278827BC0156
:103D5000E89411911032E9F3193010F01E30C8F3D5
:103D60001B3251F01D3249F4689406C00E94CA1EED
:103D7000610F711D811D911D119110531A30B0F307
:103D80003EF490958095709561957F4F8F4F9F4F32
:103D90001F910895592F482F372F262F660F771F11
:103DA000881F991F660F771F881F991F620F731F47
:103DB000841F951F660F771F881F991F0895911103
:103DC0000C94E81E803219F089508550C8F7089588
:103DD0009927882708952F923F924F925F926F9272
:103DE0007F928F929F92AF92BF92CF92DF92EF928B
:103DF000FF920F931F93CF93DF93CDB7DEB7CA1B0C
:103E0000DB0B0FB6F894DEBF0FBECDBF09942A8836
:103E1000398848885F846E847D848C849B84AA84DE
:103E2000B984C884DF80EE80FD800C811B81AA816B
:103E3000B981CE0FD11D0FB6F894DEBF0FBECDBF36
:103E4000ED010895A1E21A2EAA1BBB1BFD010DC0B6
:103E5000AA1FBB1FEE1FFF1FA217B307E407F5073A
:103E600020F0A21BB30BE40BF50B661F771F881F16
:103E7000991F1A9469F760957095809590959B01AC
:103E8000AC01BD01CF010895EE0FFF1F0590F49125
:103E9000E02D09940F931F93CF93DF938230910508
:103EA00010F482E090E0E0915903F0915A0330E081
:103EB00020E0B0E0A0E0309799F42115310509F435
:103EC0004AC0281B390B24303105D8F58A819B81E3
:103ED0006115710589F1FB0193838283FE0111C095
:103EE000408151810281138148175907E0F048173A
:103EF000590799F4109761F012960C931297139644
:103F00001C933296CF01DF91CF911F910F910895AD
:103F10000093590310935A03F4CF2115310551F042
:103F20004217530738F0A901DB019A01BD01DF01F7
:103F3000F801C1CFEF01F9CF90935A038093590351
:103F4000CDCFFE01E20FF31F8193919322503109EF
:103F500039832883D7CF2091570330915803232BDF
:103F600041F42091020130910301309358032093D2
:103F7000570320910001309101012115310541F4D1
:103F80002DB73EB74091040150910501241B350B1C
:103F9000E0915703F0915803E217F307A0F42E1BAA
:103FA0003F0B2817390778F0AC014E5F5F4F24179D
:103FB000350748F04E0F5F1F509358034093570347
:103FC000819391939FCFF0E0E0E09CCFCF93DF937C
:103FD0000097E9F0FC01329713821282A0915903F5
:103FE000B0915A03ED0130E020E01097A1F4208158
:103FF0003181820F931F2091570330915803281766
:10400000390709F061C0F0935803E0935703DF913B
:10401000CF910895EA01CE17DF07E8F54A815B8169
:104020009E0141155105B1F7E901FB83EA834991EE
:104030005991C40FD51FEC17FD0761F48081918160
:104040000296840F951FE901998388838281938169
:104050009B838A83F0E0E0E012968D919C91139708
:104060000097B9F52D913C911197CD010296820FE1
:10407000931F20915703309158032817390739F6B9
:10408000309751F510925A0310925903B093580388
:10409000A0935703BCCFD383C28340815181840F47
:1040A000951FC817D90761F44E5F5F4F88819981CA
:1040B000480F591F518340838A819B819383828358
:1040C0002115310509F0B0CFF0935A03E09359035D
:1040D0009ECFFD01DC01C0CF13821282D7CFB0E0AA
:1040E000A0E0E5E7F0E20C94ED1E8C01009751F49E
:1040F000CB010E944A1F8C01C801CDB7DEB7E0E1B9
:104100000C94091FFC01E60FF71F9C012250310996
:10411000E217F30708F49DC0D901CD91DC91119706
:10412000C617D70798F0C530D10530F3CE010497F4
:104130008617970708F3C61BD70B2297C193D19315
:104140006D937C93CF010E94E61FD6CF5B01AC1A22
:10415000BD0A4C018C0E9D1EA0915903B0915A03CB
:10416000512C412CF12CE12C109731F58091570303
:10417000909158038815990509F05CC046165706BA
:1041800008F058C08091000190910101009741F41E
:104190008DB79EB74091040150910501841B950B8A
:1041A000E817F90708F055C0F0935803E093570358
:1041B000F90171836083A0CF8D919C911197129624
:1041C0006C90129713967C901397A815B90559F522
:1041D0006C0142E0C40ED11CCA14DB0420F1AC0116
:1041E0004A195B09DA011296159780F06282738290
:1041F00051834083D9016D937C93E114F10471F0F4
:10420000D7011396FC93EE93129776CF22968C0FDC
:104210009D1FF90191838083F301EFCFF0935A033F
:10422000E093590369CF4816590608F42C017D0123
:10423000D3019ACFCB010E944A1F7C01009749F01D
:10424000AE01B8010E943121C8010E94E61F87011A
:1042500053CF10E000E050CF81E090E0F8940C9450
:104260006A21FB01DC0102C001900D9241505040D7
:10427000D8F70895DC0101C06D9341505040E0F73C
:104280000895FC018191861721F08823D9F7992799
:1042900008953197CF010895FB01DC018D910190C4
:1042A00080190110D9F3990B0895FB01DC010190ED
:1042B0000D920020E1F70895FB01DC0141505040D0
:1042C00030F08D910190801919F40020B9F7881B06
:1042D000990B089515E0C6E4D5E004C0FE010E94E4
:0E42E000441F2196C734D107C9F7F894FFCFC9
:1042EE0000005B038000000040001400540000003A
:1042FE0000001607360663066307D4067206C60666
:10430E0000000000AD1080108C149205791066101C
:10431E00571000000000BF1436068C14D90F000091
:10432E0000001F0C36068C14D90F2A099205C40EF4
:10433E009C0EB80EAC0E2C0F9205E50936149A0899
:10434E00E308E50DC80D500DF10C50494E470047DE
:10435E004554205354415455530050524F544F20FE
:10436E00000D0A004F4C454420434C454152004F2E
:0C437E004C4544205052494E5420000091
:00000001FF
