:100000000C9469000C9491000C9491000C949D0444
:100010000C949D040C949D040C9491000C949100FC
:100020000C9491000C9491000C9491000C9491000C
:100030000C9491000C9491000C9491000C949100FC
:100040000C94FB030C9491000C946B040C944504E9
:100050000C9491000C9491000C9491000C949100DC
:100060000C9491000C94910050524F544F204F4BE0
:100070002032000000000800020100000304070015
:1000800000000000000000000000002300260029FE
:100090000000000000240027002A000000000025C6
:1000A0000028002B000404040404040404020202D7
:1000B00002020203030303030301020408102040A9
:1000C00080010204081020010204081020006105CC
:1000D000030911241FBECFEFD8E0DEBFCDBF22E061
:1000E000AAE5B1E001C01D92A836B207E1F711E020
:1000F000A0E0B1E0ECEFF6E102C005900D92AA3568
:10010000B107D9F710E0C8E6D0E004C02197FE019E
:100110000E946209C736D107C9F70E944A060C94AB
:10012000710B0C940000CF93DF93EC012FB7F89480
:100130008091A4019091A501A091A601B091A70181
:100140002FBF88879987AA87BB87E881F9810284B6
:10015000F385E02DCE01099597FF1EC02FB7F894C7
:100160008091A4019091A501A091A601B091A70151
:100170002FBF488559856A857B85841B950BA60B07
:10018000B70B4C815D816E817F8184179507A6072F
:10019000B707D8F28FEF9FEFDF91CF910895AF921D
:1001A000BF92CF92DF92EF92FF920F931F93CF9364
:1001B000DF936C017B018B01040F151FEB015E01C6
:1001C000AE18BF08C017D10759F06991D601ED915B
:1001D000FC910190F081E02DC6010995892B79F7FA
:1001E000C501DF91CF911F910F91FF90EF90DF90AC
:1001F000CF90BF90AF900895CF93DF93FC014481DF
:1002000055816081718185E492E00E94CF00EC010C
:1002100042E050E06AE271E085E492E00E94CF00A3
:100220008C0F9D1FDF91CF910895FC01538D448D5C
:10023000252F30E0842F90E0821B930B541710F091
:10024000CF96089501970895FC01918D828D98179E
:1002500061F0A28DAE0FBF2FB11D5D968C91928D76
:100260009F5F9F73928F90E008958FEF9FEF0895A7
:10027000FC01918D828D981731F0828DE80FF11D70
:10028000858D90E008958FEF9FEF0895FC01918D8B
:10029000228D892F90E0805C9F4F821B91098F7384
:1002A0009927089588EA91E00E94460121E0892B70
:1002B00009F420E0822F089580E090E0892B29F056
:1002C0000E94520181110C9400000895FC01A48D3C
:1002D000A80FB92FB11DA35ABF4F2C91848D90E068
:1002E00001968F739927848FA689B7892C93A0894B
:1002F000B1898C91837080648C93938D848D9813D5
:1003000006C00288F389E02D80818F7D8083089567
:10031000EF92FF920F931F93CF93DF93EC0181E055
:10032000888F9B8D8C8D98131AC0E889F9898081FC
:1003300085FF15C09FB7F894EE89FF896083E8892F
:10034000F98980818370806480839FBF81E090E021
:10035000DF91CF911F910F91FF90EF900895F62EAE
:100360000B8D10E00F5F1F4F0F731127E02E8C8D48
:100370008E110CC00FB607FCFACFE889F98980818D
:1003800085FFF5CFCE010E946601F1CFEB8DEC0F1A
:10039000FD2FF11DE35AFF4FF0829FB7F8940B8FAA
:1003A000EA89FB8980818062CFCFCF93DF93EC0114
:1003B000888D8823B9F0AA89BB89E889F9898C914D
:1003C00085FD03C0808186FD0DC00FB607FCF7CF09
:1003D0008C9185FFF2CF808185FFEDCFCE010E9409
:1003E0006601E9CFDF91CF91089520919C01309172
:1003F0009D012817390771F490919A0180919B0112
:10040000981741F0E0919A01F0E0E65AFE4F8081A2
:1004100090E008958FEF9FEF08950895EF92FF9277
:100420000F931F93CF93DF93DC015C96ED90FC90CC
:100430005D97E114F10479F481E090E013969C93C8
:100440008E93129790E080E0DF91CF911F910F91F2
:10045000FF90EF9008955196ED91FC915297509630
:100460008C915097982F90950FB75E962C915E9730
:10047000122F127021FD6095F8942081112319F13B
:10048000282B2083E7012197F1F728E0462F50E041
:10049000308160FF1AC0382B3083E7012197F1F7D4
:1004A000BA0175956795215089F7112381F08081F4
:1004B000892380830FBF5C968D919C910197F1F702
:1004C00081E090E0C1CF2923DCCF3923E5CF9081B3
:1004D000892BEFCF20919C0130919D01281739077E
:1004E00061F480919B0120919A0190E0805C9F4F84
:1004F000821B91098F739927089590E080E00895F9
:1005000020919C0130919D0128173907B9F49091F1
:100510009A0180919B01981789F0E0919A01F0E08F
:10052000E65AFE4F808120919A0130E02F5F3F4FC5
:100530002F73332720939A0190E008958FEF9FEF58
:10054000089590E080E00895FB01DC018D919C917D
:10055000009761F0608171816115710539F0448106
:1005600055810E94630B21E0892B09F020E0822F46
:100570000895FC0180819181009711F00C94040A88
:100580000895EF92FF920F931F93CF93DF93CDB710
:10059000DEB7C856D1090FB6F894DEBF0FBECDBF87
:1005A0007B018A019AEAA6969FAFA697A7968FAF7E
:1005B000A797A8964FAFA897A9961FAFA99744E011
:1005C00050E0BE016B597F4F88EA91E00E94CF0056
:1005D0000115110531F0A801B70188EA91E00E94E8
:1005E000CF00A9968CAD9DADAEADBFADA997898367
:1005F0009A83AB83BC83C80101978C359105A8F51C
:10060000A801B701CE0105960E944A0B0C5F1F4F4F
:10061000AE014F5F5F4FFA0160E07CE8819168278F
:1006200028E030E0862F90E09595879560FF20C008
:10063000682F672721503109A9F7CF01841B950B3B
:10064000801791075CF388EA91E00E948801C859FD
:10065000DF4F0FB6F894DEBF0FBECDBFDF91CF9155
:100660001F910F91FF90EF90089504E010E0D0CF1C
:10067000682FE0CFAF92BF92CF92DF92EF92FF92BE
:100680000F931F93CF93DF93DC01CD90DC901197F4
:10069000C114D10439F01496CD91DC918C0176010E
:1006A000209761F4DF91CF911F910F91FF90EF9010
:1006B000DF90CF90BF90AF90089575015701BFEFC5
:1006C000AB1ABB0AF7018081082E000C990B0E941F
:1006D0001F09892B91F72197CC0DDD1D8881082EEC
:1006E000000C990B0E941F09892B29F0CE15DF05FC
:1006F00010F02197F3CFAE014F5F5F4F4E195F09A6
:10070000D80115965C934E931497CE14DF0420F411
:10071000B701C6010E944A0BD801ED91FC911197D7
:1007200014968D919C91E80FF91F1082BBCF0F9307
:100730001F93CF93DF93EC0188819981009759F043
:100740002A813B812617370730F081E0DF91CF9176
:100750001F910F9108958B016F5F7F4F0E948D0A4B
:10076000009759F0998388831B830A832C813D81EC
:10077000232B59F7FC011082E8CF80E0E7CFEF92FE
:10078000FF920F931F93CF93DF93EC017B018A01BC
:10079000BA010E94970328813981811114C0211563
:1007A000310519F0C9010E94040A198218821D82BC
:1007B0001C821B821A82CE01DF91CF911F910F9173
:1007C000FF90EF9008951D830C83B701C9010E942B
:1007D0005C0BF1CFFC011182108213821282158210
:1007E0001482FB0101900020E9F73197AF01461B0D
:1007F000570B0C94BF031F920F920FB60F92112448
:100800002F933F938F939F93AF93BF938091A401B6
:100810009091A501A091A601B091A7013091A301EB
:1008200023E0230F2D3758F50196A11DB11D20930C
:10083000A3018093A4019093A501A093A601B09376
:10084000A70180919F019091A001A091A101B09179
:10085000A2010196A11DB11D80939F019093A0015B
:10086000A093A101B093A201BF91AF919F918F91ED
:100870003F912F910F900FBE0F901F90189526E873
:10088000230F0296A11DB11DD2CF1F920F920FB65A
:100890000F9211242F933F934F935F936F937F9306
:1008A0008F939F93AF93BF93EF93FF9388EA91E069
:1008B0000E946601FF91EF91BF91AF919F918F913F
:1008C0007F916F915F914F913F912F910F900FBE4C
:1008D0000F901F9018951F920F920FB60F92112430
:1008E0002F938F939F93EF93FF93E091B801F09133
:1008F000B9018081E091BE01F091BF0182FD1BC072
:1009000090818091C1018F5F8F732091C201821706
:1009100041F0E091C101F0E0E855FE4F958F8093E2
:10092000C101FF91EF919F918F912F910F900FBE79
:100930000F901F9018958081F4CF1F920F920FB6E1
:100940000F9211242F933F934F935F936F937F9355
:100950008F939F93AF93BF93EF93FF93E0919C018D
:10096000F0919D01309749F0A685B7858585968DD4
:1009700091FF14C09C918923A1F4FF91EF91BF9145
:10098000AF919F918F917F916F915F914F913F9127
:100990002F910F900FBE0F901F9018959C91892357
:1009A00061F7A389B4899C918589809589238C936B
:1009B000868997890197F1F7608D718DA685B78536
:1009C000558538E020E0CB010197F1F7822F90E0C8
:1009D00095958795282F4C91452309F02068315033
:1009E00091F7868D81FD209580919B0190E0019685
:1009F0008F73992730919A01381799F0A0919B0134
:100A0000B0E0A65ABE4F2C9380939B01828D938DAC
:100A10000197F1F7A389B4898C919589892B8C93DF
:100A2000ACCF868D8160868FF1CF90E0FC01ED58D0
:100A3000FF4F2491FC01E754FF4F3491FC01EB552B
:100A4000FF4FE491EE23C9F0222339F0233001F166
:100A5000A8F4213019F1223029F1F0E0EE0FFF1F48
:100A6000E556FF4FA591B4918FB7F894EC916111C1
:100A700026C030953E233C938FBF08952730A9F0C0
:100A80002830C9F0243049F7809180008F7D03C061
:100A9000809180008F7780938000DFCF84B58F773F
:100AA00084BDDBCF84B58F7DFBCF8091B0008F7785
:100AB0008093B000D2CF8091B0008F7DF9CF3E2BD4
:100AC000DACF0F931F93CF93DF931092AB01109265
:100AD000AA0188EE93E0A0E0B0E08093AC0190938F
:100AE000AD01A093AE01B093AF012AE031E03093A5
:100AF000A9012093A80125EC30E03093B5012093A3
:100B0000B40124EC30E03093B7012093B60120EC1F
:100B100030E03093B9012093B80121EC30E03093FC
:100B2000BB012093BA0122EC30E03093BD01209349
:100B3000BC0126EC30E03093BF012093BE0110923F
:100B4000C1011092C2011092C3011092C40110920F
:100B50004802109247028093490290934A02A09360
:100B60004B02B0934C028CE191E09093460280934B
:100B7000450210925C0210925B0210925E0210928B
:100B80005D021092600210925F0210926202109257
:100B90006102609163026E7F6D7F60936302669570
:100BA000617081E068278BE00E94150544EC50E0FD
:100BB000FA01649180EB90E0FC012491222399F0EA
:100BC00030E0220F331FF901EF56FF4FA591B4918A
:100BD000F901E556FF4F259134912FB7F8943C91D8
:100BE000632B6C932FBFFA01449140935502FC0193
:100BF0008491E82FF0E0EE0FFF1FE556FF4F85913F
:100C00009491909357028093560203EC10E0F80100
:100C10002491CFEAD0E0FE0184918823C9F090E0CE
:100C2000880F991FFC01EF56FF4FA591B491FC016D
:100C3000E556FF4F459154913FB7F8949C91822F10
:100C4000809598239C93FA019081892380833FBFEC
:100C50008091630281FD04C061E08AE00E94150575
:100C60008AE080935102F801049100935202FE0140
:100C7000C491EC2FF0E0EE0FFF1FE957FF4F859175
:100C800094919093540280935302DF91CF911F91DE
:100C90000F910895CF93DF93CDB7DEB72C970FB6A2
:100CA000F894DEBF0FBECDBF789484B5826084BD5A
:100CB00084B5816084BD85B5826085BD85B5816060
:100CC00085BD80916E00816080936E0010928100DE
:100CD0008091810082608093810080918100816099
:100CE000809381008091800081608093800080915A
:100CF000B10084608093B1008091B00081608093E6
:100D0000B00080917A00846080937A0080917A00AC
:100D1000826080937A0080917A00816080937A006B
:100D200080917A00806880937A001092C100E091EF
:100D3000B801F091B90182E08083E091B801F091AF
:100D4000B9011082E091B401F091B5011082E091F7
:100D5000B601F091B70180E180831092C001E0916B
:100D6000BC01F091BD0186E08083E091BA01F09171
:100D7000BB01808180618083E091BA01F091BB0169
:100D8000808188608083E091BA01F091BB0180810D
:100D900080688083E091BA01F091BB0180818F7DF2
:100DA00080831092600210925F0210925E02109295
:100DB0005D0210925C0210925B028DE991E09093CB
:100DC00062028093610290915102963108F047C00F
:100DD0002DEB30E030935C0220935B022BE931E095
:100DE00030935E0220935D022CE231E0309360028A
:100DF00020935F022091680084E0983048F031E051
:100E00009E3008F430E081E001C0880F3A95EAF79F
:100E1000822B809368002DE630E0983050F02BE66E
:100E200030E09E3030F02CE630E0963110F030E0CB
:100E300020E03093590220935802292F30E0983057
:100E400008F074C081E001C0880F9A95EAF780939A
:100E50005A0280916102909162020197F1F78091AC
:100E60005F0290916002892B49F1E0919C01F09121
:100E70009D0182E0E534F80709F1309739F0A38944
:100E8000B4899C918589809589238C938091630294
:100E90008E7F8093630210929B0110929A0185E4E9
:100EA00092E090939D0180939C01E0915802F09113
:100EB0005902808190915A02892B808320E0E22E92
:100EC00020E0F22EBB24B39485E492E00E946A02F3
:100ED000181619060CF049C06CE271E0CE010196BB
:100EE0000E94EA0385E492E00E94930097FD2BC0E4
:100EF0008A30910541F18F8318860D811E810F5F25
:100F00001F4FB801CE0101960E949703882351F329
:100F100029813A818D819E81BE01695F7F4F820F59
:100F2000931F0E945C0B1E830D83DCCF9E3040F428
:100F30002850310981E001C0880F2A95EAF787CF50
:100F40002E503109F7CFCE0101960E943A034D8110
:100F50005E814115510529F069817A8180E60E9400
:100F6000C102CE0101960E94B90288EA91E00E9476
:100F70004601181619060CF047C06CE271E0CE016C
:100F800007960E94EA0388EA91E00E94930097FD89
:100F90001EC08A309105D9F089831A820B851C8581
:100FA0000F5F1F4FB801CE0107960E949703882359
:100FB00051F32F8138858B859C85BE016F5F7F4FF4
:100FC000820F931F0E945C0B1C870B87DCCFCE0126
:100FD00007960E943A038B859C85892B09F16DE267
:100FE00071E08F8198850E94530B892BC9F4B982D7
:100FF00041E050E0BE016F5F7F4F8FE70E94C1026A
:10100000CE0107960E94B902E114F10409F45CCF05
:101010000E945201882309F457CF0E94000054CF48
:1010200062E371E0CE0101960E94EA032B853C85C4
:101030008D819E8110E02817390740F0BE016F5F57
:101040007F4FCE0107960E94A402182FCE01019671
:101050000E94B9021123B9F008E610E0F80164918A
:10106000662341F088EA91E00E9488010F5F1F4FDC
:10107000892BA1F742E050E06AE271E088EA91E052
:101080000E94CF00BDCF8B859C85892BB1F0CF808E
:10109000D88469E371E0C6010E94530B892B19F4CF
:1010A000B0929E01ADCF63E471E0C6010E94530B84
:1010B000892B19F410929E01A3CF6EE471E0CE014A
:1010C00001960E94EA032B853C858D819E8128171D
:1010D000390740F0BE016F5F7F4FCE0107960E9437
:1010E000A402182FCE0101960E94B902112309F41F
:1010F00064C0CB84DC8487E0882E912CF7E0CF1687
:10110000D10420F0460197E0C92ED12C6CE271E0A9
:10111000CE0101960E94EA030B851C85C016D106FC
:1011200018F58016910608F48401EF81F885E00F28
:10113000F11FA08010826F8178856C0D7D1D611577
:10114000710571F1FB0101900020E9F73197AF01C2
:10115000461B570BCE0101960E94BF038F819885D5
:10116000080F191FF801A0824D815E8169817A8183
:1011700085E492E00E94CF006FEF85E492E00E9448
:101180000E026FEF85E492E00E940E026FEF85E49D
:1011900092E00E940E02CE0101960E94B90230CF69
:1011A00089819A81009711F00E94040A1A8219829B
:1011B0001E821D821C821B82D1CF66E571E0CE01AA
:1011C00001960E94EA032B853C858D819E8128171C
:1011D000390740F0BE016F5F7F4FCE0107960E9436
:1011E000A402182FCE0101960E94B902112329F002
:1011F000CE0107960E94FC0003CF80919E018823B8
:1012000009F4FECEF5CF8CE191E0909346028093F5
:10121000450280919C0190919D018554924071F40A
:10122000E0915802F0915902908180915A02809584
:101230008923808310929D0110929C010895911141
:101240000C942809803219F089508550C8F7089508
:101250009927882708952F923F924F925F926F921D
:101260007F928F929F92AF92BF92CF92DF92EF9236
:10127000FF920F931F93CF93DF93CDB7DEB7CA1BB7
:10128000DB0B0FB6F894DEBF0FBECDBF09942A88E2
:10129000398848885F846E847D848C849B84AA848A
:1012A000B984C884DF80EE80FD800C811B81AA8117
:1012B000B981CE0FD11D0FB6F894DEBF0FBECDBFE2
:1012C000ED010895EE0FFF1F0590F491E02D0994B4
:1012D0000F931F93CF93DF938230910510F482E038
:1012E00090E0E0916602F091670230E020E0B0E02B
:1012F000A0E0309799F42115310509F44AC0281B64
:10130000390B24303105D8F58A819B81611571052F
:1013100089F1FB0193838283FE0111C040815181D9
:101320000281138148175907E0F04817590799F4CB
:10133000109761F012960C93129713961C933296A5
:10134000CF01DF91CF911F910F9108950093660215
:1013500010936702F4CF2115310551F0421753075E
:1013600038F0A901DB019A01BD01DF01F801C1CF0D
:10137000EF01F9CF9093670280936602CDCFFE0113
:10138000E20FF31F8193919322503109398328830F
:10139000D7CF2091640230916502232B41F4209134
:1013A0000201309103013093650220936402209181
:1013B0000001309101012115310541F42DB73EB7EF
:1013C0004091040150910501241B350BE09164020A
:1013D000F0916502E217F307A0F42E1B3F0B2817CC
:1013E000390778F0AC014E5F5F4F2417350748F09E
:1013F0004E0F5F1F50936502409364028193919357
:101400009FCFF0E0E0E09CCFCF93DF930097E9F02F
:10141000FC01329713821282A0916602B09167029A
:10142000ED0130E020E01097A1F420813181820F9E
:10143000931F20916402309165022817390709F043
:1014400061C0F0936502E0936402DF91CF9108954B
:10145000EA01CE17DF07E8F54A815B819E0141155D
:101460005105B1F7E901FB83EA8349915991C40F12
:10147000D51FEC17FD0761F4808191810296840FDE
:10148000951FE90199838883828193819B838A8355
:10149000F0E0E0E012968D919C9113970097B9F5DA
:1014A0002D913C911197CD010296820F931F2091AF
:1014B0006402309165022817390739F6309751F5E3
:1014C0001092670210926602B0936502A0936402C4
:1014D000BCCFD383C28340815181840F951FC8172D
:1014E000D90761F44E5F5F4F88819981480F591F7A
:1014F000518340838A819B819383828321153105A7
:1015000009F0B0CFF0936702E09366029ECFFD0131
:10151000DC01C0CF13821282D7CFB0E0A0E0E3E9B4
:10152000FAE00C942D098C01009751F4CB010E9434
:1015300068098C01C801CDB7DEB7E0E10C94490918
:10154000FC01E60FF71F9C0122503109E217F30757
:1015500008F49DC0D901CD91DC911197C617D7072A
:1015600098F0C530D10530F3CE0104978617970760
:1015700008F3C61BD70B2297C193D1936D937C932D
:10158000CF010E94040AD6CF5B01AC1ABD0A4C0100
:101590008C0E9D1EA0916602B0916702512C412CC9
:1015A000F12CE12C109731F5809164029091650245
:1015B0008815990509F05CC04616570608F058C012
:1015C0008091000190910101009741F48DB79EB781
:1015D0004091040150910501841B950BE817F90710
:1015E00008F055C0F0936502E0936402F90171833D
:1015F0006083A0CF8D919C91119712966C90129759
:1016000013967C901397A815B90559F56C0142E023
:10161000C40ED11CCA14DB0420F1AC014A195B09C9
:10162000DA011296159780F06282738251834083AB
:10163000D9016D937C93E114F10471F0D7011396F5
:10164000FC93EE93129776CF22968C0F9D1FF90193
:1016500091838083F301EFCFF0936702E0936602FA
:1016600069CF4816590608F42C017D01D3019ACFA1
:10167000CB010E9468097C01009749F0AE01B801D6
:101680000E944A0BC8010E94040A870153CF10E050
:1016900000E050CFFB01DC0102C001900D924150EF
:1016A0005040D8F70895FB01DC018D91019080191D
:1016B0000110D9F3990B0895FB01DC0101900D9203
:1016C0000020E1F70895FB01DC014150504030F06B
:1016D0008D910190801919F40020B9F7881B990B9E
:1016E000089510E0C8E6D0E004C0FE010E9462093F
:0C16F0002196C936D107C9F7F894FFCF46
:1016FC00000068028000000000008801CF00150186
:10170C00D501460124013801000000000E02CF0073
:10171C00A1020D026A028002F5010D0A0050494E29
:10172C00470050524F544F200042524944474520E5
:10173C004F4E00425249444745204F464600484DC3
:0A174C0049205458200041540000C9
:00000001FF
