:100000000C9447010C9478010C9478010C947801BD
:100010000C9478010C9478010C9478010C9478017C
:100020000C9478010C9478010C9478010C9478016C
:100030000C9478010C9478010C9478010C9478015C
:100040000C9478010C9478010C9478010C9478014C
:100050000C9478010C9478010C9478010C94290A82
:100060000C9478010C949D0A0C94730A0C947801FA
:100070000C9478010C9478010C9478010C9478011C
:100080000C9478010C9478010C9478010C9478010C
:100090000C9478010C9478010C9478010C947801FC
:1000A0000C9478010C9478010C9478010C947801EC
:1000B0000C9478010C9478010C9478010C947801DC
:1000C0000C9478010C9478010C9478010C947801CC
:1000D0000C9478010C9478010C9478010C947801BC
:1000E0000C9478010C94C1010C94B7010C94260473
:1000F0000C94D9010C94FC020C94C5010C94D3010E
:100100000C94C0020C94D5030C94B3010C94D80148
:100110000C94AD010C94AA010C94D30A0C94CB015D
:100120000C94CF010C9498010C949E010C945003F4
:100130000C94A2010C9486060C94BD010C94A601AB
:100140000C94ED020C94DD010C9442030C94880392
:100150000C9423060A0B0C0D0E0F00002000230048
:10016000260029002C002F003200000100000301AE
:100170000601090150524F544F204F4B20320000CE
:10018000002100240027002A002D00300033000148
:10019000010000040107010A0100002200250028D7
:1001A000002B002E00310034000201000005010880
:1001B000010B0105050505070508080808020202EC
:1001C000020A0A08080404040401010101010101F2
:1001D000010303030303030303040707070C0C0CC9
:1001E0000C0C0C0C0C0202020206060606060606A1
:1001F000060B0B0B0B0B0B0B0B010210202008083E
:100200001020401020408002010201080402010178
:100210000204081020408080402010080402018061
:1002200004020180402010080402010804020101B8
:1002300002040810204080010204081020408000C1
:10024000000A0B02090C0D0E080703040100000050
:10025000000000000000000000000000000000009E
:10026000000000000000000000000012111000005B
:10027000000000000000000000000000000000007E
:10028000000000000000010203040500D30A11244D
:100290001FBECFEFD1E2DEBFCDBF00E00CBF23E039
:1002A000A2E4B2E001C01D92A732B207E1F712E06A
:1002B000A0E0B2E0E8EBFAE200E00BBF02C007907A
:1002C0000D92A234B107D9F711E0C7E4D1E000E004
:1002D00006C021970109802FFE010E94F912C63441
:1002E000D10780E00807A9F70E942D0B0C945A153E
:1002F0000C9400008150823108F05AC0E82FF0E0E1
:100300008827EA57FE4F8F4F0C94F912A601AA01D5
:1003100098019E01A201D801AD01B301B701BD0151
:10032000C101C501CB01CF01D801D301D901DD0144
:10033000809180008F778093800008958091800065
:100340008F7DF9CF80918000877FF5CF84B58F773F
:1003500084BD089584B58F7DFBCF8091B0008F77E9
:100360008093B00008958091B0008F7DF9CF809187
:1003700090008F77809390000895809190008F7DFA
:10038000F9CF80919000877FF5CF8091A0008F7783
:100390008093A00008958091A0008F7DF9CF809177
:1003A000A000877FF5CF809120018F778093200177
:1003B0000895809120018F7DF9CF80912001877F62
:1003C000F5CF1F93CF93DF93282F30E0F901E15C45
:1003D000FD4F8491F901E750FE4FD491F901ED549E
:1003E000FE4FC491CC23A9F0162F81110E947A01EF
:1003F000EC2FF0E0EE0FFF1FE756FE4FA591B491F2
:100400008FB7F894EC91111108C0D095DE23DC93DE
:100410008FBFDF91CF911F910895DE2BF8CF682F0A
:10042000809100030E94E10180911E0390911F03BF
:100430008230910538F0880F991F880F991F059712
:100440000197F1F70895682F8091FF0290910003C2
:1004500089130C94E1010895CF93DF9390E0FC01A0
:10046000E750FE4F24918D549E4FFC0184918823C8
:10047000D1F090E0880F991FFC01E158FE4FA59143
:10048000B491FC01E756FE4FC591D49161110EC0A5
:100490009FB7F8948C91E22FE0958E238C9328815E
:1004A000E223E8839FBFDF91CF9108958FB7F8943F
:1004B000EC91E22BEC938FBFF6CF3FB7F89480918D
:1004C0004B0290914C02A0914D02B0914E0226B584
:1004D000A89B05C02F3F19F00196A11DB11D3FBF7C
:1004E000BA2FA92F982F8827BC01CD01620F711D4B
:1004F000811D911D42E0660F771F881F991F4A9545
:10050000D1F708958F929F92AF92BF92CF92DF92D0
:10051000EF92FF924B015C010E945D026B017C0136
:100520000E945D026C197D098E099F09683E734027
:1005300081059105A8F321E0821A9108A108B1086C
:1005400088EEC80E83E0D81EE11CF11C81149104D2
:10055000A104B10429F7FF90EF90DF90CF90BF90F6
:10056000AF909F908F9008952FB7F89460914702B5
:10057000709148028091490290914A022FBF0895DC
:10058000AF92BF92CF92DF92EF92FF920F931F93A1
:10059000CF93DF936C017B018B01040F151FEB01DF
:1005A0005E01AE18BF08C017D10759F06991D60196
:1005B000ED91FC910190F081E02DC6011995892BF8
:1005C00079F7C501DF91CF911F910F91FF90EF90C7
:1005D000DF90CF90BF90AF900895FC01538D448D74
:1005E000252F30E0842F90E0821B930B541710F0DE
:1005F000CF96089501970895FC01918D828D9817EB
:1006000061F0A28DAE0FBF2FB11D5D968C91928DC2
:100610009F5F9F73928F90E008958FEF9FEF0895F3
:100620000F931F930E94B402609357027093580275
:100630008093590290935A028FE492E00E94FC0248
:1006400097FF1DC00E94B4020091570210915802FA
:100650002091590230915A02601B710B820B930B4F
:10066000009153021091540220915502309156028C
:100670006017710782079307F8F28FEF9FEF1F91C2
:100680000F910895FC01918D828D981731F0828D24
:10069000E80FF11D858D90E008958FEF9FEF08958D
:1006A000FC01918D228D892F90E0805C9F4F821BF1
:1006B00091098F73992708958FE492E00E94500367
:1006C00021E0892B09F420E0822F0895FC01A48DFC
:1006D000A80FB92FB11DA35ABF4F2C91848D90E064
:1006E00001968F739927848FA689B7892C93A08947
:1006F000B1898C91837080648C93938D848D9813D1
:1007000006C00288F389E02D80818F7D8083089563
:10071000EF92FF920F931F93CF93DF93EC0181E051
:10072000888F9B8D8C8D98131AC0E889F9898081F8
:1007300085FF15C09FB7F894EE89FF896083E8892B
:10074000F98980818370806480839FBF81E090E01D
:10075000DF91CF911F910F91FF90EF900895F62EAA
:100760000B8D10E00F5F1F4F0F731127E02E8C8D44
:100770008E110CC00FB607FCFACFE889F989808189
:1007800085FFF5CFCE010E946603F1CFEB8DEC0F14
:10079000FD2FF11DE35AFF4FF0829FB7F8940B8FA6
:1007A000EA89FB8980818062CFCFCF93DF93EC0110
:1007B000888D8823B9F0AA89BB89E889F9898C9149
:1007C00085FD03C0808186FD0DC00FB607FCF7CF05
:1007D0008C9185FFF2CF808185FFEDCFCE010E9405
:1007E0006603E9CFDF91CF91089580E090E0892BF7
:1007F00029F00E945C0381110E94000080E090E0DB
:10080000892B49F080E090E0892B29F00E940000BC
:1008100081110E94000080E090E0892B49F080E087
:1008200090E0892B29F00E94000081110E940000B5
:1008300080E090E0892B49F080E090E0892B29F05E
:100840000E94000081110C9400000895BC016E5FAD
:100850007F4FDC01ED91FC910190F081E02D40E0B3
:10086000199591E0811190E0892F0895089581E014
:100870000C940F028EBD00000DB407FEFDCF8EB5A7
:1008800008958CBD9DBD0895DF92EF92FF920F9366
:100890001F93CF93DF937C01062FD42E152F80E575
:1008A00090E00E94410460E0F70186850E94E1012A
:1008B00082E10E943A04CD2DD12F0C0F1D2F111D66
:1008C000C017D10721F089910E943A04F9CF61E065
:1008D000F7018685DF91CF911F910F91FF90EF90E7
:1008E000DF900C94E1011F93CF93DF93EC01162F5F
:1008F00080E590E00E94410460E08E850E94E10165
:10090000812F80680E943A0480E00E943A04182FE8
:1009100061E08E850E94E101812FDF91CF911F91CF
:1009200008950F931F93CF93DF93EC01062F142F9D
:1009300080E590E00E94410460E08E850E94E10124
:10094000802F0E943A04812F0E943A0461E08E8534
:10095000DF91CF911F910F910C94E101CF92DF9223
:10096000EF92FF920F931F93CF93DF93EC016B01F4
:10097000F42E890140E062E00E94910444E06AE0C4
:10098000CE010E94910440E864E1CE010E949104EE
:10099000A6016F2DCE010E94440443E062E0CE0127
:1009A0000E9491040E94B4026B017C0129E5C20EF1
:1009B000D11CE11CF11C6AE0CE010E94730482FF8D
:1009C0001BC040E062E0CE010E94910464E4CE01CD
:1009D0000E947304F801808362E4CE010E947304D4
:1009E000F801818380E0DF91CF911F910F91FF90FB
:1009F000EF90DF90CF9008950E94B4026C157D05B2
:100A00008E059F05C0F283E0EECF2F923F924F926A
:100A10005F926F927F928F929F92AF92CF92DF926E
:100A2000EF92FF920F931F93CF93DF931F921F922A
:100A3000CDB7DEB74C012B01D42E390180E0E11493
:100A4000F10411F0F70180813C2C329490EF3922AF
:100A5000380E40E062E0C4010E9491044FE768E074
:100A6000C4010E94910440E864E1C4010E94910421
:100A7000A2016D2DC4010E944404432D6AE1C4010A
:100A80000E9491044CE062E0C4010E9491046AE17A
:100A9000C4010E947304482F40686AE1C4010E94A7
:100AA00091040E94B4021B012C01F4E22F0E311CB0
:100AB000411C511C68E0C4010E947304982F90737C
:100AC00009F0B7C080FF15C083E00F900F90DF9151
:100AD000CF911F910F91FF90EF90DF90CF90AF904B
:100AE0009F908F907F906F905F904F903F902F904E
:100AF00008950E94B4026215730584059505D0F22D
:100B0000E3CF6114710409F469C00115110509F4FA
:100B100065C064E1C4010E947304382EF80180812D
:100B2000831508F480C030823320E1F180E590E045
:100B30000E94410460E0F40186850E94E1013A943C
:100B400082E90E943A04CC20B1F08FEF90E09C0142
:100B500002C0220F331FCA94E2F7690182E90E94A2
:100B60003A049C2D9095F301208192238C21982B9F
:100B70009083CC24C39423014C0C511CC31440F427
:100B800082E90E943A04F20181932F01C394F6CFC7
:100B900080E00E943A04F201808361E0F4018685DE
:100BA0000E94E10168E1C4010E9473048770E114AE
:100BB000F10411F0F701808323FC37C06114710444
:100BC000B1F10115110599F1AA2089F1F8014081CF
:100BD000413031F4843029F58FEF77CF80E0ECCFCE
:100BE0004230F8F081111DC042509E012F5F3F4FEF
:100BF000B301C4010E94AE04811167CFF801908156
:100C0000690E711CF301329720819981291309C063
:100C1000F1E06F1A7108F30120819A81291709F414
:100C200054CF87E052CF84E050CF82E04ECF80E0B7
:100C30004CCF6CE0C4010E947304282E837109F428
:100C400060CF81E042CF8F929F92AF92CF92EF928E
:100C5000FF920F931F93CF93DF9300D01F921F92A9
:100C6000CDB7DEB74C0182E08D8340E064E2C40181
:100C70000E94910440E066E2C4010E94910446E2B1
:100C800068E4C4010E94910486E28B838D818230E6
:100C9000D8F16CE1C4010E947304482F4F776CE1D6
:100CA000C4010E94910487E08C83A12CC12CCE0149
:100CB00004967C018E010B5F1F4F9E012F5F3F4FFB
:100CC00041E0BE016D5F7F4FC4010E940505982F72
:100CD000811117C08D818230B9F48C81811114C0CB
:100CE00081E00F900F900F900F900F90DF91CF91B8
:100CF0001F910F91FF90EF90CF90AF909F908F90AA
:100D0000089581E0923069F380E0EBCF2F923F921B
:100D10004F925F926F927F928F929F92AF92BF920B
:100D2000CF92DF92EF92FF920F931F93CF93DF93B7
:100D3000CDB7DEB72D970FB6F894DEBF0FBECDBF8F
:100D400016E0413508F04AC1342E3B014C016CE1FC
:100D50000E947304482F4F776CE1C4010E949104F4
:100D600083E98983332029F081E0F3019081953074
:100D700008F480E022242394B12C9B2D990F990F25
:100D8000990FD32CD91AD7FCD12C32E0882319F033
:100D900098E89B8333E021E09D2D977009F420E0D3
:100DA0009D2D959595959595290FC9F094E0811104
:100DB00093E0291708F4922FEB2DF0E03196E60D21
:100DC000F71D232F4191A1E0B0E0AC0FBD1FA20F92
:100DD000B11D4C932F5F422F431B491798F3882373
:100DE00011F0F8E0DF0E8FE18D150CF082C090E776
:100DF0009A838B819C8189279D8189279E81892760
:100E00008F839E01285F3F4F47E0BE016F5F7F4F9A
:100E1000C4010E94AE04182F8111E0C01A86E3E0DD
:100E2000EB87DC86CE0107962C0199E09D87CA846A
:100E30004C2D4295407F4C0D6AE1C4010E94910403
:100E4000A12CCE010A967C018E01055F1F4F9201F5
:100E50004D85BE016F5F7F4FC4010E940505182FAD
:100E6000823009F065C06CE1C4010E94730485FD05
:100E7000B5C08F7109F480E2282F30E04D2DDD0CD4
:100E8000550B421753070CF09DC0D82EE82FE5955F
:100E9000E595E595EF5F982F977081E009F480E084
:100EA000E80F81E090E08C0F9D1F8E0F911DFC01DB
:100EB000215031092770332781E090E002C0880F6C
:100EC000991F2A95E2F79C018081822B80838BCF2A
:100ED00085E98983332031F081E0F30190819830F6
:100EE00008F04BCF80E049CF87E9898326E0B22E16
:100EF000F9CF9D2D97709A878D2D85958595859530
:100F00008E5F282F2295207F290F2A8321E09111BF
:100F100001C020E0280F2D8744244394512C4C0E0F
:100F20005D1E480E511CE9E0E81BEB87DC867FCF95
:100F3000811154C080E2D82E9C8590320CF457CF9A
:100F40008B81883809F040C083E093E0EB2DF0E01E
:100F50003196E60DF71D980FA1E0B0E0AC0FBD1F74
:100F6000A80FB11D2C9121938F5F8913F5CFBB84FE
:100F7000E3E0BE124DC08A8581114AC09E012D5FFB
:100F80003F4F41E0B201C4010E94AE04182F81110D
:100F900025C09B81F201818198133CC09C81828194
:100FA000981338C0808182FF12C02394F2E02F167C
:100FB00009F48ECF83E0281609F496CF91E0291624
:100FC00009F4CECE15E00AC082E094E0BFCFF30171
:100FD0008387822D880F820D8F5F8083812F2D96CE
:100FE0000FB6F894DEBF0FBECDBFDF91CF911F913A
:100FF0000F91FF90EF90DF90CF90BF90AF909F90B8
:101000008F907F906F905F904F903F902F900895BA
:1010100011E0E4CF17E0E2CFCF93CFB7F8948091FF
:101020004202811127C0E8EEF1E08491EEE2F2E0A5
:101030009491E82FF0E0EE0FFF1FE158FE4FA591CD
:10104000B491EC91E92321F461E085E30E94E10190
:1010500061E085E30E942C028CB580618CBD8CB56B
:1010600080648CBD61E084E30E942C0261E083E334
:101070000E942C02809142028F5F80934202CFBF78
:10108000CF91089590ED980F9A3028F4082E000C17
:10109000990BC09708959FE9980F963030F4082E69
:1010A000000C990B8755910908959FEB980F963086
:1010B00028F4082E000C990BC79708958FEF9FEF27
:1010C00008950F931F930091010310910203209143
:1010D00003033091040340E052E16AE770E090E0DE
:1010E000041715072607370740F476956795579537
:1010F00047959F5F9630A1F797E0892F806A90957A
:10110000869591700E94410480E01F910F910C948C
:101110000F02CF93DF93D82FC62F0E9461088D2F27
:1011200080620E943A04809305038C2F0E943A0447
:10113000DF91CF910C9437046091110361FD0AC0D7
:1011400062606093110380E00E9489088BE19EE455
:101150000197F1F70895CF93C82F0E9461088C2F53
:101160000E943A04809305038FEF0E943A04C82F2F
:101170000E9437048C2FCF910895FF920F931F93F5
:10118000CF93DF93C82FF62E072F142F0E946108EC
:101190008C2F80620E943A0480930503CF2DD02FBC
:1011A000115020F089910E943A04FACFDF91CF913B
:1011B0001F910F91FF900C9437040E949C0860913E
:1011C000110361606093110380E00E94890860E769
:1011D00087E00E94890881E00E9423028091130326
:1011E000882339F04091150367E073E08AE00C949E
:1011F000BD0882E00E94AB08E5E8F2E0E49121E05E
:1012000030E001C0220FEA95EAF72095622F6823AB
:1012100082E00E948908109213030895CF93C82F8B
:101220000E9461088C2F0E943A0480930503CF919D
:101230000C94370481EE0E940E09809105030895F5
:101240000E94610880E50E943A048093050383E7C9
:101250000E943A040C943704EF92FF920F931F936D
:10126000CF93DF93CDB7DEB7C854D1090FB6F8944A
:10127000DEBF0FBECDBF7B018A019AEA26969FAFE3
:10128000269727968FAF279728964FAF28972996AE
:101290001FAF299744E050E0BE016B5B7F4F8FE4A6
:1012A00092E00E94C002A801B7018FE492E00E9480
:1012B000C00229968CAD9DADAEADBFAD2997898397
:1012C0009A83AB83BC83C801019780349105A8F54C
:1012D000A801B701CE0105960E9407150C5F1F4FAC
:1012E000AE014F5F5F4FFA0160E07CE881916827B3
:1012F00028E030E0862F90E09595879560FF20C02C
:10130000682F672721503109A9F7CF01841B950B5E
:10131000801791075CF38FE492E00E948803C85B1A
:10132000DF4F0FB6F894DEBF0FBECDBFDF91CF9178
:101330001F910F91FF90EF90089504E010E0D0CF3F
:10134000682FE0CF0F931F93CF93DF93EC01888139
:101350009981009759F02A813B812617370730F091
:1013600081E0DF91CF911F910F9108958B016F5F05
:101370007F4F0E942614009759F0998388831B831E
:101380000A832C813D81232B59F7FC011082E8CF81
:1013900080E0E7CFEF92FF920F931F93CF93DF93FD
:1013A000EC017B018A01BA010E94A20928813981DE
:1013B000811114C02115310519F0C9010E949D1336
:1013C000198218821D821C821B821A82CE01DF9133
:1013D000CF911F910F91FF90EF9008951D830C8383
:1013E000B701C9010E942B15F1CFFC0180819181C9
:1013F000009711F00C949D130895FC011182108246
:101400001382128215821482FB0101900020E9F7F9
:101410003197AF01461B570B0C94CA09FB0144815D
:101420005581FC01248135812417350778F08081AE
:101430009181009759F0FB016081718161157105FF
:1014400029F00E94321521E0892B09F020E0822F3B
:1014500008951F920F920FB60F9211242F933F936E
:101460008F939F93AF93BF938091470290914802CF
:10147000A0914902B0914A023091460223E0230F25
:101480002D3758F50196A11DB11D2093460280937A
:10149000470290934802A0934902B0934A02809178
:1014A0004B0290914C02A0914D02B0914E020196D8
:1014B000A11DB11D80934B0290934C02A0934D024D
:1014C000B0934E02BF91AF919F918F913F912F9119
:1014D0000F900FBE0F901F90189526E8230F0296CD
:1014E000A11DB11DD2CF1F920F920FB60F921124E2
:1014F0000BB60F922F933F934F935F936F937F930E
:101500008F939F93AF93BF93EF93FF938FE492E0FA
:101510000E946603FF91EF91BF91AF919F918F91D0
:101520007F916F915F914F913F912F910F900BBEE3
:101530000F900FBE0F901F9018951F920F920FB62D
:101540000F9211240BB60F922F938F939F93EF93CB
:10155000FF93E0915F02F09160028081E09165026B
:10156000F091660282FD1DC09081809168028F5FBC
:101570008F7320916902821741F0E0916802F0E0D8
:10158000E15BFD4F958F80936802FF91EF919F91F2
:101590008F912F910F900BBE0F900FBE0F901F9049
:1015A00018958081F2CFEFE4F2E01382128288EE88
:1015B00093E0A0E0B0E084839583A683B7838FE0B7
:1015C00092E09183808385EC90E09587848784EC1A
:1015D00090E09787868780EC90E0918B808B81EC00
:1015E00090E0938B828B82EC90E0958B848B86ECE1
:1015F00090E0978B868B118E128E138E148EEDEFEA
:10160000F2E089E082838AE0838380E896E9A8E9B2
:10161000B0E084839583A683B78380E28187158AAF
:10162000168A85E0808F81E0818F128E85E090E0C0
:10163000A0E0B0E081A392A3A3A3B4A38CEE92E0B8
:1016400091838083EDEEF2E081E292E091838083EA
:1016500088E0868787E087870895CF93DF93CDB7AB
:10166000DEB7C455D1090FB6F894DEBF0FBECDBFAB
:10167000789484B5826084BD84B5816084BD85B56D
:10168000826085BD85B5816085BD80916E00816079
:1016900080936E001092810080918100826080931F
:1016A0008100809181008160809381008091800021
:1016B0008160809380008091B10084608093B1004C
:1016C0008091B00081608093B00080919100826031
:1016D000809391008091910081608093910080912E
:1016E00090008160809390008091A100826080933F
:1016F000A1008091A10081608093A1008091A00051
:1017000081608093A00080912101826080932101FB
:10171000809121018160809321018091200181606D
:101720008093200180917A00846080937A00809178
:101730007A00826080937A0080917A008160809341
:101740007A0080917A00806880937A001092C100BC
:10175000E0915F02F091600282E08083E0915F029D
:10176000F09160021082E0915B02F0915C021082C5
:10177000E0915D02F0915E0280E180831092670249
:10178000E0916302F091640286E08083E09161025F
:10179000F0916202808180618083E0916102F0912A
:1017A0006202808188608083E0916102F091620230
:1017B000808180688083E0916102F0916202808183
:1017C0008F7D80830E940C080E940C088091FF028C
:1017D0008F3F09F4D1C0909100039F3F09F4CCC022
:1017E000891741F061E00E942C0261E080910003C2
:1017F0000E942C0280E00E94230281E00E940F02DE
:1018000065E070E080E090E00E9482026FE584E095
:101810000E94890886E00E94AB0845E550E060E040
:1018200070E040931A0350931B0360931C03709362
:101830001D03682F677D86E00E94890886E00E946C
:10184000AB088DE10E94AB08182F0E9420098DE1A2
:101850000E94AB0891E0181390E09093120381115D
:1018600047C11092140360E08CE10E948908109235
:1018700016036FE381E00E94890863E082E00E9422
:10188000890880E28093060311E160910603812FAD
:101890000E9489081F5F1731C1F763E083E00E944F
:1018A000890885E0809315036CE40E94890860E74D
:1018B00087E00E94890882EE0E940E090E941A09A0
:1018C0006CE780E00E94890880E00E94AB0880936A
:1018D00011030E949C08809111038E3709F04CC0BF
:1018E00081E08093450286E00E94AB08887F682FE4
:1018F000636086E00E94890885E0E6E0F2E0DE01B0
:10190000119601900D928A95E1F740911503BE0161
:101910006F5F7F4F8AE00E94BD0840911503BE01B2
:101920006F5F7F4F80E10E94BD084091150350E03A
:10193000BE016F5F7F4F8CE093E00E940715E5E5E5
:10194000F1E0849140911503BE016F5F7F4F0E94CB
:10195000BD0882E00E94AB08E6E8F2E0E49161E0B5
:1019600070E001C0660FEA95EAF7682B82E00E94FA
:1019700089080E94DD0802C01092450261E0809152
:10198000FB020E942C0261E08091FB020E94E101B7
:101990008091FC028F3F09F4C3C060E00E942C02DA
:1019A0002091FC0230E0F901E15CFD4F8491F901E6
:1019B000E750FE4F0491F901ED54FE4F14911111BF
:1019C000A0C061E08091FC020E942C0260E0809146
:1019D000FC020E94E10183E090E00197F1F761E0F1
:1019E0008091FC020E94E10162E370E080E090E0FF
:1019F0000E94820240E064E28DEE92E00E94910437
:101A000040E066E28DEE92E00E94910446E268E4D6
:101A10008DEE92E00E94910440E864E58DEE92E044
:101A20000E94910449EA66E58DEE92E00E949104DD
:101A300043E068E58DEE92E00E94910448EE6AE58D
:101A40008DEE92E00E94910440E46AE28DEE92E015
:101A50000E9491044DE362E28DEE92E00E949104B7
:101A600068E28DEE92E00E947304982F9370933099
:101A700039F0482F436068E28DEE92E00E949104B5
:101A800081E0809344022E0123E2420E511CCE01DC
:101A900001964C0180914502882309F489C087E1B1
:101AA0000E94AB0880FD84C080E2F20111928A9509
:101AB000E9F78091160310E000E2811107C0109150
:101AC0000603012F113208F000E2101B0E9461088A
:101AD00081E60E943A04809305037201015008F4E4
:101AE00036C08FEF0E943A04F70181937F01F6CF51
:101AF000181302C00E94200960E08DE10E9489084D
:101B0000B0CE81110E947A01E12FF0E0EE0FFF1FAD
:101B1000E65AFE4FA591B491EC910E2309F451CFF2
:101B20004FE062E08DEE92E00E94910413E062E3E8
:101B300070E080E090E00E94820262E08DEE92E030
:101B40000E94730484FF56CF115089F753CF115070
:101B500020F08FEF0E943A04FACF0E94370460E42D
:101B600087E00E9489082B961CAE1DAE1EAE1FAEEC
:101B70002B976BA170E090E080E00E948E1119829B
:101B800022E02A8327966CAF7DAF8EAF9FAF279759
:101B900088E0FE01ED5BFF4FDE01139601900D9290
:101BA0008A95E1F74AE050E0B40180E50E942C09F3
:101BB00080914402882309F45EC08DEE92E00E9479
:101BC0002306882309F457C08DEE92E00E94260474
:101BD000882309F450C07090EF0270EFE72E72E096
:101BE000F72E60E070E0CB0110E07116D9F01430F0
:101BF000C9F0F70101917F0120E030E040E853E4B3
:101C00000E94CB115B016C01602F70E090E080E0DE
:101C10000E9490119B01AC01C601B5010E948D127A
:101C20001F5FE3CF198221E02A836B837C838D833E
:101C30009E8346E050E0B40181E50E942C0980E5D6
:101C400089831A829E012D5F3F4F42E0B4018DEEE1
:101C500092E00E94AE0481110EC0A12CC12CF12C87
:101C6000E12C10E000E030E020E044E0B4018DEE33
:101C700092E00E9405058FE492E00E94500318163E
:101C800019060CF05AC065E372E0CE01855B9F4FE8
:101C90000E94FD090E94100361960EAD1FAD619771
:101CA00097FD21C08A309105F1F089831A820F5F78
:101CB0001F4FB801CE01855B9F4F0E94A209882368
:101CC00049F32D962EAD3FAD2D9761968EAD9FAD0C
:101CD0006197B401820F931F0E942B1561961FAF6D
:101CE0000EAF6197D7CF2D96CEACDFAC2D97C11438
:101CF000D10421F076010115110519F561968EAD1B
:101D00009FAD6197892B09F458C067E272E02D9668
:101D10008EAD9FAD2D970E942215892B09F04DC0E5
:101D200081E0898341E050E0B4018FE70E942C09F3
:101D3000CE01855B9F4F0E94F5090E94F503AACE54
:101D400075015701FFEFAF1ABF0AF7018081082E16
:101D5000000C990B0E948511892B91F701501109F4
:101D60000C0D1D1DF8018081082E000C990B0E949E
:101D70008511892B31F00E151F0518F0015011093E
:101D8000F1CF0F5F1F4FA8014E195F0961965FAF3A
:101D90004EAF6197CE14DF0420F4B701C6010E9454
:101DA00007152D96EEADFFAD2D9761968EAD9FADCB
:101DB0006197E80FF91F1082A1CF6CE272E0C401B5
:101DC0000E94FD09B401CE01855B9F4F0E940E0A5F
:101DD000182FC4010E94F5091123B9F004E711E09E
:101DE000F8016491662341F08FE492E00E94880339
:101DF0000F5F1F4F892BA1F742E050E063E372E0D1
:101E00008FE492E00E94C00293CF66E372E0C401C7
:101E10000E94FD09B401CE01855B9F4F0E940E0A0E
:101E2000182FC4010E94F509112309F481CF61968E
:101E3000EEACFFAC61975BE0C52ED12CFBE0EF165A
:101E4000F10420F067016BE0E62EF12C65E372E00F
:101E5000CE018D5B9F4F0E94FD0961960EAD1FADB7
:101E60006197E016F10658F5C016D10608F4860110
:101E70002D96EEADFFAD2D97E00FF11FD0801082B3
:101E80002D966EAD7FAD2D976E0D7F1D6115710581
:101E900009F44CC0FB0101900020E9F73197AF0134
:101EA000461B570BCE018D5B9F4F0E94CA092D9692
:101EB0008EAD9FAD2D97080F191FF801D08265E3F5
:101EC00072E0C4010E94FD0960E472E0C2010E9458
:101ED000FD0929966EAC7FAC29976114710409F451
:101EE0007CC0AFA0B8A4A114B10409F476C0ED8001
:101EF000FE80EA18FB0825960EAD1FAD2597E1146C
:101F0000F10449F56BA17CA1C8010E9440158C0128
:101F1000009709F462C069817A814D815E810E94D7
:101F200007158D819E81080F191FECCF25968EAD68
:101F30009FAD2597009711F00E949D1325961FAE27
:101F40001EAE259729961FAE1EAE299727961FAE67
:101F50001EAE2797ACCFF7FC0FC02BA03CA06301AF
:101F6000C801B1010E944015009709F48AC08A0D8A
:101F70009B1DCE0CDF1CF5CF68016BA17CA1C801B5
:101F80000E9440153C01009721F15C01A01AB10AA2
:101F9000A501B801C6010E940715CA0CDB1C6981A6
:101FA0007A814D815E81C6010E9407158D819E81D7
:101FB000C80ED91E0FA118A5060D171D29968EADA6
:101FC0009FAD29978E0D9F1D29969FAF8EAF2997A4
:101FD000D4CFB801C6010E942B15C2010E94F50999
:101FE000C4010E94F5092996CEACDFAC299725964D
:101FF000EEACFFAC2597140101E010E097012150F1
:10200000310963963FAF2EAF6397310168187908A5
:102010000C151D050CF0D8C00134110509F4D1C010
:10202000C80101978C159D0520F4E114F10409F015
:10203000C1C010924302E3E4F2E080810E944208B2
:102040005C010C151D0530F4F701E00FF11FE114E0
:10205000F10421F410924302E3E4F2E080810E9453
:102060004208B7FCB1C00E5F1F4F97FDADC044E002
:10207000AA0CBB1C4A95E1F7A82AF101A1921F0105
:10208000C4CF6C147D0409F4A8CF27968EAD9FAD04
:1020900027978C159D0588F4B6016F5F7F4FC801A7
:1020A0000E942614009709F498CF25969FAF8EAF13
:1020B00025972796DFAECEAE279729960EAD1FAD9A
:1020C00029970150110917FD88CF58012FA038A476
:1020D0002114310409F481CF2996CEACDFAC2997C5
:1020E000C114D10409F479CFC214D30408F475CF14
:1020F0000C151D0520F05601F1E0AF1AB108259628
:102100006EAC7FAC25972BA13CA163963FAF2EAF61
:102110006397C3010FEF1FEFF301EA0DFB1D6596F7
:10212000FFAFEEAF659765962EAD3FAD659728176B
:10213000390790F063966EAD7FAD63970E944015AE
:10214000009751F09C0126193709A216B30608F42E
:10215000980101968901E7CF17FD3FCF200E311E70
:10216000C301820D931DA60142195309BC018E0DB6
:102170009F1D0E94101529968EAD9FAD29978E0D3B
:102180009F1D29969FAF8EAF299725962EAD3FAD07
:102190002597820F931FFC01108225968EAD9FAD6F
:1021A000259769817A814D815E81800F911F0E9400
:1021B000071587CF6396EEADFFAD6397E00FF11F74
:1021C0003CCF30E2632E712C80914502882309F4C4
:1021D00096C06114710409F492C080E00E94230249
:1021E00080911A0390911B038230910538F0880F7B
:1021F000991F880F991F05970197F1F78091140394
:1022000081110E941A09609111036E7F609311037E
:1022100080E00E948908409115036CE073E08AE039
:102220000E94BD0882E00E94AB08E5E8F2E09491CC
:1022300061E070E001C0660F9A95EAF7682B82E0D2
:102240000E94890880911603062D10E0811106C0B6
:1022500010910603161508F4012F101B0E94610847
:1022600080EA0E943A04809305037401015030F023
:10227000F70181917F010E943A04F8CF115020F0BC
:1022800080E00E943A04FACF0E94370481E00E9465
:1022900023020E94B4026B017C018FEF0E940E09A1
:1022A000809105038073E9F40E94B4026C197D09E2
:1022B0008E099F09603671058105910570F382EEE4
:1022C0000E940E090E941A09809118039091190327
:1022D0000196909319038093180380E00E942302D3
:1022E000B1CF80E00E94230260E787E00E94890866
:1022F0008091050384FD0E941A090E94DD08CE0129
:102300008D5B9F4F0E94F50913CD91110C943812EB
:10231000803219F089508550C8F70895E89409C0B3
:1023200097FB3EF490958095709561957F4F8F4F08
:102330009F4F9923A9F0F92F96E9BB279395F6951E
:10234000879577956795B795F111F8CFFAF4BB0F9C
:1023500011F460FF1BC06F5F7F4F8F4F9F4F16C000
:10236000882311F096E911C0772321F09EE8872F8A
:10237000762F05C0662371F096E8862F70E060E046
:102380002AF09A95660F771F881FDAF7880F9695BF
:10239000879597F908950E94DE110C9452120E94BD
:1023A000441238F00E944B1220F0952311F00C9447
:1023B0003B120C94411211240C9486120E94631259
:1023C00070F3959FC1F3950F50E0551F629FF00188
:1023D000729FBB27F00DB11D639FAA27F00DB11DA1
:1023E000AA1F649F6627B00DA11D661F829F22272A
:1023F000B00DA11D621F739FB00DA11D621F839FB1
:10240000A00D611D221F749F3327A00D611D231F86
:10241000849F600D211D822F762F6A2F11249F57D4
:1024200050409AF0F1F088234AF0EE0FFF1FBB1FD7
:10243000661F771F881F91505040A9F79E3F510596
:1024400080F00C943B120C9486125F3FE4F3983EAC
:10245000D4F3869577956795B795F795E7959F5F40
:10246000C1F7FE2B880F911D9695879597F90895D2
:1024700099278827089597F99F6780E870E060E0C2
:1024800008959FEF80EC089500240A94161617060D
:1024900018060906089500240A9412161306140655
:1024A00005060895092E0394000C11F4882352F0B8
:1024B000BB0F40F4BF2B11F460FF04C06F5F7F4F70
:1024C0008F4F9F4F089557FD9058440F551F59F057
:1024D0005F3F71F04795880F97FB991F61F09F3F11
:1024E00079F087950895121613061406551FF2CF3A
:1024F0004695F1DF08C0161617061806991FF1CF8A
:1025000086957105610508940895E894BB276627B0
:102510007727CB0197F908955058BB27AA270E9427
:10252000A4120C9452120E94441238F00E944B12D2
:1025300020F039F49F3F19F426F40C9441120EF464
:10254000E095E7FB0C943B12E92F0E94631258F3CD
:10255000BA17620773078407950720F079F4A6F588
:102560000C9485120EF4E0950B2EBA2FA02D0B01C2
:10257000B90190010C01CA01A0011124FF27591BC8
:1025800099F0593F50F4503E68F11A16F040A22FCE
:10259000232F342F4427585FF3CF4695379527953F
:1025A000A795F0405395C9F77EF41F16BA0B620B3E
:1025B000730B840BBAF09150A1F0FF0FBB1F661F85
:1025C000771F881FC2F70EC0BA0F621F731F841FC8
:1025D00048F4879577956795B795F7959E3F08F0EE
:1025E000B0CF9395880F08F09927EE0F97958795B0
:1025F0000895EE0FFF1F881F8BBF0790F691E02D07
:1026000019940F931F93CF93DF938230910510F4A9
:1026100082E090E0E0912503F091260330E020E095
:10262000B0E0A0E0309799F42115310509F44AC0D3
:10263000281B390B24303105D8F58A819B8161151F
:10264000710589F1FB0193838283FE0111C04081F2
:1026500051810281138148175907E0F04817590743
:1026600099F4109761F012960C93129713961C939D
:102670003296CF01DF91CF911F910F910895009372
:10268000250310932603F4CF2115310551F042178D
:10269000530738F0A901DB019A01BD01DF01F80100
:1026A000C1CFEF01F9CF9093260380932503CDCFBF
:1026B000FE01E20FF31F8193919322503109398378
:1026C0002883D7CF2091230330912403232B41F477
:1026D00020910202309103023093240320932303BC
:1026E00020910002309101022115310541F42DB7EE
:1026F0003EB74091040250910502241B350BE09136
:102700002303F0912403E217F307A0F42E1B3F0BE1
:102710002817390778F0AC014E5F5F4F2417350753
:1027200048F04E0F5F1F509324034093230381937F
:1027300091939FCFF0E0E0E09CCFCF93DF930097A1
:10274000E9F0FC01329713821282A0912503B09127
:102750002603ED0130E020E01097A1F420813181C3
:10276000820F931F209123033091240328173907E8
:1027700009F061C0F0932403E0932303DF91CF912C
:102780000895EA01CE17DF07E8F54A815B819E01D3
:1027900041155105B1F7E901FB83EA83499159914C
:1027A000C40FD51FEC17FD0761F48081918102965B
:1027B000840F951FE90199838883828193819B838C
:1027C0008A83F0E0E0E012968D919C911397009738
:1027D000B9F52D913C911197CD010296820F931F6F
:1027E00020912303309124032817390739F63097B5
:1027F00051F51092260310922503B0932403A09361
:102800002303BCCFD383C28340815181840F951FA2
:10281000C817D90761F44E5F5F4F88819981480FCF
:10282000591F518340838A819B8193838283211521
:10283000310509F0B0CFF0932603E09325039ECF36
:10284000FD01DC01C0CF13821282D7CF4F925F927D
:102850006F927F928F929F92AF92BF92CF92DF92B0
:10286000EF92FF920F931F93CF93DF938C0100970A
:1028700099F4CB01DF91CF911F910F91FF90EF90D1
:10288000DF90CF90BF90AF909F908F907F906F9090
:102890005F904F900C940113FC01E60FF71F9C0111
:1028A00022503109E217F30708F4AEC0D901CD91E7
:1028B000DC911197C617D70720F1C530D10578F004
:1028C000CE0104978617970750F0C61BD70B2297A7
:1028D000C193D1936D937C93CF010E949D13C80146
:1028E000DF91CF911F910F91FF90EF90DF90CF90EC
:1028F000BF90AF909F908F907F906F905F904F9020
:1029000008955B01AC1ABD0A4C018C0E9D1EA0916E
:102910002503B0912603512C412CF12CE12C10976A
:1029200031F580912303909124038815990509F0CE
:102930005CC04616570608F058C08091000290917E
:102940000102009741F48DB79EB740910402509167
:102950000502841B950BE817F90708F055C0F093A2
:102960002403E0932303F90171836083B8CF8D9131
:102970009C91119712966C90129713967C901397D6
:10298000A815B90559F56C0142E0C40ED11CCA1452
:10299000DB0420F1AC014A195B09DA0112961597A4
:1029A00080F06282738251834083D9016D937C935E
:1029B000E114F10471F0D7011396FC93EE93129792
:1029C0008ECF22968C0F9D1FF90191838083F30196
:1029D000EFCFF0932603E093250381CF48165906E5
:1029E00008F42C017D01D3019ACFCB010E94011381
:1029F0007C01009749F0AE01B8010E940715C8019B
:102A00000E949D1387016BCF10E000E068CFFB01AF
:102A1000DC0102C001900D9241505040D8F708955A
:102A20006817790768F4FB01DC01E40FF51FA40FB8
:102A3000B51F02C002900E9241505040D8F7089541
:102A40000C940715FB01DC018D9101908019011098
:102A5000D9F3990B0895FB01DC0101900D92002040
:102A6000E1F70895FB01DC014150504030F08D91B9
:102A70000190801919F40020B9F7881B990B08956B
:102A8000FB0151915523A9F0BF01DC014D91451780
:102A90004111E1F759F4CD010190002049F04D9129
:102AA00040154111C9F3FB014111EFCF81E090E0E6
:082AB00001970895F894FFCF8F
:102AB8000000270380004E4D53444B00000000885F
:102AC80003C002ED02D5035003FC024203000000DC
:102AD8000086062306260450494E470050524F549C
:102AE8004F20000D0A00524144494F2053454E449F
:022AF8002000BC
:00000001FF
