:100000000C946E000C9496000C9496000C94960040
:100010000C9496000C9496000C9496000C94960008
:100020000C9496000C9496000C9496000C949600F8
:100030000C9496000C9496000C9496000C949600E8
:100040000C94E1080C9496000C9451090C942B0923
:100050000C9496000C9496000C9496000C949600C8
:100060000C9496000C9496000A0B0C0D0E0F0000D9
:10007000000023002600290050524F544F204F4BC0
:1000800020320000000000240027002A00000000A9
:1000900000250028002B00040404040404040402C6
:1000A0000202020202030303030303010204081015
:1000B00020408001020408102001020408102000E2
:1000C0000000080002010000030407000000000017
:1000D00000000000010203040500830911241FBE73
:1000E000CFEFD8E0DEBFCDBF22E0A2E4B1E001C097
:1000F0001D92A732B207E1F711E0A0E0B1E0E4EF12
:10010000F7E202C005900D92A234B107D9F710E0D2
:10011000CEE6D0E004C02197FE010E94BD11CD368D
:10012000D107C9F70E94DD090C94F8130C94000064
:10013000833081F028F4813099F08230A9F008955D
:100140008730A9F08830C9F08430B1F48091800004
:100150008F7D03C0809180008F7780938000089509
:1001600084B58F7784BD089584B58F7DFBCF809152
:10017000B0008F778093B00008958091B0008F7D9C
:10018000F9CF1F93CF93DF93282F30E0F901E1548B
:10019000FF4F8491F901E555FF4FD491F901E956DC
:1001A000FF4FC491CC23A9F0162F81110E94980013
:1001B000EC2FF0E0EE0FFF1FE357FF4FA591B49136
:1001C0008FB7F894EC91111108C0D095DE23DC9321
:1001D0008FBFDF91CF911F910895DE2BF8CF682F4D
:1001E000809100020E94C10080911E0290911F0226
:1001F0008230910538F0880F991F880F991F059755
:100200000197F1F70895682F8091FF019091000206
:1002100089130C94C1000895CF93DF9390E0FC0103
:10022000E555FF4F249189569F4FFC018491882307
:10023000D1F090E0880F991FFC01ED57FF4FA59179
:10024000B491FC01E357FF4FC591D49161110EC0E9
:100250009FB7F8948C91E22FE0958E238C932881A0
:10026000E223E8839FBFDF91CF9108958FB7F89481
:10027000EC91E22BEC938FBFF6CF3FB7F8948091CF
:100280004B0190914C01A0914D01B0914E0126B5CA
:10029000A89B05C02F3F19F00196A11DB11D3FBFBE
:1002A000BA2FA92F982F8827BC01CD01620F711D8D
:1002B000811D911D42E0660F771F881F991F4A9587
:1002C000D1F708958F929F92AF92BF92CF92DF9213
:1002D000EF92FF924B015C010E943D016B017C019A
:1002E0000E943D016C197D098E099F09683E73408B
:1002F00081059105A8F321E0821A9108A108B108AF
:1003000088EEC80E83E0D81EE11CF11C8114910414
:10031000A104B10429F7FF90EF90DF90CF90BF9038
:10032000AF909F908F9008952FB7F89460914701F8
:10033000709148018091490190914A012FBF089521
:10034000AF92BF92CF92DF92EF92FF920F931F93E3
:10035000CF93DF936C017B018B01040F151FEB0121
:100360005E01AE18BF08C017D10759F06991D601D8
:10037000ED91FC910190F081E02DC6010995892B4A
:1003800079F7C501DF91CF911F910F91FF90EF9009
:10039000DF90CF90BF90AF900895FC01538D448DB6
:1003A000252F30E0842F90E0821B930B541710F020
:1003B000CF96089501970895FC01918D828D98172D
:1003C00061F0A28DAE0FBF2FB11D5D968C91928D05
:1003D0009F5F9F73928F90E008958FEF9FEF089536
:1003E0000F931F930E9494016093570170935801DB
:1003F0008093590190935A018FE491E00E94DC01AF
:1004000097FF1DC00E94940100915701109158015F
:100410002091590130915A01601B710B820B930B93
:1004200000915301109154012091550130915601D2
:100430006017710782079307F8F28FEF9FEF1F9104
:100440000F910895FC01918D828D981731F0828D66
:10045000E80FF11D858D90E008958FEF9FEF0895CF
:10046000FC01918D228D892F90E0805C9F4F821B33
:1004700091098F73992708958FE491E00E943002CB
:1004800021E0892B09F420E0822F089580E090E09C
:10049000892B29F00E943C0281110C9400000895E0
:1004A000FC01A48DA80FB92FB11DA35ABF4F2C91E9
:1004B000848D90E001968F739927848FA689B789E0
:1004C0002C93A089B1898C91837080648C93938DD7
:1004D000848D981306C00288F389E02D80818F7D7A
:1004E00080830895EF92FF920F931F93CF93DF9332
:1004F000EC0181E0888F9B8D8C8D98131AC0E88960
:10050000F989808185FF15C09FB7F894EE89FF892E
:100510006083E889F98980818370806480839FBFCC
:1005200081E090E0DF91CF911F910F91FF90EF90CC
:100530000895F62E0B8D10E00F5F1F4F0F731127DC
:10054000E02E8C8D8E110CC00FB607FCFACFE88917
:10055000F989808185FFF5CFCE010E945002F1CF4D
:10056000EB8DEC0FFD2FF11DE35AFF4FF0829FB78B
:10057000F8940B8FEA89FB8980818062CFCFCF937B
:10058000DF93EC01888D8823B9F0AA89BB89E889BB
:10059000F9898C9185FD03C0808186FD0DC00FB661
:1005A00007FCF7CF8C9185FFF2CF808185FFEDCFDF
:1005B000CE010E945002E9CFDF91CF910895BC0196
:1005C0006E5F7F4FDC01ED91FC910190F081E02D99
:1005D00040E0099591E0811190E0892F08950895F8
:1005E00081E00C94EF008EBD00000DB407FEFDCF3E
:1005F0008EB508958CBD9DBD0895DF92EF92FF9258
:100600000F931F93CF93DF937C01062FD42E152FCA
:1006100080E590E00E94FA0260E0F70186850E9482
:10062000C10082E10E94F302CD2DD12F0C0F1D2FAE
:10063000111DC017D10721F089910E94F302F9CF53
:1006400061E0F7018685DF91CF911F910F91FF90B7
:10065000EF90DF900C94C1001F93CF93DF93EC01D8
:10066000162F80E590E00E94FA0260E08E850E94DD
:10067000C100812F80680E94F30280E00E94F30293
:10068000182F61E08E850E94C100812FDF91CF91EC
:100690001F9108950F931F93CF93DF93EC01062FC3
:1006A000142F80E590E00E94FA0260E08E850E949F
:1006B000C100802F0E94F302812F0E94F30261E0AB
:1006C0008E85DF91CF911F910F910C94C100CF9235
:1006D000DF92EF92FF920F931F93CF93DF93EC0182
:1006E0006B01F42E890140E062E00E944A0344E07D
:1006F0006AE0CE010E944A0340E864E1CE010E9414
:100700004A03A6016F2DCE010E94FD0243E062E084
:10071000CE010E944A030E9494016B017C0129E5ED
:10072000C20ED11CE11CF11C6AE0CE010E942C0318
:1007300082FF1BC040E062E0CE010E944A0364E4F5
:10074000CE010E942C03F801808362E4CE010E9456
:100750002C03F801818380E0DF91CF911F910F91ED
:10076000FF90EF90DF90CF9008950E9494016C1558
:100770007D058E059F05C0F283E0EECF2F923F925C
:100780004F925F926F927F928F929F92AF92CF9291
:10079000DF92EF92FF920F931F93CF93DF9300D0DE
:1007A000CDB7DEB74C012B01D42E390180E0E11426
:1007B000F10411F0F70180813C2C329490EF392242
:1007C000380E40E062E0C4010E944A034FE768E04F
:1007D000C4010E944A0340E864E1C4010E944A0344
:1007E000A2016D2DC4010E94FD02432D6AE1C401E6
:1007F0000E944A034CE062E0C4010E944A036AE19D
:10080000C4010E942C03482F40686AE1C4010E9481
:100810004A030E9494011B012C01F4E22F0E311CAB
:10082000411C511C68E0C4010E942C03982F907356
:1008300009F0B7C080FF15C083E00F900F90DF91E3
:10084000CF911F910F91FF90EF90DF90CF90AF90DD
:100850009F908F907F906F905F904F903F902F90E0
:1008600008950E9494016215730584059505D0F2E0
:10087000E3CF6114710409F469C00115110509F48D
:1008800065C064E1C4010E942C03382EF801808108
:10089000831508F480C030823320E1F180E590E0D8
:1008A0000E94FA0260E0F40186850E94C1003A9439
:1008B00082E90E94F302CC20B1F08FEF90E09C011E
:1008C00002C0220F331FCA94E2F7690182E90E9435
:1008D000F3029C2D9095F301208192238C21982B7B
:1008E0009083CC24C39423014C0C511CC31440F4BA
:1008F00082E90E94F302F20181932F01C394F6CFA3
:1009000080E00E94F302F201808361E0F4018685B9
:100910000E94C10068E1C4010E942C038770E114A9
:10092000F10411F0F701808323FC37C061147104D6
:10093000B1F10115110599F1AA2089F1F801408161
:10094000413031F4843029F58FEF77CF80E0ECCF60
:100950004230F8F081111DC042509E012F5F3F4F81
:10096000B301C4010E946703811167CFF801908130
:10097000690E711CF301329720819981291309C0F6
:10098000F1E06F1A7108F30120819A81291709F4A7
:1009900054CF87E052CF84E050CF82E04ECF80E04A
:1009A0004CCF6CE0C4010E942C03282E837109F403
:1009B00060CF81E042CF8F929F92AF92CF92EF9221
:1009C000FF920F931F93CF93DF9300D000D01F921D
:1009D000CDB7DEB74C0182E08D8340E064E2C40114
:1009E0000E944A0340E066E2C4010E944A0346E2D4
:1009F00068E4C4010E944A0386E28B838D818230C1
:100A0000D8F16CE1C4010E942C03482F4F776CE1B0
:100A1000C4010E944A0387E08C83A12CC12CCE0123
:100A200004967C018E010B5F1F4F9E012F5F3F4F8D
:100A300041E0BE016D5F7F4FC4010E94BE03982F4D
:100A4000811117C08D818230B9F48C81811114C05D
:100A500081E00F900F900F900F900F90DF91CF914A
:100A60001F910F91FF90EF90CF90AF909F908F903C
:100A7000089581E0923069F380E0EBCF2F923F92AE
:100A80004F925F926F927F928F929F92AF92BF929E
:100A9000CF92DF92EF92FF920F931F93CF93DF934A
:100AA000CDB7DEB72D970FB6F894DEBF0FBECDBF22
:100AB00016E0413508F04AC1342E3B014C016CE18F
:100AC0000E942C03482F4F776CE1C4010E944A0317
:100AD00083E98983332029F081E0F3019081953007
:100AE00008F480E022242394B12C9B2D990F990FB8
:100AF000990FD32CD91AD7FCD12C32E0882319F0C6
:100B000098E89B8333E021E09D2D977009F420E065
:100B10009D2D959595959595290FC9F094E0811196
:100B200093E0291708F4922FEB2DF0E03196E60DB3
:100B3000F71D232F4191A1E0B0E0AC0FBD1FA20F24
:100B4000B11D4C932F5F422F431B491798F3882305
:100B500011F0F8E0DF0E8FE18D150CF082C090E708
:100B60009A838B819C8189279D8189279E818927F2
:100B70008F839E01285F3F4F47E0BE016F5F7F4F2D
:100B8000C4010E946703182F8111E0C01A86E3E0B8
:100B9000EB87DC86CE0107962C0199E09D87CA84FD
:100BA0004C2D4295407F4C0D6AE1C4010E944A03DE
:100BB000A12CCE010A967C018E01055F1F4F920188
:100BC0004D85BE016F5F7F4FC4010E94BE03182F89
:100BD000823009F065C06CE1C4010E942C0385FDE0
:100BE000B5C08F7109F480E2282F30E04D2DDD0C67
:100BF000550B421753070CF09DC0D82EE82FE595F2
:100C0000E595E595EF5F982F977081E009F480E016
:100C1000E80F81E090E08C0F9D1F8E0F911DFC016D
:100C2000215031092770332781E090E002C0880FFE
:100C3000991F2A95E2F79C018081822B80838BCFBC
:100C400085E98983332031F081E0F3019081983088
:100C500008F04BCF80E049CF87E9898326E0B22EA8
:100C6000F9CF9D2D97709A878D2D859585958595C2
:100C70008E5F282F2295207F290F2A8321E0911152
:100C800001C020E0280F2D8744244394512C4C0EA2
:100C90005D1E480E511CE9E0E81BEB87DC867FCF28
:100CA000811154C080E2D82E9C8590320CF457CF2D
:100CB0008B81883809F040C083E093E0EB2DF0E0B1
:100CC0003196E60DF71D980FA1E0B0E0AC0FBD1F07
:100CD000A80FB11D2C9121938F5F8913F5CFBB8491
:100CE000E3E0BE124DC08A8581114AC09E012D5F8E
:100CF0003F4F41E0B201C4010E946703182F8111E8
:100D000025C09B81F201818198133CC09C81828126
:100D1000981338C0808182FF12C02394F2E02F160E
:100D200009F48ECF83E0281609F496CF91E02916B6
:100D300009F4CECE15E00AC082E094E0BFCFF30103
:100D40008387822D880F820D8F5F8083812F2D9660
:100D50000FB6F894DEBF0FBECDBFDF91CF911F91CC
:100D60000F91FF90EF90DF90CF90BF90AF909F904A
:100D70008F907F906F905F904F903F902F9008954D
:100D800011E0E4CF17E0E2CFCF93CFB7F894809192
:100D90004201811127C0E1EAF0E08491E5EBF0E047
:100DA0009491E82FF0E0EE0FFF1FED57FF4FA59154
:100DB000B491EC91E92321F461E08AE00E94C10042
:100DC00061E08AE00E940C018CB580618CBD8CB51D
:100DD00080648CBD61E08DE00E940C0161E08BE0DD
:100DE0000E940C01809142018F5F80934201CFBF2E
:100DF000CF91089590ED980F9A3028F4082E000CAA
:100E0000990BC09708959FE9980F963030F4082EFB
:100E1000000C990B8755910908959FEB980F963018
:100E200028F4082E000C990BC79708958FEF9FEFB9
:100E300008950F931F9300910102109102022091D7
:100E400003023091040240E052E16AE770E090E072
:100E5000041715072607370740F4769567955795C9
:100E600047959F5F9630A1F797E0892F806A90950C
:100E7000869591700E94FA0280E01F910F910C9468
:100E8000EF00CF93DF93D82FC62F0E9419078D2F25
:100E900080620E94F302809305028C2F0E94F3026D
:100EA000DF91CF910C94F0026091110261FD0AC0B4
:100EB00062606093110280E00E9441078BE19EE432
:100EC0000197F1F70895CF93C82F0E9419078C2F2F
:100ED0000E94F302809305028FEF0E94F302C82F55
:100EE0000E94F0028C2FCF910895FF920F931F93D1
:100EF000CF93DF93C82FF62E072F142F0E941907C8
:100F00008C2F80620E94F30280930502CF2DD02F98
:100F1000115020F089910E94F302FACFDF91CF9116
:100F20001F910F91FF900C94F0020E945407609162
:100F3000110261606093110280E00E94410760E746
:100F400087E00E94410781E00E9403018091130223
:100F5000882339F04091150267E072E08AE00C9432
:100F6000750782E00E946307E3EDF0E0E49121E081
:100F700030E001C0220FEA95EAF72095622F68233E
:100F800082E00E944107109213020895CF93C82F68
:100F90000E9419078C2F0E94F30280930502CF91C3
:100FA0000C94F00281EE0E94C6078091050208951C
:100FB0000E94190780E50E94F3028093050283E7EF
:100FC0000E94F3020C94F002EF92FF920F931F9392
:100FD000CF93DF93CDB7DEB7C854D1090FB6F894DD
:100FE000DEBF0FBECDBF7B018A019AEA26969FAF76
:100FF000269727968FAF279728964FAF2897299641
:101000001FAF299744E050E0BE016B5B7F4F8FE438
:1010100091E00E94A001A801B7018FE491E00E9435
:10102000A00129968CAD9DADAEADBFAD299789834A
:101030009A83AB83BC83C801019780349105A8F5DE
:10104000A801B701CE0105960E94A5130C5F1F4FA2
:10105000AE014F5F5F4FFA0160E07CE88191682745
:1010600028E030E0862F90E09595879560FF20C0BE
:10107000682F672721503109A9F7CF01841B950BF1
:10108000801791075CF38FE491E00E947202C85BC5
:10109000DF4F0FB6F894DEBF0FBECDBFDF91CF910B
:1010A0001F910F91FF90EF90089504E010E0D0CFD2
:1010B000682FE0CF0F931F93CF93DF93EC018881CC
:1010C0009981009759F02A813B812617370730F024
:1010D00081E0DF91CF911F910F9108958B016F5F98
:1010E0007F4F0E94E812009759F0998388831B83F1
:1010F0000A832C813D81232B59F7FC011082E8CF14
:1011000080E0E7CFEF92FF920F931F93CF93DF938F
:10111000EC017B018A01BA010E945A0828813981B9
:10112000811114C02115310519F0C9010E945F1207
:10113000198218821D821C821B821A82CE01DF91C5
:10114000CF911F910F91FF90EF9008951D830C8315
:10115000B701C9010E94C913F1CFFC0180819181BF
:10116000009711F00C945F120895FC011182108217
:101170001382128215821482FB0101900020E9F78C
:101180003197AF01461B570B0C948208FB01448139
:101190005581FC01248135812417350778F0808141
:1011A0009181009759F0FB01608171816115710592
:1011B00029F00E94D01321E0892B09F020E0822F32
:1011C00008951F920F920FB60F9211242F933F9301
:1011D0008F939F93AF93BF93809147019091480164
:1011E000A0914901B0914A013091460123E0230FBB
:1011F0002D3758F50196A11DB11D2093460180930E
:10120000470190934801A0934901B0934A0180910E
:101210004B0190914C01A0914D01B0914E0101966E
:10122000A11DB11D80934B0190934C01A0934D01E2
:10123000B0934E01BF91AF919F918F913F912F91AC
:101240000F900FBE0F901F90189526E8230F02965F
:10125000A11DB11DD2CF1F920F920FB60F92112474
:101260002F933F934F935F936F937F938F939F93AE
:10127000AF93BF93EF93FF938FE491E00E945002EE
:10128000FF91EF91BF91AF919F918F917F916F915E
:101290005F914F913F912F910F900FBE0F901F9034
:1012A00018951F920F920FB60F9211242F938F93C0
:1012B0009F93EF93FF93E0915F01F0916001808134
:1012C000E0916501F091660182FD1BC090818091E3
:1012D00068018F5F8F7320916901821741F0E0915F
:1012E0006801F0E0E15BFE4F958F80936801FF910C
:1012F000EF919F918F912F910F900FBE0F901F90A4
:1013000018958081F4CFEFE4F1E01382128288EE29
:1013100093E0A0E0B0E084839583A683B7838FE059
:1013200091E09183808385EC90E09587848784ECBD
:1013300090E09787868780EC90E0918B808B81ECA2
:1013400090E0938B828B82EC90E0958B848B86EC83
:1013500090E0978B868B118E128E138E148EEDEF8C
:10136000F1E089E082838AE0838380E896E9A8E956
:10137000B0E084839583A683B78380E28187158A52
:10138000168A85E0808F81E0818F128E85E090E063
:10139000A0E0B0E081A392A3A3A3B4A38CEE91E05C
:1013A00091838083EDEEF1E081E291E0918380838F
:1013B00088E0868787E087870895CF93DF93CDB74E
:1013C000DEB7C455D1090FB6F894DEBF0FBECDBF4E
:1013D000789484B5826084BD84B5816084BD85B510
:1013E000826085BD85B5816085BD80916E0081601C
:1013F00080936E00109281008091810082608093C2
:1014000081008091810081608093810080918000C3
:101410008160809380008091B10084608093B100EE
:101420008091B00081608093B00080917A008460E8
:1014300080937A0080917A00826080937A00809114
:101440007A00816080937A0080917A00806880932E
:101450007A001092C100E0915F01F091600182E09A
:101460008083E0915F01F09160011082E0915B0167
:10147000F0915C011082E0915D01F0915E0180E1EC
:10148000808310926701E0916301F091640186E02E
:101490008083E0916101F0916201808180618083AD
:1014A000E0916101F0916201808188608083E09128
:1014B0006101F0916201808180688083E091610127
:1014C000F091620180818F7D80830E94C4060E941A
:1014D000C4068091FF018F3F09F4D1C090910002B2
:1014E0009F3F09F4CCC0891741F061E00E940C01D4
:1014F00061E0809100020E940C0180E00E940301E3
:1015000081E00E94EF0065E070E080E090E00E94E2
:1015100062016FE584E00E94410786E00E94630754
:1015200045E550E060E070E040931A0250931B02E2
:1015300060931C0270931D02682F677D86E00E94F5
:10154000410786E00E9463078DE10E946307182F20
:101550000E94D8078DE10E94630791E0181390E084
:1015600090931202811147C11092140260E08CE145
:101570000E944107109216026FE381E00E9441072A
:1015800063E082E00E94410780E28093060211E15D
:1015900060910602812F0E9441071F5F1731C1F73A
:1015A00063E083E00E94410785E0809315026CE4CC
:1015B0000E94410760E787E00E94410782EE0E9497
:1015C000C6070E94D2076CE780E00E94410780E0D6
:1015D0000E946307809311020E94540780911102B8
:1015E0008E3709F04CC081E08093450186E00E946F
:1015F0006307887F682F636086E00E94410785E06B
:10160000E6E0F1E0DE01119601900D928A95E1F796
:1016100040911502BE016F5F7F4F8AE00E947507FF
:1016200040911502BE016F5F7F4F80E10E947507F8
:101630004091150250E0BE016F5F7F4F8CE092E059
:101640000E94A513E9E6F0E0849140911502BE01E5
:101650006F5F7F4F0E94750782E00E946307E4ED91
:10166000F0E0E49161E070E001C0660FEA95EAF70E
:10167000682B82E00E9441070E94950702C01092E9
:10168000450161E08091FB010E940C0161E08091C5
:10169000FB010E94C1008091FC018F3F09F4C3C08F
:1016A00060E00E940C012091FC0130E0F901E1545E
:1016B000FF4F8491F901E555FF4F0491F901E95677
:1016C000FF4F14911111A0C061E08091FC010E94B4
:1016D0000C0160E08091FC010E94C10083E090E079
:1016E0000197F1F761E08091FC010E94C10062E383
:1016F00070E080E090E00E94620140E064E28DEEE4
:1017000091E00E944A0340E066E28DEE91E00E9483
:101710004A0346E268E48DEE91E00E944A0340E805
:1017200064E58DEE91E00E944A0349EA66E58DEE9C
:1017300091E00E944A0343E068E58DEE91E00E944B
:101740004A0348EE6AE58DEE91E00E944A0340E4C8
:101750006AE28DEE91E00E944A034DE362E28DEE73
:1017600091E00E944A0368E28DEE91E00E942C0312
:10177000982F9370933039F0482F436068E28DEED4
:1017800091E00E944A0381E0809344012E0123E20C
:10179000420E511CCE0101964C01809145018823D7
:1017A00009F489C087E10E94630780FD84C080E25C
:1017B000F20111928A95E9F78091160210E000E299
:1017C000811107C010910602012F113208F000E2CA
:1017D000101B0E94190781E60E94F3028093050204
:1017E0007201015008F436C08FEF0E94F302F70136
:1017F00081937F01F6CF181302C00E94D80760E0E2
:101800008DE10E944107B0CE81110E949800E12F26
:10181000F0E0EE0FFF1FE259FF4FA591B491EC915C
:101820000E2309F451CF4FE062E08DEE91E00E946B
:101830004A0313E062E370E080E090E00E946201FE
:1018400062E08DEE91E00E942C0384FF56CF115090
:1018500089F753CF115020F08FEF0E94F302FACF97
:101860000E94F00260E487E00E9441072B961CAEC4
:101870001DAE1EAE1FAE2B976BA170E090E080E016
:101880000E941B10198222E02A8327966CAF7DAF3D
:101890008EAF9FAF279788E0FE01ED5BFF4FDE0123
:1018A000139601900D928A95E1F74AE050E0B40159
:1018B00080E50E94E40780914401882309F45EC01A
:1018C0008DEE91E00E94DB04882309F457C08DEE71
:1018D00091E00E94DF02882309F450C07090EF016C
:1018E00070EFE72E71E0F72E60E070E0CB0110E0C2
:1018F0007116D9F01430C9F0F70101917F0120E091
:1019000030E040E853E40E9458105B016C01602F06
:1019100070E090E080E00E941D109B01AC01C601C8
:10192000B5010E9451111F5FE3CF198221E02A8384
:101930006B837C838D839E8346E050E0B40181E518
:101940000E94E40780E589831A829E012D5F3F4F44
:1019500042E0B4018DEE91E00E94670381110EC058
:10196000A12CC12CF12CE12C10E000E030E020E0B3
:1019700044E0B4018DEE91E00E94BE038FE491E05B
:101980000E943002181619060CF05AC065E371E087
:10199000CE01855B9F4F0E94B5080E94F0016196C1
:1019A0000EAD1FAD619797FD21C08A309105F1F012
:1019B00089831A820F5F1F4FB801CE01855B9F4F4D
:1019C0000E945A08882349F32D962EAD3FAD2D97DE
:1019D00061968EAD9FAD6197B401820F931F0E94F7
:1019E000C91361961FAF0EAF6197D7CF2D96CEACBE
:1019F000DFAC2D97C114D10421F07601011511053A
:101A000069F561968EAD9FAD6197892B09F462C02F
:101A100067E271E02D968EAD9FAD2D970E94C013A9
:101A2000892B09F057C081E0898341E050E0B4017F
:101A30008FE70E94E407CE01855B9F4F0E94AD08AF
:101A400080E090E0892B09F4A8CE0E943C02882314
:101A500009F4A0CE0E9400009DCE75015701FFEF52
:101A6000AF1ABF0AF7018081082E000C990B0E9463
:101A70001210892B91F7015011090C0D1D1DF80151
:101A80008081082E000C990B0E941210892B31F0D6
:101A90000E151F0518F001501109F1CF0F5F1F4FF0
:101AA000A8014E195F0961965FAF4EAF6197CE14E2
:101AB000DF0420F4B701C6010E94A5132D96EEADF8
:101AC000FFAD2D9761968EAD9FAD6197E80FF91F21
:101AD000108297CF6CE271E0C4010E94B508B40196
:101AE000CE01855B9F4F0E94C608182FC4010E943B
:101AF000AD081123B9F008E710E0F80164916623FE
:101B000041F08FE491E00E9472020F5F1F4F892B1A
:101B1000A1F742E050E063E371E08FE491E00E94BE
:101B2000A00189CF66E371E0C4010E94B508B40149
:101B3000CE01855B9F4F0E94C608182FC4010E94EA
:101B4000AD08112309F477CF6196EEACFFAC619735
:101B50005BE0C52ED12CFBE0EF16F10420F067010D
:101B60006BE0E62EF12C65E371E0CE018D5B9F4FBB
:101B70000E94B50861960EAD1FAD6197E016F106A3
:101B800058F5C016D10608F486012D96EEADFFADCE
:101B90002D97E00FF11FD08010822D966EAD7FAD96
:101BA0002D976E0D7F1D6115710509F44CC0FB0169
:101BB00001900020E9F73197AF01461B570BCE018A
:101BC0008D5B9F4F0E9482082D968EAD9FAD2D9705
:101BD000080F191FF801D08265E371E0C4010E946B
:101BE000B50860E471E0C2010E94B50829966EACA8
:101BF0007FAC29976114710409F47CC0AFA0B8A42C
:101C0000A114B10409F476C0ED80FE80EA18FB0847
:101C100025960EAD1FAD2597E114F10449F56BA192
:101C20007CA1C8010E94DE138C01009709F462C0F8
:101C300069817A814D815E810E94A5138D819E818B
:101C4000080F191FECCF25968EAD9FAD25970097F5
:101C500011F00E945F1225961FAE1EAE25972996A1
:101C60001FAE1EAE299727961FAE1EAE2797ACCF8C
:101C7000F7FC0FC02BA03CA06301C801B1010E947A
:101C8000DE13009709F48AC08A0D9B1DCE0CDF1C61
:101C9000F5CF68016BA17CA1C8010E94DE133C0155
:101CA000009721F15C01A01AB10AA501B801C60193
:101CB0000E94A513CA0CDB1C69817A814D815E816B
:101CC000C6010E94A5138D819E81C80ED91E0FA149
:101CD00018A5060D171D29968EAD9FAD29978E0D5F
:101CE0009F1D29969FAF8EAF2997D4CFB801C6010B
:101CF0000E94C913C2010E94AD08C4010E94AD0830
:101D00002996CEACDFAC29972596EEACFFAC259793
:101D1000140101E010E097012150310963963FAFB3
:101D20002EAF63973101681879080C151D050CF06A
:101D3000D8C00134110509F4D1C0C80101978C1530
:101D40009D0520F4E114F10409F0C1C01092430193
:101D5000E3E4F1E080810E94FA065C010C151D05A8
:101D600030F4F701E00FF11FE114F10421F41092B7
:101D70004301E3E4F1E080810E94FA06B7FCB1C0C0
:101D80000E5F1F4F97FDADC044E0AA0CBB1C4A95E7
:101D9000E1F7A82AF101A1921F01C4CF6C147D04C0
:101DA00009F4A8CF27968EAD9FAD27978C159D057A
:101DB00088F4B6016F5F7F4FC8010E94E812009758
:101DC00009F498CF25969FAF8EAF25972796DFAE63
:101DD000CEAE279729960EAD1FAD29970150110958
:101DE00017FD88CF58012FA038A42114310409F41D
:101DF00081CF2996CEACDFAC2997C114D10409F468
:101E000079CFC214D30408F475CF0C151D0520F04A
:101E10005601F1E0AF1AB10825966EAC7FAC25975C
:101E20002BA13CA163963FAF2EAF6397C3010FEF89
:101E30001FEFF301EA0DFB1D6596FFAFEEAF65974F
:101E400065962EAD3FAD65972817390790F06396DC
:101E50006EAD7FAD63970E94DE13009751F09C0139
:101E600026193709A216B30608F4980101968901CC
:101E7000E7CF17FD3FCF200E311EC301820D931D0A
:101E8000A60142195309BC018E0D9F1D0E94AE137D
:101E900029968EAD9FAD29978E0D9F1D29969FAFD8
:101EA0008EAF299725962EAD3FAD2597820F931FB4
:101EB000FC01108225968EAD9FAD259769817A81B0
:101EC0004D815E81800F911F0E94A51387CF63967D
:101ED000EEADFFAD6397E00FF11F3CCF30E2632E14
:101EE000712C80914501882309F496C06114710416
:101EF00009F492C080E00E94030180911A0290913F
:101F00001B028230910538F0880F991F880F991FA6
:101F100005970197F1F78091140281110E94D20771
:101F2000609111026E7F6093110280E00E94410770
:101F3000409115026CE072E08AE00E94750782E031
:101F40000E946307E3EDF0E0949161E070E001C06E
:101F5000660F9A95EAF7682B82E00E94410780910C
:101F60001602062D10E0811106C01091060216150A
:101F700008F4012F101B0E94190780EA0E94F30247
:101F8000809305027401015030F0F70181917F01C7
:101F90000E94F302F8CF115020F080E00E94F3027B
:101FA000FACF0E94F00281E00E9403010E94940196
:101FB0006B017C018FEF0E94C60780910502807340
:101FC000E9F40E9494016C197D098E099F0960361D
:101FD00071058105910570F382EE0E94C6070E948B
:101FE000D2078091180290911902019690931902DC
:101FF0008093180280E00E940301B1CF80E00E942C
:10200000030160E787E00E9441078091050284FD9B
:102010000E94D2070E949507CE018D5B9F4F0E94C0
:10202000AD0809CD91110C94C510803219F089507A
:102030008550C8F70895E89409C097FB3EF4909541
:102040008095709561957F4F8F4F9F4F9923A9F091
:10205000F92F96E9BB279395F69587957795679520
:10206000B795F111F8CFFAF4BB0F11F460FF1BC064
:102070006F5F7F4F8F4F9F4F16C0882311F096E9F7
:1020800011C0772321F09EE8872F762F05C06623A5
:1020900071F096E8862F70E060E02AF09A95660F5E
:1020A000771F881FDAF7880F9695879597F9089517
:1020B0000E946B100C94DF100E94D11038F00E9427
:1020C000D81020F0952311F00C94C8100C94CE1069
:1020D00011240C9413110E94F01070F3959FC1F31A
:1020E000950F50E0551F629FF001729FBB27F00DC6
:1020F000B11D639FAA27F00DB11DAA1F649F66271B
:10210000B00DA11D661F829F2227B00DA11D621F69
:10211000739FB00DA11D621F839FA00D611D221F23
:10212000749F3327A00D611D231F849F600D211D07
:10213000822F762F6A2F11249F5750409AF0F1F08A
:1021400088234AF0EE0FFF1FBB1F661F771F881FF3
:1021500091505040A9F79E3F510580F00C94C81053
:102160000C9413115F3FE4F3983ED4F38695779572
:102170006795B795F795E7959F5FC1F7FE2B880F99
:10218000911D9695879597F9089599278827089521
:1021900097F99F6780E870E060E008959FEF80EC1A
:1021A000089500240A9416161706180609060895BD
:1021B00000240A9412161306140605060895092E23
:1021C0000394000C11F4882352F0BB0F40F4BF2B92
:1021D00011F460FF04C06F5F7F4F8F4F9F4F0895D2
:1021E00057FD9058440F551F59F05F3F71F04795C8
:1021F000880F97FB991F61F09F3F79F087950895AD
:10220000121613061406551FF2CF4695F1DF08C0CB
:10221000161617061806991FF1CF869571056105E8
:1022200008940895E894BB2766277727CB0197F990
:1022300008952F923F924F925F926F927F928F926A
:102240009F92AF92BF92CF92DF92EF92FF920F9345
:102250001F93CF93DF93CDB7DEB7CA1BDB0B0FB64F
:10226000F894DEBF0FBECDBF09942A88398848880C
:102270005F846E847D848C849B84AA84B984C884A2
:10228000DF80EE80FD800C811B81AA81B981CE0F99
:10229000D11D0FB6F894DEBF0FBECDBFED0108957E
:1022A0005058BB27AA270E9468110C94DF100E9487
:1022B000D11038F00E94D81020F039F49F3F19F463
:1022C00026F40C94CE100EF4E095E7FB0C94C810A5
:1022D000E92F0E94F01058F3BA17620773078407BA
:1022E000950720F079F4A6F50C9412110EF4E09500
:1022F0000B2EBA2FA02D0B01B90190010C01CA01C0
:10230000A0011124FF27591B99F0593F50F4503E6A
:1023100068F11A16F040A22F232F342F4427585F5C
:10232000F3CF469537952795A795F0405395C9F774
:102330007EF41F16BA0B620B730B840BBAF091502C
:10234000A1F0FF0FBB1F661F771F881FC2F70EC0CB
:10235000BA0F621F731F841F48F48795779567959E
:10236000B795F7959E3F08F0B0CF9395880F08F08A
:102370009927EE0F979587950895EE0FFF1F05900B
:10238000F491E02D09940F931F93CF93DF93823044
:10239000910510F482E090E0E0912502F091260290
:1023A00030E020E0B0E0A0E0309799F4211531054D
:1023B00009F44AC0281B390B24303105D8F58A812D
:1023C0009B816115710589F1FB0193838283FE0175
:1023D00011C0408151810281138148175907E0F0F3
:1023E0004817590799F4109761F012960C931297B9
:1023F00013961C933296CF01DF91CF911F910F91CD
:1024000008950093250210932602F4CF211531057B
:1024100051F04217530738F0A901DB019A01BD01C1
:10242000DF01F801C1CFEF01F9CF9093260280932D
:102430002502CDCFFE01E20FF31F8193919322502D
:10244000310939832883D7CF209123023091240288
:10245000232B41F420910201309103013093240297
:1024600020932302209100013091010121153105B3
:1024700041F42DB73EB74091040150910501241B52
:10248000350BE0912302F0912402E217F307A0F448
:102490002E1B3F0B2817390778F0AC014E5F5F4FBA
:1024A0002417350748F04E0F5F1F509324024093C6
:1024B0002302819391939FCFF0E0E0E09CCFCF93F4
:1024C000DF930097E9F0FC01329713821282A0910A
:1024D0002502B0912602ED0130E020E01097A1F432
:1024E00020813181820F931F209123023091240299
:1024F0002817390709F061C0F0932402E093230202
:10250000DF91CF910895EA01CE17DF07E8F54A8100
:102510005B819E0141155105B1F7E901FB83EA8317
:1025200049915991C40FD51FEC17FD0761F48081C3
:1025300091810296840F951FE90199838883828196
:1025400093819B838A83F0E0E0E012968D919C91C9
:1025500013970097B9F52D913C911197CD010296F3
:10256000820F931F209123023091240228173907EC
:1025700039F6309751F51092260210922502B09349
:102580002402A0932302BCCFD383C2834081518114
:10259000840F951FC817D90761F44E5F5F4F88817C
:1025A0009981480F591F518340838A819B8193836E
:1025B00082832115310509F0B0CFF0932602E09314
:1025C00025029ECFFD01DC01C0CF13821282D7CF3E
:1025D000B0E0A0E0EEEEF2E10C941B118C0100974C
:1025E00051F4CB010E94C3118C01C801CDB7DEB7F5
:1025F000E0E10C943711FC01E60FF71F9C0122501B
:102600003109E217F30708F49DC0D901CD91DC919F
:102610001197C617D70798F0C530D10530F3CE0112
:1026200004978617970708F3C61BD70B2297C19309
:10263000D1936D937C93CF010E945F12D6CF5B0143
:10264000AC1ABD0A4C018C0E9D1EA0912502B091C2
:102650002602512C412CF12CE12C109731F5809160
:102660002302909124028815990509F05CC0461652
:10267000570608F058C08091000190910101009721
:1026800041F48DB79EB74091040150910501841B20
:10269000950BE817F90708F055C0F0932402E09372
:1026A0002302F90171836083A0CF8D919C911197D2
:1026B00012966C90129713967C901397A815B905F3
:1026C00059F56C0142E0C40ED11CCA14DB0420F1A0
:1026D000AC014A195B09DA011296159780F0628203
:1026E000738251834083D9016D937C93E114F1048B
:1026F00071F0D7011396FC93EE93129776CF229642
:102700008C0F9D1FF90191838083F301EFCFF0932C
:102710002602E093250269CF4816590608F42C01D9
:102720007D01D3019ACFCB010E94C3117C01009798
:1027300049F0AE01B8010E94A513C8010E945F12C2
:10274000870153CF10E000E050CFFB01DC0102C055
:1027500001900D9241505040D8F7089568177907BD
:1027600068F4FB01DC01E40FF51FA40FB51F02C0E4
:1027700002900E9241505040D8F708950C94A51342
:10278000FB01DC018D91019080190110D9F3990BA7
:102790000895FB01DC0101900D920020E1F70895FE
:1027A000FB01DC014150504030F08D9101908019C7
:1027B00019F40020B9F7881B990B0895FB0151917A
:1027C0005523A9F0BF01DC014D9145174111E1F7F7
:1027D00059F4CD010190002049F04D91401541116F
:1027E000C9F3FB014111EFCF81E090E0019708951B
:0427F000F894FFCF8B
:1027F4000000270280004E4D53444B00000000723D
:1028040002A001CD01BF023002DC0122020000005F
:10281400003E05DB04DF0250494E470050524F543E
:102824004F20000D0A00524144494F2053454E4465
:02283400200082
:00000001FF
