:100000000C9471010C94A2010C94A2010C94A20115
:100010000C94A2010C94A2010C94A2010C94A201D4
:100020000C94A2010C94A2010C94A2010C94A201C4
:100030000C94A2010C94A2010C94A2010C94A201B4
:100040000C94A2010C94A2010C94A2010C94A201A4
:100050000C94A2010C94A2010C94A2010C948A07A6
:100060000C94A2010C94FE070C94D4070C94A201EA
:100070000C94A2010C94A2010C94A2010C94A20174
:100080000C94A2010C94A2010C94A2010C94A20164
:100090000C94A2010C94A2010C94A2010C94A20154
:1000A0000C94A2010C94A2010C94A2010C94A20144
:1000B0000C94A2010C94A2010C94A2010C94A20134
:1000C0000C94A2010C94A2010C94A2010C94A20124
:1000D0000C94A2010C94A2010C94A2010C94A20114
:1000E0000C94A2010C9497020C9464020C947B0271
:1000F0000C949E040C948D020C9489020C94600262
:100100000C9458040C94E20C0C9491020C94660428
:100110000C944A020C9475020C9445020C9404044D
:100120000C9471020C949B020C94C0030C94EB048D
:100130000C947F020C9447080C9483020C94680280
:100140000C945C020C946B020C94F5037E306D7978
:10015000335B5F707F7B771F0D3D4F4700000000D2
:10016000000000000000000000000000000000008F
:100170000000000000000000800180007E306D79EA
:10018000335B5F707F7B00000000000000771F0D75
:100190003D4F4700370000000E00000067000000E0
:1001A00000000000000000000000000800771F0DA4
:1001B0003D4F4700370000000E00151D670000008E
:1001C00000000000000000000000000050524F54EA
:1001D0004F204F4B20320000002100240027002A2E
:1001E000002D003000330001010000040107010A66
:1001F0000100000A0B02090C0D0E080703040100A0
:1002000000000000000000000000000000000000EE
:1002100000000000000000000000000000121110AB
:1002200000000000000000000000000000000000CE
:10023000000000000000000102102020080810202B
:100240004010204080020102010804020101020462
:100250000810204080804020100804020180040221
:100260000180402010080402010804020101020478
:100270000810204080010204081020408000002265
:1002800000250028002B002E003100340002010060
:1002900000050108010B010505050507050808080B
:1002A00008020202020A0A08080404040401010107
:1002B000010101010103030303030303030407070F
:1002C000070C0C0C0C0C0C0C0C02020202060606AD
:1002D00006060606060B0B0B0B0B0B0B0B00470859
:1002E000E20C11241FBECFEFD1E2DEBFCDBF00E094
:1002F0000CBF23E0A4E8B2E001C01D92AF39B20701
:10030000E1F712E0A0E0B2E0E8E1FFE100E00BBFBE
:1003100002C007900D92A438B107D9F711E0C0E7E9
:10032000D1E000E006C021970109802FFE010E9464
:100330003A0DCF36D10780E00807A9F70E945C0983
:100340000C947A0F0C9400008F929F92AF92BF9200
:10035000CF92DF92EF92FF92CF932091870330915B
:10036000880382179307E8F54B01AA24BB24C82D04
:10037000C52ED62EE72EFF24BC2DA42F20918D0351
:10038000222361F0829E40011124C92D2C9D600121
:100390001124BD2D249FF0011124AF2FE091930370
:1003A000E0908E03F0908F0330919003E31323C00D
:1003B0009C01220F331F820F931F8E0D9F1DE09112
:1003C0009003E80FF92FF11DC083E0919103E80F2E
:1003D000F92FF11DB08320919203820F911DFC0132
:1003E000A083CF91FF90EF90DF90CF90BF90AF9020
:1003F0009F908F900895880F991F880F991F8E0DD9
:100400009F1D472F552766277727222349F030E085
:10041000249F7001259FF00C349FF00C11244F2D68
:10042000E80FF92FF11D4083CACF282F30E0F901E2
:10043000EF50FE4F9491F901E95CFD4F449129562C
:100440003D4FF9012491222309F435C0992311F17C
:1004500091509231F8F4E92FF0E08827ED5CFD4FE0
:100460008F4F0C943A0D6402680245025C026002F0
:100470004A026B02710275027B027F0283028902CB
:100480008D024A02910297029B02809180008F7731
:1004900080938000E22FF0E0EE0FFF1FE358FD4F46
:1004A000A591B4918FB7F894EC91611148C0409533
:1004B0004E234C938FBF0895809180008F7DE8CFAD
:1004C00080918000877FE4CF84B58F7784BDE2CFB1
:1004D00084B58F7DFBCF8091B0008F778093B00083
:1004E000D9CF8091B0008F7DF9CF809190008F7728
:1004F00080939000CFCF809190008F7DF9CF809135
:100500009000877FF5CF8091A0008F778093A00027
:10051000C1CF8091A0008F7DF9CF8091A000877F0F
:10052000F5CF809120018F7780932001B3CF809108
:1005300020018F7DF9CF80912001877FF5CF4E2B51
:10054000B8CFCF93DF9390E0FC01E95CFD4F24919D
:1005500089569D4FFC0184918823D1F090E0880F4B
:10056000991FFC01E952FE4FA591B491FC01E3589B
:10057000FD4FC591D49161110EC09FB7F8948C9135
:10058000E22FE0958E238C932881E223E8839FBF9E
:10059000DF91CF9108958FB7F894EC91E22BEC9313
:1005A0008FBFF6CF3FB7F89480918802909189026F
:1005B000A0918A02B0918B0226B5A89B05C02F3F5F
:1005C00019F00196A11DB11D3FBFBA2FA92F982F79
:1005D0008827BC01CD01620F711D811D911D42E074
:1005E000660F771F881F991F4A95D1F708950F93BB
:1005F0001F93CF93DF9300D000D000D0CDB7DEB7EC
:100600000E94D202009194031091950320919603C9
:1006100030919703601771078207930740F4609346
:10062000940370939503809396039093970300919E
:100630009403109195032091960330919703601BCA
:10064000710B820B930B6C32714081059105C0F2E6
:10065000F8948091890390918A039A838983E09129
:100660008E03F0918F03DF0111968081898790912D
:100670008503E0919803F091990380919A0399235F
:1006800009F445C09081982B9887908180958923A3
:100690008F838F818C8388E08B8358856F81498518
:1006A0003B812C8189819A81508347FD252F3A9582
:1006B0002083262F39F0441F00C000006083000013
:1006C00000C0F2CF38E04D9160830000019761F7E0
:1006D000F0939903E093980349873B832C839A8393
:1006E000898378940E94D202609394037093950357
:1006F000809396039093970329960FB6F894DEBFE4
:100700000FBECDBFDF91CF911F910F9108959081C2
:10071000982B98879081809589238F838F818E83F2
:1007200088E08D8358856F8149853D812E8189813F
:100730009A81508347FD252F00C000C0208300C050
:1007400000C000C000C000C060830000262F3A95A2
:1007500041F0441F000000C000C000C000C000C045
:10076000E8CF38E04D9100C0608300C0019709F7E1
:10077000F0939903E093980349873D832E83AFCF8D
:10078000AF92BF92CF92DF92EF92FF920F931F939F
:10079000CF93DF936C017B018B01040F151FEB01DD
:1007A0005E01AE18BF08C017D10759F06991D60194
:1007B000ED91FC910190F081E02DC6011995892BF6
:1007C00079F7C501DF91CF911F910F91FF90EF90C5
:1007D000DF90CF90BF90AF90089542E050E068E185
:1007E00072E080E992E00C94C003FC01538D448DCB
:1007F000252F30E0842F90E0821B930B541710F0CC
:10080000CF96089501970895FC01918D828D9817D8
:1008100061F0A28DAE0FBF2FB11D5D968C91928DB0
:100820009F5F9F73928F90E008958FEF9FEF0895E1
:100830002FB7F89480918C0290918D02A0918E0236
:10084000B0918F022FBF8093980290939902A0934A
:100850009A02B0939B0280E992E00E94040497FF01
:1008600026C02FB7F89480918C0290918D02A091B0
:100870008E02B0918F022FBF409198025091990241
:1008800060919A0270919B02841B950BA60BB70B8B
:100890004091940250919502609196027091970256
:1008A00084179507A607B707B0F28FEF9FEF08955B
:1008B000FC01918D828D981731F0828DE80FF11D2A
:1008C000858D90E008958FEF9FEF0895FC01918D45
:1008D000228D892F90E0805C9F4F821B91098F733E
:1008E0009927089580E992E00E94660421E0892B0F
:1008F00009F420E0822F0895FC01A48DA80FB92FE0
:10090000B11DA35ABF4F2C91848D90E001968F7337
:100910009927848FA689B7892C93A089B1898C9156
:10092000837080648C93938D848D981306C00288A5
:10093000F389E02D80818F7D80830895EF92FF926F
:100940000F931F93CF93DF93EC0181E0888F9B8DF2
:100950008C8D98131AC0E889F989808185FF15C0AC
:100960009FB7F894EE89FF896083E889F9898081CF
:100970008370806480839FBF81E090E0DF91CF919E
:100980001F910F91FF90EF900895F62E0B8D10E0C0
:100990000F5F1F4F0F731127E02E8C8D8E110CC02F
:1009A0000FB607FCFACFE889F989808185FFF5CF7A
:1009B000CE010E947C04F1CFEB8DEC0FFD2FF11DD9
:1009C000E35AFF4FF0829FB7F8940B8FEA89FB89B7
:1009D00080818062CFCFCF93DF93EC01888D882315
:1009E000B9F0AA89BB89E889F9898C9185FD03C092
:1009F000808186FD0DC00FB607FCF7CF8C9185FF77
:100A0000F2CF808185FFEDCFCE010E947C04E9CF3B
:100A1000DF91CF91089580E090E0892B29F00E942A
:100A2000720481110E94000080E090E0892B49F05F
:100A300080E090E0892B29F00E94000081110E9443
:100A4000000080E090E0892B49F080E090E0892B65
:100A500029F00E94000081110E94000080E090E0D7
:100A6000892B49F080E090E0892B29F00E9400005A
:100A700081110C9400000895CF92DF92EF92FF92C3
:100A80000F931F93CF93DF931F921F92CDB7DEB7C3
:100A900069834A83880F991F00918303109184030F
:100AA000000F111FEDE2F3E09F012D52334020179C
:100AB000310714F41192F8CF2981FC01E35DFC4F5A
:100AC00021838A81808360E0809181030E941502E6
:100AD0001016110604F501501109F801E35DFC4FF1
:100AE000E080D0907F03C0907D0388E0F82E6E2DCB
:100AF000661F6627661F8C2D0E941502EE0C61E0B2
:100B00008D2D0E94150260E08D2D0E941502FA9431
:100B1000F110EDCFDDCF61E0809181030F900F9058
:100B2000DF91CF911F910F91FF90EF90DF90CF90C9
:100B30000C941502EF92FF920F931F93CF937C01B9
:100B40008C0183E0000F111F8A95E1F7035C1C4FB5
:100B5000C1E0F80111928F0140E06C2FC7010E94A3
:100B60003C05CF5FC930A9F7CF911F910F91FF903E
:100B7000EF900895CF93DF93EC01888199810097DE
:100B800011F00E94DE0D198218821D821C821B82C8
:100B90001A82DF91CF910895FC01808191810097A5
:100BA00011F00C94DE0D0895CF93DF93FC012481A6
:100BB00035816217730788F49B01C081D18160E29F
:100BC00070E0CE01820F931F0E94510F009729F011
:100BD0008C1B9D0BDF91CF9108958FEF9FEFFACF84
:100BE000EF92FF920F931F93CF93DF93CDB7DEB7B2
:100BF000C854D1090FB6F894DEBF0FBECDBF7B013C
:100C00008A019AEA26969FAF269727968FAF279755
:100C100028964FAF289729961FAF299744E050E0B8
:100C2000BE016B5B7F4F80E992E00E94C003A80188
:100C3000B70180E992E00E94C00329968CAD9DAD7A
:100C4000AEADBFAD299789839A83AB83BC83C801BE
:100C5000019780349105A8F5A801B701CE0105964A
:100C60000E94480F0C5F1F4FAE014F5F5F4FFA01AC
:100C700060E07CE88191682728E030E0862F90E0F2
:100C80009595879560FF20C0682F6727215031090F
:100C9000A9F7CF01841B950B801791075CF380E9BE
:100CA00092E00E949E04C85BDF4F0FB6F894DEBF4F
:100CB0000FBECDBFDF91CF911F910F91FF90EF90AD
:100CC000089504E010E0D0CF682FE0CF0F931F937A
:100CD000CF93DF93CDB7DEB7A2970FB6F894DEBF00
:100CE0000FBECDBF198222E02A8300E010E020E091
:100CF00031E40B831C832D833E836F837887898740
:100D00009A874AE050E0BE016F5F7F4F81E40E9406
:100D1000F005A2960FB6F894DEBF0FBECDBFDF91EF
:100D2000CF911F910F910895FC01808191810097CF
:100D300011F00C94F20C60E070E0CB010895FB011F
:100D400044815581FC01248135812417350778F0D1
:100D500080819181009759F0FB016081718161155B
:100D6000710529F00E946C0F21E0892B09F020E029
:100D7000822F0895FC0124813581232B39F421E051
:100D8000FB018081882349F020E007C080819181A8
:100D90000E945C0F21E0892BB9F7822F08950F93F1
:100DA0001F93CF93DF93EC0188819981009759F0CD
:100DB0002A813B812617370730F081E0DF91CF9100
:100DC0001F910F9108958B016F5F7F4F0E94670EF7
:100DD000009759F0998388831B830A832C813D8176
:100DE000232B59F7FC011082E8CF80E0E7CFEF9288
:100DF000FF920F931F93CF93DF93EC017B01198236
:100E000018821B821A821D821C82FB010190002025
:100E1000E9F731978F01061B170BB8010E94CF0627
:100E2000811109C0CE01DF91CF911F910F91FF90E9
:100E3000EF900C94BA051D830C83B70188819981CA
:100E4000DF91CF911F910F91FF90EF900C94650F60
:100E50009F92AF92BF92CF92DF92EF92FF920F9349
:100E60001F93CF93DF937C016B015A0189012417F3
:100E7000350720F48B2D5901042F182F6AE172E0F9
:100E8000C7010E94F706D6011496CD91DC91AC16ED
:100E9000BD0650F50C171D0708F4E801D601ED91C9
:100EA000FC911197EC0FFD1F908010820D911C9109
:100EB0000A0D1B1D0115110571F0F80101900020AC
:100EC000E9F731975F01A01AB10AB501C7010E9485
:100ED000CF06811116C0C7010E94BA05D6018D91B7
:100EE0009C91C80FD91F9882C701DF91CF911F91A4
:100EF0000F91FF90EF90DF90CF90BF90AF909F90B9
:100F00000895F701B582A482B801808191810E9481
:100F1000650FE4CF1F920F920FB60F9211242F93FB
:100F20003F938F939F93AF93BF9380918C02909147
:100F30008D02A0918E02B0918F023091870223E042
:100F4000230F2D3758F50196A11DB11D209387025F
:100F500080938C0290938D02A0938E02B0938F02A7
:100F60008091880290918902A0918A02B0918B02AF
:100F70000196A11DB11D8093880290938902A093D0
:100F80008A02B0938B02BF91AF919F918F913F9155
:100F90002F910F900FBE0F901F90189526E8230FEA
:100FA0000296A11DB11DD2CF1F920F920FB60F92C4
:100FB00011240BB60F922F933F934F935F936F9330
:100FC0007F938F939F93AF93BF93EF93FF9380E9AA
:100FD00092E00E947C04FF91EF91BF91AF919F91AD
:100FE0008F917F916F915F914F913F912F910F90D2
:100FF0000BBE0F900FBE0F901F9018951F920F926F
:101000000FB60F9211240BB60F922F938F939F93CD
:10101000EF93FF93E091A002F091A1028081E09113
:10102000A602F091A70282FD1DC090818091A902C5
:101030008F5F8F732091AA02821741F0E091A9027D
:10104000F0E0E057FD4F958F8093A902FF91EF915B
:101050009F918F912F910F900BBE0F900FBE0F900D
:101060001F9018958081F2CFCF93DF93FC014481CC
:1010700055816081718180E992E00E94C003EC019A
:101080000E94ED038C0F9D1FDF91CF910895CF93A8
:10109000DF93109293021092920288EE93E0A0E008
:1010A000B0E08093940290939502A0939602B0933F
:1010B00097028AE092E0909391028093900285ECEF
:1010C00090E090939D0280939C0284EC90E090933A
:1010D0009F0280939E0280EC90E09093A102809307
:1010E000A00281EC90E09093A3028093A20282EC94
:1010F00090E09093A5028093A40286EC90E09093F8
:10110000A7028093A6021092A9021092AA0210923E
:10111000AB021092AC021092860310928D031092D3
:10112000940310929503109296031092970381E016
:1011300080939303809390031092910392E0909395
:1011400092038093850388E190E090938A038093D3
:1011500089030E94420D90938F0380938E03009722
:1011600009F49EC028E1FC0111922A95E9F788E074
:1011700090E0909388038093870386E090E09093BB
:101180008C0380938B0380918603882341F061E078
:1011900086E00E94A10260E086E00E941502EDE96F
:1011A000F2E0E491F0E0EE0FFF1FE358FD4F859170
:1011B00094919093990380939803EDE3F2E0E49186
:1011C000E0939A03CBE0D0E0D0937E03C0937D03FD
:1011D0008DE090E09093800380937F038AE090E01D
:1011E000909382038093810381E090E09093840345
:1011F0008093830361E08BE00E94A10261E0809113
:101200007F030E94A10261E0809181030E94A102FC
:1012100061E0809181030E941502D0937E03C09308
:101220007D03EDE3F3E08DE793E011928E179F07C6
:10123000E1F7D0E0C0E08091830390918403C81768
:10124000D907BCF540E06FE0CE010E943C058091DB
:10125000830390918403C817D9072CF447E06BE00F
:10126000CE010E943C0540E069E0CE010E943C05B1
:101270008091830390918403C817D9071CF4CE0191
:101280000E949A058091830390918403C817D9071F
:101290002CF440E06CE0CE010E943C052196CBCFBF
:1012A00010928A0310928903109288031092870388
:1012B00064CFDF91CF910895CF93DF93CDB7DEB7A1
:1012C0002C970FB6F894DEBF0FBECDBF789484B5CF
:1012D000826084BD84B5816084BD85B5826085BD32
:1012E00085B5816085BD80916E00816080936E00C0
:1012F00010928100809181008260809381008091B2
:101300008100816080938100809180008160809362
:1013100080008091B10084608093B1008091B00022
:1013200081608093B00080919100826080939100F1
:101330008091910081608093910080919000816004
:10134000809390008091A10082608093A1008091A1
:10135000A10081608093A1008091A00081608093B2
:10136000A000809121018260809321018091210160
:101370008160809321018091200181608093200110
:1013800080917A00846080937A0080917A008260F4
:1013900080937A0080917A00816080937A008091B6
:1013A0007A00806880937A001092C100E091A002D8
:1013B000F091A10282E08083E091A002F091A1026D
:1013C0001082E0919C02F0919D021082E0919E02B9
:1013D000F0919F0280E180831092A802E091A40224
:1013E000F091A50286E08083E091A202F091A30231
:1013F000808180618083E091A202F091A3028081CC
:1014000088608083E091A202F091A30280818068CD
:101410008083E091A202F091A30280818F7D80837E
:1014200080918B0390918C0397FD74C061E00E94C2
:10143000A10260E080918B030E94150281E08093FD
:10144000860380918E0390918F03892B11F00E9467
:10145000F70281E080938602809183039091840358
:101460001816190634F441E06CE090E080E00E9428
:101470003C0580918303909184031816190634F477
:1014800048E06AE090E080E00E943C0580918303A0
:10149000909184031816190624F490E080E00E94CD
:1014A0009A0581E08093850260E070E080E89FE328
:1014B0000E94660680E992E00E94660418161906EA
:1014C0000CF04DC06AE172E0CE0107960E94F7066B
:1014D0000E94180497FD21C08A309105F1F089839C
:1014E0001A820B851C850F5F1F4FB801CE0107962E
:1014F0000E94CF06882361F32F8138858B859C85D8
:10150000BE016F5F7F4F820F931F0E94650F1C8784
:101510000B87DECF1092860394CFCF80D884C1147E
:10152000D10431F00B851C85760101151105D9F424
:101530006BE172E0CE0107960E94BA06882309F497
:1015400048C081E0898341E050E0BE016F5F7F4F7A
:101550008FE70E94F005CE0107960E94CC050E94FD
:101560000B05A8CF750157018FEFA81AB80AF7012C
:101570008081082E000C990B0E942E0D892B91F76B
:10158000015011090C0D1D1DF8018081082E000C61
:10159000990B0E942E0D892B31F00E151F0518F0A6
:1015A00001501109F1CFA8014F5F5F4F4E195F093C
:1015B0005C874B87CE14DF0420F4B701C6010E947C
:1015C000480FEF81F8858B859C85E80FF91F108205
:1015D000AFCF60E272E0CE0101960E94F706BE0135
:1015E0006F5F7F4FCE0107960E949F06182FCE0196
:1015F00001960E94CC05112389F00CEC11E0F80152
:101600006491662341F080E992E00E949E040F5F9E
:101610001F4F892BA1F70E94ED039DCF67E272E077
:10162000CE0101960E94F706BE016F5F7F4FCE018B
:1016300007960E949F06182FCE0101960E94CC05A6
:10164000112309F49EC068E070E0CE0107960E9465
:10165000D4054C015C01FFEFAF1ABF0AB501CE0102
:1016600007960E94D4057C016C018FEFC81AD80A36
:10167000B601CE0107960E94D4058C0118141904F6
:101680000CF078C01E141F040CF074C01816190654
:101690000CF070C080918602882309F46BC094011D
:1016A00048E050E0BE01695F7F4FCE0101960E9485
:1016B0002807CE0101960E9494062B01CE010196C7
:1016C0000E94CC059701A501BE01695F7F4FCE0145
:1016D00001960E942807CE0101960E9494064B01B4
:1016E0005C01CE0101960E94CC059801A601BE01C5
:1016F000695F7F4FCE0101960E942807CE010196B7
:101700000E9494066B017C01CE0101960E94CC05DB
:101710002B853C85A8014F5F5F4FBE01695F7F4FFE
:10172000CE0101960E942807CE0101960E949406E0
:10173000162FCE0101960E94CC0557FC1BC080914C
:1017400087039091880348165906A4F4B4015527DD
:101750004427442755277727FE2CED2CDC2CCC245E
:10176000EE24FF244C295D296E297F29412BC201DB
:101770000E94A40160E070E080E090E40E946606B0
:10178000EACE60E372E0CE0107960E94BA06882393
:10179000E1F080918602882399F010E000E08091CA
:1017A0008703909188030817190750F440E050E030
:1017B00060E270E0C8010E94A4010F5F1F4FEFCFED
:1017C00060E070E080E490E4D9CF69E372E0CE019C
:1017D00007960E94BA06882389F0809186028823A2
:1017E00041F080918E0390918F03892B11F00E941C
:1017F000F70260E070E080E890E4C0CF62E472E05D
:10180000CE0107960E94BA068823A1F08091850236
:10181000882359F080918303909184031816190648
:1018200024F490E080E00E949A0560E070E080EA95
:1018300090E4A4CF6FE472E0CE0101960E94F70617
:10184000BE016F5F7F4FCE0107960E949F06182F43
:10185000CE0101960E94CC05112309F43DC02B85D1
:101860003C854CE050E0BE01695F7F4FCE010196A0
:101870000E94280780918502882319F18D819E811D
:10188000892BF9F0E981FA81309721F410928402D2
:10189000E4E8F2E08091830390918403181619061E
:1018A00084F4E081E7FDE0E20E2E000CFF0BE45B28
:1018B000FE4F449140933D0361E090E080E00E9440
:1018C0003C0560E070E080EC90E40E946606CE018A
:1018D00001960E94CC053FCE6CE572E0CE010196E8
:1018E0000E94F706BE016F5F7F4FCE0107960E94F0
:1018F0009F06182FCE0101960E94CC051123A1F05E
:101900002B853C8549E050E0BE01695F7F4FCE01E9
:1019100001960E942807CE0101960E94CC0560E046
:1019200070E080EE90E42ACF66E672E0CE01019688
:101930000E94F706BE016F5F7F4FCE0107960E949F
:101940009F06182FCE0101960E94CC051123A1F00D
:101950002B853C8549E050E0BE01695F7F4FCE0199
:1019600001960E942807CE0101960E94340860E08B
:1019700070E080E091E4A9CF60E772E0CE010796C5
:101980000E94BA06811115C06AE772E0CE01019685
:101990000E94F706BE016F5F7F4FCE0107960E943F
:1019A0009F06182FCE0101960E94CC05112309F441
:1019B000D2CDCE0107960E94340860E070E080E14D
:1019C00091E4DCCE80918E0390918F030E94DE0D16
:1019D00080918B0390918C0397FD03C060E00C9481
:1019E000A10208951F93FC0199278827BC01E89460
:1019F00011911032E9F3193010F01E30C8F31B3288
:101A000051F01D3249F4689406C00E94190D610F0F
:101A1000711D811D911D119110531A30B0F33EF4C8
:101A200090958095709561957F4F8F4F9F4F1F9137
:101A30000895592F482F372F262F660F771F881F9D
:101A4000991F660F771F881F991F620F731F841FCE
:101A5000951F660F771F881F991F089591110C9489
:101A6000370D803219F089508550C8F708959927AD
:101A700088270895EE0FFF1F881F8BBF0790F691F0
:101A8000E02D19940F931F93CF93DF93823091052C
:101A900010F482E090E0E0919D03F0919E0330E02D
:101AA00020E0B0E0A0E0309799F42115310509F469
:101AB0004AC0281B390B24303105D8F58A819B8117
:101AC0006115710589F1FB0193838283FE0111C0C9
:101AD000408151810281138148175907E0F048176E
:101AE000590799F4109761F012960C931297139678
:101AF0001C933296CF01DF91CF911F910F910895E2
:101B000000939D0310939E03F4CF2115310551F0EE
:101B10004217530738F0A901DB019A01BD01DF012B
:101B2000F801C1CFEF01F9CF90939E0380939D03FD
:101B3000CDCFFE01E20FF31F819391932250310923
:101B400039832883D7CF20919B0330919C03232B8B
:101B500041F4209102023091030230939C032093C0
:101B60009B0320910002309101022115310541F4BF
:101B70002DB73EB74091040250910502241B350B4E
:101B8000E0919B03F0919C03E217F307A0F42E1B56
:101B90003F0B2817390778F0AC014E5F5F4F2417D1
:101BA000350748F04E0F5F1F50939C0340939B03F3
:101BB000819391939FCFF0E0E0E09CCFCF93DF93B0
:101BC0000097E9F0FC01329713821282A0919D03E5
:101BD000B0919E03ED0130E020E01097A1F4208148
:101BE0003181820F931F20919B0330919C03281712
:101BF000390709F061C0F0939C03E0939B03DF91E8
:101C0000CF910895EA01CE17DF07E8F54A815B819D
:101C10009E0141155105B1F7E901FB83EA83499122
:101C20005991C40FD51FEC17FD0761F48081918194
:101C30000296840F951FE90199838883828193819D
:101C40009B838A83F0E0E0E012968D919C9113973C
:101C50000097B9F52D913C911197CD010296820F15
:101C6000931F20919B0330919C032817390739F665
:101C7000309751F510929E0310929D03B0939C03F0
:101C8000A0939B03BCCFD383C28340815181840F37
:101C9000951FC817D90761F44E5F5F4F88819981FE
:101CA000480F591F518340838A819B81938382838C
:101CB0002115310509F0B0CFF0939E03E0939D0309
:101CC0009ECFFD01DC01C0CF13821282D7CF4F928D
:101CD0005F926F927F928F929F92AF92BF92CF92BC
:101CE000DF92EF92FF920F931F93CF93DF938C01BC
:101CF000009799F4CB01DF91CF911F910F91FF9045
:101D0000EF90DF90CF90BF90AF909F908F907F909B
:101D10006F905F904F900C94420DFC01E60FF71FFF
:101D20009C0122503109E217F30708F4AEC0D90133
:101D3000CD91DC911197C617D70720F1C530D10599
:101D400078F0CE0104978617970750F0C61BD70B83
:101D50002297C193D1936D937C93CF010E94DE0DA6
:101D6000C801DF91CF911F910F91FF90EF90DF900D
:101D7000CF90BF90AF909F908F907F906F905F902B
:101D80004F9008955B01AC1ABD0A4C018C0E9D1E4C
:101D9000A0919D03B0919E03512C412CF12CE12C7C
:101DA000109731F580919B0390919C0388159905BC
:101DB00009F05CC04616570608F058C08091000232
:101DC00090910102009741F48DB79EB740910402B3
:101DD00050910502841B950BE817F90708F055C0D0
:101DE000F0939C03E0939B03F90171836083B8CF68
:101DF0008D919C91119712966C90129713967C90EE
:101E00001397A815B90559F56C0142E0C40ED11C11
:101E1000CA14DB0420F1AC014A195B09DA011296FD
:101E2000159780F06282738251834083D9016D934C
:101E30007C93E114F10471F0D7011396FC93EE93B7
:101E400012978ECF22968C0F9D1FF901918380836C
:101E5000F301EFCFF0939E03E0939D0381CF4816EB
:101E6000590608F42C017D01D3019ACFCB010E94C1
:101E7000420D7C01009749F0AE01B8010E94480F65
:101E8000C8010E94DE0D87016BCF10E000E068CF33
:101E9000FB01DC0102C001900D9241505040D8F787
:101EA0000895FC018191861721F08823D9F799279D
:101EB00008953197CF010895FB01DC018D910190C8
:101EC00080190110D9F3990B0895FB01DC010190F1
:101ED0000D920020E1F70895FB01DC0141505040D4
:101EE00030F08D910190801919F40020B9F7881B0A
:101EF000990B089511E0C0E7D1E000E006C0802F03
:101F0000FE010E943A0D2196011DC137D10780E0E4
:081F10000807A9F7F894FFCFC0
:101F180000009F038000000000009E04C003F5033A
:101F2800EB046604040458040D0A0050494E4700A7
:101F380050524F544F20004C4544205345542000E4
:101F48004C45442046494C4C004C45442053484F8E
:101F580057004D415452495820434C454152004D79
:101F6800415452495820544558542000544654204E
:101F780046494C4C2000544654205445585420009F
:101F880045504420434C4541520045504420544557
:041F98005854200079
:00000001FF
